{"abi":[{"type":"constructor","inputs":[{"name":"admin","type":"address","internalType":"address"},{"name":"destinations","type":"address[4]","internalType":"address[4]"},{"name":"weights","type":"uint16[4]","internalType":"uint16[4]"}],"stateMutability":"nonpayable"},{"type":"function","name":"DEFAULT_ADMIN_ROLE","inputs":[],"outputs":[{"name":"","type":"bytes32","internalType":"bytes32"}],"stateMutability":"view"},{"type":"function","name":"GOVERNOR_ROLE","inputs":[],"outputs":[{"name":"","type":"bytes32","internalType":"bytes32"}],"stateMutability":"view"},{"type":"function","name":"NUM_SINKS","inputs":[],"outputs":[{"name":"","type":"uint8","internalType":"uint8"}],"stateMutability":"view"},{"type":"function","name":"distributeFees","inputs":[{"name":"token","type":"address","internalType":"contract IERC20"},{"name":"amount","type":"uint256","internalType":"uint256"}],"outputs":[],"stateMutability":"nonpayable"},{"type":"function","name":"getRoleAdmin","inputs":[{"name":"role","type":"bytes32","internalType":"bytes32"}],"outputs":[{"name":"","type":"bytes32","internalType":"bytes32"}],"stateMutability":"view"},{"type":"function","name":"getRoleMember","inputs":[{"name":"role","type":"bytes32","internalType":"bytes32"},{"name":"index","type":"uint256","internalType":"uint256"}],"outputs":[{"name":"","type":"address","internalType":"address"}],"stateMutability":"view"},{"type":"function","name":"getRoleMemberCount","inputs":[{"name":"role","type":"bytes32","internalType":"bytes32"}],"outputs":[{"name":"","type":"uint256","internalType":"uint256"}],"stateMutability":"view"},{"type":"function","name":"getRoleMembers","inputs":[{"name":"role","type":"bytes32","internalType":"bytes32"}],"outputs":[{"name":"","type":"address[]","internalType":"address[]"}],"stateMutability":"view"},{"type":"function","name":"grantRole","inputs":[{"name":"role","type":"bytes32","internalType":"bytes32"},{"name":"account","type":"address","internalType":"address"}],"outputs":[],"stateMutability":"nonpayable"},{"type":"function","name":"hasRole","inputs":[{"name":"role","type":"bytes32","internalType":"bytes32"},{"name":"account","type":"address","internalType":"address"}],"outputs":[{"name":"","type":"bool","internalType":"bool"}],"stateMutability":"view"},{"type":"function","name":"renounceRole","inputs":[{"name":"role","type":"bytes32","internalType":"bytes32"},{"name":"callerConfirmation","type":"address","internalType":"address"}],"outputs":[],"stateMutability":"nonpayable"},{"type":"function","name":"revokeRole","inputs":[{"name":"role","type":"bytes32","internalType":"bytes32"},{"name":"account","type":"address","internalType":"address"}],"outputs":[],"stateMutability":"nonpayable"},{"type":"function","name":"sinks","inputs":[{"name":"","type":"uint256","internalType":"uint256"}],"outputs":[{"name":"destination","type":"address","internalType":"address"},{"name":"weightBps","type":"uint16","internalType":"uint16"}],"stateMutability":"view"},{"type":"function","name":"supportsInterface","inputs":[{"name":"interfaceId","type":"bytes4","internalType":"bytes4"}],"outputs":[{"name":"","type":"bool","internalType":"bool"}],"stateMutability":"view"},{"type":"function","name":"updateSinks","inputs":[{"name":"destinations","type":"address[4]","internalType":"address[4]"},{"name":"weights","type":"uint16[4]","internalType":"uint16[4]"}],"outputs":[],"stateMutability":"nonpayable"},{"type":"event","name":"FeesDistributed","inputs":[{"name":"token","type":"address","indexed":true,"internalType":"address"},{"name":"amount","type":"uint256","indexed":false,"internalType":"uint256"},{"name":"shares","type":"uint256[4]","indexed":false,"internalType":"uint256[4]"}],"anonymous":false},{"type":"event","name":"RoleAdminChanged","inputs":[{"name":"role","type":"bytes32","indexed":true,"internalType":"bytes32"},{"name":"previousAdminRole","type":"bytes32","indexed":true,"internalType":"bytes32"},{"name":"newAdminRole","type":"bytes32","indexed":true,"internalType":"bytes32"}],"anonymous":false},{"type":"event","name":"RoleGranted","inputs":[{"name":"role","type":"bytes32","indexed":true,"internalType":"bytes32"},{"name":"account","type":"address","indexed":true,"internalType":"address"},{"name":"sender","type":"address","indexed":true,"internalType":"address"}],"anonymous":false},{"type":"event","name":"RoleRevoked","inputs":[{"name":"role","type":"bytes32","indexed":true,"internalType":"bytes32"},{"name":"account","type":"address","indexed":true,"internalType":"address"},{"name":"sender","type":"address","indexed":true,"internalType":"address"}],"anonymous":false},{"type":"event","name":"SinksUpdated","inputs":[{"name":"actor","type":"address","indexed":true,"internalType":"address"},{"name":"oldDestinations","type":"address[4]","indexed":false,"internalType":"address[4]"},{"name":"oldWeights","type":"uint16[4]","indexed":false,"internalType":"uint16[4]"},{"name":"newDestinations","type":"address[4]","indexed":false,"internalType":"address[4]"},{"name":"newWeights","type":"uint16[4]","indexed":false,"internalType":"uint16[4]"}],"anonymous":false},{"type":"error","name":"AccessControlBadConfirmation","inputs":[]},{"type":"error","name":"AccessControlUnauthorizedAccount","inputs":[{"name":"account","type":"address","internalType":"address"},{"name":"neededRole","type":"bytes32","internalType":"bytes32"}]},{"type":"error","name":"SafeERC20FailedOperation","inputs":[{"name":"token","type":"address","internalType":"address"}]}],"bytecode":{"object":"0x608034620003f1576001600160401b0390601f6200152238819003918201601f191683019291908484118385101762000362578190604094855283398101906101208082840312620003f157620000568262000430565b60209084603f85011215620003f1576200006f62000410565b60a095909385870185838211620003f15785808901915b838310620003f5575050508260bf88011215620003f157620000a762000410565b91829701928311620003f157905b828210620003d557505050620000cb8162000480565b620003ad575b620000dc81620004f0565b62000376575b5084519460a086018681108882111762000362578152600492838752608036848901375f5b60ff8116858110156200019f576001600160a01b0362000128828562000445565b5116156200015c5760ff91816200015361ffff620001496001958c62000445565b5116918c6200046b565b52011662000107565b835162461bcd60e51b8152808701869052601760248201527f466565526f757465723a207a65726f20616464726573730000000000000000006044820152606490fd5b85838b868c898c8e5f955f965b85518810156200024b5761ffff61271081620001c98b8a6200046b565b5116116200020857620001dd89886200046b565b51168101809111620001f557600190970196620001ac565b60118a634e487b7160e01b5f525260245ffd5b875162461bcd60e51b8152808c01879052601760248201527f4665654d6174683a20776569676874203e2031303030300000000000000000006044820152606490fd5b898794956127108b930362000320575f5b60ff81168381101562000311576001600160a01b0361ffff6200028f8262000285858a62000445565b5116938c62000445565b5116908951928a84018481108a821117620002fe578b52835284830191825285841015620002eb57915160028401805492516001600160b01b0319909316919093161790881b61ffff60a01b1617905560010160ff166200025c565b603286634e487b7160e01b5f525260245ffd5b604188634e487b7160e01b5f525260245ffd5b8751610ee49081620005de8239f35b855162461bcd60e51b815291820152601960248201527f4665654d6174683a207765696768747320213d20313030303000000000000000604482015260649150fd5b634e487b7160e01b5f52604160045260245ffd5b5f80516020620014e28339815191525f90815260018352869020620003a5916001600160a01b0316906200057e565b505f620000e2565b5f80805260018352869020620003ce906001600160a01b038316906200057e565b50620000d1565b815161ffff81168103620003f1578152908401908401620000b5565b5f80fd5b8190620004028462000430565b815201910190869062000086565b60405190608082016001600160401b038111838210176200036257604052565b51906001600160a01b0382168203620003f157565b906004811015620004575760051b0190565b634e487b7160e01b5f52603260045260245ffd5b8051821015620004575760209160051b010190565b6001600160a01b03165f8181525f8051602062001502833981519152602052604090205460ff16620004eb575f8181525f805160206200150283398151915260205260408120805460ff191660011790553391905f80516020620014c28339815191528180a4600190565b505f90565b6001600160a01b03165f8181527f6f3b488caa0dc03e5f3d9fd6a25fa8755afcfd62ccffb6e436c696bfa6b866de60205260409020545f80516020620014e2833981519152919060ff166200057857815f525f60205260405f20815f5260205260405f20600160ff1982541617905533915f80516020620014c28339815191525f80a4600190565b50505f90565b6001810190825f528160205260405f2054155f14620005d65780546801000000000000000081101562000362576001810180835581101562000457578390825f5260205f20015554915f5260205260405f2055600190565b5050505f9056fe6080806040526004361015610012575f80fd5b5f3560e01c90816301ffc9a714610a7f57508063248a9ca314610a535780632f2ff15d146109ef57806336568abe146109a857806348fef595146108155780636e8ab2d61461033f5780639010d07c146102fa57806391d14854146102b257806397764a551461026f578063a217fddf14610255578063a3246ad314610182578063ca15c87314610158578063ccc574901461011e578063d547741f146100e05763f046a183146100c1575f80fd5b346100dc575f3660031901126100dc57602060405160048152f35b5f80fd5b346100dc5760403660031901126100dc5761011c6004356100ff610aec565b90805f525f602052610117600160405f200154610b8a565b610bab565b005b346100dc575f3660031901126100dc5760206040517f7935bd0ae54bc31f548c14dba4d37c5c64b3f8ca900cb468fb8abd54d5894f558152f35b346100dc5760203660031901126100dc576004355f526001602052602060405f2054604051908152f35b346100dc576020806003193601126100dc576004355f526001906001815260405f20604051828181845491828152019081945f52825f2090875f5b8281106102405750505050829003601f01601f1916820193905067ffffffffffffffff84118285101761022c5760408481528185529151848201819052918401949291905f5b8281106102105785870386f35b83516001600160a01b0316875295810195928101928401610203565b634e487b7160e01b5f52604160045260245ffd5b835485528895909401939281019281016101bd565b346100dc575f3660031901126100dc5760206040515f8152f35b346100dc5760203660031901126100dc5760043560048110156100dc5760020154604080516001600160a01b038316815260a09290921c61ffff16602083015290f35b346100dc5760403660031901126100dc576102cb610aec565b6004355f525f60205260405f209060018060a01b03165f52602052602060ff60405f2054166040519015158152f35b346100dc5760403660031901126100dc576004355f526001602052602061032660243560405f20610d65565b905460405160039290921b1c6001600160a01b03168152f35b346100dc576101003660031901126100dc57366084116100dc576101043681116100dc57335f9081527f6f3b488caa0dc03e5f3d9fd6a25fa8755afcfd62ccffb6e436c696bfa6b866de60205260409020547f7935bd0ae54bc31f548c14dba4d37c5c64b3f8ca900cb468fb8abd54d5894f559060ff16156107f75750604051906103c982610b02565b60803683376040516103da81610b02565b60803682375f5b60ff8116600481101561044257600482101561042e578160019161042661ffff60ff9560020154858060a01b03811661041a858c610b1e565b5260a01c169186610b1e565b5201166103e1565b634e487b7160e01b5f52603260045260245ffd5b83858460405161045181610b02565b6004815b608482106107d75750506040519361046c85610b02565b608490855b8183106107bc575050506040519060a0820182811067ffffffffffffffff82111761022c576040526004825260803660208401375f5b60ff81166004811015610539576001600160a01b036104c68285610b1e565b5116156104f45760ff91816104ec61ffff6104e36001958c610b1e565b51169187610c63565b5201166104a7565b60405162461bcd60e51b815260206004820152601760248201527f466565526f757465723a207a65726f20616464726573730000000000000000006044820152606490fd5b50509192845f945f955b84518710156105dd5761ffff6127108161055d8a89610c63565b5116116105985761056e8887610c63565b5116810180911161058457600190960195610543565b634e487b7160e01b5f52601160045260245ffd5b60405162461bcd60e51b815260206004820152601760248201527f4665654d6174683a20776569676874203e2031303030300000000000000000006044820152606490fd5b612710869103610777575f5b60ff8116600481101561068e5761ffff6106176001600160a01b0361060e8487610b1e565b51169287610b1e565b51166040519182604081011067ffffffffffffffff60408501111761022c576040830160405282526020820152600482101561042e578160019160ff9360020190838060a01b03815116825491602061ffff60a01b91015160a01b169169ffffffffffffffffffff60b01b161717905501166105e9565b604051848761069c83610b02565b6080368437604051926106ae84610b02565b60803685375f5b60ff8116600481101561071557611fe0600583901b1660048101356001600160a01b038116908190036100dc576106ec8386610b1e565b52608401359161ffff83168093036100dc5760ff9261070d60019389610b1e565b5201166106b5565b60405161074e87610743866107388a61072e878c610b2f565b6080870190610b5f565b610100850190610b2f565b610180830190610b5f565b7f877916382d09e958606d664d1711a13fe73ffa758e535d54502575d9708c060d6102003392a2005b60405162461bcd60e51b815260206004820152601960248201527f4665654d6174683a207765696768747320213d203130303030000000000000006044820152606490fd5b823561ffff811681036100dc57815260209283019201610471565b81356001600160a01b03811681036100dc57815260209182019101610455565b6044906040519063e2517d3f60e01b82523360048301526024820152fd5b346100dc5760403660031901126100dc576001600160a01b03600435818116908181036100dc57602492602435801561096a57806040519561085687610b02565b60803688375f5b60ff81169260038410156108ff5760048210156108ec5781600201549361ffff8560a01c1680870290878204036108d957906127106108a19392049283918c610b1e565b528181039081116108c657916108bf6001928860ff9597168a610be5565b011661085d565b83634e487b7160e01b5f5260116004525ffd5b84634e487b7160e01b5f5260116004525ffd5b82634e487b7160e01b5f5260326004525ffd5b84896109188a938a8a8260608601526005541690610be5565b60405191825260205f8184015b6004821061095557857ff9f3f374a822a7dd77ca728357400b7217010147a2b199de44f08a0cdfa9f56a60a087a2005b82806001928651815201940191019092610925565b60405162461bcd60e51b8152602060048201526016602482015275119959549bdd5d195c8e881e995c9bc8185b5bdd5b9d60521b6044820152606490fd5b346100dc5760403660031901126100dc576109c1610aec565b336001600160a01b038216036109dd5761011c90600435610bab565b60405163334bd91960e11b8152600490fd5b346100dc5760403660031901126100dc57600435610a0b610aec565b815f525f602052610a22600160405f200154610b8a565b610a2c8183610c77565b610a3257005b5f9182526001602052604090912061011c916001600160a01b031690610d7a565b346100dc5760203660031901126100dc576004355f525f6020526020600160405f200154604051908152f35b346100dc5760203660031901126100dc576004359063ffffffff60e01b82168092036100dc57602091635a05180f60e01b8114908115610ac1575b5015158152f35b637965db0b60e01b811491508115610adb575b5083610aba565b6301ffc9a760e01b14905083610ad4565b602435906001600160a01b03821682036100dc57565b6080810190811067ffffffffffffffff82111761022c57604052565b90600481101561042e5760051b0190565b5f915b60048310610b3f57505050565b81516001600160a01b031681526001929092019160209182019101610b32565b5f915b60048310610b6f57505050565b60019061ffff83511681526020809101920192019190610b62565b805f525f60205260405f20335f5260205260ff60405f205416156107f75750565b610bb58282610cf3565b9182610bc057505090565b5f91825260016020526040909120610be1916001600160a01b031690610de9565b5090565b60405163a9059cbb60e01b5f9081526001600160a01b039384166004526024949094529260209060448180855af160015f5114811615610c44575b8360405215610c2e57505050565b635274afe760e01b835216600482015260249150fd5b6001811516610c5a57813b15153d151616610c20565b833d5f823e3d90fd5b805182101561042e5760209160051b010190565b90815f525f60205260405f209060018060a01b031690815f5260205260ff60405f205416155f14610ced57815f525f60205260405f20815f5260205260405f20600160ff1982541617905533917f2f8788117e7eff1d82e926ec794901d17c78024a50270940304540a733656f0d5f80a4600190565b50505f90565b90815f525f60205260405f209060018060a01b031690815f5260205260ff60405f2054165f14610ced57815f525f60205260405f20815f5260205260405f2060ff19815416905533917ff6391f5c32d9c69d2a47ea670b442974b53935d1edc7fd64eb21e047a839171b5f80a4600190565b805482101561042e575f5260205f2001905f90565b6001810190825f528160205260405f2054155f14610de25780546801000000000000000081101561022c57610dcf610db9826001879401855584610d65565b819391549060031b91821b915f19901b19161790565b905554915f5260205260405f2055600190565b5050505f90565b906001820191815f528260205260405f2054908115155f14610ea6575f19918083018181116105845782549084820191821161058457818103610e71575b50505080548015610e5d57820191610e3f8383610d65565b909182549160031b1b19169055555f526020525f6040812055600190565b634e487b7160e01b5f52603160045260245ffd5b610e91610e81610db99386610d65565b90549060031b1c92839286610d65565b90555f528460205260405f20555f8080610e27565b505050505f9056fea264697066735822122053cf2b9621786300a3a1655db4952453dedd60b2bbe67f2ce8b475636a89be7e64736f6c634300081800332f8788117e7eff1d82e926ec794901d17c78024a50270940304540a733656f0d7935bd0ae54bc31f548c14dba4d37c5c64b3f8ca900cb468fb8abd54d5894f55ad3228b676f7d3cd4284a5443f17f1962b36e491b30a40b2405849e597ba5fb5","linkReferences":{}},"methodIdentifiers":{"DEFAULT_ADMIN_ROLE()":"a217fddf","GOVERNOR_ROLE()":"ccc57490","NUM_SINKS()":"f046a183","distributeFees(address,uint256)":"48fef595","getRoleAdmin(bytes32)":"248a9ca3","getRoleMember(bytes32,uint256)":"9010d07c","getRoleMemberCount(bytes32)":"ca15c873","getRoleMembers(bytes32)":"a3246ad3","grantRole(bytes32,address)":"2f2ff15d","hasRole(bytes32,address)":"91d14854","renounceRole(bytes32,address)":"36568abe","revokeRole(bytes32,address)":"d547741f","sinks(uint256)":"97764a55","supportsInterface(bytes4)":"01ffc9a7","updateSinks(address[4],uint16[4])":"6e8ab2d6"},"id":80}