{"abi":[{"type":"constructor","inputs":[{"name":"admin","type":"address","internalType":"address"}],"stateMutability":"nonpayable"},{"type":"function","name":"DEFAULT_ADMIN_ROLE","inputs":[],"outputs":[{"name":"","type":"bytes32","internalType":"bytes32"}],"stateMutability":"view"},{"type":"function","name":"WITHDRAWER_ROLE","inputs":[],"outputs":[{"name":"","type":"bytes32","internalType":"bytes32"}],"stateMutability":"view"},{"type":"function","name":"getRoleAdmin","inputs":[{"name":"role","type":"bytes32","internalType":"bytes32"}],"outputs":[{"name":"","type":"bytes32","internalType":"bytes32"}],"stateMutability":"view"},{"type":"function","name":"getRoleMember","inputs":[{"name":"role","type":"bytes32","internalType":"bytes32"},{"name":"index","type":"uint256","internalType":"uint256"}],"outputs":[{"name":"","type":"address","internalType":"address"}],"stateMutability":"view"},{"type":"function","name":"getRoleMemberCount","inputs":[{"name":"role","type":"bytes32","internalType":"bytes32"}],"outputs":[{"name":"","type":"uint256","internalType":"uint256"}],"stateMutability":"view"},{"type":"function","name":"getRoleMembers","inputs":[{"name":"role","type":"bytes32","internalType":"bytes32"}],"outputs":[{"name":"","type":"address[]","internalType":"address[]"}],"stateMutability":"view"},{"type":"function","name":"grantRole","inputs":[{"name":"role","type":"bytes32","internalType":"bytes32"},{"name":"account","type":"address","internalType":"address"}],"outputs":[],"stateMutability":"nonpayable"},{"type":"function","name":"hasRole","inputs":[{"name":"role","type":"bytes32","internalType":"bytes32"},{"name":"account","type":"address","internalType":"address"}],"outputs":[{"name":"","type":"bool","internalType":"bool"}],"stateMutability":"view"},{"type":"function","name":"renounceRole","inputs":[{"name":"role","type":"bytes32","internalType":"bytes32"},{"name":"callerConfirmation","type":"address","internalType":"address"}],"outputs":[],"stateMutability":"nonpayable"},{"type":"function","name":"revokeRole","inputs":[{"name":"role","type":"bytes32","internalType":"bytes32"},{"name":"account","type":"address","internalType":"address"}],"outputs":[],"stateMutability":"nonpayable"},{"type":"function","name":"supportsInterface","inputs":[{"name":"interfaceId","type":"bytes4","internalType":"bytes4"}],"outputs":[{"name":"","type":"bool","internalType":"bool"}],"stateMutability":"view"},{"type":"function","name":"withdraw","inputs":[{"name":"token","type":"address","internalType":"contract IERC20"},{"name":"to","type":"address","internalType":"address"},{"name":"amount","type":"uint256","internalType":"uint256"}],"outputs":[],"stateMutability":"nonpayable"},{"type":"event","name":"RoleAdminChanged","inputs":[{"name":"role","type":"bytes32","indexed":true,"internalType":"bytes32"},{"name":"previousAdminRole","type":"bytes32","indexed":true,"internalType":"bytes32"},{"name":"newAdminRole","type":"bytes32","indexed":true,"internalType":"bytes32"}],"anonymous":false},{"type":"event","name":"RoleGranted","inputs":[{"name":"role","type":"bytes32","indexed":true,"internalType":"bytes32"},{"name":"account","type":"address","indexed":true,"internalType":"address"},{"name":"sender","type":"address","indexed":true,"internalType":"address"}],"anonymous":false},{"type":"event","name":"RoleRevoked","inputs":[{"name":"role","type":"bytes32","indexed":true,"internalType":"bytes32"},{"name":"account","type":"address","indexed":true,"internalType":"address"},{"name":"sender","type":"address","indexed":true,"internalType":"address"}],"anonymous":false},{"type":"event","name":"Withdrawn","inputs":[{"name":"token","type":"address","indexed":true,"internalType":"address"},{"name":"to","type":"address","indexed":true,"internalType":"address"},{"name":"amount","type":"uint256","indexed":false,"internalType":"uint256"},{"name":"actor","type":"address","indexed":true,"internalType":"address"}],"anonymous":false},{"type":"error","name":"AccessControlBadConfirmation","inputs":[]},{"type":"error","name":"AccessControlUnauthorizedAccount","inputs":[{"name":"account","type":"address","internalType":"address"},{"name":"neededRole","type":"bytes32","internalType":"bytes32"}]},{"type":"error","name":"SafeERC20FailedOperation","inputs":[{"name":"token","type":"address","internalType":"address"}]}],"bytecode":{"object":"0x60803461010c57601f610b7338819003918201601f19168301916001600160401b038311848410176101105780849260209460405283398101031261010c57516001600160a01b0381169081810361010c578061005e61006792610124565b6100d457610190565b61007b575b604051610894908161029f8239f35b7f10dac8c06a04bec0b551627dad28bc00d6516b0caacd1c7b345fcdb5211334e45f5260016020526100cd907f55183b8ac4a82f4a7e1e58b6f4191216f6e4ec65d5c848685f0148e75403eba061022e565b505f61006c565b5f80526001602052610106837fa6eef7e35abe7026729641147f7915573c7e97b47efa546f5f6e3230263bcb4961022e565b50610190565b5f80fd5b634e487b7160e01b5f52604160045260245ffd5b6001600160a01b03165f8181525f80516020610b53833981519152602052604090205460ff1661018b575f8181525f80516020610b5383398151915260205260408120805460ff191660011790553391905f80516020610b338339815191528180a4600190565b505f90565b6001600160a01b03165f8181527f10d7f32a6930100c7e03899d583513ff548ac958e569f497049662337b6f49b960205260409020547f10dac8c06a04bec0b551627dad28bc00d6516b0caacd1c7b345fcdb5211334e4919060ff1661022857815f525f60205260405f20815f5260205260405f20600160ff1982541617905533915f80516020610b338339815191525f80a4600190565b50505f90565b6001810190825f528160205260405f2054155f14610297578054680100000000000000008110156101105760018101808355811015610283578390825f5260205f20015554915f5260205260405f2055600190565b634e487b7160e01b5f52603260045260245ffd5b5050505f9056fe608060409080825260049081361015610016575f80fd5b5f3560e01c90816301ffc9a7146104f057508063248a9ca3146104c65780632f2ff15d1461046557806336568abe1461042057806385f438c1146103e65780639010d07c146103a657806391d1485414610362578063a217fddf14610348578063a3246ad314610276578063ca15c8731461024e578063d547741f146102125763d9caed12146100a4575f80fd5b3461020e57606036600319011261020e576001600160a01b03918135838116919082810361020e576100d461055c565b94604435957f10dac8c06a04bec0b551627dad28bc00d6516b0caacd1c7b345fcdb5211334e4805f525f602052845f20335f5260205260ff855f205416156101f05750169384156101b55782519163a9059cbb60e01b5f528582528660245260205f60448180855af19060015f5114821615610196575b5082845215610182575050519283527f889d364b5102aee044ff370e2e6a836584e5618a16dce4f5b191459cf3903e5860203394a4005b635274afe760e01b82528101839052602490fd5b60018215166101ac573b15153d1516165f61014b565b833d5f823e3d90fd5b606490602084519162461bcd60e51b8352820152601560248201527446656553696e6b3a207a65726f206164647265737360581b6044820152fd5b845163e2517d3f60e01b815233818901526024810191909152604490fd5b5f80fd5b50903461020e578060031936011261020e5761024c9135610247600161023661055c565b93835f525f6020525f200154610572565b6105b1565b005b50903461020e57602036600319011261020e57602091355f5260018252805f20549051908152f35b503461020e5760208060031936011261020e5781355f5260019260018252805f2091815191818381865491828152019081965f52825f2090895f5b8281106103335750505050849003601f01601f1916840195905067ffffffffffffffff8611848710176103205750848152818552915184820181905291840192849286925f5b8281106103045785870386f35b83516001600160a01b03168752958101959281019284016102f7565b604190634e487b7160e01b5f525260245ffd5b835485528795909401939281019281016102b1565b823461020e575f36600319011261020e57602090515f8152f35b50903461020e578060031936011261020e5760209161037f61055c565b90355f525f8352815f209060018060a01b03165f52825260ff815f20541690519015158152f35b50903461020e578060031936011261020e57602091355f52600182526103d0602435825f206106d9565b905491519160018060a01b039160031b1c168152f35b823461020e575f36600319011261020e57602090517f10dac8c06a04bec0b551627dad28bc00d6516b0caacd1c7b345fcdb5211334e48152f35b50903461020e578060031936011261020e5761043a61055c565b90336001600160a01b03831603610456575061024c91356105b1565b5163334bd91960e11b81529050fd5b503461020e578160031936011261020e57359061048061055c565b90825f525f6020526104976001825f200154610572565b6104a182846105eb565b6104a757005b5f928352600160205290912061024c916001600160a01b031690610702565b50903461020e57602036600319011261020e57602091355f525f82526001815f2001549051908152f35b823461020e57602036600319011261020e57359063ffffffff60e01b821680920361020e57602091635a05180f60e01b8114908115610531575b5015158152f35b637965db0b60e01b81149150811561054b575b508361052a565b6301ffc9a760e01b14905083610544565b602435906001600160a01b038216820361020e57565b805f525f60205260405f20335f5260205260ff60405f205416156105935750565b6044906040519063e2517d3f60e01b82523360048301526024820152fd5b6105bb8282610667565b91826105c657505090565b5f918252600160205260409091206105e7916001600160a01b031690610785565b5090565b90815f525f60205260405f209060018060a01b031690815f5260205260ff60405f205416155f1461066157815f525f60205260405f20815f5260205260405f20600160ff1982541617905533917f2f8788117e7eff1d82e926ec794901d17c78024a50270940304540a733656f0d5f80a4600190565b50505f90565b90815f525f60205260405f209060018060a01b031690815f5260205260ff60405f2054165f1461066157815f525f60205260405f20815f5260205260405f2060ff19815416905533917ff6391f5c32d9c69d2a47ea670b442974b53935d1edc7fd64eb21e047a839171b5f80a4600190565b80548210156106ee575f5260205f2001905f90565b634e487b7160e01b5f52603260045260245ffd5b6001810190825f528160205260405f2054155f1461077e5780546801000000000000000081101561076a576107576107418260018794018555846106d9565b819391549060031b91821b915f19901b19161790565b905554915f5260205260405f2055600190565b634e487b7160e01b5f52604160045260245ffd5b5050505f90565b906001820191815f528260205260405f2054908115155f14610856575f1991808301818111610842578254908482019182116108425781810361080d575b505050805480156107f9578201916107db83836106d9565b909182549160031b1b19169055555f526020525f6040812055600190565b634e487b7160e01b5f52603160045260245ffd5b61082d61081d61074193866106d9565b90549060031b1c928392866106d9565b90555f528460205260405f20555f80806107c3565b634e487b7160e01b5f52601160045260245ffd5b505050505f9056fea2646970667358221220a3f39a1e1e7ccd8c16171515d66a5b1b21bf74e2147e3fe936d62bfa4662483764736f6c634300081800332f8788117e7eff1d82e926ec794901d17c78024a50270940304540a733656f0dad3228b676f7d3cd4284a5443f17f1962b36e491b30a40b2405849e597ba5fb5","linkReferences":{}},"methodIdentifiers":{"DEFAULT_ADMIN_ROLE()":"a217fddf","WITHDRAWER_ROLE()":"85f438c1","getRoleAdmin(bytes32)":"248a9ca3","getRoleMember(bytes32,uint256)":"9010d07c","getRoleMemberCount(bytes32)":"ca15c873","getRoleMembers(bytes32)":"a3246ad3","grantRole(bytes32,address)":"2f2ff15d","hasRole(bytes32,address)":"91d14854","renounceRole(bytes32,address)":"36568abe","revokeRole(bytes32,address)":"d547741f","supportsInterface(bytes4)":"01ffc9a7","withdraw(address,address,uint256)":"d9caed12"},"id":90}