{"abi":[{"type":"constructor","inputs":[{"name":"_cl8yToken","type":"address","internalType":"contract IERC20"},{"name":"_registrationBurnAmount","type":"uint256","internalType":"uint256"}],"stateMutability":"nonpayable"},{"type":"function","name":"BURN_ADDRESS","inputs":[],"outputs":[{"name":"","type":"address","internalType":"address"}],"stateMutability":"view"},{"type":"function","name":"cl8yToken","inputs":[],"outputs":[{"name":"","type":"address","internalType":"contract IERC20"}],"stateMutability":"view"},{"type":"function","name":"codeOwner","inputs":[{"name":"codeHash","type":"bytes32","internalType":"bytes32"}],"outputs":[{"name":"owner","type":"address","internalType":"address"}],"stateMutability":"view"},{"type":"function","name":"hashCode","inputs":[{"name":"code","type":"string","internalType":"string"}],"outputs":[{"name":"","type":"bytes32","internalType":"bytes32"}],"stateMutability":"pure"},{"type":"function","name":"ownerCode","inputs":[{"name":"owner","type":"address","internalType":"address"}],"outputs":[{"name":"codeHash","type":"bytes32","internalType":"bytes32"}],"stateMutability":"view"},{"type":"function","name":"ownerOfCode","inputs":[{"name":"codeHash","type":"bytes32","internalType":"bytes32"}],"outputs":[{"name":"owner","type":"address","internalType":"address"}],"stateMutability":"view"},{"type":"function","name":"registerCode","inputs":[{"name":"code","type":"string","internalType":"string"}],"outputs":[],"stateMutability":"nonpayable"},{"type":"function","name":"registrationBurnAmount","inputs":[],"outputs":[{"name":"","type":"uint256","internalType":"uint256"}],"stateMutability":"view"},{"type":"event","name":"ReferralCodeRegistered","inputs":[{"name":"owner","type":"address","indexed":true,"internalType":"address"},{"name":"codeHash","type":"bytes32","indexed":true,"internalType":"bytes32"},{"name":"normalizedCode","type":"string","indexed":false,"internalType":"string"}],"anonymous":false},{"type":"error","name":"SafeERC20FailedOperation","inputs":[{"name":"token","type":"address","internalType":"address"}]}],"bytecode":{"object":"0x60c03461011f57601f6107d738819003918201601f19168301916001600160401b0383118484101761012357808492604094855283398101031261011f5780516001600160a01b0381169182820361011f576020015191156100da5781156100955760805260a05260405161069f9081610138823960805181818160ea0152610355015260a05181818161012201526103c90152f35b60405162461bcd60e51b815260206004820152601b60248201527f526566657272616c52656769737472793a207a65726f206275726e00000000006044820152606490fd5b60405162461bcd60e51b815260206004820152601b60248201527f526566657272616c52656769737472793a207a65726f20434c385900000000006044820152606490fd5b5f80fd5b634e487b7160e01b5f52604160045260245ffdfe604060808152600480361015610013575f80fd5b5f3560e01c9081630b8ab9ee146103ec57816311ad2f34146103845781635c3650ba146103b2578163711bf87914610384578163af1932f014610341578163b9d6948c14610306578163e177bb9b14610094575063fccc281314610075575f80fd5b34610090575f366003190112610090576020905161dead8152f35b5f80fd5b8234610090576100ac6100a63661040e565b9061047d565b90815190602091828401209384156102c5575f858152808452829020546001600160a01b039190821661028257335f5260018452825f2054610233577f0000000000000000000000000000000000000000000000000000000000000000918351926323b872dd60e01b5f5233835261dead6024527f0000000000000000000000000000000000000000000000000000000000000000604452855f60648180855af160015f5114811615610214575b8486525f606052156101ff5750505050835f525f8252805f20336bffffffffffffffffffffffff60a01b825416179055335f526001825283815f205580519180835283519384828501525f5b8581106101ec5750505090815f7f1c3e85fefbad16813258f1ddf4492950b7ae7b9f8a7a14bc042be277a8106f19938584010152813394601f80199101168101030190a3005b81810183015185820185015282016101a6565b635274afe760e01b8452169082015260249150fd5b600181151661022a57813b15153d15161661015a565b843d5f823e3d90fd5b825162461bcd60e51b81529081018490526024808201527f526566657272616c52656769737472793a20616c726561647920726567697374604482015263195c995960e21b6064820152608490fd5b825162461bcd60e51b8152908101849052601c60248201527f526566657272616c52656769737472793a20636f64652074616b656e000000006044820152606490fd5b82606492519162461bcd60e51b8352820152601e60248201527f526566657272616c52656769737472793a20696e76616c696420636f646500006044820152fd5b90503461009057602036600319011261009057356001600160a01b0381169190829003610090576020915f5260018252805f20549051908152f35b8234610090575f36600319011261009057517f00000000000000000000000000000000000000000000000000000000000000006001600160a01b03168152602090f35b823461009057602036600319011261009057602091355f525f825260018060a01b03815f2054169051908152f35b8234610090575f36600319011261009057602090517f00000000000000000000000000000000000000000000000000000000000000008152f35b8234610090576020906104016100a63661040e565b8281519101209051908152f35b9060206003198301126100905760043567ffffffffffffffff9283821161009057806023830112156100905781600401359384116100905760248483010111610090576024019190565b908151811015610469570160200190565b634e487b7160e01b5f52603260045260245ffd5b9067ffffffffffffffff9081811161065557601f199060409260405192603f81601f85011601168301908382109082111761065557604052808252602093368282011161009057815f928692838601378301015280815160038110159081610649575b5015610606575f5b82518110156105fe576104fb8184610458565b5160f890811c866041821015806105f3575b6105b3575b5060ff915016606181101590816105a7575b8115610587575b5015610539576001016104e8565b835162461bcd60e51b815260048101869052602160248201527f526566657272616c52656769737472793a20696e76616c6964206368617273656044820152601d60fa1b6064820152608490fd5b603081101591508161059b575b505f61052b565b6039915011155f610594565b607a8111159150610524565b0160ff81116105df5760ff9181901b6001600160f81b0319165f1a6105d88487610458565b5386610512565b634e487b7160e01b5f52601160045260245ffd5b50605a82111561050d565b509392505050565b6064846040519062461bcd60e51b825280600483015260248201527f526566657272616c52656769737472793a20696e76616c6964206c656e6774686044820152fd5b6010915011155f6104e0565b634e487b7160e01b5f52604160045260245ffdfea264697066735822122088ed327f547cf17ba024795351fb428f12f7dfa63a7e60d0d9a4b61c8151817b64736f6c63430008180033","linkReferences":{}},"methodIdentifiers":{"BURN_ADDRESS()":"fccc2813","cl8yToken()":"af1932f0","codeOwner(bytes32)":"11ad2f34","hashCode(string)":"0b8ab9ee","ownerCode(address)":"b9d6948c","ownerOfCode(bytes32)":"711bf879","registerCode(string)":"e177bb9b","registrationBurnAmount()":"5c3650ba"},"id":83}