{"abi":[{"type":"constructor","inputs":[{"name":"_acceptedAsset","type":"address","internalType":"contract IERC20"},{"name":"_launchedToken","type":"address","internalType":"contract IERC20"},{"name":"_feeRouter","type":"address","internalType":"contract FeeRouter"},{"name":"_prizeVault","type":"address","internalType":"contract PrizeVault"},{"name":"_initialMinBuy","type":"uint256","internalType":"uint256"},{"name":"_growthRateWad","type":"uint256","internalType":"uint256"},{"name":"_purchaseCapMultiple","type":"uint256","internalType":"uint256"},{"name":"_timerExtensionSec","type":"uint256","internalType":"uint256"},{"name":"_timerCapSec","type":"uint256","internalType":"uint256"},{"name":"_totalTokensForSale","type":"uint256","internalType":"uint256"},{"name":"_openingWindowSec","type":"uint256","internalType":"uint256"},{"name":"_closingWindowSec","type":"uint256","internalType":"uint256"}],"stateMutability":"nonpayable"},{"type":"function","name":"CAT_BIGGEST_BUY","inputs":[],"outputs":[{"name":"","type":"uint8","internalType":"uint8"}],"stateMutability":"view"},{"type":"function","name":"CAT_CLOSING_WINDOW","inputs":[],"outputs":[{"name":"","type":"uint8","internalType":"uint8"}],"stateMutability":"view"},{"type":"function","name":"CAT_HIGHEST_CUMULATIVE","inputs":[],"outputs":[{"name":"","type":"uint8","internalType":"uint8"}],"stateMutability":"view"},{"type":"function","name":"CAT_LAST_BUYERS","inputs":[],"outputs":[{"name":"","type":"uint8","internalType":"uint8"}],"stateMutability":"view"},{"type":"function","name":"CAT_MOST_BUYS","inputs":[],"outputs":[{"name":"","type":"uint8","internalType":"uint8"}],"stateMutability":"view"},{"type":"function","name":"CAT_OPENING_WINDOW","inputs":[],"outputs":[{"name":"","type":"uint8","internalType":"uint8"}],"stateMutability":"view"},{"type":"function","name":"NUM_CATEGORIES","inputs":[],"outputs":[{"name":"","type":"uint8","internalType":"uint8"}],"stateMutability":"view"},{"type":"function","name":"acceptedAsset","inputs":[],"outputs":[{"name":"","type":"address","internalType":"contract IERC20"}],"stateMutability":"view"},{"type":"function","name":"allocationClaimed","inputs":[{"name":"","type":"address","internalType":"address"}],"outputs":[{"name":"","type":"bool","internalType":"bool"}],"stateMutability":"view"},{"type":"function","name":"biggestSingleBuy","inputs":[{"name":"","type":"address","internalType":"address"}],"outputs":[{"name":"","type":"uint256","internalType":"uint256"}],"stateMutability":"view"},{"type":"function","name":"buy","inputs":[{"name":"amount","type":"uint256","internalType":"uint256"}],"outputs":[],"stateMutability":"nonpayable"},{"type":"function","name":"buyCount","inputs":[{"name":"","type":"address","internalType":"address"}],"outputs":[{"name":"","type":"uint256","internalType":"uint256"}],"stateMutability":"view"},{"type":"function","name":"claimAllocation","inputs":[],"outputs":[],"stateMutability":"nonpayable"},{"type":"function","name":"closingWindowBuyCount","inputs":[{"name":"","type":"address","internalType":"address"}],"outputs":[{"name":"","type":"uint256","internalType":"uint256"}],"stateMutability":"view"},{"type":"function","name":"closingWindowSec","inputs":[],"outputs":[{"name":"","type":"uint256","internalType":"uint256"}],"stateMutability":"view"},{"type":"function","name":"currentMinBuyAmount","inputs":[],"outputs":[{"name":"","type":"uint256","internalType":"uint256"}],"stateMutability":"view"},{"type":"function","name":"deadline","inputs":[],"outputs":[{"name":"","type":"uint256","internalType":"uint256"}],"stateMutability":"view"},{"type":"function","name":"distributePrizes","inputs":[],"outputs":[],"stateMutability":"nonpayable"},{"type":"function","name":"endSale","inputs":[],"outputs":[],"stateMutability":"nonpayable"},{"type":"function","name":"ended","inputs":[],"outputs":[{"name":"","type":"bool","internalType":"bool"}],"stateMutability":"view"},{"type":"function","name":"feeRouter","inputs":[],"outputs":[{"name":"","type":"address","internalType":"contract FeeRouter"}],"stateMutability":"view"},{"type":"function","name":"growthRateWad","inputs":[],"outputs":[{"name":"","type":"uint256","internalType":"uint256"}],"stateMutability":"view"},{"type":"function","name":"initialMinBuy","inputs":[],"outputs":[{"name":"","type":"uint256","internalType":"uint256"}],"stateMutability":"view"},{"type":"function","name":"launchedToken","inputs":[],"outputs":[{"name":"","type":"address","internalType":"contract IERC20"}],"stateMutability":"view"},{"type":"function","name":"openingWindowSec","inputs":[],"outputs":[{"name":"","type":"uint256","internalType":"uint256"}],"stateMutability":"view"},{"type":"function","name":"podium","inputs":[{"name":"category","type":"uint8","internalType":"uint8"}],"outputs":[{"name":"winners","type":"address[3]","internalType":"address[3]"},{"name":"values","type":"uint256[3]","internalType":"uint256[3]"}],"stateMutability":"view"},{"type":"function","name":"prizeVault","inputs":[],"outputs":[{"name":"","type":"address","internalType":"contract PrizeVault"}],"stateMutability":"view"},{"type":"function","name":"prizesDistributed","inputs":[],"outputs":[{"name":"","type":"bool","internalType":"bool"}],"stateMutability":"view"},{"type":"function","name":"purchaseCapMultiple","inputs":[],"outputs":[{"name":"","type":"uint256","internalType":"uint256"}],"stateMutability":"view"},{"type":"function","name":"saleStart","inputs":[],"outputs":[{"name":"","type":"uint256","internalType":"uint256"}],"stateMutability":"view"},{"type":"function","name":"startSale","inputs":[],"outputs":[],"stateMutability":"nonpayable"},{"type":"function","name":"timerCapSec","inputs":[],"outputs":[{"name":"","type":"uint256","internalType":"uint256"}],"stateMutability":"view"},{"type":"function","name":"timerExtensionSec","inputs":[],"outputs":[{"name":"","type":"uint256","internalType":"uint256"}],"stateMutability":"view"},{"type":"function","name":"totalRaised","inputs":[],"outputs":[{"name":"","type":"uint256","internalType":"uint256"}],"stateMutability":"view"},{"type":"function","name":"totalTokensForSale","inputs":[],"outputs":[{"name":"","type":"uint256","internalType":"uint256"}],"stateMutability":"view"},{"type":"function","name":"userSpend","inputs":[{"name":"","type":"address","internalType":"address"}],"outputs":[{"name":"","type":"uint256","internalType":"uint256"}],"stateMutability":"view"},{"type":"event","name":"AllocationClaimed","inputs":[{"name":"buyer","type":"address","indexed":true,"internalType":"address"},{"name":"tokenAmount","type":"uint256","indexed":false,"internalType":"uint256"}],"anonymous":false},{"type":"event","name":"Buy","inputs":[{"name":"buyer","type":"address","indexed":true,"internalType":"address"},{"name":"amount","type":"uint256","indexed":false,"internalType":"uint256"},{"name":"currentMinBuy","type":"uint256","indexed":false,"internalType":"uint256"},{"name":"newDeadline","type":"uint256","indexed":false,"internalType":"uint256"},{"name":"totalRaisedAfter","type":"uint256","indexed":false,"internalType":"uint256"},{"name":"buyIndex","type":"uint256","indexed":false,"internalType":"uint256"}],"anonymous":false},{"type":"event","name":"PrizesDistributed","inputs":[],"anonymous":false},{"type":"event","name":"SaleEnded","inputs":[{"name":"endTimestamp","type":"uint256","indexed":false,"internalType":"uint256"},{"name":"totalRaised","type":"uint256","indexed":false,"internalType":"uint256"},{"name":"totalBuys","type":"uint256","indexed":false,"internalType":"uint256"}],"anonymous":false},{"type":"event","name":"SaleStarted","inputs":[{"name":"startTimestamp","type":"uint256","indexed":false,"internalType":"uint256"},{"name":"initialDeadline","type":"uint256","indexed":false,"internalType":"uint256"},{"name":"totalTokensForSale","type":"uint256","indexed":false,"internalType":"uint256"}],"anonymous":false},{"type":"error","name":"PRBMath_SD59x18_Exp2_InputTooBig","inputs":[{"name":"x","type":"int256","internalType":"SD59x18"}]},{"type":"error","name":"PRBMath_SD59x18_Exp_InputTooBig","inputs":[{"name":"x","type":"int256","internalType":"SD59x18"}]},{"type":"error","name":"ReentrancyGuardReentrantCall","inputs":[]},{"type":"error","name":"SafeERC20FailedOperation","inputs":[{"name":"token","type":"address","internalType":"address"}]}],"bytecode":{"object":"0x34620004e257620030b038819003610200601f8201601f19168101906001600160401b03821190821017620004e6576101809282916040526102003912620004e2576200004e610200620004fa565b6200005b610220620004fa565b61024051916001600160a01b0383168303620004e257610260516001600160a01b0381168103620004e257610280516102a0516102c0516102e0516103005161032051610340516103605160017f9b779b17422d0df92223018b32b4d1fa46e071723d6817e2486d003becc55f0055919a909991989297939694959493929091906001600160a01b038116156200049d576001600160a01b0382161562000458576001600160a01b0383161562000413576001600160a01b03841615620003ce57841562000389576002871062000344578715620002ff57878910620002ba578b15620002755760805260a05260c05260e05261010052610120526101405261016052610180526101a09283526101c09182526101e090815260405191612ba09384620005108539608051848181610393015281816107b401526114d6015260a0518481816101bf015281816108860152610a9d015260c05184818161025901526103bd015260e051848181610dfc01526114fa01526101005184818161033501528181610d8501528181611861015261188b01526101205184818161031401528181610c7e015261184001526101405184818161035f01526111390152610160518481816104ae0152610ed10152610180518481816104d801528181610b2c015261134401525183818161084e01528181610ad80152610e42015251828181610e7c015261213b015251818181610d4b01526121790152f35b60405162461bcd60e51b815260206004820152601660248201527f54696d6543757276653a207a65726f20746f6b656e73000000000000000000006044820152606490fd5b60405162461bcd60e51b815260206004820152601a60248201527f54696d6543757276653a20636170203c20657874656e73696f6e0000000000006044820152606490fd5b60405162461bcd60e51b815260206004820152601960248201527f54696d6543757276653a207a65726f20657874656e73696f6e000000000000006044820152606490fd5b60405162461bcd60e51b815260206004820152601a60248201527f54696d6543757276653a206361704d756c7469706c65203c20320000000000006044820152606490fd5b60405162461bcd60e51b815260206004820152601660248201527f54696d6543757276653a207a65726f206d696e427579000000000000000000006044820152606490fd5b60405162461bcd60e51b815260206004820152601b60248201527f54696d6543757276653a207a65726f207072697a65207661756c7400000000006044820152606490fd5b60405162461bcd60e51b815260206004820152601660248201527f54696d6543757276653a207a65726f20726f75746572000000000000000000006044820152606490fd5b60405162461bcd60e51b815260206004820152601e60248201527f54696d6543757276653a207a65726f206c61756e6368656420746f6b656e00006044820152606490fd5b60405162461bcd60e51b815260206004820152601560248201527f54696d6543757276653a207a65726f20617373657400000000000000000000006044820152606490fd5b5f80fd5b634e487b7160e01b5f52604160045260245ffd5b51906001600160a01b0382168203620004e25756fe6080604090808252600480361015610015575f80fd5b5f3560e01c9182630f6325761461132f5750816312fa6feb1461130c5781631458d4ad146111d85781631bed76481461119d5781631d435f45146111825781632777724b1461115c57816327997d821461112257816329dcb0cf14611104578163380d831b14610f2f5781633a9ae69114610ef4578163438009aa14610eba57816345e7134a14610e9f5781635158c5ec14610e6557816360219c7b14610e2b578163676a3a9714610de85781636d437ec614610da85781636e00d8e514610d6e5781636e9d584d14610d345781637ce52eb614610d1a5781637d1a49dd14610cf75781639dd6112514610cdc5781639fefe7f414610ca1578163a491fa5d14610c67578163ab0bcc4114610c4a578163b66a0e5d14610a6b578163c5c4744c14610a4d578163cf7c11c314610a32578163d2d1fb25146107e3578163d906b4d1146107a0578163d96a094a146102be578163e2181a13146102a3578163e278070d14610288578163f29ebf6114610245578163f3181a5d1461022b578163fbcfcf3e146101f2575063fd435125146101ac575f80fd5b346101ee575f3660031901126101ee57517f00000000000000000000000000000000000000000000000000000000000000006001600160a01b03168152602090f35b5f80fd5b82346101ee5760203660031901126101ee5781356001600160a01b03811692908390036101ee576020925f528252805f20549051908152f35b82346101ee575f3660031901126101ee57602090515f8152f35b82346101ee575f3660031901126101ee57517f00000000000000000000000000000000000000000000000000000000000000006001600160a01b03168152602090f35b9050346101ee575f3660031901126101ee5760209151908152f35b82346101ee575f3660031901126101ee576020905160068152f35b9050346101ee576020806003193601126101ee578135916102dd61191d565b5f935f54946102ed8615156113cd565b60ff6003541661076b5760019586544210156107285761030d904261181c565b90610359827f00000000000000000000000000000000000000000000000000000000000000007f00000000000000000000000000000000000000000000000000000000000000006118ef565b936103847f000000000000000000000000000000000000000000000000000000000000000086611455565b8588106106e55787116106ab577f000000000000000000000000000000000000000000000000000000000000000060018060a01b0390817f000000000000000000000000000000000000000000000000000000000000000016908651926323b872dd60e01b5f523385526024938385528b6044528a5f60648180875af18d5f511481161561068d575b818a525f606052156106795750823b156101ee5760445f92838d958b5196879586946348fef59560e01b8652168a850152888401525af1801561066f5761065c575b5061045c886002546118ad565b6002553383528187528483206104738982546118ad565b9055338352600587528483208054908a820180921161064a57556032548981018091116106385760325588544281111561062e576104d3905b7f0000000000000000000000000000000000000000000000000000000000000000906118ad565b6104fd7f0000000000000000000000000000000000000000000000000000000000000000426118ad565b8082101561062757505b895560ff603154169060038210156106165750602e0180546001600160a01b0319163317905560315461059b939261059592869260ff60038161054b8185166118cb565b1606169060ff1916176031553382526005895261056b838320543361195f565b3382526006895261058883832080548c1161060e575b5433611b1e565b3382528852205433611cd1565b336120b9565b6105a433612161565b84549060025492603254948251968752860152840152606083015260808201527f178f20a8980b4e6cdc2c84f3ef670f5047f63638f90a8acc6b724b43f1da778d60a03392a27f9b779b17422d0df92223018b32b4d1fa46e071723d6817e2486d003becc55f0055005b8b8155610581565b634e487b7160e01b84526032835283fd5b9050610507565b506104d3426104ac565b50634e487b7160e01b83526011825282fd5b634e487b7160e01b8552601184528285fd5b610667919350611367565b5f915f61044f565b86513d5f823e3d90fd5b635274afe760e01b81529116848201529050fd5b8d8115166106a257833b15153d15161661040d565b503d5f823e3d90fd5b835162461bcd60e51b81529081018690526014602482015273054696d6543757276653a2061626f7665206361760641b6044820152606490fd5b845162461bcd60e51b8152808301889052601860248201527f54696d6543757276653a2062656c6f77206d696e2062757900000000000000006044820152606490fd5b825162461bcd60e51b8152808501869052601860248201527f54696d6543757276653a2074696d6572206578706972656400000000000000006044820152606490fd5b5091606492519162461bcd60e51b8352820152601060248201526f151a5b5950dd5c9d994e88195b99195960821b6044820152fd5b82346101ee575f3660031901126101ee57517f00000000000000000000000000000000000000000000000000000000000000006001600160a01b03168152602090f35b82346101ee575f3660031901126101ee576107fc61191d565b61080a60ff60035416611412565b335f526020828152815f2054156109fb57335f526008815260ff825f2054166109ba57335f5260088152815f20600160ff19825416179055828152610872825f20547f0000000000000000000000000000000000000000000000000000000000000000611455565b6002549081156109a75704918215610966577f00000000000000000000000000000000000000000000000000000000000000009381519063a9059cbb60e01b5f5233815284602452835f604481808a5af160015f5114811615610947575b8284521561092957847f1747857504b94e5be51b1fe4b467e5d2daa63a0d21577089a13fa99f9414dcc88585519283523392a260017f9b779b17422d0df92223018b32b4d1fa46e071723d6817e2486d003becc55f0055005b635274afe760e01b82526001600160a01b0386169082015260249150fd5b600181151661095d57863b15153d1516166108d0565b823d5f823e3d90fd5b5162461bcd60e51b81529283015250601a60248201527f54696d6543757276653a207a65726f20616c6c6f636174696f6e0000000000006044820152606490fd5b601285634e487b7160e01b5f525260245ffd5b905162461bcd60e51b815291820152601a60248201527f54696d6543757276653a20616c726561647920636c61696d65640000000000006044820152606490fd5b905162461bcd60e51b8152918201526013602482015272151a5b5950dd5c9d994e881b9bc81cdc195b99606a1b6044820152606490fd5b82346101ee575f3660031901126101ee576020905160058152f35b82346101ee575f3660031901126101ee576020906002549051908152f35b9050346101ee575f3660031901126101ee575f54610c085781516370a0823160e01b81523082820152906020826024817f00000000000000000000000000000000000000000000000000000000000000006001600160a01b03165afa918215610bfe575f92610bca575b507f0000000000000000000000000000000000000000000000000000000000000000809210610b7757507f5ee5e9eecd6fd27ba20784f8da118fe26b697aca487c80f605baec0b88ed363691425f55610b72610b517f0000000000000000000000000000000000000000000000000000000000000000426118ad565b91826001555192839242846040919493926060820195825260208201520152565b0390a1005b608490602084519162461bcd60e51b8352820152602760248201527f54696d6543757276653a20696e73756666696369656e74206c61756e6368656460448201526620746f6b656e7360c81b6064820152fd5b9091506020813d602011610bf6575b81610be6602093836113ab565b810103126101ee5751905f610ad5565b3d9150610bd9565b83513d5f823e3d90fd5b6020606492519162461bcd60e51b8352820152601a60248201527f54696d6543757276653a20616c726561647920737461727465640000000000006044820152fd5b82346101ee575f3660031901126101ee576020905f549051908152f35b82346101ee575f3660031901126101ee57602090517f00000000000000000000000000000000000000000000000000000000000000008152f35b9050346101ee5760203660031901126101ee57356001600160a01b03811691908290036101ee576020915f5260058252805f20549051908152f35b82346101ee575f3660031901126101ee576020905160028152f35b82346101ee575f3660031901126101ee57602090610d13611829565b9051908152f35b346101ee575f3660031901126101ee57610d326114b0565b005b82346101ee575f3660031901126101ee57602090517f00000000000000000000000000000000000000000000000000000000000000008152f35b82346101ee575f3660031901126101ee57602090517f00000000000000000000000000000000000000000000000000000000000000008152f35b9050346101ee5760203660031901126101ee57356001600160a01b03811691908290036101ee576020915f526008825260ff815f20541690519015158152f35b82346101ee575f3660031901126101ee57517f00000000000000000000000000000000000000000000000000000000000000006001600160a01b03168152602090f35b82346101ee575f3660031901126101ee57602090517f00000000000000000000000000000000000000000000000000000000000000008152f35b82346101ee575f3660031901126101ee57602090517f00000000000000000000000000000000000000000000000000000000000000008152f35b82346101ee575f3660031901126101ee576020905160018152f35b82346101ee575f3660031901126101ee57602090517f00000000000000000000000000000000000000000000000000000000000000008152f35b9050346101ee5760203660031901126101ee57356001600160a01b03811691908290036101ee576020915f5260078252805f20549051908152f35b9050346101ee575f3660031901126101ee57610f4d5f5415156113cd565b60039081549160ff918284166110c157600193600154421061107e5760ff19166001178255603280549091908381101561107657935b5f865b610fcf575b6002546032548951428152602081019290925260408201527f55dd79228014c8499f7a8a9f7d36d1a7e5c25b97eb1ae455893603d095aee94c908060608101610b72565b8181168681101561107057600283603154160183811161105d57838291160383811161105d5783879116068681101561104b57602e01546001600160a01b03168683101561104b576009830180546001600160a01b0319169091179055611045919061103b908861181c565b81600c01556118ba565b86610f86565b8585634e487b7160e01b5f525260245ffd5b601185634e487b7160e01b5f525260245ffd5b50610f8b565b508293610f83565b855162461bcd60e51b8152602081840152601c60248201527f54696d6543757276653a2074696d6572206e6f742065787069726564000000006044820152606490fd5b606490602086519162461bcd60e51b8352820152601860248201527f54696d6543757276653a20616c726561647920656e64656400000000000000006044820152fd5b82346101ee575f3660031901126101ee576020906001549051908152f35b82346101ee575f3660031901126101ee57602090517f00000000000000000000000000000000000000000000000000000000000000008152f35b82346101ee575f3660031901126101ee5760209060ff60035460081c1690519015158152f35b82346101ee575f3660031901126101ee576020905160038152f35b9050346101ee5760203660031901126101ee57356001600160a01b03811691908290036101ee576020915f5260068252805f20549051908152f35b9050346101ee57602090816003193601126101ee5780359060ff821682036101ee57606084516112078161138f565b369037606084516112178161138f565b36903760068210156112f9575060060290825192838360090190835f915b600383106112d9575050505061124a8461138f565b805192600c015f83855b600383106112c257505050506112698361138f565b51925f845b83600383106112a45750505050606083015f905b6003821061128f5760c085f35b82806001928651815201940191019092611282565b83516001600160a01b0316825292830192600192909201910161126e565b600191829185548152019301910190918490611254565b83546001600160a01b031681526001938401939290920191859101611235565b603290634e487b7160e01b5f525260245ffd5b82346101ee575f3660031901126101ee5760209060ff6003541690519015158152f35b346101ee575f3660031901126101ee576020907f00000000000000000000000000000000000000000000000000000000000000008152f35b67ffffffffffffffff811161137b57604052565b634e487b7160e01b5f52604160045260245ffd5b6060810190811067ffffffffffffffff82111761137b57604052565b90601f8019910116810190811067ffffffffffffffff82111761137b57604052565b156113d457565b60405162461bcd60e51b8152602060048201526016602482015275151a5b5950dd5c9d994e881b9bdd081cdd185c9d195960521b6044820152606490fd5b1561141957565b60405162461bcd60e51b8152602060048201526014602482015273151a5b5950dd5c9d994e881b9bdd08195b99195960621b6044820152606490fd5b8181029291811591840414171561146857565b634e487b7160e01b5f52601160045260245ffd5b600382101561148b5701905f90565b634e487b7160e01b5f52603260045260245ffd5b90600381101561148b5760051b0190565b6003549060ff6114c1818416611412565b808360081c166117de5760018060a01b0390817f00000000000000000000000000000000000000000000000000000000000000001691807f00000000000000000000000000000000000000000000000000000000000000001660408051946370a0823160e01b8652600483818801526024936020888681865afa9788156117d4575f986117a0575b508715611794576006809804906001968260011c9b601e840293801594818104601e148617156117825760649004946014820291820460141417156117705760649004908d1580611768575b80611760575b611750576101009061ff00191617600355865193606085019d8e67ffffffffffffffff87821091111761173e578a9e895285526020850152868401525f9b5b611611575b5050505050505050505090507f1ae1fac6be76a94950a139e90757f81e4ed7dbc26d278836bb13ebea5e2d52f15f80a1565b888c168a811015611738578a8d10156117265760098d8c02015f8a5b611641575b5050509a870188169a876115da565b8b8116600381101561172057818d918661165e8f9796958661147c565b90549060031b1c1615158061170d575b61167f575b5084011690919261162d565b91509192935084611690838561147c565b90549060031b1c16906116a3818961149f565b51873b156101ee578b519263b34c62a360e01b84528b8b8501528d840152604483015284606483015260848201525f8160a481838a5af18015611703578c9493928e9286926116f4575b5090611673565b6116fd90611367565b5f6116ed565b8a513d5f823e3d90fd5b50611718818a61149f565b51151561166e565b50611632565b87603286634e487b7160e01b5f52525ffd5b506115df565b89604188634e487b7160e01b5f52525ffd5b5050505050505050505050509050565b50811561159b565b508415611595565b88601187634e487b7160e01b5f52525ffd5b89601188634e487b7160e01b5f52525ffd5b50505050505050509050565b9097506020813d6020116117cc575b816117bc602093836113ab565b810103126101ee5751965f611549565b3d91506117af565b84513d5f823e3d90fd5b60405162461bcd60e51b815260206004820152601660248201527554696d6543757276653a207072697a657320646f6e6560501b6044820152606490fd5b9190820391821161146857565b5f5480156118885761183e611885914261181c565b7f00000000000000000000000000000000000000000000000000000000000000007f00000000000000000000000000000000000000000000000000000000000000006118ef565b90565b507f000000000000000000000000000000000000000000000000000000000000000090565b9190820180921161146857565b60ff1660ff81146114685760010190565b60ff60019116019060ff821161146857565b60ff5f199116019060ff821161146857565b91908115611918576201518061190c611885949361191293611455565b04612212565b9061226d565b505090565b7f9b779b17422d0df92223018b32b4d1fa46e071723d6817e2486d003becc55f00600281541461194d5760029055565b604051633ee5aeb560e01b8152600490fd5b915f5b600360ff90808284161015611a8b578083101561148b57600f838101549092906001600160a01b03908116888216146119a757505050506119a2906118ba565b611962565b9194959390929650601293818501555b82811690811590811580611a64575b15611a59576119d4816118dd565b8781101561148b5789015484168782101561148b57818a0190858254166119fa846118dd565b8a81101561148b578c016001600160601b0360a01b9182825416179055825416179055611a26816118dd565b8781101561148b578601549080870190611a418254916118dd565b8981101561148b5788015555611468575f19016119b7565b505050505050509050565b508681101561148b5780860154611a7a826118dd565b8881101561148b57870154106119c6565b50505091906014548111611a9d575050565b60018060a01b03809216916001600160601b0360a01b9081601154169184831760115583601455601354808511611ad7575b505050505050565b6010549383838616958887176010551617601155846013556014556012549485851115611acf57600f5491821617600f5516176010556012556013555f8080808080611acf565b915f5b600360ff90808284161015611c3f578083101561148b576015838101549092906001600160a01b0390811688821614611b665750505050611b61906118ba565b611b21565b9194959390929650601893818501555b82811690811590811580611c18575b15611a5957611b93816118dd565b8781101561148b5789015484168782101561148b57818a019085825416611bb9846118dd565b8a81101561148b578c016001600160601b0360a01b9182825416179055825416179055611be5816118dd565b8781101561148b578601549080870190611c008254916118dd565b8981101561148b5788015555611468575f1901611b76565b508681101561148b5780860154611c2e826118dd565b8881101561148b5787015410611b85565b5050509190601a548111611c51575050565b60018060a01b03809216916001600160601b0360a01b9081601754169184831760175583601a55601954808511611c8a57505050505050565b601654938383861695888717601655161760175584601955601a556018549485851115611acf576015549182161760155516176016556018556019555f8080808080611acf565b915f5b600360ff90808284161015611df2578083101561148b576027838101549092906001600160a01b0390811688821614611d195750505050611d14906118ba565b611cd4565b9194959390929650602a93818501555b82811690811590811580611dcb575b15611a5957611d46816118dd565b8781101561148b5789015484168782101561148b57818a019085825416611d6c846118dd565b8a81101561148b578c016001600160601b0360a01b9182825416179055825416179055611d98816118dd565b8781101561148b578601549080870190611db38254916118dd565b8981101561148b5788015555611468575f1901611d29565b508681101561148b5780860154611de1826118dd565b8881101561148b5787015410611d38565b5050509190602c548111611e04575050565b60018060a01b03809216916001600160601b0360a01b9081602954169184831760295583602c55602b54808511611e3d57505050505050565b602854938383861695888717602855161760295584602b55602c55602a549485851115611acf57602754918216176027551617602855602a55602b555f8080808080611acf565b90915f925b60039360ff858183161015612027578582101561148b576021828101549096906001600160a01b0390811687821614611ed457505050611ecc91929394506118ba565b929190611e89565b9193955091602495818701555b83811690811590811580611fda575b15611fcf57611efe816118dd565b85811015611fa957890154841685821015611fa957818a019085825416611f24846118dd565b88811015611fbc578c016001600160601b0360a01b9182825416179055825416179055611f50816118dd565b85811015611fa9578801549080890190611f6b8254916118dd565b87811015611f96578a015555611f83575f1901611ee1565b85634e487b7160e01b5f5260116004525ffd5b8a634e487b7160e01b5f5260326004525ffd5b88634e487b7160e01b5f5260326004525ffd5b8b634e487b7160e01b5f5260326004525ffd5b505050505050915050565b50848110156120145780880154611ff0826118dd565b868110156120015789015410611ef0565b89634e487b7160e01b5f5260326004525ffd5b87634e487b7160e01b5f5260326004525ffd5b50509092506026548111612039575050565b60018060a01b03809216916001600160601b0360a01b908160235416918483176023558360265560255480851161207257505050505050565b6022549383838616958887176022551617602355846025556026556024549485851115611acf576021549182161760215516176022556024556025555f8080808080611acf565b9060ff602d54169060038210908115908192612137575b506121325761148b57601b019060018060a01b03166001600160601b0360a01b82541617905560ff602d541660ff612107826118cb565b1690600381101561148b57601e0155602d5460ff6121268183166118cb565b169060ff191617602d55565b505050565b90507f0000000000000000000000000000000000000000000000000000000000000000105f6120d0565b600154428111156121dd5761217790429061181c565b7f0000000000000000000000000000000000000000000000000000000000000000106121da5760018060a01b03811690815f52600760205260405f2091825460018101809111611468576121d893555f52600760205260405f205490611e84565b565b50565b505f612177565b80156121fe576ec097ce7bc90715b34b9f10000000000590565b634e487b7160e01b5f52601260045260245ffd5b68023f2fa8f6da5b9d3119811261226857680736ea4425c11ac630811361225057670de0b6b3a76400006714057b7ef767814f6118859202056122f2565b6024906040519063ca7ec0c560e01b82526004820152fd5b505f90565b905f19818309818302918280831092039180830392146122e157670de0b6b3a764000090828211156122cf577faccb18165bd6fe31ae1cf318dc5b51eee0e1ba569b88cd74c1773b91fac10669940990828211900360ee1b910360121c170290565b634e487b715f5260116020526024601cfd5b5050670de0b6b3a764000091500490565b5f81121561231f5768033dd1780914b9711419811261226857612316905f036122f2565b611885906121e4565b680a688906bd8affffff8113612b5357670de0b6b3a764000080604092831b0590600160bf1b67ff000000000000008316612a42575b66ff000000000000831661293a575b65ff0000000000831661283a575b64ff000000008316612742575b63ff0000008316612652575b62ff0000831661256a575b61ff00831661248a575b60ff83166123b3575b02911c60bf031c90565b60808316612478575b838316612466575b60208316612454575b60108316612442575b60088316612430575b6004831661241e575b6002831661240c575b60018316156123a9576801000000000000000102831c6123a9565b6801000000000000000102831c6123f1565b6801000000000000000302831c6123e8565b6801000000000000000602831c6123df565b6801000000000000000b02831c6123d6565b6801000000000000001602831c6123cd565b6801000000000000002c02831c6123c4565b6801000000000000005902831c6123bc565b6180008316612558575b6140008316612546575b6120008316612534575b6110008316612522575b6108008316612510575b61040083166124fe575b61020083166124ec575b6101008316156123a057680100000000000000b102831c6123a0565b6801000000000000016302831c6124d0565b680100000000000002c602831c6124c6565b6801000000000000058c02831c6124bc565b68010000000000000b1702831c6124b2565b6801000000000000162e02831c6124a8565b68010000000000002c5d02831c61249e565b680100000000000058b902831c612494565b628000008316612640575b62400000831661262e575b62200000831661261c575b62100000831661260a575b6208000083166125f8575b6204000083166125e6575b6202000083166125d4575b62010000831615612396576801000000000000b17202831c612396565b680100000000000162e402831c6125b7565b6801000000000002c5c802831c6125ac565b68010000000000058b9102831c6125a1565b680100000000000b172102831c612596565b68010000000000162e4302831c61258b565b680100000000002c5c8602831c612580565b6801000000000058b90c02831c612575565b63800000008316612730575b6340000000831661271e575b6320000000831661270c575b631000000083166126fa575b630800000083166126e8575b630400000083166126d6575b630200000083166126c4575b630100000083161561238b5768010000000000b1721802831c61238b565b6801000000000162e43002831c6126a6565b68010000000002c5c86002831c61269a565b680100000000058b90c002831c61268e565b6801000000000b17217f02831c612682565b680100000000162e42ff02831c612676565b6801000000002c5c85fe02831c61266a565b68010000000058b90bfc02831c61265e565b6480000000008316612828575b6440000000008316612816575b6420000000008316612804575b64100000000083166127f2575b64080000000083166127e0575b64040000000083166127ce575b64020000000083166127bc575b64010000000083161561237f57680100000000b17217f802831c61237f565b68010000000162e42ff102831c61279d565b680100000002c5c85fe302831c612790565b6801000000058b90bfce02831c612783565b68010000000b17217fbb02831c612776565b6801000000162e42fff002831c612769565b68010000002c5c8601cc02831c61275c565b680100000058b90c0b4902831c61274f565b658000000000008316612928575b654000000000008316612916575b652000000000008316612904575b6510000000000083166128f2575b6508000000000083166128e0575b6504000000000083166128ce575b6502000000000083166128bc575b65010000000000831615612372576801000000b17218355102831c612372565b680100000162e430e5a202831c61289c565b6801000002c5c863b73f02831c61288e565b68010000058b90cf1e6e02831c612880565b680100000b1721bcfc9a02831c612872565b68010000162e43f4f83102831c612864565b680100002c5c89d5ec6d02831c612856565b6801000058b91b5bc9ae02831c612848565b66800000000000008316612a30575b66400000000000008316612a1e575b66200000000000008316612a0c575b661000000000000083166129fa575b660800000000000083166129e8575b660400000000000083166129d6575b660200000000000083166129c4575b66010000000000008316156123645768010000b17255775c0402831c612364565b6801000162e525ee054702831c6129a3565b68010002c5cc37da949202831c612994565b680100058ba01fb9f96d02831c612985565b6801000b175effdc76ba02831c612976565b680100162f3904051fa102831c612967565b6801002c605e2e8cec5002831c612958565b68010058c86da1c09ea202831c612949565b6780000000000000008316612b40575b6740000000000000008316612b2e575b6720000000000000008316612b1c575b6710000000000000008316612b0a575b6708000000000000008316612af8575b6704000000000000008316612ae6575b6702000000000000008316612ad4575b67010000000000000083161561235557680100b1afa5abcbed6102831c612355565b68010163da9fb33356d802831c612ab2565b680102c9a3e778060ee702831c612aa2565b6801059b0d31585743ae02831c612a92565b68010b5586cf9890f62a02831c612a82565b6801172b83c7d517adce02831c612a72565b6801306fe0a31b7152df02831c612a62565b5068016a09e667f3bcc909607f1b612a52565b60249060405190626c1a0560e31b82526004820152fdfea2646970667358221220cfac87fef8360d24071bbcece714a95195136645cf33b6b54f4e90c94076640364736f6c63430008180033","linkReferences":{}},"methodIdentifiers":{"CAT_BIGGEST_BUY()":"9dd61125","CAT_CLOSING_WINDOW()":"e278070d","CAT_HIGHEST_CUMULATIVE()":"cf7c11c3","CAT_LAST_BUYERS()":"f3181a5d","CAT_MOST_BUYS()":"45e7134a","CAT_OPENING_WINDOW()":"1d435f45","NUM_CATEGORIES()":"e2181a13","acceptedAsset()":"d906b4d1","allocationClaimed(address)":"6d437ec6","biggestSingleBuy(address)":"1bed7648","buy(uint256)":"d96a094a","buyCount(address)":"9fefe7f4","claimAllocation()":"d2d1fb25","closingWindowBuyCount(address)":"3a9ae691","closingWindowSec()":"6e9d584d","currentMinBuyAmount()":"7d1a49dd","deadline()":"29dcb0cf","distributePrizes()":"7ce52eb6","endSale()":"380d831b","ended()":"12fa6feb","feeRouter()":"f29ebf61","growthRateWad()":"a491fa5d","initialMinBuy()":"6e00d8e5","launchedToken()":"fd435125","openingWindowSec()":"5158c5ec","podium(uint8)":"1458d4ad","prizeVault()":"676a3a97","prizesDistributed()":"2777724b","purchaseCapMultiple()":"27997d82","saleStart()":"ab0bcc41","startSale()":"b66a0e5d","timerCapSec()":"0f632576","timerExtensionSec()":"438009aa","totalRaised()":"c5c4744c","totalTokensForSale()":"60219c7b","userSpend(address)":"fbcfcf3e"},"id":83}