{"abi":[{"type":"constructor","inputs":[{"name":"_acceptedAsset","type":"address","internalType":"contract IERC20"},{"name":"_launchedToken","type":"address","internalType":"contract IERC20"},{"name":"_feeRouter","type":"address","internalType":"contract FeeRouter"},{"name":"_prizeVault","type":"address","internalType":"contract PrizeVault"},{"name":"_referralRegistry","type":"address","internalType":"address"},{"name":"_initialMinBuy","type":"uint256","internalType":"uint256"},{"name":"_growthRateWad","type":"uint256","internalType":"uint256"},{"name":"_purchaseCapMultiple","type":"uint256","internalType":"uint256"},{"name":"_timerExtensionSec","type":"uint256","internalType":"uint256"},{"name":"_initialTimerSec","type":"uint256","internalType":"uint256"},{"name":"_timerCapSec","type":"uint256","internalType":"uint256"},{"name":"_totalTokensForSale","type":"uint256","internalType":"uint256"},{"name":"_openingWindowSec","type":"uint256","internalType":"uint256"},{"name":"_closingWindowSec","type":"uint256","internalType":"uint256"}],"stateMutability":"nonpayable"},{"type":"function","name":"CAT_BIGGEST_BUY","inputs":[],"outputs":[{"name":"","type":"uint8","internalType":"uint8"}],"stateMutability":"view"},{"type":"function","name":"CAT_CLOSING_WINDOW","inputs":[],"outputs":[{"name":"","type":"uint8","internalType":"uint8"}],"stateMutability":"view"},{"type":"function","name":"CAT_HIGHEST_CUMULATIVE","inputs":[],"outputs":[{"name":"","type":"uint8","internalType":"uint8"}],"stateMutability":"view"},{"type":"function","name":"CAT_LAST_BUYERS","inputs":[],"outputs":[{"name":"","type":"uint8","internalType":"uint8"}],"stateMutability":"view"},{"type":"function","name":"CAT_MOST_BUYS","inputs":[],"outputs":[{"name":"","type":"uint8","internalType":"uint8"}],"stateMutability":"view"},{"type":"function","name":"CAT_OPENING_WINDOW","inputs":[],"outputs":[{"name":"","type":"uint8","internalType":"uint8"}],"stateMutability":"view"},{"type":"function","name":"NUM_CATEGORIES","inputs":[],"outputs":[{"name":"","type":"uint8","internalType":"uint8"}],"stateMutability":"view"},{"type":"function","name":"REFERRAL_EACH_BPS","inputs":[],"outputs":[{"name":"","type":"uint16","internalType":"uint16"}],"stateMutability":"view"},{"type":"function","name":"acceptedAsset","inputs":[],"outputs":[{"name":"","type":"address","internalType":"contract IERC20"}],"stateMutability":"view"},{"type":"function","name":"biggestSingleBuy","inputs":[{"name":"","type":"address","internalType":"address"}],"outputs":[{"name":"","type":"uint256","internalType":"uint256"}],"stateMutability":"view"},{"type":"function","name":"buy","inputs":[{"name":"amount","type":"uint256","internalType":"uint256"}],"outputs":[],"stateMutability":"nonpayable"},{"type":"function","name":"buy","inputs":[{"name":"amount","type":"uint256","internalType":"uint256"},{"name":"codeHash","type":"bytes32","internalType":"bytes32"}],"outputs":[],"stateMutability":"nonpayable"},{"type":"function","name":"buyCount","inputs":[{"name":"","type":"address","internalType":"address"}],"outputs":[{"name":"","type":"uint256","internalType":"uint256"}],"stateMutability":"view"},{"type":"function","name":"charmWeight","inputs":[{"name":"","type":"address","internalType":"address"}],"outputs":[{"name":"","type":"uint256","internalType":"uint256"}],"stateMutability":"view"},{"type":"function","name":"charmsRedeemed","inputs":[{"name":"","type":"address","internalType":"address"}],"outputs":[{"name":"","type":"bool","internalType":"bool"}],"stateMutability":"view"},{"type":"function","name":"closingWindowBuyCount","inputs":[{"name":"","type":"address","internalType":"address"}],"outputs":[{"name":"","type":"uint256","internalType":"uint256"}],"stateMutability":"view"},{"type":"function","name":"closingWindowSec","inputs":[],"outputs":[{"name":"","type":"uint256","internalType":"uint256"}],"stateMutability":"view"},{"type":"function","name":"currentMinBuyAmount","inputs":[],"outputs":[{"name":"","type":"uint256","internalType":"uint256"}],"stateMutability":"view"},{"type":"function","name":"deadline","inputs":[],"outputs":[{"name":"","type":"uint256","internalType":"uint256"}],"stateMutability":"view"},{"type":"function","name":"distributePrizes","inputs":[],"outputs":[],"stateMutability":"nonpayable"},{"type":"function","name":"endSale","inputs":[],"outputs":[],"stateMutability":"nonpayable"},{"type":"function","name":"ended","inputs":[],"outputs":[{"name":"","type":"bool","internalType":"bool"}],"stateMutability":"view"},{"type":"function","name":"feeRouter","inputs":[],"outputs":[{"name":"","type":"address","internalType":"contract FeeRouter"}],"stateMutability":"view"},{"type":"function","name":"growthRateWad","inputs":[],"outputs":[{"name":"","type":"uint256","internalType":"uint256"}],"stateMutability":"view"},{"type":"function","name":"initialMinBuy","inputs":[],"outputs":[{"name":"","type":"uint256","internalType":"uint256"}],"stateMutability":"view"},{"type":"function","name":"initialTimerSec","inputs":[],"outputs":[{"name":"","type":"uint256","internalType":"uint256"}],"stateMutability":"view"},{"type":"function","name":"launchedToken","inputs":[],"outputs":[{"name":"","type":"address","internalType":"contract IERC20"}],"stateMutability":"view"},{"type":"function","name":"openingWindowSec","inputs":[],"outputs":[{"name":"","type":"uint256","internalType":"uint256"}],"stateMutability":"view"},{"type":"function","name":"podium","inputs":[{"name":"category","type":"uint8","internalType":"uint8"}],"outputs":[{"name":"winners","type":"address[3]","internalType":"address[3]"},{"name":"values","type":"uint256[3]","internalType":"uint256[3]"}],"stateMutability":"view"},{"type":"function","name":"prizeVault","inputs":[],"outputs":[{"name":"","type":"address","internalType":"contract PrizeVault"}],"stateMutability":"view"},{"type":"function","name":"prizesDistributed","inputs":[],"outputs":[{"name":"","type":"bool","internalType":"bool"}],"stateMutability":"view"},{"type":"function","name":"purchaseCapMultiple","inputs":[],"outputs":[{"name":"","type":"uint256","internalType":"uint256"}],"stateMutability":"view"},{"type":"function","name":"redeemCharms","inputs":[],"outputs":[],"stateMutability":"nonpayable"},{"type":"function","name":"referralRegistry","inputs":[],"outputs":[{"name":"","type":"address","internalType":"contract IReferralRegistry"}],"stateMutability":"view"},{"type":"function","name":"saleStart","inputs":[],"outputs":[{"name":"","type":"uint256","internalType":"uint256"}],"stateMutability":"view"},{"type":"function","name":"startSale","inputs":[],"outputs":[],"stateMutability":"nonpayable"},{"type":"function","name":"timerCapSec","inputs":[],"outputs":[{"name":"","type":"uint256","internalType":"uint256"}],"stateMutability":"view"},{"type":"function","name":"timerExtensionSec","inputs":[],"outputs":[{"name":"","type":"uint256","internalType":"uint256"}],"stateMutability":"view"},{"type":"function","name":"totalRaised","inputs":[],"outputs":[{"name":"","type":"uint256","internalType":"uint256"}],"stateMutability":"view"},{"type":"function","name":"totalTokensForSale","inputs":[],"outputs":[{"name":"","type":"uint256","internalType":"uint256"}],"stateMutability":"view"},{"type":"event","name":"Buy","inputs":[{"name":"buyer","type":"address","indexed":true,"internalType":"address"},{"name":"amount","type":"uint256","indexed":false,"internalType":"uint256"},{"name":"currentMinBuy","type":"uint256","indexed":false,"internalType":"uint256"},{"name":"newDeadline","type":"uint256","indexed":false,"internalType":"uint256"},{"name":"totalRaisedAfter","type":"uint256","indexed":false,"internalType":"uint256"},{"name":"buyIndex","type":"uint256","indexed":false,"internalType":"uint256"}],"anonymous":false},{"type":"event","name":"CharmsRedeemed","inputs":[{"name":"buyer","type":"address","indexed":true,"internalType":"address"},{"name":"tokenAmount","type":"uint256","indexed":false,"internalType":"uint256"}],"anonymous":false},{"type":"event","name":"PrizesDistributed","inputs":[],"anonymous":false},{"type":"event","name":"ReferralApplied","inputs":[{"name":"buyer","type":"address","indexed":true,"internalType":"address"},{"name":"referrer","type":"address","indexed":true,"internalType":"address"},{"name":"codeHash","type":"bytes32","indexed":true,"internalType":"bytes32"},{"name":"referrerAmount","type":"uint256","indexed":false,"internalType":"uint256"},{"name":"refereeAmount","type":"uint256","indexed":false,"internalType":"uint256"},{"name":"amountToFeeRouter","type":"uint256","indexed":false,"internalType":"uint256"}],"anonymous":false},{"type":"event","name":"SaleEnded","inputs":[{"name":"endTimestamp","type":"uint256","indexed":false,"internalType":"uint256"},{"name":"totalRaised","type":"uint256","indexed":false,"internalType":"uint256"},{"name":"totalBuys","type":"uint256","indexed":false,"internalType":"uint256"}],"anonymous":false},{"type":"event","name":"SaleStarted","inputs":[{"name":"startTimestamp","type":"uint256","indexed":false,"internalType":"uint256"},{"name":"initialDeadline","type":"uint256","indexed":false,"internalType":"uint256"},{"name":"totalTokensForSale","type":"uint256","indexed":false,"internalType":"uint256"}],"anonymous":false},{"type":"error","name":"PRBMath_SD59x18_Exp2_InputTooBig","inputs":[{"name":"x","type":"int256","internalType":"SD59x18"}]},{"type":"error","name":"PRBMath_SD59x18_Exp_InputTooBig","inputs":[{"name":"x","type":"int256","internalType":"SD59x18"}]},{"type":"error","name":"ReentrancyGuardReentrantCall","inputs":[]},{"type":"error","name":"SafeERC20FailedOperation","inputs":[{"name":"token","type":"address","internalType":"address"}]}],"bytecode":{"object":"0x34620005ed576200387138819003610240601f8201601f19168101906001600160401b03821190821017620005f1576101c09282916040526102403912620005ed576200004e61024062000605565b6200005b61026062000605565b61028051916001600160a01b0383168303620005ed576102a0516001600160a01b0381168103620005ed576102c051906001600160a01b0382168203620005ed576102e05161030051610320516103405161036051610380516103a0516103c0516103e05160017f9b779b17422d0df92223018b32b4d1fa46e071723d6817e2486d003becc55f0055919c909b919a9298939794969493929091906001600160a01b03811615620005a8576001600160a01b0382161562000563576001600160a01b038316156200051e576001600160a01b03841615620004d95784156200049457600287106200044f5787156200040a578815620003c557878a106200038057888a106200033b578d15620002f65760805260a05260c05260e052610120526101405261016052610180526101a0526101c0526101e09384526102009283526102209182526001600160a01b03166101005260405161325693909290846200061b853960805184818161035b01528181610d8501528181610fa20152611b0e015260a0518481816101eb01528181610b1c0152611058015260c05184818161024c015281816103c80152610dea015260e0518481816113770152611b32015261010051848181610674015281816108f4015261142e0152610120518481816102f401528181610d270152818161134001528181611e990152611ec30152610140518481816102d301528181610d06015281816112390152611e7801526101605184818161031e01528181610d510152611737015261018051848181610487015261148f01526101a0518481816110e7015261194401526101c0518481816104b1015261197c015251838181610abb0152818161109301526113bd0152518281816113f701526128ff015251818181611306015261293d0152f35b60405162461bcd60e51b815260206004820152601660248201527f54696d6543757276653a207a65726f20746f6b656e73000000000000000000006044820152606490fd5b60405162461bcd60e51b815260206004820152601e60248201527f54696d6543757276653a20636170203c20696e697469616c2074696d657200006044820152606490fd5b60405162461bcd60e51b815260206004820152601a60248201527f54696d6543757276653a20636170203c20657874656e73696f6e0000000000006044820152606490fd5b60405162461bcd60e51b815260206004820152601d60248201527f54696d6543757276653a207a65726f20696e697469616c2074696d65720000006044820152606490fd5b60405162461bcd60e51b815260206004820152601960248201527f54696d6543757276653a207a65726f20657874656e73696f6e000000000000006044820152606490fd5b60405162461bcd60e51b815260206004820152601a60248201527f54696d6543757276653a206361704d756c7469706c65203c20320000000000006044820152606490fd5b60405162461bcd60e51b815260206004820152601660248201527f54696d6543757276653a207a65726f206d696e427579000000000000000000006044820152606490fd5b60405162461bcd60e51b815260206004820152601b60248201527f54696d6543757276653a207a65726f207072697a65207661756c7400000000006044820152606490fd5b60405162461bcd60e51b815260206004820152601660248201527f54696d6543757276653a207a65726f20726f75746572000000000000000000006044820152606490fd5b60405162461bcd60e51b815260206004820152601e60248201527f54696d6543757276653a207a65726f206c61756e6368656420746f6b656e00006044820152606490fd5b60405162461bcd60e51b815260206004820152601560248201527f54696d6543757276653a207a65726f20617373657400000000000000000000006044820152606490fd5b5f80fd5b634e487b7160e01b5f52604160045260245ffd5b51906001600160a01b0382168203620005ed5756fe6080604090808252600480361015610015575f80fd5b5f3560e01c9182630f632576146119675750816312407d451461192d57816312fa6feb1461190a5781631458d4ad146117d65781631bed76481461179b5781631d435f45146117805781632777724b1461175a57816327997d821461172057816329dcb0cf14611702578163380d831b1461152d578163391d4d98146114ed5781633a9ae691146114b2578163438009aa1461147857816345e7134a1461145d5781634e627e621461141a5781635158c5ec146113e057816360219c7b146113a6578163676a3a97146113635781636e00d8e5146113295781636e9d584d146112ef5781637ce52eb6146112d55781637d1a49dd146112b25781639dd61125146112975781639fefe7f41461125c578163a491fa5d14611222578163ab0bcc4114611205578163b66a0e5d14611026578163c5c4744c14611008578163cf7c11c314610fed578163d5e68d7c14610fd1578163d906b4d114610f8e578163d96a094a14610cb0578163e2181a1314610c95578163e278070d14610c7a578163e3b2ce0114610c41578163e56bc1ff14610a4f578163e9fca2831461027b57508063f29ebf6114610238578063f3181a5d1461021e5763fd435125146101d8575f80fd5b3461021a575f36600319011261021a57517f00000000000000000000000000000000000000000000000000000000000000006001600160a01b03168152602090f35b5f80fd5b503461021a575f36600319011261021a57602090515f8152f35b503461021a575f36600319011261021a57517f00000000000000000000000000000000000000000000000000000000000000006001600160a01b03168152602090f35b823461021a578060031936011261021a57813590602480359161029c611f55565b5f945f54956102ac871515611a05565b60ff60035416610a1a5760019687544210156109dd576102cc9042611e54565b91610318837f00000000000000000000000000000000000000000000000000000000000000007f0000000000000000000000000000000000000000000000000000000000000000611f27565b946103437f000000000000000000000000000000000000000000000000000000000000000087611a8d565b86891061099b57881161096257861515806108f2575b7f00000000000000000000000000000000000000000000000000000000000000008651986323b872dd60e01b5f523385523084528a6044526020998a5f60648180875af18d5f51148116156108d4575b818a525f606052156108b857508a92610652575b506001600160a01b037f000000000000000000000000000000000000000000000000000000000000000081166103f4848285611f97565b803b1561021a575f92836044928b5196879586946348fef59560e01b8652168a850152888401525af1801561064857610635575b5061043588600254611ee5565b60025533835281875284832061044c898254611ee5565b9055338352600587528483208054908a8201809211610623575560325489810180911161061157603255885442811115610607576104ac905b7f000000000000000000000000000000000000000000000000000000000000000090611ee5565b6104d67f000000000000000000000000000000000000000000000000000000000000000042611ee5565b8082101561060057505b895560ff603154169060038210156105ef5750602e0180546001600160a01b03191633179055603154610574939261056e92869260ff600381610524818516611f03565b1606169060ff191617603155338252600589526105448383205433612123565b3382526006895261056183832080548c116105e7575b54336122e2565b3382528852205433612495565b3361287d565b61057d33612925565b84549060025492603254948251968752860152840152606083015260808201527f178f20a8980b4e6cdc2c84f3ef670f5047f63638f90a8acc6b724b43f1da778d60a03392a27f9b779b17422d0df92223018b32b4d1fa46e071723d6817e2486d003becc55f0055005b8b815561055a565b634e487b7160e01b84526032835283fd5b90506104e0565b506104ac42610485565b50634e487b7160e01b83526011825282fd5b634e487b7160e01b8552601184528285fd5b61064091935061199f565b5f9189610428565b86513d5f823e3d90fd5b875163711bf87960e01b815285810182905292506001600160a01b038a8486817f000000000000000000000000000000000000000000000000000000000000000085165afa9384156108ae575f94610876575b5083168015610834573381146107f2576103e8808d02908d8204148d1517156107e05761271090048d81159082821591826107b3575b50501561077057818f1b90828204600214171561075e57816107018f9261070893611e54565b9686611f97565b610713813386611f97565b7fd6a23e7a9e255d9f90dca579c188a5799766949fb13ba8fb9e737c2ae9a46e748a518061075588339580846040919493926060820195825260208201520152565b0390a48b6103bd565b86601189634e487b7160e01b5f52525ffd5b50895162461bcd60e51b81528088018d9052601a818801527f54696d6543757276653a20726566657272616c20616d6f756e740000000000006044820152606490fd5b1b90506002838204148217156107ce578e10158f83906106db565b8760118a634e487b7160e01b5f52525ffd5b85601188634e487b7160e01b5f52525ffd5b885162461bcd60e51b81528087018c90526018818701527f54696d6543757276653a2073656c662d726566657272616c00000000000000006044820152606490fd5b885162461bcd60e51b81528087018c9052601b818701527f54696d6543757276653a20696e76616c696420726566657272616c00000000006044820152606490fd5b9093508a81813d83116108a7575b61088e81836119e3565b8101031261021a5751838116810361021a57928d6106a5565b503d610884565b89513d5f823e3d90fd5b635274afe760e01b81526001600160a01b038316868201528490fd5b8d8115166108e957833b15153d1516166103a9565b503d5f823e3d90fd5b7f00000000000000000000000000000000000000000000000000000000000000006001600160a01b031661035957855162461bcd60e51b8152602081850152601c818401527f54696d6543757276653a20726566657272616c2064697361626c6564000000006044820152606490fd5b906014606492602087519362461bcd60e51b855284015282015273054696d6543757276653a2061626f7665206361760641b6044820152fd5b855162461bcd60e51b81526020818501819052818401527f54696d6543757276653a2062656c6f77206d696e20636861726d2070726963656044820152606490fd5b835162461bcd60e51b815260208185015260188187015277151a5b5950dd5c9d994e881d1a5b595c88195e1c1a5c995960421b6044820152606490fd5b506010836020606494519362461bcd60e51b85528401528201526f151a5b5950dd5c9d994e88195b99195960821b6044820152fd5b90503461021a575f36600319011261021a57610a69611f55565b610a7760ff60035416611a4a565b335f526020818152825f205415610c0157335f526008815260ff835f205416610bc157335f5260088152825f20600160ff19825416179055818152610adf835f20547f0000000000000000000000000000000000000000000000000000000000000000611a8d565b600254908115610bae5704918215610b6d57508192610b407f93217ac9dc7fe0357c6dc24faa5562202a650e5159971349259825c3d252f8af93337f0000000000000000000000000000000000000000000000000000000000000000611f97565b519283523392a260017f9b779b17422d0df92223018b32b4d1fa46e071723d6817e2486d003becc55f0055005b60649184519162461bcd60e51b8352820152601c60248201527f54696d6543757276653a206e6f7468696e6720746f2072656465656d000000006044820152fd5b601284634e487b7160e01b5f525260245ffd5b606492519162461bcd60e51b8352820152601b60248201527f54696d6543757276653a20616c72656164792072656465656d656400000000006044820152fd5b606492519162461bcd60e51b8352820152601a60248201527f54696d6543757276653a206e6f20636861726d207765696768740000000000006044820152fd5b823461021a57602036600319011261021a5781356001600160a01b038116929083900361021a576020925f528252805f20549051908152f35b90503461021a575f36600319011261021a5760209151908152f35b823461021a575f36600319011261021a576020905160068152f35b90503461021a5760208060031936011261021a57813591610ccf611f55565b5f935f5494610cdf861515611a05565b60ff60035416610f59576001958654421015610f1b57610cff9042611e54565b90610d4b827f00000000000000000000000000000000000000000000000000000000000000007f0000000000000000000000000000000000000000000000000000000000000000611f27565b93610d767f000000000000000000000000000000000000000000000000000000000000000086611a8d565b858810610eda578711610ea0577f00000000000000000000000000000000000000000000000000000000000000008451906323b872dd60e01b5f5233835260249130835289604452885f60648180865af18b5f5114811615610e8b575b8188525f60605215610e6c57506001600160a01b037f000000000000000000000000000000000000000000000000000000000000000081169190610e188b8484611f97565b823b1561021a5760445f92838d958b5196879586946348fef59560e01b8652168a850152888401525af1801561064857610e59575061043588600254611ee5565b610e6491935061199f565b5f915f610428565b635274afe760e01b81526001600160a01b039091169281019290925290fd5b8b8115166108e957823b15153d151616610dd3565b835162461bcd60e51b81529081018690526014602482015273054696d6543757276653a2061626f7665206361760641b6044820152606490fd5b606482888088519262461bcd60e51b845283015260248201527f54696d6543757276653a2062656c6f77206d696e20636861726d2070726963656044820152fd5b825162461bcd60e51b81528085018690526018602482015277151a5b5950dd5c9d994e881d1a5b595c88195e1c1a5c995960421b6044820152606490fd5b5091606492519162461bcd60e51b8352820152601060248201526f151a5b5950dd5c9d994e88195b99195960821b6044820152fd5b823461021a575f36600319011261021a57517f00000000000000000000000000000000000000000000000000000000000000006001600160a01b03168152602090f35b823461021a575f36600319011261021a57602090516103e88152f35b823461021a575f36600319011261021a576020905160058152f35b823461021a575f36600319011261021a576020906002549051908152f35b90503461021a575f36600319011261021a575f546111c35781516370a0823160e01b81523082820152906020826024817f00000000000000000000000000000000000000000000000000000000000000006001600160a01b03165afa9182156111b9575f92611185575b507f000000000000000000000000000000000000000000000000000000000000000080921061113257507f5ee5e9eecd6fd27ba20784f8da118fe26b697aca487c80f605baec0b88ed363691425f5561112d61110c7f000000000000000000000000000000000000000000000000000000000000000042611ee5565b91826001555192839242846040919493926060820195825260208201520152565b0390a1005b608490602084519162461bcd60e51b8352820152602760248201527f54696d6543757276653a20696e73756666696369656e74206c61756e6368656460448201526620746f6b656e7360c81b6064820152fd5b9091506020813d6020116111b1575b816111a1602093836119e3565b8101031261021a5751905f611090565b3d9150611194565b83513d5f823e3d90fd5b6020606492519162461bcd60e51b8352820152601a60248201527f54696d6543757276653a20616c726561647920737461727465640000000000006044820152fd5b823461021a575f36600319011261021a576020905f549051908152f35b823461021a575f36600319011261021a57602090517f00000000000000000000000000000000000000000000000000000000000000008152f35b90503461021a57602036600319011261021a57356001600160a01b038116919082900361021a576020915f5260058252805f20549051908152f35b823461021a575f36600319011261021a576020905160028152f35b823461021a575f36600319011261021a576020906112ce611e61565b9051908152f35b3461021a575f36600319011261021a576112ed611ae8565b005b823461021a575f36600319011261021a57602090517f00000000000000000000000000000000000000000000000000000000000000008152f35b823461021a575f36600319011261021a57602090517f00000000000000000000000000000000000000000000000000000000000000008152f35b823461021a575f36600319011261021a57517f00000000000000000000000000000000000000000000000000000000000000006001600160a01b03168152602090f35b823461021a575f36600319011261021a57602090517f00000000000000000000000000000000000000000000000000000000000000008152f35b823461021a575f36600319011261021a57602090517f00000000000000000000000000000000000000000000000000000000000000008152f35b823461021a575f36600319011261021a57517f00000000000000000000000000000000000000000000000000000000000000006001600160a01b03168152602090f35b823461021a575f36600319011261021a576020905160018152f35b823461021a575f36600319011261021a57602090517f00000000000000000000000000000000000000000000000000000000000000008152f35b90503461021a57602036600319011261021a57356001600160a01b038116919082900361021a576020915f5260078252805f20549051908152f35b90503461021a57602036600319011261021a57356001600160a01b038116919082900361021a576020915f526008825260ff815f20541690519015158152f35b90503461021a575f36600319011261021a5761154b5f541515611a05565b60039081549160ff918284166116bf57600193600154421061167c5760ff19166001178255603280549091908381101561167457935b5f865b6115cd575b6002546032548951428152602081019290925260408201527f55dd79228014c8499f7a8a9f7d36d1a7e5c25b97eb1ae455893603d095aee94c90806060810161112d565b8181168681101561166e57600283603154160183811161165b57838291160383811161165b5783879116068681101561164957602e01546001600160a01b031686831015611649576009830180546001600160a01b031916909117905561164391906116399088611e54565b81600c0155611ef2565b86611584565b8585634e487b7160e01b5f525260245ffd5b601185634e487b7160e01b5f525260245ffd5b50611589565b508293611581565b855162461bcd60e51b8152602081840152601c60248201527f54696d6543757276653a2074696d6572206e6f742065787069726564000000006044820152606490fd5b606490602086519162461bcd60e51b8352820152601860248201527f54696d6543757276653a20616c726561647920656e64656400000000000000006044820152fd5b823461021a575f36600319011261021a576020906001549051908152f35b823461021a575f36600319011261021a57602090517f00000000000000000000000000000000000000000000000000000000000000008152f35b823461021a575f36600319011261021a5760209060ff60035460081c1690519015158152f35b823461021a575f36600319011261021a576020905160038152f35b90503461021a57602036600319011261021a57356001600160a01b038116919082900361021a576020915f5260068252805f20549051908152f35b90503461021a576020908160031936011261021a5780359060ff8216820361021a5760608451611805816119c7565b36903760608451611815816119c7565b36903760068210156118f7575060060290825192838360090190835f915b600383106118d75750505050611848846119c7565b805192600c015f83855b600383106118c05750505050611867836119c7565b51925f845b83600383106118a25750505050606083015f905b6003821061188d5760c085f35b82806001928651815201940191019092611880565b83516001600160a01b0316825292830192600192909201910161186c565b600191829185548152019301910190918490611852565b83546001600160a01b031681526001938401939290920191859101611833565b603290634e487b7160e01b5f525260245ffd5b823461021a575f36600319011261021a5760209060ff6003541690519015158152f35b823461021a575f36600319011261021a57602090517f00000000000000000000000000000000000000000000000000000000000000008152f35b3461021a575f36600319011261021a576020907f00000000000000000000000000000000000000000000000000000000000000008152f35b67ffffffffffffffff81116119b357604052565b634e487b7160e01b5f52604160045260245ffd5b6060810190811067ffffffffffffffff8211176119b357604052565b90601f8019910116810190811067ffffffffffffffff8211176119b357604052565b15611a0c57565b60405162461bcd60e51b8152602060048201526016602482015275151a5b5950dd5c9d994e881b9bdd081cdd185c9d195960521b6044820152606490fd5b15611a5157565b60405162461bcd60e51b8152602060048201526014602482015273151a5b5950dd5c9d994e881b9bdd08195b99195960621b6044820152606490fd5b81810292918115918404141715611aa057565b634e487b7160e01b5f52601160045260245ffd5b6003821015611ac35701905f90565b634e487b7160e01b5f52603260045260245ffd5b906003811015611ac35760051b0190565b6003549060ff611af9818416611a4a565b808360081c16611e165760018060a01b0390817f00000000000000000000000000000000000000000000000000000000000000001691807f00000000000000000000000000000000000000000000000000000000000000001660408051946370a0823160e01b8652600483818801526024936020888681865afa978815611e0c575f98611dd8575b508715611dcc576006809804906001968260011c9b601e840293801594818104601e14861715611dba576064900494601482029182046014141715611da85760649004908d1580611da0575b80611d98575b611d88576101009061ff00191617600355865193606085019d8e67ffffffffffffffff878210911117611d76578a9e895285526020850152868401525f9b5b611c49575b5050505050505050505090507f1ae1fac6be76a94950a139e90757f81e4ed7dbc26d278836bb13ebea5e2d52f15f80a1565b888c168a811015611d70578a8d1015611d5e5760098d8c02015f8a5b611c79575b5050509a870188169a87611c12565b8b81166003811015611d5857818d9186611c968f97969586611ab4565b90549060031b1c16151580611d45575b611cb7575b50840116909192611c65565b91509192935084611cc88385611ab4565b90549060031b1c1690611cdb8189611ad7565b51873b1561021a578b519263b34c62a360e01b84528b8b8501528d840152604483015284606483015260848201525f8160a481838a5af18015611d3b578c9493928e928692611d2c575b5090611cab565b611d359061199f565b5f611d25565b8a513d5f823e3d90fd5b50611d50818a611ad7565b511515611ca6565b50611c6a565b87603286634e487b7160e01b5f52525ffd5b50611c17565b89604188634e487b7160e01b5f52525ffd5b5050505050505050505050509050565b508115611bd3565b508415611bcd565b88601187634e487b7160e01b5f52525ffd5b89601188634e487b7160e01b5f52525ffd5b50505050505050509050565b9097506020813d602011611e04575b81611df4602093836119e3565b8101031261021a5751965f611b81565b3d9150611de7565b84513d5f823e3d90fd5b60405162461bcd60e51b815260206004820152601660248201527554696d6543757276653a207072697a657320646f6e6560501b6044820152606490fd5b91908203918211611aa057565b5f548015611ec057611e76611ebd9142611e54565b7f00000000000000000000000000000000000000000000000000000000000000007f0000000000000000000000000000000000000000000000000000000000000000611f27565b90565b507f000000000000000000000000000000000000000000000000000000000000000090565b91908201809211611aa057565b60ff1660ff8114611aa05760010190565b60ff60019116019060ff8211611aa057565b60ff5f199116019060ff8211611aa057565b91908115611f505762015180611f44611ebd9493611f4a93611a8d565b04612043565b9061209e565b505090565b7f9b779b17422d0df92223018b32b4d1fa46e071723d6817e2486d003becc55f006002815414611f855760029055565b604051633ee5aeb560e01b8152600490fd5b60405163a9059cbb60e01b5f9081526001600160a01b039384166004526024949094529260209060448180855af160015f5114811615611ff6575b8360405215611fe057505050565b635274afe760e01b835216600482015260249150fd5b600181151661200c57813b15153d151616611fd2565b833d5f823e3d90fd5b801561202f576ec097ce7bc90715b34b9f10000000000590565b634e487b7160e01b5f52601260045260245ffd5b68023f2fa8f6da5b9d3119811261209957680736ea4425c11ac630811361208157670de0b6b3a76400006714057b7ef767814f611ebd9202056129a8565b6024906040519063ca7ec0c560e01b82526004820152fd5b505f90565b905f198183098183029182808310920391808303921461211257670de0b6b3a76400009082821115612100577faccb18165bd6fe31ae1cf318dc5b51eee0e1ba569b88cd74c1773b91fac10669940990828211900360ee1b910360121c170290565b634e487b715f5260116020526024601cfd5b5050670de0b6b3a764000091500490565b915f5b600360ff9080828416101561224f5780831015611ac357600f838101549092906001600160a01b039081168882161461216b575050505061216690611ef2565b612126565b9194959390929650601293818501555b82811690811590811580612228575b1561221d5761219881611f15565b87811015611ac357890154841687821015611ac357818a0190858254166121be84611f15565b8a811015611ac3578c016001600160601b0360a01b91828254161790558254161790556121ea81611f15565b87811015611ac3578601549080870190612205825491611f15565b89811015611ac35788015555611aa0575f190161217b565b505050505050509050565b5086811015611ac3578086015461223e82611f15565b88811015611ac3578701541061218a565b50505091906014548111612261575050565b60018060a01b03809216916001600160601b0360a01b908160115416918483176011558360145560135480851161229b575b505050505050565b601054938383861695888717601055161760115584601355601455601254948585111561229357600f5491821617600f5516176010556012556013555f8080808080612293565b915f5b600360ff908082841610156124035780831015611ac3576015838101549092906001600160a01b039081168882161461232a575050505061232590611ef2565b6122e5565b9194959390929650601893818501555b828116908115908115806123dc575b1561221d5761235781611f15565b87811015611ac357890154841687821015611ac357818a01908582541661237d84611f15565b8a811015611ac3578c016001600160601b0360a01b91828254161790558254161790556123a981611f15565b87811015611ac35786015490808701906123c4825491611f15565b89811015611ac35788015555611aa0575f190161233a565b5086811015611ac357808601546123f282611f15565b88811015611ac35787015410612349565b5050509190601a548111612415575050565b60018060a01b03809216916001600160601b0360a01b9081601754169184831760175583601a5560195480851161244e57505050505050565b601654938383861695888717601655161760175584601955601a556018549485851115612293576015549182161760155516176016556018556019555f8080808080612293565b915f5b600360ff908082841610156125b65780831015611ac3576027838101549092906001600160a01b03908116888216146124dd57505050506124d890611ef2565b612498565b9194959390929650602a93818501555b8281169081159081158061258f575b1561221d5761250a81611f15565b87811015611ac357890154841687821015611ac357818a01908582541661253084611f15565b8a811015611ac3578c016001600160601b0360a01b918282541617905582541617905561255c81611f15565b87811015611ac3578601549080870190612577825491611f15565b89811015611ac35788015555611aa0575f19016124ed565b5086811015611ac357808601546125a582611f15565b88811015611ac357870154106124fc565b5050509190602c5481116125c8575050565b60018060a01b03809216916001600160601b0360a01b9081602954169184831760295583602c55602b5480851161260157505050505050565b602854938383861695888717602855161760295584602b55602c55602a54948585111561229357602754918216176027551617602855602a55602b555f8080808080612293565b90915f925b60039360ff8581831610156127eb5785821015611ac3576021828101549096906001600160a01b0390811687821614612698575050506126909192939450611ef2565b92919061264d565b9193955091602495818701555b8381169081159081158061279e575b15612793576126c281611f15565b8581101561276d5789015484168582101561276d57818a0190858254166126e884611f15565b88811015612780578c016001600160601b0360a01b918282541617905582541617905561271481611f15565b8581101561276d57880154908089019061272f825491611f15565b8781101561275a578a015555612747575f19016126a5565b85634e487b7160e01b5f5260116004525ffd5b8a634e487b7160e01b5f5260326004525ffd5b88634e487b7160e01b5f5260326004525ffd5b8b634e487b7160e01b5f5260326004525ffd5b505050505050915050565b50848110156127d857808801546127b482611f15565b868110156127c557890154106126b4565b89634e487b7160e01b5f5260326004525ffd5b87634e487b7160e01b5f5260326004525ffd5b505090925060265481116127fd575050565b60018060a01b03809216916001600160601b0360a01b908160235416918483176023558360265560255480851161283657505050505050565b6022549383838616958887176022551617602355846025556026556024549485851115612293576021549182161760215516176022556024556025555f8080808080612293565b9060ff602d541690600382109081159081926128fb575b506128f657611ac357601b019060018060a01b03166001600160601b0360a01b82541617905560ff602d541660ff6128cb82611f03565b16906003811015611ac357601e0155602d5460ff6128ea818316611f03565b169060ff191617602d55565b505050565b90507f0000000000000000000000000000000000000000000000000000000000000000105f612894565b600154428111156129a15761293b904290611e54565b7f00000000000000000000000000000000000000000000000000000000000000001061299e5760018060a01b03811690815f52600760205260405f2091825460018101809111611aa05761299c93555f52600760205260405f205490612648565b565b50565b505f61293b565b5f8112156129d55768033dd1780914b97114198112612099576129cc905f036129a8565b611ebd90612015565b680a688906bd8affffff811361320957670de0b6b3a764000080604092831b0590600160bf1b67ff0000000000000083166130f8575b66ff0000000000008316612ff0575b65ff00000000008316612ef0575b64ff000000008316612df8575b63ff0000008316612d08575b62ff00008316612c20575b61ff008316612b40575b60ff8316612a69575b02911c60bf031c90565b60808316612b2e575b838316612b1c575b60208316612b0a575b60108316612af8575b60088316612ae6575b60048316612ad4575b60028316612ac2575b6001831615612a5f576801000000000000000102831c612a5f565b6801000000000000000102831c612aa7565b6801000000000000000302831c612a9e565b6801000000000000000602831c612a95565b6801000000000000000b02831c612a8c565b6801000000000000001602831c612a83565b6801000000000000002c02831c612a7a565b6801000000000000005902831c612a72565b6180008316612c0e575b6140008316612bfc575b6120008316612bea575b6110008316612bd8575b6108008316612bc6575b6104008316612bb4575b6102008316612ba2575b610100831615612a5657680100000000000000b102831c612a56565b6801000000000000016302831c612b86565b680100000000000002c602831c612b7c565b6801000000000000058c02831c612b72565b68010000000000000b1702831c612b68565b6801000000000000162e02831c612b5e565b68010000000000002c5d02831c612b54565b680100000000000058b902831c612b4a565b628000008316612cf6575b624000008316612ce4575b622000008316612cd2575b621000008316612cc0575b620800008316612cae575b620400008316612c9c575b620200008316612c8a575b62010000831615612a4c576801000000000000b17202831c612a4c565b680100000000000162e402831c612c6d565b6801000000000002c5c802831c612c62565b68010000000000058b9102831c612c57565b680100000000000b172102831c612c4c565b68010000000000162e4302831c612c41565b680100000000002c5c8602831c612c36565b6801000000000058b90c02831c612c2b565b63800000008316612de6575b63400000008316612dd4575b63200000008316612dc2575b63100000008316612db0575b63080000008316612d9e575b63040000008316612d8c575b63020000008316612d7a575b6301000000831615612a415768010000000000b1721802831c612a41565b6801000000000162e43002831c612d5c565b68010000000002c5c86002831c612d50565b680100000000058b90c002831c612d44565b6801000000000b17217f02831c612d38565b680100000000162e42ff02831c612d2c565b6801000000002c5c85fe02831c612d20565b68010000000058b90bfc02831c612d14565b6480000000008316612ede575b6440000000008316612ecc575b6420000000008316612eba575b6410000000008316612ea8575b6408000000008316612e96575b6404000000008316612e84575b6402000000008316612e72575b640100000000831615612a3557680100000000b17217f802831c612a35565b68010000000162e42ff102831c612e53565b680100000002c5c85fe302831c612e46565b6801000000058b90bfce02831c612e39565b68010000000b17217fbb02831c612e2c565b6801000000162e42fff002831c612e1f565b68010000002c5c8601cc02831c612e12565b680100000058b90c0b4902831c612e05565b658000000000008316612fde575b654000000000008316612fcc575b652000000000008316612fba575b651000000000008316612fa8575b650800000000008316612f96575b650400000000008316612f84575b650200000000008316612f72575b65010000000000831615612a28576801000000b17218355102831c612a28565b680100000162e430e5a202831c612f52565b6801000002c5c863b73f02831c612f44565b68010000058b90cf1e6e02831c612f36565b680100000b1721bcfc9a02831c612f28565b68010000162e43f4f83102831c612f1a565b680100002c5c89d5ec6d02831c612f0c565b6801000058b91b5bc9ae02831c612efe565b668000000000000083166130e6575b664000000000000083166130d4575b662000000000000083166130c2575b661000000000000083166130b0575b6608000000000000831661309e575b6604000000000000831661308c575b6602000000000000831661307a575b6601000000000000831615612a1a5768010000b17255775c0402831c612a1a565b6801000162e525ee054702831c613059565b68010002c5cc37da949202831c61304a565b680100058ba01fb9f96d02831c61303b565b6801000b175effdc76ba02831c61302c565b680100162f3904051fa102831c61301d565b6801002c605e2e8cec5002831c61300e565b68010058c86da1c09ea202831c612fff565b67800000000000000083166131f6575b67400000000000000083166131e4575b67200000000000000083166131d2575b67100000000000000083166131c0575b67080000000000000083166131ae575b670400000000000000831661319c575b670200000000000000831661318a575b670100000000000000831615612a0b57680100b1afa5abcbed6102831c612a0b565b68010163da9fb33356d802831c613168565b680102c9a3e778060ee702831c613158565b6801059b0d31585743ae02831c613148565b68010b5586cf9890f62a02831c613138565b6801172b83c7d517adce02831c613128565b6801306fe0a31b7152df02831c613118565b5068016a09e667f3bcc909607f1b613108565b60249060405190626c1a0560e31b82526004820152fdfea2646970667358221220ac045af987b1425ab22b97100551def3a10bdbd1bcbb542acd3f47688fe4e63364736f6c63430008180033","linkReferences":{}},"methodIdentifiers":{"CAT_BIGGEST_BUY()":"9dd61125","CAT_CLOSING_WINDOW()":"e278070d","CAT_HIGHEST_CUMULATIVE()":"cf7c11c3","CAT_LAST_BUYERS()":"f3181a5d","CAT_MOST_BUYS()":"45e7134a","CAT_OPENING_WINDOW()":"1d435f45","NUM_CATEGORIES()":"e2181a13","REFERRAL_EACH_BPS()":"d5e68d7c","acceptedAsset()":"d906b4d1","biggestSingleBuy(address)":"1bed7648","buy(uint256)":"d96a094a","buy(uint256,bytes32)":"e9fca283","buyCount(address)":"9fefe7f4","charmWeight(address)":"e3b2ce01","charmsRedeemed(address)":"391d4d98","closingWindowBuyCount(address)":"3a9ae691","closingWindowSec()":"6e9d584d","currentMinBuyAmount()":"7d1a49dd","deadline()":"29dcb0cf","distributePrizes()":"7ce52eb6","endSale()":"380d831b","ended()":"12fa6feb","feeRouter()":"f29ebf61","growthRateWad()":"a491fa5d","initialMinBuy()":"6e00d8e5","initialTimerSec()":"12407d45","launchedToken()":"fd435125","openingWindowSec()":"5158c5ec","podium(uint8)":"1458d4ad","prizeVault()":"676a3a97","prizesDistributed()":"2777724b","purchaseCapMultiple()":"27997d82","redeemCharms()":"e56bc1ff","referralRegistry()":"4e627e62","saleStart()":"ab0bcc41","startSale()":"b66a0e5d","timerCapSec()":"0f632576","timerExtensionSec()":"438009aa","totalRaised()":"c5c4744c","totalTokensForSale()":"60219c7b"},"id":84}