{"abi":[{"type":"constructor","inputs":[],"stateMutability":"nonpayable"},{"type":"function","name":"CAT_DEFENDED_STREAK","inputs":[],"outputs":[{"name":"","type":"uint8","internalType":"uint8"}],"stateMutability":"view"},{"type":"function","name":"CAT_LAST_BUYERS","inputs":[],"outputs":[{"name":"","type":"uint8","internalType":"uint8"}],"stateMutability":"view"},{"type":"function","name":"CAT_TIME_BOOSTER","inputs":[],"outputs":[{"name":"","type":"uint8","internalType":"uint8"}],"stateMutability":"view"},{"type":"function","name":"CAT_WARBOW","inputs":[],"outputs":[{"name":"","type":"uint8","internalType":"uint8"}],"stateMutability":"view"},{"type":"function","name":"CRED_PER_BUY","inputs":[],"outputs":[{"name":"","type":"uint256","internalType":"uint256"}],"stateMutability":"view"},{"type":"function","name":"CRED_PER_CHARM_WAD","inputs":[],"outputs":[{"name":"","type":"uint256","internalType":"uint256"}],"stateMutability":"view"},{"type":"function","name":"DEFENDED_STREAK_WINDOW_SEC","inputs":[],"outputs":[{"name":"","type":"uint256","internalType":"uint256"}],"stateMutability":"view"},{"type":"function","name":"FIRST_BUY_CRED_BONUS","inputs":[],"outputs":[{"name":"","type":"uint256","internalType":"uint256"}],"stateMutability":"view"},{"type":"function","name":"NUM_PODIUM_CATEGORIES","inputs":[],"outputs":[{"name":"","type":"uint8","internalType":"uint8"}],"stateMutability":"view"},{"type":"function","name":"REFERRAL_CRED_BPS","inputs":[],"outputs":[{"name":"","type":"uint16","internalType":"uint16"}],"stateMutability":"view"},{"type":"function","name":"SECONDS_PER_DAY","inputs":[],"outputs":[{"name":"","type":"uint256","internalType":"uint256"}],"stateMutability":"view"},{"type":"function","name":"UPGRADE_INTERFACE_VERSION","inputs":[],"outputs":[{"name":"","type":"string","internalType":"string"}],"stateMutability":"view"},{"type":"function","name":"WARBOW_AMBUSH_BONUS_BP","inputs":[],"outputs":[{"name":"","type":"uint256","internalType":"uint256"}],"stateMutability":"view"},{"type":"function","name":"WARBOW_BASE_BUY_BP","inputs":[],"outputs":[{"name":"","type":"uint256","internalType":"uint256"}],"stateMutability":"view"},{"type":"function","name":"WARBOW_CLUTCH_BONUS_BP","inputs":[],"outputs":[{"name":"","type":"uint256","internalType":"uint256"}],"stateMutability":"view"},{"type":"function","name":"WARBOW_FLAG_CLAIM_BP","inputs":[],"outputs":[{"name":"","type":"uint256","internalType":"uint256"}],"stateMutability":"view"},{"type":"function","name":"WARBOW_FLAG_SILENCE_SEC","inputs":[],"outputs":[{"name":"","type":"uint256","internalType":"uint256"}],"stateMutability":"view"},{"type":"function","name":"WARBOW_GUARD_DOUB","inputs":[],"outputs":[{"name":"","type":"uint256","internalType":"uint256"}],"stateMutability":"view"},{"type":"function","name":"WARBOW_GUARD_DURATION_SEC","inputs":[],"outputs":[{"name":"","type":"uint256","internalType":"uint256"}],"stateMutability":"view"},{"type":"function","name":"WARBOW_MAX_STEALS_PER_DAY","inputs":[],"outputs":[{"name":"","type":"uint8","internalType":"uint8"}],"stateMutability":"view"},{"type":"function","name":"WARBOW_REVENGE_DOUB","inputs":[],"outputs":[{"name":"","type":"uint256","internalType":"uint256"}],"stateMutability":"view"},{"type":"function","name":"WARBOW_REVENGE_WINDOW_SEC","inputs":[],"outputs":[{"name":"","type":"uint256","internalType":"uint256"}],"stateMutability":"view"},{"type":"function","name":"WARBOW_STEAL_DOUB","inputs":[],"outputs":[{"name":"","type":"uint256","internalType":"uint256"}],"stateMutability":"view"},{"type":"function","name":"WARBOW_STEAL_DRAIN_BPS","inputs":[],"outputs":[{"name":"","type":"uint16","internalType":"uint16"}],"stateMutability":"view"},{"type":"function","name":"WARBOW_STEAL_DRAIN_GUARDED_BPS","inputs":[],"outputs":[{"name":"","type":"uint16","internalType":"uint16"}],"stateMutability":"view"},{"type":"function","name":"WARBOW_STEAL_LIMIT_BYPASS_DOUB","inputs":[],"outputs":[{"name":"","type":"uint256","internalType":"uint256"}],"stateMutability":"view"},{"type":"function","name":"WARBOW_STREAK_BREAK_MULT_BP","inputs":[],"outputs":[{"name":"","type":"uint256","internalType":"uint256"}],"stateMutability":"view"},{"type":"function","name":"WARBOW_TIMER_RESET_BONUS_BP","inputs":[],"outputs":[{"name":"","type":"uint256","internalType":"uint256"}],"stateMutability":"view"},{"type":"function","name":"activeDefendedStreak","inputs":[{"name":"","type":"address","internalType":"address"}],"outputs":[{"name":"","type":"uint256","internalType":"uint256"}],"stateMutability":"view"},{"type":"function","name":"adminSellVault","inputs":[],"outputs":[{"name":"","type":"address","internalType":"contract AdminSellVault"}],"stateMutability":"view"},{"type":"function","name":"arenaStart","inputs":[],"outputs":[{"name":"","type":"uint256","internalType":"uint256"}],"stateMutability":"view"},{"type":"function","name":"battlePoints","inputs":[{"name":"","type":"address","internalType":"address"}],"outputs":[{"name":"","type":"uint256","internalType":"uint256"}],"stateMutability":"view"},{"type":"function","name":"bestDefendedStreak","inputs":[{"name":"","type":"address","internalType":"address"}],"outputs":[{"name":"","type":"uint256","internalType":"uint256"}],"stateMutability":"view"},{"type":"function","name":"buy","inputs":[{"name":"charmWad","type":"uint256","internalType":"uint256"}],"outputs":[],"stateMutability":"nonpayable"},{"type":"function","name":"buy","inputs":[{"name":"charmWad","type":"uint256","internalType":"uint256"},{"name":"codeHash","type":"bytes32","internalType":"bytes32"}],"outputs":[],"stateMutability":"nonpayable"},{"type":"function","name":"buyCooldownSec","inputs":[],"outputs":[{"name":"","type":"uint256","internalType":"uint256"}],"stateMutability":"view"},{"type":"function","name":"buyCount","inputs":[{"name":"","type":"address","internalType":"address"}],"outputs":[{"name":"","type":"uint256","internalType":"uint256"}],"stateMutability":"view"},{"type":"function","name":"buyFor","inputs":[{"name":"buyer","type":"address","internalType":"address"},{"name":"charmWad","type":"uint256","internalType":"uint256"},{"name":"codeHash","type":"bytes32","internalType":"bytes32"},{"name":"plantWarBowFlag","type":"bool","internalType":"bool"}],"outputs":[],"stateMutability":"nonpayable"},{"type":"function","name":"buyWithCred","inputs":[{"name":"charmWad","type":"uint256","internalType":"uint256"}],"outputs":[],"stateMutability":"nonpayable"},{"type":"function","name":"charmPriceWad","inputs":[],"outputs":[{"name":"","type":"uint256","internalType":"uint256"}],"stateMutability":"view"},{"type":"function","name":"charmWeight","inputs":[{"name":"","type":"address","internalType":"address"}],"outputs":[{"name":"","type":"uint256","internalType":"uint256"}],"stateMutability":"view"},{"type":"function","name":"claimCred","inputs":[{"name":"epoch","type":"uint256","internalType":"uint256"}],"outputs":[],"stateMutability":"nonpayable"},{"type":"function","name":"claimWarBowFlag","inputs":[],"outputs":[],"stateMutability":"nonpayable"},{"type":"function","name":"deadline","inputs":[],"outputs":[{"name":"","type":"uint256","internalType":"uint256"}],"stateMutability":"view"},{"type":"function","name":"doub","inputs":[],"outputs":[{"name":"","type":"address","internalType":"contract IERC20"}],"stateMutability":"view"},{"type":"function","name":"epochCharmTotal","inputs":[{"name":"","type":"uint256","internalType":"uint256"}],"outputs":[{"name":"","type":"uint256","internalType":"uint256"}],"stateMutability":"view"},{"type":"function","name":"epochCharmWad","inputs":[{"name":"","type":"uint256","internalType":"uint256"},{"name":"","type":"address","internalType":"address"}],"outputs":[{"name":"","type":"uint256","internalType":"uint256"}],"stateMutability":"view"},{"type":"function","name":"epochCredPool","inputs":[{"name":"","type":"uint256","internalType":"uint256"}],"outputs":[{"name":"","type":"uint256","internalType":"uint256"}],"stateMutability":"view"},{"type":"function","name":"epochFixedCredBonus","inputs":[{"name":"","type":"uint256","internalType":"uint256"},{"name":"","type":"address","internalType":"address"}],"outputs":[{"name":"","type":"uint256","internalType":"uint256"}],"stateMutability":"view"},{"type":"function","name":"finalizeWarbowPodium","inputs":[{"name":"epoch","type":"uint256","internalType":"uint256"},{"name":"first","type":"address","internalType":"address"},{"name":"second","type":"address","internalType":"address"},{"name":"third","type":"address","internalType":"address"}],"outputs":[],"stateMutability":"nonpayable"},{"type":"function","name":"initialTimerSec","inputs":[],"outputs":[{"name":"","type":"uint256","internalType":"uint256"}],"stateMutability":"view"},{"type":"function","name":"initialize","inputs":[{"name":"_doub","type":"address","internalType":"contract IERC20"},{"name":"_podiumVaults","type":"address","internalType":"contract PodiumVaults"},{"name":"_adminSellVault","type":"address","internalType":"contract AdminSellVault"},{"name":"_referralRegistry","type":"address","internalType":"address"},{"name":"_playCred","type":"address","internalType":"address"},{"name":"_charmPriceWad","type":"uint256","internalType":"uint256"},{"name":"_podiumTimerExtensionSec","type":"uint256[4]","internalType":"uint256[4]"},{"name":"_podiumInitialTimerSec","type":"uint256[4]","internalType":"uint256[4]"},{"name":"_podiumTimerCapSec","type":"uint256[4]","internalType":"uint256[4]"},{"name":"_podiumResetBelowRemainingSec","type":"uint256[4]","internalType":"uint256[4]"},{"name":"_podiumResetToRemainingSec","type":"uint256[4]","internalType":"uint256[4]"},{"name":"_buyCooldownSec","type":"uint256","internalType":"uint256"},{"name":"upgradeAdmin","type":"address","internalType":"address"}],"outputs":[],"stateMutability":"nonpayable"},{"type":"function","name":"lastBuyEpoch","inputs":[],"outputs":[{"name":"","type":"uint256","internalType":"uint256"}],"stateMutability":"view"},{"type":"function","name":"lastBuyers","inputs":[],"outputs":[{"name":"","type":"address[3]","internalType":"address[3]"}],"stateMutability":"view"},{"type":"function","name":"level","inputs":[{"name":"user","type":"address","internalType":"address"}],"outputs":[{"name":"","type":"uint256","internalType":"uint256"}],"stateMutability":"view"},{"type":"function","name":"nextBuyAllowedAt","inputs":[{"name":"","type":"address","internalType":"address"}],"outputs":[{"name":"","type":"uint256","internalType":"uint256"}],"stateMutability":"view"},{"type":"function","name":"owner","inputs":[],"outputs":[{"name":"","type":"address","internalType":"address"}],"stateMutability":"view"},{"type":"function","name":"paused","inputs":[],"outputs":[{"name":"","type":"bool","internalType":"bool"}],"stateMutability":"view"},{"type":"function","name":"pendingCred","inputs":[{"name":"user","type":"address","internalType":"address"},{"name":"epoch","type":"uint256","internalType":"uint256"}],"outputs":[{"name":"","type":"uint256","internalType":"uint256"}],"stateMutability":"view"},{"type":"function","name":"playCred","inputs":[],"outputs":[{"name":"","type":"address","internalType":"contract IPlayCred"}],"stateMutability":"view"},{"type":"function","name":"podium","inputs":[{"name":"category","type":"uint8","internalType":"uint8"}],"outputs":[{"name":"winners","type":"address[3]","internalType":"address[3]"},{"name":"values","type":"uint256[3]","internalType":"uint256[3]"}],"stateMutability":"view"},{"type":"function","name":"podiumDeadline","inputs":[{"name":"","type":"uint256","internalType":"uint256"}],"outputs":[{"name":"","type":"uint256","internalType":"uint256"}],"stateMutability":"view"},{"type":"function","name":"podiumEpoch","inputs":[{"name":"","type":"uint256","internalType":"uint256"}],"outputs":[{"name":"","type":"uint256","internalType":"uint256"}],"stateMutability":"view"},{"type":"function","name":"podiumInitialTimerSec","inputs":[{"name":"","type":"uint256","internalType":"uint256"}],"outputs":[{"name":"","type":"uint256","internalType":"uint256"}],"stateMutability":"view"},{"type":"function","name":"podiumResetBelowRemainingSec","inputs":[{"name":"","type":"uint256","internalType":"uint256"}],"outputs":[{"name":"","type":"uint256","internalType":"uint256"}],"stateMutability":"view"},{"type":"function","name":"podiumResetToRemainingSec","inputs":[{"name":"","type":"uint256","internalType":"uint256"}],"outputs":[{"name":"","type":"uint256","internalType":"uint256"}],"stateMutability":"view"},{"type":"function","name":"podiumTimerCapSec","inputs":[{"name":"","type":"uint256","internalType":"uint256"}],"outputs":[{"name":"","type":"uint256","internalType":"uint256"}],"stateMutability":"view"},{"type":"function","name":"podiumTimerExtensionSec","inputs":[{"name":"","type":"uint256","internalType":"uint256"}],"outputs":[{"name":"","type":"uint256","internalType":"uint256"}],"stateMutability":"view"},{"type":"function","name":"podiumVaults","inputs":[],"outputs":[{"name":"","type":"address","internalType":"contract PodiumVaults"}],"stateMutability":"view"},{"type":"function","name":"proxiableUUID","inputs":[],"outputs":[{"name":"","type":"bytes32","internalType":"bytes32"}],"stateMutability":"view"},{"type":"function","name":"referralRegistry","inputs":[],"outputs":[{"name":"","type":"address","internalType":"contract IReferralRegistry"}],"stateMutability":"view"},{"type":"function","name":"renounceOwnership","inputs":[],"outputs":[],"stateMutability":"nonpayable"},{"type":"function","name":"rollPodiumEpoch","inputs":[{"name":"category","type":"uint8","internalType":"uint8"}],"outputs":[],"stateMutability":"nonpayable"},{"type":"function","name":"setCharmPriceWad","inputs":[{"name":"wad","type":"uint256","internalType":"uint256"}],"outputs":[],"stateMutability":"nonpayable"},{"type":"function","name":"setPaused","inputs":[{"name":"p","type":"bool","internalType":"bool"}],"outputs":[],"stateMutability":"nonpayable"},{"type":"function","name":"setTimeArenaBuyRouter","inputs":[{"name":"router","type":"address","internalType":"address"}],"outputs":[],"stateMutability":"nonpayable"},{"type":"function","name":"startArena","inputs":[],"outputs":[],"stateMutability":"nonpayable"},{"type":"function","name":"stealsCommittedByAttackerOnDay","inputs":[{"name":"","type":"address","internalType":"address"},{"name":"","type":"uint256","internalType":"uint256"}],"outputs":[{"name":"","type":"uint8","internalType":"uint8"}],"stateMutability":"view"},{"type":"function","name":"stealsReceivedOnDay","inputs":[{"name":"","type":"address","internalType":"address"},{"name":"","type":"uint256","internalType":"uint256"}],"outputs":[{"name":"","type":"uint8","internalType":"uint8"}],"stateMutability":"view"},{"type":"function","name":"timeArenaBuyRouter","inputs":[],"outputs":[{"name":"","type":"address","internalType":"address"}],"stateMutability":"view"},{"type":"function","name":"timerCapSec","inputs":[],"outputs":[{"name":"","type":"uint256","internalType":"uint256"}],"stateMutability":"view"},{"type":"function","name":"timerExtensionSec","inputs":[],"outputs":[{"name":"","type":"uint256","internalType":"uint256"}],"stateMutability":"view"},{"type":"function","name":"topUpPodiumPools","inputs":[{"name":"amountDoubWad","type":"uint256","internalType":"uint256"}],"outputs":[],"stateMutability":"nonpayable"},{"type":"function","name":"totalCharmWeight","inputs":[],"outputs":[{"name":"","type":"uint256","internalType":"uint256"}],"stateMutability":"view"},{"type":"function","name":"totalDoubRaised","inputs":[],"outputs":[{"name":"","type":"uint256","internalType":"uint256"}],"stateMutability":"view"},{"type":"function","name":"totalEffectiveTimerSecAdded","inputs":[{"name":"","type":"address","internalType":"address"}],"outputs":[{"name":"","type":"uint256","internalType":"uint256"}],"stateMutability":"view"},{"type":"function","name":"transferOwnership","inputs":[{"name":"newOwner","type":"address","internalType":"address"}],"outputs":[],"stateMutability":"nonpayable"},{"type":"function","name":"upgradeToAndCall","inputs":[{"name":"newImplementation","type":"address","internalType":"address"},{"name":"data","type":"bytes","internalType":"bytes"}],"outputs":[],"stateMutability":"payable"},{"type":"function","name":"warbowActivateGuard","inputs":[],"outputs":[],"stateMutability":"nonpayable"},{"type":"function","name":"warbowEpochFinalized","inputs":[{"name":"","type":"uint256","internalType":"uint256"}],"outputs":[{"name":"","type":"bool","internalType":"bool"}],"stateMutability":"view"},{"type":"function","name":"warbowGuardUntil","inputs":[{"name":"","type":"address","internalType":"address"}],"outputs":[{"name":"","type":"uint256","internalType":"uint256"}],"stateMutability":"view"},{"type":"function","name":"warbowPendingFlagOwner","inputs":[],"outputs":[{"name":"","type":"address","internalType":"address"}],"stateMutability":"view"},{"type":"function","name":"warbowPendingFlagPlantAt","inputs":[],"outputs":[{"name":"","type":"uint256","internalType":"uint256"}],"stateMutability":"view"},{"type":"function","name":"warbowPendingRevengeExpiryExclusive","inputs":[{"name":"","type":"address","internalType":"address"},{"name":"","type":"address","internalType":"address"}],"outputs":[{"name":"","type":"uint256","internalType":"uint256"}],"stateMutability":"view"},{"type":"function","name":"warbowPendingRevengeStealSeq","inputs":[{"name":"","type":"address","internalType":"address"},{"name":"","type":"address","internalType":"address"}],"outputs":[{"name":"","type":"uint256","internalType":"uint256"}],"stateMutability":"view"},{"type":"function","name":"warbowRevenge","inputs":[{"name":"stealer","type":"address","internalType":"address"}],"outputs":[],"stateMutability":"nonpayable"},{"type":"function","name":"warbowSteal","inputs":[{"name":"victim","type":"address","internalType":"address"},{"name":"payBypassBurn","type":"bool","internalType":"bool"}],"outputs":[],"stateMutability":"nonpayable"},{"type":"function","name":"xp","inputs":[{"name":"","type":"address","internalType":"address"}],"outputs":[{"name":"","type":"uint256","internalType":"uint256"}],"stateMutability":"view"},{"type":"function","name":"xpToNextLevel","inputs":[{"name":"user","type":"address","internalType":"address"}],"outputs":[{"name":"","type":"uint256","internalType":"uint256"}],"stateMutability":"view"},{"type":"function","name":"xpTowardNext","inputs":[{"name":"","type":"address","internalType":"address"}],"outputs":[{"name":"","type":"uint256","internalType":"uint256"}],"stateMutability":"view"},{"type":"event","name":"ArenaStarted","inputs":[{"name":"startTimestamp","type":"uint256","indexed":false,"internalType":"uint256"},{"name":"initialDeadline","type":"uint256","indexed":false,"internalType":"uint256"}],"anonymous":false},{"type":"event","name":"Buy","inputs":[{"name":"buyer","type":"address","indexed":true,"internalType":"address"},{"name":"charmWad","type":"uint256","indexed":false,"internalType":"uint256"},{"name":"doubPaid","type":"uint256","indexed":false,"internalType":"uint256"},{"name":"newDeadline","type":"uint256","indexed":false,"internalType":"uint256"},{"name":"totalDoubRaisedAfter","type":"uint256","indexed":false,"internalType":"uint256"},{"name":"buyIndex","type":"uint256","indexed":false,"internalType":"uint256"},{"name":"actualSecondsAdded","type":"uint256","indexed":false,"internalType":"uint256"},{"name":"timerHardReset","type":"bool","indexed":false,"internalType":"bool"},{"name":"paidWithCred","type":"bool","indexed":false,"internalType":"bool"}],"anonymous":false},{"type":"event","name":"CredClaimed","inputs":[{"name":"user","type":"address","indexed":true,"internalType":"address"},{"name":"epoch","type":"uint256","indexed":true,"internalType":"uint256"},{"name":"amount","type":"uint256","indexed":false,"internalType":"uint256"}],"anonymous":false},{"type":"event","name":"FirstBuyCredScheduled","inputs":[{"name":"buyer","type":"address","indexed":true,"internalType":"address"},{"name":"targetEpoch","type":"uint256","indexed":true,"internalType":"uint256"},{"name":"amount","type":"uint256","indexed":false,"internalType":"uint256"}],"anonymous":false},{"type":"event","name":"Initialized","inputs":[{"name":"version","type":"uint64","indexed":false,"internalType":"uint64"}],"anonymous":false},{"type":"event","name":"LastBuyEpochStarted","inputs":[{"name":"epoch","type":"uint256","indexed":true,"internalType":"uint256"},{"name":"deadline","type":"uint256","indexed":false,"internalType":"uint256"}],"anonymous":false},{"type":"event","name":"OwnershipTransferred","inputs":[{"name":"previousOwner","type":"address","indexed":true,"internalType":"address"},{"name":"newOwner","type":"address","indexed":true,"internalType":"address"}],"anonymous":false},{"type":"event","name":"PausedSet","inputs":[{"name":"paused","type":"bool","indexed":false,"internalType":"bool"}],"anonymous":false},{"type":"event","name":"PodiumEpochRolled","inputs":[{"name":"category","type":"uint8","indexed":true,"internalType":"uint8"},{"name":"epoch","type":"uint256","indexed":true,"internalType":"uint256"},{"name":"first","type":"address","indexed":false,"internalType":"address"},{"name":"second","type":"address","indexed":false,"internalType":"address"},{"name":"third","type":"address","indexed":false,"internalType":"address"},{"name":"poolPaid","type":"uint256","indexed":false,"internalType":"uint256"}],"anonymous":false},{"type":"event","name":"PodiumPoolsToppedUp","inputs":[{"name":"donor","type":"address","indexed":true,"internalType":"address"},{"name":"amountDoubWad","type":"uint256","indexed":false,"internalType":"uint256"}],"anonymous":false},{"type":"event","name":"ReferralCredApplied","inputs":[{"name":"buyer","type":"address","indexed":true,"internalType":"address"},{"name":"referrer","type":"address","indexed":true,"internalType":"address"},{"name":"codeHash","type":"bytes32","indexed":true,"internalType":"bytes32"},{"name":"referrerCred","type":"uint256","indexed":false,"internalType":"uint256"},{"name":"buyerCred","type":"uint256","indexed":false,"internalType":"uint256"}],"anonymous":false},{"type":"event","name":"Upgraded","inputs":[{"name":"implementation","type":"address","indexed":true,"internalType":"address"}],"anonymous":false},{"type":"event","name":"WarBowFlagClaimed","inputs":[{"name":"player","type":"address","indexed":true,"internalType":"address"},{"name":"bonusBp","type":"uint256","indexed":false,"internalType":"uint256"}],"anonymous":false},{"type":"event","name":"WarBowGuard","inputs":[{"name":"player","type":"address","indexed":true,"internalType":"address"},{"name":"doubSpent","type":"uint256","indexed":false,"internalType":"uint256"},{"name":"guardUntil","type":"uint256","indexed":false,"internalType":"uint256"}],"anonymous":false},{"type":"event","name":"WarBowRevenge","inputs":[{"name":"avenger","type":"address","indexed":true,"internalType":"address"},{"name":"stealer","type":"address","indexed":true,"internalType":"address"},{"name":"bpTaken","type":"uint256","indexed":false,"internalType":"uint256"},{"name":"doubSpent","type":"uint256","indexed":false,"internalType":"uint256"}],"anonymous":false},{"type":"event","name":"WarBowSteal","inputs":[{"name":"attacker","type":"address","indexed":true,"internalType":"address"},{"name":"victim","type":"address","indexed":true,"internalType":"address"},{"name":"bpTaken","type":"uint256","indexed":false,"internalType":"uint256"},{"name":"doubSpent","type":"uint256","indexed":false,"internalType":"uint256"},{"name":"limitBypassBurned","type":"bool","indexed":false,"internalType":"bool"}],"anonymous":false},{"type":"event","name":"WarbowPodiumFinalized","inputs":[{"name":"epoch","type":"uint256","indexed":true,"internalType":"uint256"},{"name":"first","type":"address","indexed":false,"internalType":"address"},{"name":"second","type":"address","indexed":false,"internalType":"address"},{"name":"third","type":"address","indexed":false,"internalType":"address"}],"anonymous":false},{"type":"event","name":"XpGained","inputs":[{"name":"player","type":"address","indexed":true,"internalType":"address"},{"name":"amount","type":"uint256","indexed":false,"internalType":"uint256"},{"name":"newLevel","type":"uint256","indexed":false,"internalType":"uint256"}],"anonymous":false},{"type":"error","name":"AddressEmptyCode","inputs":[{"name":"target","type":"address","internalType":"address"}]},{"type":"error","name":"ERC1967InvalidImplementation","inputs":[{"name":"implementation","type":"address","internalType":"address"}]},{"type":"error","name":"ERC1967NonPayable","inputs":[]},{"type":"error","name":"FailedCall","inputs":[]},{"type":"error","name":"InvalidInitialization","inputs":[]},{"type":"error","name":"NotInitializing","inputs":[]},{"type":"error","name":"OwnableInvalidOwner","inputs":[{"name":"owner","type":"address","internalType":"address"}]},{"type":"error","name":"OwnableUnauthorizedAccount","inputs":[{"name":"account","type":"address","internalType":"address"}]},{"type":"error","name":"ReentrancyGuardReentrantCall","inputs":[]},{"type":"error","name":"SafeERC20FailedOperation","inputs":[{"name":"token","type":"address","internalType":"address"}]},{"type":"error","name":"UUPSUnauthorizedCallContext","inputs":[]},{"type":"error","name":"UUPSUnsupportedProxiableUUID","inputs":[{"name":"slot","type":"bytes32","internalType":"bytes32"}]}],"bytecode":{"object":"0x60a08060405234620000f55760017f9b779b17422d0df92223018b32b4d1fa46e071723d6817e2486d003becc55f0055306080527ff0c57e16840df040f15088dc2f81fe391c3923bec73e23a9662efc9c229c6a009081549060ff8260401c16620000e657506001600160401b036002600160401b031982821601620000a0575b6040516165689081620000fa823960805181818161322f015261335f0152f35b6001600160401b031990911681179091556040519081527fc7f505b2f371ae2175ee4913f4499e1f2633a7b5936321eed1cdaeb6115181d290602090a15f808062000080565b63f92ee8a960e01b8152600490fd5b5f80fdfe60806040526004361015610011575f80fd5b5f803560e01c80630152f65f146144f85780630458a6a2146144dd5780630490cb74146144a5578063079110e414613ff057806307f2871514613fd35780630bdf134414613fb85780630f63257614613f9b57806312407d4514613f7e57806313daca8414613f5a5780631458d4ad14613efb57806315e59a2d14613ed357806316c38b3c14613e7157806318f0574d14613e545780631afd955614613e385780631bb303da14613e1c5780632128c5bf14613df957806321f28f8714613dcd57806323df521514613886578063241a67ea1461386b57806324bceab31461379e57806329dcb0cf146137815780632c06f19b1461373457806339524dc81461370c578063429dbb15146136e2578063438009aa146136c55780634423338e1461369d578063487d3c84146135335780634e627e621461350b5780634f1ef286146132dd5780634f70a2f91461329957806352d1902d1461321d578063534b34d514611f4b57806357cd7c88146131f8578063580a68b6146131c05780635c975abb1461319e5780635d385f88146131665780635eb7fb0c1461313a57806363e170581461311f5780636611fd1b146130f357806366b1808714612ebf5780636989705314612e925780636a9ea06714612e755780636d7121e8146127ad5780636dc84fb31461278f5780636e19a728146127615780636fa1cba7146124b7578063715018a61461244e57806374f0314f1461205357806375c4842014612407578063787a2c24146123de578063795ce9cd146123ba57806382e02b0b1461236d57806387257c2514612343578063875f29161461230a5780638da5cb5b146122d55780638e9a6122146122ae57806390802dea1461209257806390c25e9f1461207657806392882c361461205857806393b994ba146120535780639d70e6711461200c5780639fefe7f414611fd3578063a247c2eb14611f9a578063a56cba7514611f6d578063a57467ca14611f50578063a964525a14611f4b578063a9b2424e14611f12578063a9b74776146119b4578063ab8a6eb314611987578063ad3cb1cc146118e3578063b210d9f2146118aa578063b5b52a411461188e578063b6f3449914611721578063b95683e4146116e8578063b9a5684f146116ca578063bb4a1915146116a5578063bcd8c93014611676578063bf38cfbf146114ec578063c364fb8d146113ea578063c3f95f78146114cf578063c71bfd6f14611458578063c71d071914611413578063cf0f876414610557578063d06fec83146113ef578063d2e0218f146113ea578063d41b6db6146113a0578063d96a094a14611169578063db4ddd3014610485578063deb26f6c1461113c578063e3b2ce0114611103578063e7a5ccf4146110c3578063e88f9001146110a5578063e9fca28314610bfd578063ee48c9f514610574578063f0d77b7014610557578063f2fde38b1461052a578063f3181a5d1461050e578063f3a6915d146104a1578063fbe69531146104855763febc020f14610466575f80fd5b34610482578060031936011261048257602060405161012c8152f35b80fd5b5034610482578060031936011261048257602060405160648152f35b503461048257806003193601126104825760606040516104c081614638565b36903760405160595f825b600382106104ee576060846104df81614638565b6104ec60405180926145d8565bf35b82546001600160a01b0316815260019283019291909101906020016104cb565b5034610482578060031936011261048257602090604051908152f35b503461048257602036600319011261048257610554610547614596565b61054f614fa5565b614965565b80f35b503461048257806003193601126104825760206040516103e88152f35b50346104825761038036600319011261048257600435906001600160a01b038216820361048257602435906001600160a01b038216820361048257604435926001600160a01b0384168403610bf9576105cb6145c2565b91608435916001600160a01b0383168303610bf1573661014411610bf957366101c411610bf9573661024411610bf957366102c411610bf95761034492368411610bf557610364356001600160a01b0381169003610bf1575f80516020616513833981519152549467ffffffffffffffff86161580610be3575b600167ffffffffffffffff8816149081610bd9575b159081610bd0575b50610bbe57600167ffffffffffffffff198716175f805160206165138339815191525560ff8660401c1615610b92575b61069a6162b3565b6106a26162b3565b6106ae61036435614965565b6001600160a01b03831615610b56576001600160a01b03871615610b18576001600160a01b03881615610ad3576106e860a4351515614893565b843515610a8e57835b60ff8116600481101561090c57610707816148f6565b35156108b85761071681614908565b3515610867576107258161491b565b3561072f82614908565b35116108145761073e8161492e565b3561074882614941565b3511156107c45761076261075b82614941565b359161491b565b35106107735760010160ff166106f1565b60405162461bcd60e51b815260206004820152602360248201527f4172656e61506f6469756d54696d6572436f6e6669673a207265736574203e2060448201526206361760ec1b6064820152608490fd5b60405162461bcd60e51b815260206004820152602260248201527f4172656e61506f6469756d54696d6572436f6e6669673a2072657365742062616044820152611b9960f21b6064820152608490fd5b60405162461bcd60e51b815260206004820152602560248201527f4172656e61506f6469756d54696d6572436f6e6669673a20636170203c20696e6044820152641a5d1a585b60da1b6064820152608490fd5b60405162461bcd60e51b8152602060048201526024808201527f4172656e61506f6469756d54696d6572436f6e6669673a207a65726f20696e696044820152631d1a585b60e21b6064820152608490fd5b60405162461bcd60e51b815260206004820152602660248201527f4172656e61506f6469756d54696d6572436f6e6669673a207a65726f2065787460448201526532b739b4b7b760d11b6064820152608490fd5b505083546001600160a01b03199081166001600160a01b03948516178555600180548216858a16179055600280548216858b16179055921680610a7f575b506001600160a01b038116610a67575b505060a435600555805b60ff811660048110156109e65761097a816148f6565b3560048310156109d257916109c560019260ff94836009015561099c81614908565b3583600d01556109ab8161491b565b3583601101556109ba8161492e565b358360150155614941565b3581601901550116610964565b634e487b7160e01b84526032600452602484fd5b8260ff868660c435600655610144356007556101c43560085535601d5560401c1615610a0f5780f35b68ff0000000000000000195f8051602061651383398151915254165f80516020616513833981519152557fc7f505b2f371ae2175ee4913f4499e1f2633a7b5936321eed1cdaeb6115181d2602060405160018152a180f35b60018060a01b0316906004541617600455838061095a565b8260035416176003558561094a565b60405162461bcd60e51b815260206004820152601860248201527f54696d654172656e613a207a65726f20636f6f6c646f776e00000000000000006044820152606490fd5b60405162461bcd60e51b815260206004820152601b60248201527f54696d654172656e613a207a65726f2061646d696e207661756c7400000000006044820152606490fd5b60405162461bcd60e51b815260206004820152601660248201527554696d654172656e613a207a65726f207661756c747360501b6044820152606490fd5b60405162461bcd60e51b81526020600482015260146024820152732a34b6b2a0b932b7309d103d32b937903237bab160611b6044820152606490fd5b68ffffffffffffffffff19861668010000000000000001175f8051602061651383398151915255610692565b60405163f92ee8a960e01b8152600490fd5b9050155f610662565b303b15915061065a565b5060ff8660401c1615610645565b5f80fd5b8280fd5b5080fd5b503461048257604036600319011261048257600435602491823592610c20614e78565b5f610c29614fdd565b335f526020602e8152610c4260405f2054421015614ea7565b610c4b85615726565b610c5760055486614c96565b6040546001600160a01b039791610c779133908a160361109f5733615229565b918054805f526034825260405f20335f52825260405f20610c998982546146d1565b9055805f526035825260405f20610cb18982546146d1565b90555f526036815260405f208054906801e5b8fa8fe2ac0000820180921161108c5755335f52602c815260405f20610cea8882546146d1565b9055610cf8876022546146d1565b6022558115158061107f575b610e98575b505060405191610d188361461c565b608036843760405194610d2a8661461c565b6080368737819682975b60ff89166004811015610da057610d9760ff92610d918b610d8a85610d836001978e610d738f610d6381614c38565b610d6d8585614954565b52614cf8565b610d7d8388614954565b52614954565b5192614954565b51906146d1565b906146d1565b99011697610d34565b5090858a88610dba8b610db48a978861507d565b94616014565b9183610e13575b50505050610de49293610dd6836021546146d1565b602155610df8575b33615799565b60015f805160206164f38339815191525580f35b603980546001600160a01b0319163317905542603a55610dde565b9081610e29858a948554168360025416906162e1565b60025416803b15610bf55782916040518094819363031d3ac760e01b83528860048401525af18015610e8d57610e75575b50610de4949591610e6a916146d1565b509392858080610dc1565b610e7f8791614608565b610e895786610e5a565b8580fd5b6040513d89823e3d90fd5b848189600354166040519283809263711bf87960e01b82528760048301525afa8015610fc65789915f91611052575b501690811561100f57338214610fd157886004541680610ee9575b5050610d09565b803b15610bf15786906040515f81604481836340c10f1960e01b968783528a60048401526718493fba64ef000080998401525af18015610fc657610fb3575b508a60045416803b15610faf5788604484938a8094604051968795869485523360048601528401525af18015610e8d57908791610f9b575b5050604051918183528201527ff9d0b7562a9415eece6e30788862682d80ece5bab11cc3abd284aac45641ccf660403392a45f808080610ee2565b610fa490614608565b610e8957855f610f60565b8780fd5b610fbe919750614608565b5f955f610f28565b6040513d5f823e3d90fd5b6064906018876040519262461bcd60e51b8452600484015282015277151a5b59505c995b984e881cd95b198b5c9959995c9c985b60421b6044820152fd5b606490601b876040519262461bcd60e51b845260048401528201527f54696d654172656e613a20696e76616c696420726566657272616c00000000006044820152fd5b6110729150833d8511611078575b61106a8183614654565b8101906148d7565b5f610ec7565b503d611060565b5087600354161515610d04565b86634e487b7160e01b5f5260116004525ffd5b33615229565b50346104825780600319360112610482576020600554604051908152f35b5034610482576020366003190112610482576110dd614596565b6110e5614fa5565b60018060a01b03166001600160601b0360a01b604054161760405580f35b5034610482576020366003190112610482576020906040906001600160a01b0361112b614596565b168152602c83522054604051908152f35b5034610482576020366003190112610482576004356004811015610bf95760209060110154604051908152f35b5034610482576020908160031936011261048257600435611188614e78565b611190614fdd565b5f91335f52602e84526111a960405f2054421015614ea7565b6111b282615726565b6111be60055483614c96565b6040546001600160a01b03916111dd91339084160361109f5733615229565b948054805f526034825260405f20335f52825260405f206111ff8682546146d1565b9055805f526035825260405f206112178682546146d1565b90555f526036815260405f209081546801e5b8fa8fe2ac0000810180911161138c57602c9255335f525260405f206112508482546146d1565b905561125e836022546146d1565b60225560405161126d8161461c565b60803682376040519261127f8461461c565b60803685375f94855b60ff871660048110156112e1576112d860ff92610d916001936112b88e6112ae81614c38565b610d6d848d614954565b6112c2828d614954565b52610d8a6112d0828b614954565b51918c614954565b97011695611288565b508892946112fa876112f48b948761507d565b96616014565b9085611314575b5050610de49350610dd6836021546146d1565b61132a86825f95949554168360025416906162e1565b6002541694853b15610bf1575f809660246040518099819363031d3ac760e01b83528660048401525af1958615610fc657610de496611377575b5061136f91926146d1565b508580611301565b61136f925061138590614608565b5f91611364565b634e487b7160e01b5f52601160045260245ffd5b5034610482576020366003190112610482576001600160a01b036113c2614596565b168152605f6020526040902054806113e25750602060015b604051908152f35b6020906113da565b6146b6565b5034610482578060031936011261048257602060405168056bc75e2d631000008152f35b503461048257604036600319011261048257604061142f6145ac565b9160043581526037602052209060018060a01b03165f52602052602060405f2054604051908152f35b5034610482576020366003190112610482576020906001600160a01b0361147d614596565b168152605f82526040812054806114ca575060015b606083526114b16040832054916114ac60018210156156e9565b61626d565b818111156114c3576113da925061507d565b50506113da565b611492565b503461048257806003193601126104825760206040516103848152f35b503461048257602080600319360112610bf957611507614596565b61150f614e78565b611517614fdd565b338352603d8252604083209160018060a01b03821692835f52815260405f2054801515908161166c575b5015611633576115503361508a565b90838552603381526115656040862054614c38565b9283156115ee578361157691615310565b6115808333615354565b33855260338152611595604086205433615372565b338552603d815260408520845f5281528460405f20556040519283528201527f221b6cbe5d57878e7c76259f6002f46cc567d8203de96d73c5be97da4a7c2a0360403392a360015f805160206164f38339815191525580f35b60405162461bcd60e51b815260048101839052601760248201527f54696d654172656e613a20726576656e6765207a65726f0000000000000000006044820152606490fd5b6064906040519062461bcd60e51b82526004820152601260248201527154696d654172656e613a20726576656e676560701b6044820152fd5b905042105f611541565b50346104825760203660031901126104825760ff60406020926004358152603f84522054166040519015158152f35b50346104825780600319360112610482576020604051690a968163f0a57b4000008152f35b50346104825780600319360112610482576020601d54604051908152f35b5034610482576020366003190112610482576020906040906001600160a01b03611710614596565b168152603883522054604051908152f35b503461048257806003193601126104825761173a614e78565b611742614fdd565b603954336001600160a01b0382160361184957603a5461012c81018091116118355742106117f0576001600160601b0360a01b1660395580603a5533815260336020526040812080546103e89182820180921161138c575533825260336020526117b0604083205433615372565b6040519081527fe6b0a1cfba1b522a15d22b1e1149c9798c05764ef04c3222f1763c50b049e3fa60203392a260015f805160206164f38339815191525580f35b60405162461bcd60e51b815260206004820152601760248201527f54696d654172656e613a20666c61672073696c656e63650000000000000000006044820152606490fd5b634e487b7160e01b83526011600452602483fd5b60405162461bcd60e51b815260206004820152601a60248201527f54696d654172656e613a206e6f7420666c616720686f6c6465720000000000006044820152606490fd5b5034610482578060031936011261048257602060405160048152f35b5034610482576020366003190112610482576020906040906001600160a01b036118d2614596565b168152603383522054604051908152f35b50346104825780600319360112610482576040516040810181811067ffffffffffffffff8211176119735760405260058152602091640352e302e360dc1b602083015260405192839160208352835191826020850152815b83811061195c57505060408094508284010152601f80199101168101030190f35b80860182015187820160400152869450810161193b565b634e487b7160e01b5f52604160045260245ffd5b5034610482576020366003190112610482576004356004811015610bf95760209060240154604051908152f35b50346104825760203660031901126104825760ff6004351660043503610482576119dc614e78565b6119ec600460ff813516106146de565b6004803510159081611efe5760043560240154421115611ec1576060604051611a1481614638565b3690376060604051611a2581614638565b36903760043560ff16611e9a57611a3a614f02565b505b60015460405163f87793ad60e01b81526004803560ff169082015293906001600160a01b0316602085602481845afa948515611d77578495611e79575b5083546040516370a0823160e01b81526001600160a01b0396871660048201529560209187916024918391165afa948515611d77578495611e45575b5084611d82575b50600154604051632bcb073d60e11b81526004803560ff1690820152906020908290602490829088906001600160a01b03165af18015611d7757611d4c575b50611d385760043560280190815460018101809111611d24578255611b26600435600d0154426146d1565b925f93806004356024015560ff6004351615611d18575b5060066004959395350292836041019260445f9501945b60038060ff83161015611ba15781600191611b7160ff9489614ef3565b815490858060a01b0390841b1b19169055611b8c828a614ef3565b90918254915f19911b1b191690550116611b54565b5050868660ff6004351615611cb3575b600260ff6004351614611c9e575b60038060ff6004351614611c4d575b506109d25754815160208084015160409485015185516001600160a01b03948516815291841692820192909252911692810192909252606082019290925260043560ff16907fa9b78eda30de684ae7f5f429efecdec822db196180c202cf5450da29f84776db90608090a360015f805160206164f38339815191525580f35b5f5b8160ff821610611c5f5750611bce565b81811015611c8a576053810180546001600160a01b03191690555f605682015560010160ff16611c4f565b634e487b7160e01b5f52603260045260245ffd5b605e80546001600160a01b0319169055611bbf565b6040516060810181811067ffffffffffffffff821117611973576040525f81525f60208201525f60408201525f5b60038110611cfa57505060ff19605c5416605c55611bb1565b81516001600160a01b03166059820155602090910190600101611ce1565b601f555f935083611b3d565b634e487b7160e01b84526011600452602484fd5b634e487b7160e01b82526032600452602482fd5b602090813d8311611d70575b611d628183614654565b81010312610bf1575f611afb565b503d611d58565b6040513d86823e3d90fd5b611d8b85614b92565b90611d9586614bea565b90611da982611da4858a61507d565b61507d565b8551602087015160408801516001600160a01b039081169691811695921693929190833b15611e41579289959492869260e495604051998a98899763362f187360e11b895260ff6004351660048a0152602489015260448801526064870152608486015260a485015260c48401525af18015611d7757908491611e2d575b50611abc565b611e3690614608565b610bf557825f611e27565b8980fd5b9094506020813d602011611e71575b81611e6160209383614654565b81010312610bf15751935f611ab5565b3d9150611e54565b611e9391955060203d6020116110785761106a8183614654565b935f611a79565b5f9150600435600602611ebb6044611eb46041840161471f565b920161475d565b50611a3c565b60405162461bcd60e51b815260206004820152601560248201527454696d654172656e613a2074696d6572206c69766560581b6044820152606490fd5b634e487b7160e01b81526032600452602490fd5b5034610482576020366003190112610482576020906040906001600160a01b03611f3a614596565b168152602e83522054604051908152f35b614676565b503461048257806003193601126104825760206040516101f48152f35b5034610482576020366003190112610482576004356004811015610bf95760209060190154604051908152f35b5034610482576020366003190112610482576020906040906001600160a01b03611fc2614596565b168152606083522054604051908152f35b5034610482576020366003190112610482576020906040906001600160a01b03611ffb614596565b168152602d83522054604051908152f35b50346104825760403660031901126104825760209060ff906040906001600160a01b03612037614596565b168152603c845281812060243582528452205416604051908152f35b614699565b50346104825780600319360112610482576020602254604051908152f35b5034610482578060031936011261048257602060405160028152f35b50346104825780600319360112610482576120ab614e78565b6120b3614fdd565b5f546040516370a0823160e01b8082523060048301526001600160a01b03928316926024926020929183828681895afa918215610fc6575f9261227f575b506040516323b872dd60e01b5f523360045230865269021e19e0c9bab24000009687604452855f60648180855af160015f5114811615612260575b826040525f6060521561224c57505083905f541692856040518095819382523060048301525afa8015610fc6575f9061221d575b61216a925061507d565b9283036121e1576154604201918242116121cf5750338452603881528160408520556040519283528201527f0215682b4d5ee66b0c67529cffec7ce5e5f7054dce0b660eddd6e47b9eb8c00460403392a260015f805160206164f38339815191525580f35b634e487b7160e01b8552601160045284fd5b60176064926040519262461bcd60e51b845260048401528201527654696d654172656e613a2045524332302070617269747960481b6044820152fd5b508282813d8311612245575b6122338183614654565b81010312610bf15761216a9151612160565b503d612229565b635274afe760e01b82526004820152859150fd5b600181151661227657813b15153d15161661212c565b823d5f823e3d90fd5b9091508381813d83116122a7575b6122978183614654565b81010312610bf15751905f6120f1565b503d61228d565b5034610482578060031936011261048257546040516001600160a01b039091168152602090f35b50346104825780600319360112610482575f805160206164d3833981519152546040516001600160a01b039091168152602090f35b5034610482576020366003190112610482576020906040906001600160a01b03612332614596565b168152603083522054604051908152f35b50346104825760203660031901126104825760406020916004358152603683522054604051908152f35b503461048257604036600319011261048257612387614596565b60406123916145ac565b9260018060a01b038093168152603d6020522091165f52602052602060405f2054604051908152f35b503461048257806003193601126104825760206040516801e5b8fa8fe2ac00008152f35b50346104825780600319360112610482576001546040516001600160a01b039091168152602090f35b50346104825760403660031901126104825760209060ff906040906001600160a01b03612432614596565b168152603b845281812060243582528452205416604051908152f35b5034610482578060031936011261048257612467614fa5565b5f805160206164d383398151915280546001600160a01b031981169091555f906001600160a01b03167f8be0079c531659141344cd1fd0a4f28419497f9722a3daafe3b4186f6b6457e08280a380f35b5034610482576080366003190112610482576004356124d46145ac565b6044356001600160a01b038181169291839003610bf1576124f36145c2565b6124fb614fa5565b8486526020603f815260ff60408820541661272657602b548610156126eb57858752603f815260408720600160ff198254161790558683600154166040519063f87793ad60e01b8252600360048301528382602481845afa9182156126c15783926126cc575b5082546040516370a0823160e01b815292871660048401528490839060249082908a165afa9182156126c157839261268f575b50816125db575b505050907f2adebb70bb3b103cefaf9390284be786cfca6e31af32e66fc334704ad89ca6ad9483926060959460405195168552840152166040820152a280f35b90612600916125e982614b92565b9282611da46125f88695614bea565b95869261507d565b813b1561268b578885899360e4938d978397604051998a98899763362f187360e11b8952600360048a015216602488015260448701528d8d166064870152608486015260a485015260c48401525af1801561268057612660575b8061259b565b61266e909594939295614608565b61267c57909192865f61265a565b8680fd5b6040513d84823e3d90fd5b8480fd5b925090508282813d81116126ba575b6126a88183614654565b81010312610bf157889151905f612594565b503d61269e565b6040513d85823e3d90fd5b6126e4919250843d86116110785761106a8183614654565b905f612561565b6064906040519062461bcd60e51b8252600482015260146024820152730a8d2daca82e4cadcc27440c4c2c840cae0dec6d60631b6044820152fd5b6064906040519062461bcd60e51b825260048201526014602482015273151a5b59505c995b984e88199a5b985b1a5e995960621b6044820152fd5b50346104825760203660031901126104825760043561277e614fa5565b612789811515614893565b60055580f35b50346104825780600319360112610482576020602154604051908152f35b503461048257602080600319360112610bf9576004356127cb614e78565b6127d3614fdd565b338352602e82526127ea6040842054421015614ea7565b6127f381615726565b6004546001600160a01b039290831661280d811515614852565b61281683614b16565b908115612e3057908186923b15610bf557604051632770a7eb60e21b8152336004820152602481019290925282908290604490829084905af1801561268057612e18575b505080548085526034825260408520335f52825260405f2061287d8482546146d1565b9055845260358152604084206128948382546146d1565b9055338452602c8152604084206128ac8382546146d1565b90556128ba826022546146d1565b602255335f52602d815260405f209283549182159260019586820180921161138c5755605d5485810180911161138c57605d556128f9601d54426146d1565b335f52602e825260405f2055601f54924284115f14612e115761291c428561507d565b935b6009946009549160119283549761294260159260155460199b60195492428861635f565b99909687601f558c6024988c818b55612dbf575b505080612db2575b612d26575b8b5b600460ff821610612cdb5750505050601f54908082115f14612cd25761298a9161507d565b945b605c5460ff60038161299f8185166147fb565b160616809160ff191617605c556003811015612cbf5790879291605901906001600160601b0360a01b913383825416179055335f52602d87526129e660405f205433615455565b87151580612c8d575b610384841080918192612c85575b5015612c6c5750605e54163303612c5057509050335f526031845260405f20805490898201809211612c3d575585905b335f526031855260405f20546030865260405f205410612c26575b612a5660405f20543361560d565b60fa91612c1c575b601e11612bff575b612a709033615354565b335f5260338352612a8560405f205433615372565b612a8e866163eb565b91335f526032845260405f20612aa58482546146d1565b9055335f52605f845260405f2054918215612bf7575b9060608552612adc8460405f205494612ad68c8210156156e9565b946146d1565b915f915b60058310612ba1575b505050335f52605f84528160405f20556060845260405f2055604051918252828201527f681e93ec66a1e7f0d504acc55cc0b0c0ee2546b290190ccdeb1e90e83ecec97660403392a2601f54602154905f605d549360405197885287015260408601526060850152608084015260a0830152151560c08201528160e08201527fbaf9a64575edd1ebb4308874e8680288c787f6741d8edc4d66ce61418bad169b6101003392a25f805160206164f38339815191525580f35b90919392612bae8461626d565b90818110612bef5790612bc09161507d565b928a8101809111612bdd57938a8101809111612bdd579190612ae0565b5090634e487b7160e01b5f526004525ffd5b939450612ae9565b889250612abb565b6096810180911115612a665750634e487b7160e01b5f526004525ffd5b6102ee9150612a5e565b6031855260405f20546030865260405f2055612a48565b505050634e487b7160e01b5f526004525ffd5b335f52603186528960405f20553390605e541617605e55612a2d565b915050612a5657335f52603185525f6040812055612a56565b90505f6129fd565b335f52602f885260405f20612ca38a82546146d1565b9055335f52602f8852612cba60405f205433615531565b6129ef565b84634e487b7160e01b5f5260326004525ffd5b50505f9461298c565b6004811015612d13578c8160ff928a01612d09815483880154848d0154858b015491868a015493429061635f565b5090550116612965565b87634e487b7160e01b5f5260326004525ffd5b87548c8101809111612da057805f526037895260405f20335f52895260405f208054680821ab0d441498000091828201809211612d8e57556040519081527f135d669544c1a460dd7b5f82c47189c86898c39919d3f604f6d023b68c9849fd8a3392a3612963565b8a8a634e487b7160e01b5f526004525ffd5b8787634e487b7160e01b5f526004525ffd5b508860045416151561295e565b8a54918201809211612dff578a7f0b161138d65ee8419c59f82b310d2368e3bab076a225062e56c275fde662599391838255604051908152a28c5f612956565b8989634e487b7160e01b5f526004525ffd5b5f9361291e565b612e2190614608565b612e2c57835f61285a565b8380fd5b60405162461bcd60e51b815260048101849052601960248201527f54696d654172656e613a207a65726f2063726564206275726e000000000000006044820152606490fd5b503461048257806003193601126104825760208054604051908152f35b5034610482576020366003190112610482576004356004811015610bf957602090600d0154604051908152f35b5034610bf157602080600319360112610bf15760043590612ede614e78565b6004546001600160a01b039190612ef89083161515614852565b80548310156130af57825f526034815260405f20335f52815260405f205491835f526037825260405f20335f52825260405f20548315801580916130a6575b15613061578194865f526035855260405f20549180613058575b613036575b505050835f526034825260405f20335f5282525f6040812055835f526037825260405f20335f5282525f604081205560045416803b15610bf1576040516340c10f1960e01b815233600482015260248101849052905f908290604490829084905af18015610fc657613003575b507ff72461ad1a4e75bb1bdd42ea3548a573bd8dff790f26a4de3a5e03ed37169ea7906040519283523392a360015f805160206164f38339815191525580f35b61300e919450614608565b5f927ff72461ad1a4e75bb1bdd42ea3548a573bd8dff790f26a4de3a5e03ed37169ea7612fc3565b61304f93955090610d91916036865260405f2054614dca565b915f8080612f56565b50811515612f51565b60405162461bcd60e51b815260048101859052601b60248201527f54696d654172656e613a206e6f7468696e6720746f20636c61696d00000000006044820152606490fd5b50811515612f37565b6064906040519062461bcd60e51b82526004820152601760248201527f54696d654172656e613a2065706f6368206163746976650000000000000000006044820152fd5b34610bf1576020366003190112610bf1576004356004811015610bf15760209060280154604051908152f35b34610bf1575f366003190112610bf157602060405160c88152f35b34610bf1576020366003190112610bf1576004356004811015610bf15760209060150154604051908152f35b34610bf1576020366003190112610bf1576001600160a01b03613187614596565b165f526031602052602060405f2054604051908152f35b34610bf1575f366003190112610bf157602060ff602354166040519015158152f35b34610bf1576020366003190112610bf1576001600160a01b036131e1614596565b165f52602f602052602060405f2054604051908152f35b34610bf1575f366003190112610bf157602060018060a01b0360405416604051908152f35b34610bf1575f366003190112610bf1577f00000000000000000000000000000000000000000000000000000000000000006001600160a01b031630036132875760206040517f360894a13ba1a3210667c828492db98dca3e2076cc3735a920a3ca505d382bbc8152f35b60405163703e46dd60e11b8152600490fd5b34610bf1576040366003190112610bf1576132b26145ac565b6004355f52603460205260405f209060018060a01b03165f52602052602060405f2054604051908152f35b6040366003190112610bf1576132f1614596565b602490813567ffffffffffffffff91828211610bf15736602383011215610bf15781600401359283116134f8576020926040519261333885601f19601f8501160185614654565b81845236868383010111610bf157815f928787930183870137840101526001600160a01b037f000000000000000000000000000000000000000000000000000000000000000081163081149081156134ca575b5061328757613398614fa5565b6040516352d1902d60e01b8152908216938082600481885afa9182915f9361349a575b50506133d95750505060405190634c9c8ce360e01b82526004820152fd5b847f360894a13ba1a3210667c828492db98dca3e2076cc3735a920a3ca505d382bbc918281036134855750823b1561346f575080546001600160a01b03191684179055604051927fbc7cd75a20ee27fd9adebab32041f755214dbc6bffa90cc0225b39da2e5c2d3b5f80a2815115613457576134559250616441565b005b50503461346057005b63b398979f60e01b8152600490fd5b604051634c9c8ce360e01b815260048101869052fd5b60405190632a87526960e21b82526004820152fd5b9080929350813d83116134c3575b6134b28183614654565b81010312610bf157519086806133bb565b503d6134a8565b9050817f360894a13ba1a3210667c828492db98dca3e2076cc3735a920a3ca505d382bbc541614158661338b565b83634e487b7160e01b5f5260416004525ffd5b34610bf1575f366003190112610bf1576003546040516001600160a01b039091168152602090f35b34610bf1576020366003190112610bf15760043561354f614e78565b801561365f576135669061109f601e54151561480d565b604051906135738261461c565b60803683376040516135848161461c565b60803682375f91825b60ff841660048110156135ec576135e360ff92610d916001936135af87614a4f565b6135b9828c614954565b526135c387614ab8565b6135cd828a614954565b52610d8a6135db828c614954565b519189614954565b9401169261358d565b5082856135fc613608938561507d565b80613648575b50616014565b506040519081527f52a5e21a86b52f707474ded2848c3fa0264ea17c2ccf8b1b062ca4e0d69ae09160203392a260015f805160206164f383398151915255005b613657606084019182516146d1565b905284613602565b60405162461bcd60e51b8152602060048201526016602482015275151a5b59505c995b984e881e995c9bc8185b5bdd5b9d60521b6044820152606490fd5b34610bf1575f366003190112610bf1576039546040516001600160a01b039091168152602090f35b34610bf1575f366003190112610bf1576020600654604051908152f35b34610bf1576020366003190112610bf1576004355f526035602052602060405f2054604051908152f35b34610bf1575f366003190112610bf1576004546040516001600160a01b039091168152602090f35b34610bf1576040366003190112610bf15761374d614596565b6137556145ac565b9060018060a01b038091165f52603e60205260405f2091165f52602052602060405f2054604051908152f35b34610bf1575f366003190112610bf1576020601f54604051908152f35b34610bf1575f366003190112610bf1576137b6614fa5565b601e546138315742601e555f5b600460ff821610613809577f33789300e7043c21750457cc66f0c68d69dda90fedc0c70b1b6dcc38d16c94c5604060245480601f55601e549082519182526020820152a1005b6004811015611c8a5760018161382560ff93600d0154426146d1565b816024015501166137c3565b60405162461bcd60e51b8152602060048201526012602482015271151a5b59505c995b984e881cdd185c9d195960721b6044820152606490fd5b34610bf1575f366003190112610bf157602060405160968152f35b34610bf1576040366003190112610bf15761389f614596565b6024908135801590811503610bf1576138b6614e78565b6138be614fdd565b6001600160a01b038281169390919084151580613dc3575b15613d875762015180420490855f52602091603b835260405f20815f52835260ff60405f205416335f52603c845260405f20825f52845260ff60405f205416906003811095861596613d7b575b96869761392f3361508a565b97613baf575b5050885f526033855260405f2054335f5260405f20548015159081613b90575b81613b66575b5015613b2a57613986908a5f526038875260405f205442105f14613b1f5761ffff60645b16906149d6565b978815613ae3578861399791615310565b6139a18833615354565b335f52603385526139b660405f205433615372565b60ff8110613ab3575b5060ff8110613a81575b5050620151804201804211613a6d57865f52603d835260405f20335f52835260405f2055855f52603e825260405f20335f52825260405f2080549160018301809311613a5a575055604051938452830152151560408201527f042136b6a96765a35c274b83b749f460a4e39509a420c58544b27da617921fd860603392a360015f805160206164f383398151915255005b634e487b7160e01b5f9081526011600452fd5b50634e487b7160e01b5f9081526011600452fd5b613a8a906147fb565b90335f52603c845260405f20905f52835260ff60405f20911660ff1982541617905586806139c9565b613abc906147fb565b885f52603b855260405f20835f52855260ff60405f20911660ff19825416179055886139bf565b60405162461bcd60e51b8152600481018790526015818701527454696d654172656e613a20737465616c207a65726f60581b6044820152606490fd5b61ffff6103e861397f565b60405162461bcd60e51b81526004810187905260158187015274151a5b59505c995b984e881cdd19585b0818985b99605a1b6044820152606490fd5b600a8082029250820403613b7d578111158b61395b565b85634e487b7160e01b5f5260116004525ffd5b90506001600160ff1b0381168103613b7d578060011b82101590613955565b96909196613d3e575f546040516370a0823160e01b8082523060048301529184169388828981885afa918215610fc6575f92613d0f575b506040516323b872dd60e01b5f5233600452308952690a968163f0a57b40000095866044528a5f60648180855af160015f5114811615613cf9575b826040525f60605215613ce557505088905f541692886040518095819382523060048301525afa8015610fc6575f90613cb6575b613c5f925061507d565b918203613c785790613c70916146d1565b948980613935565b60405162461bcd60e51b8152600481018790526017818701527654696d654172656e613a2045524332302070617269747960481b6044820152606490fd5b508782813d8311613cde575b613ccc8183614654565b81010312610bf157613c5f9151613c55565b503d613cc2565b635274afe760e01b82526004820152889150fd5b600181151661227657813b15153d151616613c21565b9091508881813d8311613d37575b613d278183614654565b81010312610bf15751908d613be6565b503d613d1d565b60405162461bcd60e51b81526004810187905260168187015275151a5b59505c995b984e881cdd19585b081b1a5b5a5d60521b6044820152606490fd5b60038310159650613923565b60649060156040519162461bcd60e51b8352602060048401528201527454696d654172656e613a206261642076696374696d60581b6044820152fd5b50338514156138d6565b34610bf1576020366003190112610bf1576004356004811015610bf15760209060090154604051908152f35b34610bf1575f366003190112610bf1576020604051680821ab0d44149800008152f35b34610bf1575f366003190112610bf15760206040516154608152f35b34610bf1575f366003190112610bf15760206040516101f48152f35b34610bf1575f366003190112610bf1576020603a54604051908152f35b34610bf1576020366003190112610bf157600435801515809103610bf15760207f40db37ff5c0bdc2c427fbb2078c8f24afea940abac0e3c23bb4ea3bf2da2b21291613ebb614fa5565b60ff196023541660ff821617602355604051908152a1005b34610bf1575f366003190112610bf1576002546040516001600160a01b039091168152602090f35b34610bf157602080600319360112610bf15760043560ff81168103610bf157613f239061478f565b9091613f3260405180946145d8565b5f606084015b60038210613f455760c085f35b82806001928651815201940191019092613f38565b34610bf1575f366003190112610bf157602060405169021e19e0c9bab24000008152f35b34610bf1575f366003190112610bf1576020600754604051908152f35b34610bf1575f366003190112610bf1576020600854604051908152f35b34610bf1575f366003190112610bf157602060405160fa8152f35b34610bf1575f366003190112610bf1576020601e54604051908152f35b34610bf1576080366003190112610bf157614009614596565b6024803590606435906044358215158303610bf157614026614e78565b60018060a01b03938460405416331490811561446957614044614fdd565b5f9686811693845f52614088602094602e865261406760405f2054421015614ea7565b61407085615726565b61407c60055486614c96565b90156144635733615229565b938054805f526034825260405f20875f52825260405f206140aa8682546146d1565b9055805f526035825260405f206140c28682546146d1565b90555f526036815260405f208054906801e5b8fa8fe2ac000082018092116144505755855f52602c815260405f206140fb8582546146d1565b9055614109846022546146d1565b60225581151580614443575b614265575b5050604051936141298561461c565b60803686376040519661413b8861461c565b60803689378998895b60ff8b16600481101561417e5761417560ff92610d918d610d8a85610d838f978f98610d738a610d6360019c614c38565b9b011699614144565b50886141958b61418f8f948b61507d565b9a616014565b92896141ef575b505050506141bf95506141b1856021546146d1565b6021556141d2575b50615799565b60015f805160206164f383398151915255005b6001600160601b0360a01b603954161760395542603a55846141b9565b6142028a828554168360025416906162e1565b6002541690813b15610bf55760405163031d3ac760e01b8152600481018b90529183918391829084905af1801561268057614251575b50506141bf96614247916146d1565b508680808061419c565b61425b8291614608565b6104825780614238565b86818a600354166040519283809263711bf87960e01b82528760048301525afa8015610fc6578a915f91614426575b50169081156143e3578682146143a557896004541690816142b7575b505061411a565b813b15610bf157886040515f81604481836340c10f1960e01b988983528a60048401526718493fba64ef000080988401525af18015610fc657614392575b508c8c60045416803b15610bf9578a60448d96848094876040519a8b968795865260048601528401525af1938415614385578a94614368575b50507ff9d0b7562a9415eece6e30788862682d80ece5bab11cc3abd284aac45641ccf691604091825191818352820152a4888080806142b0565b61437491929450614608565b6143815787918c8e61432e565b8b80fd5b50604051903d90823e3d90fd5b61439d919d50614608565b5f9b8d6142f5565b6064906018896040519262461bcd60e51b8452600484015282015277151a5b59505c995b984e881cd95b198b5c9959995c9c985b60421b6044820152fd5b606490601b896040519262461bcd60e51b845260048401528201527f54696d654172656e613a20696e76616c696420726566657272616c00000000006044820152fd5b61443d9150833d85116110785761106a8183614654565b8c614294565b5088600354161515614115565b88634e487b7160e01b5f5260116004525ffd5b83615229565b60405162461bcd60e51b815260206004820152601581860152742a34b6b2a0b932b7309d103737ba103937baba32b960591b6044820152606490fd5b34610bf1576020366003190112610bf1576001600160a01b036144c6614596565b165f526032602052602060405f2054604051908152f35b34610bf1575f366003190112610bf157602060405160018152f35b34610bf1576040366003190112610bf157614511614596565b6113da60243591825f526020926037845260405f209160018060a01b031691825f52845260405f205491815f526034855260405f20905f52845260405f2054905f526035845260405f20545f918015158061458d575b614573575b50506146d1565b61458692506036865260405f2054614dca565b848061456c565b50811515614567565b600435906001600160a01b0382168203610bf157565b602435906001600160a01b0382168203610bf157565b606435906001600160a01b0382168203610bf157565b5f915b600383106145e857505050565b81516001600160a01b0316815260019290920191602091820191016145db565b67ffffffffffffffff811161197357604052565b6080810190811067ffffffffffffffff82111761197357604052565b6060810190811067ffffffffffffffff82111761197357604052565b90601f8019910116810190811067ffffffffffffffff82111761197357604052565b34610bf1575f366003190112610bf1576020604051683635c9adc5dea000008152f35b34610bf1575f366003190112610bf1576020604051620151808152f35b34610bf1575f366003190112610bf157602060405160038152f35b9190820180921161138c57565b156146e557565b60405162461bcd60e51b8152602060048201526012602482015271151a5b59505c995b984e881898590818d85d60721b6044820152606490fd5b60405191905f835b6003821061473d5750505061473b82614638565b565b82546001600160a01b031681526001928301929190910190602001614727565b60405191905f835b600382106147795750505061473b82614638565b6001602081928554815201930191019091614765565b606060405161479d81614638565b36903760606040516147ae81614638565b36903760ff81166147c1600482106146de565b156147ee576004811015611c8a57600602906147eb60446147e48460410161471f565b930161475d565b90565b506147f7614f02565b9091565b60ff60019116019060ff821161138c57565b1561481457565b60405162461bcd60e51b8152602060048201526016602482015275151a5b59505c995b984e881b9bdd081cdd185c9d195960521b6044820152606490fd5b1561485957565b60405162461bcd60e51b8152602060048201526012602482015271151a5b59505c995b984e881b9bc818dc995960721b6044820152606490fd5b1561489a57565b60405162461bcd60e51b815260206004820152601560248201527454696d654172656e613a207a65726f20707269636560581b6044820152606490fd5b90816020910312610bf157516001600160a01b0381168103610bf15790565b6004811015611c8a5760051b60c40190565b6004811015611c8a5760051b6101440190565b6004811015611c8a5760051b6101c40190565b6004811015611c8a5760051b6102440190565b6004811015611c8a5760051b6102c40190565b906004811015611c8a5760051b0190565b6001600160a01b039081169081156149be575f805160206164d383398151915280546001600160a01b031981168417909155167f8be0079c531659141344cd1fd0a4f28419497f9722a3daafe3b4186f6b6457e05f80a3565b604051631e4fbdf760e01b81525f6004820152602490fd5b905f1981830981830291828083109203918083039214614a44576127109082821115614a32577fbc01a36e2eb1c432ca57a786c226809d495182a9930be0ded288ce703afb7e91940990828211900360fc1b910360041c170290565b634e487b715f5260116020526024601cfd5b505061271091500490565b6103e85f1981830981830291828083109203918083039214614aad57611b589082821115614a32577faadc994eb3a38c2447632e84d3d25bde0fcc81e6d6bf577a9661b807058f1143940990828211900360fd1b910360031c170290565b5050611b5891500490565b6102ee5f1981830981830291828083109203918083039214614aad57611b589082821115614a32577faadc994eb3a38c2447632e84d3d25bde0fcc81e6d6bf577a9661b807058f1143940990828211900360fd1b910360031c170290565b68056bc75e2d631000005f1981830981830291828083109203918083039214614b8157670de0b6b3a76400009082821115614a32577faccb18165bd6fe31ae1cf318dc5b51eee0e1ba569b88cd74c1773b91fac10669940990828211900360ee1b910360121c170290565b5050670de0b6b3a764000091500490565b5f19600482098160021b90818082109103818114614be0570360071115614a3257600760047f6db6db6db6db6db6db6db6db6db6db6db6db6db6db6db6db6db6db6db6db6db7930990030290565b5050600791500490565b5f19600282098160011b90818082109103818114614be0570360071115614a3257600760027f6db6db6db6db6db6db6db6db6db6db6db6db6db6db6db6db6db6db6db6db6db7930990030290565b6103e85f1981830981830291828083109203918083039214614a44576127109082821115614a32577fbc01a36e2eb1c432ca57a786c226809d495182a9930be0ded288ce703afb7e91940990828211900360fc1b910360041c170290565b905f1981830981830291828083109203918083039214614b8157670de0b6b3a76400009082821115614a32577faccb18165bd6fe31ae1cf318dc5b51eee0e1ba569b88cd74c1773b91fac10669940990828211900360ee1b910360121c170290565b6102ee5f1981830981830291828083109203918083039214614a44576127109082821115614a32577fbc01a36e2eb1c432ca57a786c226809d495182a9930be0ded288ce703afb7e91940990828211900360fc1b910360041c170290565b5f19600982096009820290818082109103908082039114614dba57677d09f3435245000081811115614a325760097fdd0436efdb56a870304d849d3ea7e5938e5663378900f45e71e7bf736dcff08d940990828211900360f01b910360101c170290565b50677d09f3435245000091500490565b90915f198383099280830292838086109503948086039514614e565784831115614e3e5790829109815f038216809204600280826003021880830282030280830282030280830282030280830282030280830282030280920290030293600183805f03040190848311900302920304170290565b82634e487b715f52156003026011186020526024601cfd5b505080925015614e64570490565b634e487b7160e01b5f52601260045260245ffd5b5f805160206164f38339815191526002815414614e955760029055565b604051633ee5aeb560e01b8152600490fd5b15614eae57565b60405162461bcd60e51b815260206004820152601760248201527f54696d654172656e613a2062757920636f6f6c646f776e0000000000000000006044820152606490fd5b6003821015611c8a5701905f90565b604051614f0e81614638565b6060368237809160405191614f2283614638565b6060368437605c5460ff1683600380831015611c8a5760598301546001600160a01b039081168552926002810160ff811161138c5760ff839116069082821015611c8a57614f7e60ff91868594605901541660208901526147fb565b16069381851015611c8a576040809460019660590154169101528152600260208201520152565b5f805160206164d3833981519152546001600160a01b03163303614fc557565b60405163118cdaa760e01b8152336004820152602490fd5b614fea601e54151561480d565b60ff6023541661504457601f544211614fff57565b60405162461bcd60e51b815260206004820152601860248201527f54696d654172656e613a2074696d6572206578706972656400000000000000006044820152606490fd5b60405162461bcd60e51b8152602060048201526011602482015270151a5b59505c995b984e881c185d5cd959607a1b6044820152606490fd5b9190820391821161138c57565b5f54604080516370a0823160e01b8082523060048301526001600160a01b0393841695946020949192919085836024818b5afa92831561521f575f936151f0575b50818551916323b872dd60e01b5f521660045230602452683635c9adc5dea000009788604452865f60648180855af160015f51148116156151da575b8287525f606052156151c557505084905f541692602485518095819382523060048301525afa80156151bb575f9061518c575b615144925061507d565b93840361514f575050565b60649250519062461bcd60e51b82526004820152601760248201527654696d654172656e613a2045524332302070617269747960481b6044820152fd5b508382813d83116151b4575b6151a28183614654565b81010312610bf157615144915161513a565b503d615198565b83513d5f823e3d90fd5b635274afe760e01b8252600482015260249150fd5b600181151661227657813b15153d151616615107565b9092508581813d8311615218575b6152088183614654565b81010312610bf15751915f6150cb565b503d6151fe565b85513d5f823e3d90fd5b5f54604080516370a0823160e01b808252306004830152949594602094929390926001600160a01b039182168684602481845afa938415615306575f946152d7575b50828651926323b872dd60e01b5f52166004523060245288604452865f60648180855af160015f51148116156151da578287525f606052156151c557505084905f541692602485518095819382523060048301525afa80156151bb575f9061518c57615144925061507d565b9093508681813d83116152ff575b6152ef8183614654565b81010312610bf15751925f61526b565b503d6152e5565b86513d5f823e3d90fd5b6001600160a01b03165f818152603360205260409020805491929091808210615345575050505f5260336020525f6040812055565b61535092935061507d565b9055565b60018060a01b03165f52603360205261535060405f209182546146d1565b91905f5b60038060ff831610156153ce57811015611c8a5760538101546001600160a01b038581169116146153ac5760010160ff16615376565b90919250605601805482116153c6575b505061473b615d6f565b555f806153bc565b50505f5b60038060ff8316101561544e5781101580611c8a5760538201805490916001600160a01b039081831615801561543f575b615416575050505060010160ff166153d2565b9690919293949596611c8a5716906001600160601b0360a01b161790556056015561473b615d6f565b50505f84605601548611615403565b5050509050565b91905f5b60038060ff831610156154b157811015611c8a5760418101546001600160a01b0385811691161461548f5760010160ff16615459565b90919250604401805482116154a9575b505061473b615e1c565b555f8061549f565b50505f5b60038060ff8316101561544e5781101580611c8a5760418201805490916001600160a01b0390818316158015615522575b6154f9575050505060010160ff166154b5565b9690919293949596611c8a5716906001600160601b0360a01b161790556044015561473b615e1c565b50505f846044015486116154e6565b91905f5b60038060ff8316101561558d57811015611c8a5760478101546001600160a01b0385811691161461556b5760010160ff16615535565b90919250604a0180548211615585575b505061473b615ec4565b555f8061557b565b50505f5b60038060ff8316101561544e5781101580611c8a5760478201805490916001600160a01b03908183161580156155fe575b6155d5575050505060010160ff16615591565b9690919293949596611c8a5716906001600160601b0360a01b16179055604a015561473b615ec4565b50505f84604a015486116155c2565b91905f5b60038060ff8316101561566957811015611c8a57604d8101546001600160a01b038581169116146156475760010160ff16615611565b9091925060500180548211615661575b505061473b615f6c565b555f80615657565b50505f5b60038060ff8316101561544e5781101580611c8a57604d8201805490916001600160a01b03908183161580156156da575b6156b1575050505060010160ff1661566d565b9690919293949596611c8a5716906001600160601b0360a01b161790556050015561473b615f6c565b50505f8460500154861161569e565b156156f057565b60405162461bcd60e51b815260206004820152600e60248201526d105c995b98561c0e881b195d995b60921b6044820152606490fd5b670dbd2fc137a300008110159081615786575b501561574157565b60405162461bcd60e51b815260206004820152601760248201527f54696d654172656e613a20636861726d20626f756e64730000000000000000006044820152606490fd5b678ac7230489e80000915011155f615739565b91929060018060a01b0383165f52602d60205260405f209283548015946001820180921161138c5755605d546001810180911161138c57605d556157df601d54426146d1565b6001600160a01b0382165f908152602e6020526040902055601f549342851115615d695761580d428661507d565b6158256009546011546015549060195492428b61635f565b929080601f558381602455615d26575b5080615d12575b615c7c575b60015b60048060ff831610156158a2578082101561588f575060018160ff92602401615885815483600901548460110154856015015491866019015493429061635f565b5090550116615844565b603290634e487b7160e01b5f525260245ffd5b5050919395909294601f54908082115f14615c73576158c09161507d565b915b605c549060ff6003816158d68186166147fb565b160616809260ff191617605c556003821015611c8a57605990910180546001600160a01b03199081166001600160a01b0388169081179092555f918252602d6020526040909120548592919061592c9088615455565b84151580615c2b575b610384831080918192615c23575b5015615c005750605e546001600160a01b0390811690881603615bd657506001600160a01b0386165f90815260316020526040902080549092506001810190811061138c578592555b60018060a01b0386165f52603160205260405f2054603060205260405f205410615bbd575b6159bf60405f20548761560d565b60fa91615bb3575b601e11615b93575b6159d99085615354565b6001600160a01b0384165f908152603360205260409020546159fb9085615372565b615a04856163eb565b60018060a01b0385165f52603260205260405f20615a238282546146d1565b90556001600160a01b0385165f908152605f60205260409020548015615b8b575b6060602052615a668260405f205492615a6060018210156156e9565b926146d1565b5f5b60058110615b39575b50916101009593917fbaf9a64575edd1ebb4308874e8680288c787f6741d8edc4d66ce61418bad169b97959360018060a01b0387165f52605f6020528160405f2055606060205260405f205560405191825260208201527f681e93ec66a1e7f0d504acc55cc0b0c0ee2546b290190ccdeb1e90e83ecec976604060018060a01b03871692a2601f5460215490605d5492604051998a5260208a015260408901526060880152608087015260a0860152151560c08501525f60e085015260018060a01b031692a2565b9190615b448261626d565b90818110615b835790615b569161507d565b906001810180911161138c57916001810180911115615a6857634e487b7160e01b5f52601160045260245ffd5b919250615a71565b506001615a44565b60968101809111156159cf57634e487b7160e01b5f52601160045260245ffd5b6102ee91506159c7565b603160205260405f2054603060205260405f20556159b1565b6001600160a01b0387165f81815260316020526040902060019055605e805490921617905561598c565b90506159bf576001600160a01b0386165f908152603160205260408120556159bf565b90505f615943565b60018060a01b0388165f52602f60205260405f20615c4a8782546146d1565b90556001600160a01b0388165f908152602f6020526040902054615c6e9089615531565b615935565b50505f916158c2565b60205460018101811161138c57600181015f52603760205260405f2060018060a01b0385165f5260205260405f208054680821ab0d44149800008101811161138c57680821ab0d4414980000019055600160405191680821ab0d4414980000835201907f135d669544c1a460dd7b5f82c47189c86898c39919d3f604f6d023b68c9849fd602060018060a01b03871692a3615841565b506004546001600160a01b0316151561583c565b602054906001820180921161138c5760207f0b161138d65ee8419c59f82b310d2368e3bab076a225062e56c275fde662599391838255604051908152a25f615835565b5f61580d565b5f5b60ff9160028383161015615e1757615d88826147fb565b5b600390818582161015615e075781811015611c8a57605690808201805493861015611c8a578693866001940190815410615dc7575b50500116615d89565b605383810180549189878060a01b0391019281845416926001600160601b0360a01b93848316179055169082541617905581549181549055555f80615dbe565b50509150600160ff910116615d71565b915050565b5f5b60ff9160028383161015615e1757615e35826147fb565b5b600390818582161015615eb45781811015611c8a57604490808201805493861015611c8a578693866001940190815410615e74575b50500116615e36565b604183810180549189878060a01b0391019281845416926001600160601b0360a01b93848316179055169082541617905581549181549055555f80615e6b565b50509150600160ff910116615e1e565b5f5b60ff9160028383161015615e1757615edd826147fb565b5b600390818582161015615f5c5781811015611c8a57604a90808201805493861015611c8a578693866001940190815410615f1c575b50500116615ede565b604783810180549189878060a01b0391019281845416926001600160601b0360a01b93848316179055169082541617905581549181549055555f80615f13565b50509150600160ff910116615ec6565b5f5b60ff9160028383161015615e1757615f85826147fb565b5b6003908185821610156160045781811015611c8a57605090808201805493861015611c8a578693866001940190815410615fc4575b50500116615f86565b604d83810180549189878060a01b0391019281845416926001600160601b0360a01b93848316179055169082541617905581549181549055555f80615fbb565b50509150600160ff910116615f6e565b5f915f5b60ff8116600480821015616265576160308286614954565b51616165575b6160408285614954565b51616053575b505060010160ff16616018565b60018060a09794971b0390600190828254169260409283518095630b1feb5d60e41b8252878583015281602460209889935afa95861561521f575f96616146575b50506160af825f5416866160a8898c614954565b51916162e1565b54166160bb8588614954565b5190803b15610bf1578351639d3a8f0560e01b815260ff8b1693810193845260208401929092526001600160a01b039094166040830152925f9184919082908490829060600103925af190811561613d575092610d8a6001936161279360ff9661612e575b5086614954565b9491616046565b61613790614608565b5f616120565b513d5f823e3d90fd5b61615d929650803d106110785761106a8183614654565b935f80616094565b9460018060a01b03600181815416916040918251809463f87793ad60e01b8252878c83015281602460209788935afa94851561625b575f9561623c575b50506161b6825f5416856160a8898d614954565b54166161c28589614954565b51813b15610bf1578251636fdec13d60e11b815260ff8816818c0190815260208101929092526001600160a01b0390941660408201525f91849182908490829060600103925af190811561613d575090616227929161622d575b50610d8a8387614954565b94616036565b61623690614608565b5f61621c565b616253929550803d106110785761106a8183614654565b925f806161a2565b84513d5f823e3d90fd5b505050505090565b80156162ad575f19810190811161138c5760058102908082046005149015171561138c576014018060141161138c57606481116162a75790565b50606490565b50601490565b60ff5f805160206165138339815191525460401c16156162cf57565b604051631afcd79f60e31b8152600490fd5b60405163a9059cbb60e01b5f9081526001600160a01b039384166004526024949094529260209060448180855af160015f5114811615616340575b836040521561632a57505050565b635274afe760e01b835216600482015260249150fd5b600181151661635657813b15153d15161661631c565b833d5f823e3d90fd5b919490938483119182156163e457616377868561507d565b915b61638386886146d1565b92106163bd57505093615a60916163a094955f146163b6576146d1565b808210156163af57505b905f90565b90506163aa565b50846146d1565b9350945050506163cc916146d1565b90808210156163dd57505b90600190565b90506163d7565b5f91616379565b670dbd2fc137a3000081111561643b57678ac7230489e8000081101561643557670dbd2fc137a2ffff19810190811161138c5761642790614d56565b6001018060011161138c5790565b50600a90565b50600190565b905f8091602081519101845af480806164bf575b156164755750506040513d81523d5f602083013e60203d82010160405290565b1561649c57604051639996b31560e01b81526001600160a01b039091166004820152602490fd5b3d156164ad576040513d5f823e3d90fd5b60405163d6bda27560e01b8152600490fd5b503d1515806164555750813b151561645556fe9016d09d72d40fdae2fd8ceac6b6234c7706214fd39c1cd1e609a0528c1993009b779b17422d0df92223018b32b4d1fa46e071723d6817e2486d003becc55f00f0c57e16840df040f15088dc2f81fe391c3923bec73e23a9662efc9c229c6a00a2646970667358221220179d851ef102ad20105c6a41d411d810d396ba4deb13411fb129fcf98e611f8564736f6c63430008180033","linkReferences":{}},"methodIdentifiers":{"CAT_DEFENDED_STREAK()":"90c25e9f","CAT_LAST_BUYERS()":"f3181a5d","CAT_TIME_BOOSTER()":"0458a6a2","CAT_WARBOW()":"c364fb8d","CRED_PER_BUY()":"795ce9cd","CRED_PER_CHARM_WAD()":"d06fec83","DEFENDED_STREAK_WINDOW_SEC()":"c3f95f78","FIRST_BUY_CRED_BONUS()":"2128c5bf","NUM_PODIUM_CATEGORIES()":"b5b52a41","REFERRAL_CRED_BPS()":"1afd9556","SECONDS_PER_DAY()":"74f0314f","UPGRADE_INTERFACE_VERSION()":"ad3cb1cc","WARBOW_AMBUSH_BONUS_BP()":"63e17058","WARBOW_BASE_BUY_BP()":"0bdf1344","WARBOW_CLUTCH_BONUS_BP()":"241a67ea","WARBOW_FLAG_CLAIM_BP()":"f0d77b70","WARBOW_FLAG_SILENCE_SEC()":"febc020f","WARBOW_GUARD_DOUB()":"13daca84","WARBOW_GUARD_DURATION_SEC()":"1bb303da","WARBOW_MAX_STEALS_PER_DAY()":"d2e0218f","WARBOW_REVENGE_DOUB()":"a964525a","WARBOW_REVENGE_WINDOW_SEC()":"93b994ba","WARBOW_STEAL_DOUB()":"534b34d5","WARBOW_STEAL_DRAIN_BPS()":"cf0f8764","WARBOW_STEAL_DRAIN_GUARDED_BPS()":"fbe69531","WARBOW_STEAL_LIMIT_BYPASS_DOUB()":"bb4a1915","WARBOW_STREAK_BREAK_MULT_BP()":"db4ddd30","WARBOW_TIMER_RESET_BONUS_BP()":"a57467ca","activeDefendedStreak(address)":"5d385f88","adminSellVault()":"15e59a2d","arenaStart()":"07f28715","battlePoints(address)":"b210d9f2","bestDefendedStreak(address)":"875f2916","buy(uint256)":"d96a094a","buy(uint256,bytes32)":"e9fca283","buyCooldownSec()":"b9a5684f","buyCount(address)":"9fefe7f4","buyFor(address,uint256,bytes32,bool)":"079110e4","buyWithCred(uint256)":"6d7121e8","charmPriceWad()":"e88f9001","charmWeight(address)":"e3b2ce01","claimCred(uint256)":"66b18087","claimWarBowFlag()":"b6f34499","deadline()":"29dcb0cf","doub()":"8e9a6122","epochCharmTotal(uint256)":"429dbb15","epochCharmWad(uint256,address)":"4f70a2f9","epochCredPool(uint256)":"87257c25","epochFixedCredBonus(uint256,address)":"c71d0719","finalizeWarbowPodium(uint256,address,address,address)":"6fa1cba7","initialTimerSec()":"12407d45","initialize(address,address,address,address,address,uint256,uint256[4],uint256[4],uint256[4],uint256[4],uint256[4],uint256,address)":"ee48c9f5","lastBuyEpoch()":"6a9ea067","lastBuyers()":"f3a6915d","level(address)":"d41b6db6","nextBuyAllowedAt(address)":"a9b2424e","owner()":"8da5cb5b","paused()":"5c975abb","pendingCred(address,uint256)":"0152f65f","playCred()":"39524dc8","podium(uint8)":"1458d4ad","podiumDeadline(uint256)":"ab8a6eb3","podiumEpoch(uint256)":"6611fd1b","podiumInitialTimerSec(uint256)":"69897053","podiumResetBelowRemainingSec(uint256)":"5eb7fb0c","podiumResetToRemainingSec(uint256)":"a56cba75","podiumTimerCapSec(uint256)":"deb26f6c","podiumTimerExtensionSec(uint256)":"21f28f87","podiumVaults()":"787a2c24","proxiableUUID()":"52d1902d","referralRegistry()":"4e627e62","renounceOwnership()":"715018a6","rollPodiumEpoch(uint8)":"a9b74776","setCharmPriceWad(uint256)":"6e19a728","setPaused(bool)":"16c38b3c","setTimeArenaBuyRouter(address)":"e7a5ccf4","startArena()":"24bceab3","stealsCommittedByAttackerOnDay(address,uint256)":"9d70e671","stealsReceivedOnDay(address,uint256)":"75c48420","timeArenaBuyRouter()":"57cd7c88","timerCapSec()":"0f632576","timerExtensionSec()":"438009aa","topUpPodiumPools(uint256)":"487d3c84","totalCharmWeight()":"92882c36","totalDoubRaised()":"6dc84fb3","totalEffectiveTimerSecAdded(address)":"580a68b6","transferOwnership(address)":"f2fde38b","upgradeToAndCall(address,bytes)":"4f1ef286","warbowActivateGuard()":"90802dea","warbowEpochFinalized(uint256)":"bcd8c930","warbowGuardUntil(address)":"b95683e4","warbowPendingFlagOwner()":"4423338e","warbowPendingFlagPlantAt()":"18f0574d","warbowPendingRevengeExpiryExclusive(address,address)":"82e02b0b","warbowPendingRevengeStealSeq(address,address)":"2c06f19b","warbowRevenge(address)":"bf38cfbf","warbowSteal(address,bool)":"23df5215","xp(address)":"0490cb74","xpToNextLevel(address)":"c71bfd6f","xpTowardNext(address)":"a247c2eb"},"id":87}