{"abi":[{"type":"constructor","inputs":[{"name":"name_","type":"string","internalType":"string"},{"name":"symbol_","type":"string","internalType":"string"},{"name":"baseURI_","type":"string","internalType":"string"},{"name":"admin","type":"address","internalType":"address"}],"stateMutability":"nonpayable"},{"type":"function","name":"DEFAULT_ADMIN_ROLE","inputs":[],"outputs":[{"name":"","type":"bytes32","internalType":"bytes32"}],"stateMutability":"view"},{"type":"function","name":"MINTER_ROLE","inputs":[],"outputs":[{"name":"","type":"bytes32","internalType":"bytes32"}],"stateMutability":"view"},{"type":"function","name":"approve","inputs":[{"name":"to","type":"address","internalType":"address"},{"name":"tokenId","type":"uint256","internalType":"uint256"}],"outputs":[],"stateMutability":"nonpayable"},{"type":"function","name":"balanceOf","inputs":[{"name":"owner","type":"address","internalType":"address"}],"outputs":[{"name":"","type":"uint256","internalType":"uint256"}],"stateMutability":"view"},{"type":"function","name":"baseURI","inputs":[],"outputs":[{"name":"","type":"string","internalType":"string"}],"stateMutability":"view"},{"type":"function","name":"createSeries","inputs":[{"name":"maxSupply","type":"uint256","internalType":"uint256"}],"outputs":[{"name":"seriesId","type":"uint256","internalType":"uint256"}],"stateMutability":"nonpayable"},{"type":"function","name":"getApproved","inputs":[{"name":"tokenId","type":"uint256","internalType":"uint256"}],"outputs":[{"name":"","type":"address","internalType":"address"}],"stateMutability":"view"},{"type":"function","name":"getRoleAdmin","inputs":[{"name":"role","type":"bytes32","internalType":"bytes32"}],"outputs":[{"name":"","type":"bytes32","internalType":"bytes32"}],"stateMutability":"view"},{"type":"function","name":"getRoleMember","inputs":[{"name":"role","type":"bytes32","internalType":"bytes32"},{"name":"index","type":"uint256","internalType":"uint256"}],"outputs":[{"name":"","type":"address","internalType":"address"}],"stateMutability":"view"},{"type":"function","name":"getRoleMemberCount","inputs":[{"name":"role","type":"bytes32","internalType":"bytes32"}],"outputs":[{"name":"","type":"uint256","internalType":"uint256"}],"stateMutability":"view"},{"type":"function","name":"getRoleMembers","inputs":[{"name":"role","type":"bytes32","internalType":"bytes32"}],"outputs":[{"name":"","type":"address[]","internalType":"address[]"}],"stateMutability":"view"},{"type":"function","name":"grantRole","inputs":[{"name":"role","type":"bytes32","internalType":"bytes32"},{"name":"account","type":"address","internalType":"address"}],"outputs":[],"stateMutability":"nonpayable"},{"type":"function","name":"hasRole","inputs":[{"name":"role","type":"bytes32","internalType":"bytes32"},{"name":"account","type":"address","internalType":"address"}],"outputs":[{"name":"","type":"bool","internalType":"bool"}],"stateMutability":"view"},{"type":"function","name":"isApprovedForAll","inputs":[{"name":"owner","type":"address","internalType":"address"},{"name":"operator","type":"address","internalType":"address"}],"outputs":[{"name":"","type":"bool","internalType":"bool"}],"stateMutability":"view"},{"type":"function","name":"mint","inputs":[{"name":"to","type":"address","internalType":"address"},{"name":"traits","type":"tuple","internalType":"struct LeprechaunNFT.Traits","components":[{"name":"seriesId","type":"uint256","internalType":"uint256"},{"name":"rarityTier","type":"uint8","internalType":"uint8"},{"name":"role","type":"uint8","internalType":"uint8"},{"name":"passiveEffectType","type":"uint8","internalType":"uint8"},{"name":"setId","type":"uint256","internalType":"uint256"},{"name":"setPosition","type":"uint8","internalType":"uint8"},{"name":"bonusCategory","type":"uint8","internalType":"uint8"},{"name":"bonusValue","type":"uint256","internalType":"uint256"},{"name":"synergyTag","type":"uint256","internalType":"uint256"},{"name":"agentTradable","type":"bool","internalType":"bool"},{"name":"agentLendable","type":"bool","internalType":"bool"},{"name":"factionLocked","type":"bool","internalType":"bool"}]}],"outputs":[{"name":"tokenId","type":"uint256","internalType":"uint256"}],"stateMutability":"nonpayable"},{"type":"function","name":"name","inputs":[],"outputs":[{"name":"","type":"string","internalType":"string"}],"stateMutability":"view"},{"type":"function","name":"nextSeriesId","inputs":[],"outputs":[{"name":"","type":"uint256","internalType":"uint256"}],"stateMutability":"view"},{"type":"function","name":"ownerOf","inputs":[{"name":"tokenId","type":"uint256","internalType":"uint256"}],"outputs":[{"name":"","type":"address","internalType":"address"}],"stateMutability":"view"},{"type":"function","name":"renounceRole","inputs":[{"name":"role","type":"bytes32","internalType":"bytes32"},{"name":"callerConfirmation","type":"address","internalType":"address"}],"outputs":[],"stateMutability":"nonpayable"},{"type":"function","name":"revokeRole","inputs":[{"name":"role","type":"bytes32","internalType":"bytes32"},{"name":"account","type":"address","internalType":"address"}],"outputs":[],"stateMutability":"nonpayable"},{"type":"function","name":"safeTransferFrom","inputs":[{"name":"from","type":"address","internalType":"address"},{"name":"to","type":"address","internalType":"address"},{"name":"tokenId","type":"uint256","internalType":"uint256"}],"outputs":[],"stateMutability":"nonpayable"},{"type":"function","name":"safeTransferFrom","inputs":[{"name":"from","type":"address","internalType":"address"},{"name":"to","type":"address","internalType":"address"},{"name":"tokenId","type":"uint256","internalType":"uint256"},{"name":"data","type":"bytes","internalType":"bytes"}],"outputs":[],"stateMutability":"nonpayable"},{"type":"function","name":"series","inputs":[{"name":"","type":"uint256","internalType":"uint256"}],"outputs":[{"name":"maxSupply","type":"uint256","internalType":"uint256"},{"name":"minted","type":"uint256","internalType":"uint256"},{"name":"active","type":"bool","internalType":"bool"}],"stateMutability":"view"},{"type":"function","name":"setApprovalForAll","inputs":[{"name":"operator","type":"address","internalType":"address"},{"name":"approved","type":"bool","internalType":"bool"}],"outputs":[],"stateMutability":"nonpayable"},{"type":"function","name":"setBaseURI","inputs":[{"name":"newBaseURI","type":"string","internalType":"string"}],"outputs":[],"stateMutability":"nonpayable"},{"type":"function","name":"supportsInterface","inputs":[{"name":"interfaceId","type":"bytes4","internalType":"bytes4"}],"outputs":[{"name":"","type":"bool","internalType":"bool"}],"stateMutability":"view"},{"type":"function","name":"symbol","inputs":[],"outputs":[{"name":"","type":"string","internalType":"string"}],"stateMutability":"view"},{"type":"function","name":"tokenByIndex","inputs":[{"name":"index","type":"uint256","internalType":"uint256"}],"outputs":[{"name":"","type":"uint256","internalType":"uint256"}],"stateMutability":"view"},{"type":"function","name":"tokenOfOwnerByIndex","inputs":[{"name":"owner","type":"address","internalType":"address"},{"name":"index","type":"uint256","internalType":"uint256"}],"outputs":[{"name":"","type":"uint256","internalType":"uint256"}],"stateMutability":"view"},{"type":"function","name":"tokenTraits","inputs":[{"name":"","type":"uint256","internalType":"uint256"}],"outputs":[{"name":"seriesId","type":"uint256","internalType":"uint256"},{"name":"rarityTier","type":"uint8","internalType":"uint8"},{"name":"role","type":"uint8","internalType":"uint8"},{"name":"passiveEffectType","type":"uint8","internalType":"uint8"},{"name":"setId","type":"uint256","internalType":"uint256"},{"name":"setPosition","type":"uint8","internalType":"uint8"},{"name":"bonusCategory","type":"uint8","internalType":"uint8"},{"name":"bonusValue","type":"uint256","internalType":"uint256"},{"name":"synergyTag","type":"uint256","internalType":"uint256"},{"name":"agentTradable","type":"bool","internalType":"bool"},{"name":"agentLendable","type":"bool","internalType":"bool"},{"name":"factionLocked","type":"bool","internalType":"bool"}],"stateMutability":"view"},{"type":"function","name":"tokenURI","inputs":[{"name":"tokenId","type":"uint256","internalType":"uint256"}],"outputs":[{"name":"","type":"string","internalType":"string"}],"stateMutability":"view"},{"type":"function","name":"totalSupply","inputs":[],"outputs":[{"name":"","type":"uint256","internalType":"uint256"}],"stateMutability":"view"},{"type":"function","name":"transferFrom","inputs":[{"name":"from","type":"address","internalType":"address"},{"name":"to","type":"address","internalType":"address"},{"name":"tokenId","type":"uint256","internalType":"uint256"}],"outputs":[],"stateMutability":"nonpayable"},{"type":"event","name":"Approval","inputs":[{"name":"owner","type":"address","indexed":true,"internalType":"address"},{"name":"approved","type":"address","indexed":true,"internalType":"address"},{"name":"tokenId","type":"uint256","indexed":true,"internalType":"uint256"}],"anonymous":false},{"type":"event","name":"ApprovalForAll","inputs":[{"name":"owner","type":"address","indexed":true,"internalType":"address"},{"name":"operator","type":"address","indexed":true,"internalType":"address"},{"name":"approved","type":"bool","indexed":false,"internalType":"bool"}],"anonymous":false},{"type":"event","name":"Minted","inputs":[{"name":"tokenId","type":"uint256","indexed":true,"internalType":"uint256"},{"name":"seriesId","type":"uint256","indexed":true,"internalType":"uint256"},{"name":"to","type":"address","indexed":true,"internalType":"address"}],"anonymous":false},{"type":"event","name":"RoleAdminChanged","inputs":[{"name":"role","type":"bytes32","indexed":true,"internalType":"bytes32"},{"name":"previousAdminRole","type":"bytes32","indexed":true,"internalType":"bytes32"},{"name":"newAdminRole","type":"bytes32","indexed":true,"internalType":"bytes32"}],"anonymous":false},{"type":"event","name":"RoleGranted","inputs":[{"name":"role","type":"bytes32","indexed":true,"internalType":"bytes32"},{"name":"account","type":"address","indexed":true,"internalType":"address"},{"name":"sender","type":"address","indexed":true,"internalType":"address"}],"anonymous":false},{"type":"event","name":"RoleRevoked","inputs":[{"name":"role","type":"bytes32","indexed":true,"internalType":"bytes32"},{"name":"account","type":"address","indexed":true,"internalType":"address"},{"name":"sender","type":"address","indexed":true,"internalType":"address"}],"anonymous":false},{"type":"event","name":"SeriesCreated","inputs":[{"name":"seriesId","type":"uint256","indexed":true,"internalType":"uint256"},{"name":"maxSupply","type":"uint256","indexed":false,"internalType":"uint256"}],"anonymous":false},{"type":"event","name":"Transfer","inputs":[{"name":"from","type":"address","indexed":true,"internalType":"address"},{"name":"to","type":"address","indexed":true,"internalType":"address"},{"name":"tokenId","type":"uint256","indexed":true,"internalType":"uint256"}],"anonymous":false},{"type":"error","name":"AccessControlBadConfirmation","inputs":[]},{"type":"error","name":"AccessControlUnauthorizedAccount","inputs":[{"name":"account","type":"address","internalType":"address"},{"name":"neededRole","type":"bytes32","internalType":"bytes32"}]},{"type":"error","name":"ERC721EnumerableForbiddenBatchMint","inputs":[]},{"type":"error","name":"ERC721IncorrectOwner","inputs":[{"name":"sender","type":"address","internalType":"address"},{"name":"tokenId","type":"uint256","internalType":"uint256"},{"name":"owner","type":"address","internalType":"address"}]},{"type":"error","name":"ERC721InsufficientApproval","inputs":[{"name":"operator","type":"address","internalType":"address"},{"name":"tokenId","type":"uint256","internalType":"uint256"}]},{"type":"error","name":"ERC721InvalidApprover","inputs":[{"name":"approver","type":"address","internalType":"address"}]},{"type":"error","name":"ERC721InvalidOperator","inputs":[{"name":"operator","type":"address","internalType":"address"}]},{"type":"error","name":"ERC721InvalidOwner","inputs":[{"name":"owner","type":"address","internalType":"address"}]},{"type":"error","name":"ERC721InvalidReceiver","inputs":[{"name":"receiver","type":"address","internalType":"address"}]},{"type":"error","name":"ERC721InvalidSender","inputs":[{"name":"sender","type":"address","internalType":"address"}]},{"type":"error","name":"ERC721NonexistentToken","inputs":[{"name":"tokenId","type":"uint256","internalType":"uint256"}]},{"type":"error","name":"ERC721OutOfBoundsIndex","inputs":[{"name":"owner","type":"address","internalType":"address"},{"name":"index","type":"uint256","internalType":"uint256"}]}],"bytecode":{"object":"0x608060405234620004bd5762002770803803806200001d81620004c1565b9283398101608082820312620004bd5781516001600160401b039290838111620004bd57826200004f918301620004e7565b60209384830151818111620004bd57846200006c918501620004e7565b936040840151828111620004bd576060916200008a918601620004e7565b9301516001600160a01b03811693909290848403620004bd578151958387116200030b575f54966001938489811c99168015620004b2575b8a8a1014620002ec578190601f998a81116200045f575b508a908a8311600114620003f9575f92620003ed575b50505f19600383901b1c191690841b175f555b8051908482116200030b578354908482811c92168015620003e2575b8a831014620002ec5781898493116200038f575b5089908983116001146200032b575f926200031f575b50505f19600383901b1c191690831b1782555b80519283116200030b57600d548281811c9116801562000300575b88821014620002ec57868111620002a3575b50869583116001146200023a578291620001cf959683925f946200022e575b50501b915f199060031b1c191617600d555b620001c48162000557565b6200021157620005eb565b620001e5575b6040516120429081620006ee8239f35b600b62000208925f80516020620027508339815191525f525260405f206200067a565b505f80620001d5565b5f8052600b8452620002278360405f206200067a565b50620005eb565b015192505f80620001a7565b601f92919219821695600d5f52875f20915f5b898982106200028e57505083620001cf97981062000275575b505050811b01600d55620001b9565b01515f1960f88460031b161c191690555f808062000266565b8284015185559386019392830192016200024d565b600d5f52875f208780860160051c8201928a8710620002e2575b0160051c019083905b828110620002d657505062000188565b5f8155018390620002c6565b92508192620002bd565b634e487b7160e01b5f52602260045260245ffd5b90607f169062000176565b634e487b7160e01b5f52604160045260245ffd5b015190505f8062000148565b90859350601f19831691845f528b5f20925f5b8d8282106200037857505084116200035f575b505050811b0182556200015b565b01515f1960f88460031b161c191690555f808062000351565b83850151865589979095019493840193016200033e565b909150845f52895f208980850160051c8201928c8610620003d8575b918791869594930160051c01915b828110620003c957505062000132565b5f8155859450879101620003b9565b92508192620003ab565b91607f16916200011e565b015190505f80620000ef565b5f8080528c8120889550929190601f198516908e5b8282106200044757505084116200042e575b505050811b015f5562000102565b01515f1960f88460031b161c191690555f808062000420565b8385015186558a979095019493840193018e6200040e565b9091505f80528a5f208a80850160051c8201928d8610620004a8575b918891869594930160051c01915b82811062000499575050620000d9565b5f815585945088910162000489565b925081926200047b565b98607f1698620000c2565b5f80fd5b6040519190601f01601f191682016001600160401b038111838210176200030b57604052565b919080601f84011215620004bd5782516001600160401b0381116200030b576020906200051d601f8201601f19168301620004c1565b92818452828287010111620004bd575f5b818110620005435750825f9394955001015290565b85810183015184820184015282016200052e565b6001600160a01b03165f8181527f13da86008ba1c6922daee3e07db95305ef49ebced9f5467a0b8613fcc6b343e3602052604090205460ff16620005e6575f8181527f13da86008ba1c6922daee3e07db95305ef49ebced9f5467a0b8613fcc6b343e360205260408120805460ff191660011790553391905f80516020620027308339815191528180a4600190565b505f90565b6001600160a01b03165f8181527faa1d7351356c4ddc11907b1ee0660f579cfdf507235af2ae01ecd22a4b7ceaae60205260409020545f8051602062002750833981519152919060ff166200067457815f52600a60205260405f20815f5260205260405f20600160ff1982541617905533915f80516020620027308339815191525f80a4600190565b50505f90565b6001810190825f528160205260405f2054155f14620006e6578054680100000000000000008110156200030b5760018101808355811015620006d2578390825f5260205f20015554915f5260205260405f2055600190565b634e487b7160e01b5f52603260045260245ffd5b5050505f9056fe6080604090808252600480361015610015575f80fd5b5f3560e01c91826301ffc9a7146115b25750816306fdde0314611505578163081812fc146114cd578163095ea7b3146113f257816318160ddd146113d457816323b872dd146113bd578163248a9ca3146113935781632f2ff15d146113305781632f745c59146112b257816336568abe1461126e57816342842e0e146112405781634f6ccce7146111eb57816352f4f51814610c1957816355f804b314610a935781636352211e14610a645781636c0360eb14610a345781636ed3e3e314610a1657816370a08231146109ea5781639010d07c146109ab57816391d148541461096757816395d89b41146108935781639dec512a14610786578163a217fddf1461076c578163a22cb465146106ab578163a3246ad314610605578163b88d4fde14610575578163c87b56dd1461036f578163ca15c87314610348578163d53913931461030e578163d547741f146102d2578163dc22cb6a1461028e578163e05c57bf146101dc575063e985e9c51461018b575f80fd5b346101d857806003193601126101d8576020906101a66116b0565b6101ae6116c6565b9060018060a01b038091165f5260058452825f2091165f52825260ff815f20541690519015158152f35b5f80fd5b82346101d85760203660031901126101d8578161018092355f52600e602052815f2091825492600181015460ff809460028401548260038601549286015494600660058801549701549780519a8b5282821660208c0152828260081c16908b015260101c166060890152608088015281811660a088015260081c1660c086015260e08501526101008401528181161515610120840152818160081c16151561014084015260101c161515610160820152f35b82346101d85760203660031901126101d857606091355f52600f602052805f209081549160ff60026001830154920154169082519384526020840152151590820152f35b82346101d857806003193601126101d85761030c913561030760016102f56116c6565b93835f52600a6020525f200154611c3d565b611c7d565b005b82346101d8575f3660031901126101d857602090517f9f2df0fed2c77648de5860a4cc508cd0818c85b8b8a1ab4ceeef8d981c8956a68152f35b82346101d85760203660031901126101d857602091355f52600b8252805f20549051908152f35b9050346101d857602090816003193601126101d8578082913561039181611bad565b5061039a61179b565b80519092901561055a575f919081907a184f03e93ff9f4daa797ed6e38ed64bf6a1f010000000000000000828181101561054d575b5050856d04ee2d6d415b85acef81000000008084101561053f575b5050662386f26fc1000080831015610530575b506305f5e10080831015610521575b5061271080831015610515575b50506064811015610507575b600a809110156104fd575b60018084019281602161045a6104458761185e565b966104528d519889611779565b80885261185e565b868a019790601f1901368937860101905b6104c8575b50505050926104a7926104b3926104c49588519583610498889551809288808901910161166a565b8401915180938684019061166a565b01038084520182611779565b925b5192828493845283019061168b565b0390f35b5f19019083906f181899199a1a9b1b9c1cb0b131b232b360811b8282061a8353049182156104f85791908261046b565b610470565b9160010191610430565b606460029104920191610425565b93019290045f80610419565b6008919492049101925f61040c565b6010919492049101925f6103fd565b94019390910490855f6103ea565b8995500491505f806103cf565b505050506104c4825161056c81611749565b5f8152926104b5565b82346101d85760803660031901126101d85761058f6116b0565b6105976116c6565b604435916064359467ffffffffffffffff86116101d857366023870112156101d8578501356105d16105c88261185e565b95519586611779565b80855236602482880101116101d8576020815f92602461030c990183890137860101526105ff83838361187a565b33611cb7565b9050346101d857602090816003193601126101d8578290355f52600b8252805f208151928381835491828152019081935f52825f20905f5b8181106106975750505084610653910385611779565b825181815293518185018190528493840192915f5b82811061067757505050500390f35b83516001600160a01b031685528695509381019392810192600101610668565b82548452928401926001928301920161063d565b82346101d857806003193601126101d8576106c46116b0565b90602435801515928382036101d8573315610756576001600160a01b031693841561073f575061071390335f526005602052825f20855f52602052825f209060ff801983541691151516179055565b519081527f17307eab39ab6107e8899845ad3d59bd9653f200f220920489ca2b5937696c3160203392a3005b8251630b61174360e31b8152908101859052602490fd5b825163a9fbf51f60e01b81525f81870152602490fd5b82346101d8575f3660031901126101d857602090515f8152f35b9050346101d857602091826003193601126101d85781356107a5611be7565b801561085e57601054926107b884611b69565b601055825190606082019082821067ffffffffffffffff83111761084b5750849261083f7f7f425876465e3e59e1880ff4de6d010f3ac668ed43f675719f9e70e609509968938893875282815260028482015f81528883019060018252885f52600f8752895f209351845551600184015551151591019060ff801983541691151516179055565b8451908152a251908152f35b604190634e487b7160e01b5f525260245ffd5b5091606492519162461bcd60e51b8352820152601060248201526f4e46543a207a65726f20737570706c7960801b6044820152fd5b82346101d8575f3660031901126101d8578051905f9082600192600154936108ba85611711565b90818452602095866001821691825f146109455750506001146108ea575b50506104c492916104b5910385611779565b9085925060015f527fb10e2d527612073b26eecdfd717e6a320cf44b4afac2b0732d9fcbe2b7fa0cf6915f925b82841061092d57505050820101816104b56108d8565b8054848a018601528895508794909301928101610917565b60ff19168682015292151560051b850190920192508391506104b590506108d8565b82346101d857806003193601126101d8576020916109836116c6565b90355f52600a8352815f209060018060a01b03165f52825260ff815f20541690519015158152f35b82346101d857806003193601126101d857602091355f52600b82526109d4602435825f20611b54565b905491519160018060a01b039160031b1c168152f35b82346101d85760203660031901126101d857602090610a0f610a0a6116b0565b611b77565b9051908152f35b82346101d8575f3660031901126101d8576020906010549051908152f35b82346101d8575f3660031901126101d8576104c490610a5161179b565b905191829160208352602083019061168b565b82346101d85760203660031901126101d857610a8260209235611bad565b90516001600160a01b039091168152f35b346101d85760209060206003193601126101d857803567ffffffffffffffff918282116101d857366023830112156101d8578101359182116101d85760249036602484830101116101d857610ae6611be7565b610af1600d54611711565b601f8111610bba575b505f91601f8411600114610b3957508293505f92610b2b575b50505f19600383901b1c191660019190911b17600d55005b602492500101358280610b13565b91601f1984167fd7b6990105719101dabeb77144f2a3385c8033acd3af97e9423a695e81ad1eb5935f905b828210610b9f575050600195508411610b83575b505050811b01600d55005b01602401355f19600384901b60f8161c19169055828080610b78565b90929487600181928489890101358155019601930190610b64565b7fd7b6990105719101dabeb77144f2a3385c8033acd3af97e9423a695e81ad1eb5601f850160051c81019160208610610c0f575b601f0160051c01905b818110610c045750610afa565b5f8155600101610bf7565b9091508190610bee565b9050346101d8576101a03660031901126101d857610c356116b0565b6101803660231901126101d8577f9f2df0fed2c77648de5860a4cc508cd0818c85b8b8a1ab4ceeef8d981c8956a690815f52602093600a8552805f20335f52855260ff9283825f205416156111cd57506024803594855f52600f8752825f2094806002870154161561119557600186019586549054111561116157600c5495610cbd87611b69565b600c558054906001820180921161114f5755855f52600e8852835f209087825560018201916044358281168091036101d85760ff19908185541617845560643583811681036101d857845461ff00191660089190911b61ff00161784556084359383851685036101d857805462ff0000809660101b169062ff0000191617905560a4356002830155600382019060c435908482168092036101d85782541617815560e43592831683036101d857600692610d87919061ff0082549160081b169061ff001916179055565b610104358482015561012435600582015501906101443580151581036101d857825490151560ff1660ff199190911617825561016435908115158092036101d85782549061018435908115158092036101d85761ff009160101b169260081b169062ffff001916171790558251610dfd81611749565b5f81526001600160a01b038581169590861561113957875f5260028a52855f2054168015908782159283611108575b815f5260038d52885f20600181540190558a5f5260028d52885f20826001600160601b0360a01b8254161790558a82847fddf252ad1be2c89b69c2b068fc378daa952ba7f163c4a11628f55a4df523b3ef5f80a41561109b5750600854895f5260098c5280885f2055600160401b811015611089579089610ecd610eb78460018d9601600855611b0b565b819391549060031b91821b915f19901b19161790565b90555b0361103f575b61102a573b610f0e575b5050505192827f259eb7b480b3d449f506927269e4665c83c69e4cd797143eaa8f84632dc7a02b5f80a48152f35b9083949591885f85610f4f859b979c98519485938493630a85bd0160e11b98898652339086015284015287604484015260806064840152608483019061168b565b03815f8b5af15f9181610fea575b50610fb557505050503d5f14610fad573d90610f788261185e565b91610f8584519384611779565b82523d5f8284013e5b81519182610faa575050505191633250574960e11b8352820152fd5b01fd5b606090610f8e565b93979296919594936001600160e01b03191603610fd65750505f8080610ee0565b8251633250574960e11b8152908101849052fd5b9091508581813d8311611023575b6110028183611779565b810103126101d857516001600160e01b0319811681036101d857905f610f5d565b503d610ff8565b50505f8351916339e3563760e11b8352820152fd5b61104882611b77565b5f19810190811161107757875f5260068b52865f20815f528b5288875f2055885f5260078b52865f2055610ed6565b85601186634e487b7160e01b5f52525ffd5b86604187634e487b7160e01b5f52525ffd5b90808214610ed0578b6110ad82611b77565b8b5f526007825260078a5f205492845f52600681528b5f20938381036110e6575b508d5f52525f8a8120555f528c525f88812055610ed0565b835f528482528c805f20548091835f525f20555f528282528c5f20555f6110ce565b5f8b815260046020526040812080546001600160a01b031916905583815260038e5289902080545f19019055610e2c565b5050505f835191633250574960e11b8352820152fd5b84601185634e487b7160e01b5f52525ffd5b5060106064928885519362461bcd60e51b85528401528201526f1391950e881cd95c9a595cc8199d5b1b60821b6044820152fd5b5060146064928885519362461bcd60e51b8552840152820152734e46543a2073657269657320696e61637469766560601b6044820152fd5b905163e2517d3f60e01b815233818601526024810191909152604490fd5b9050346101d85760203660031901126101d8578035906008548210156112255760208361121784611b0b565b91905490519160031b1c8152f35b905f604493519263295f44f760e21b84528301526024820152fd5b82346101d85761030c90611253366116dc565b9192519261126084611749565b5f84526105ff83838361187a565b82346101d857806003193601126101d8576112876116c6565b90336001600160a01b038316036112a3575061030c9135611c7d565b5163334bd91960e11b81529050fd5b82346101d857806003193601126101d8576112cb6116b0565b91602435906112d984611b77565b821015611305575060209260018060a01b03165f5260068352815f20905f528252805f20549051908152f35b915163295f44f760e21b81526001600160a01b03909316918301918252602082015281906040010390fd5b9050346101d857816003193601126101d857359061134c6116c6565b90825f52600a6020526113646001825f200154611c3d565b61136e8284611e01565b61137457005b5f928352600b60205290912061030c916001600160a01b031690611ef3565b82346101d85760203660031901126101d857602091355f52600a82526001815f2001549051908152f35b346101d85761030c6113ce366116dc565b9161187a565b82346101d8575f3660031901126101d8576020906008549051908152f35b82346101d857806003193601126101d85761140b6116b0565b9160243561141881611bad565b331515806114ba575b80611493575b61147d576001600160a01b039485169482918691167f8c5be1e5ebec7d5bd14f71427d1e84f3dd0314c0f7b2291e5b200ac8c7c3b9255f80a45f526020525f20906001600160601b0360a01b8254161790555f80f35b835163a9fbf51f60e01b81523381850152602490fd5b5060018060a01b0381165f526005602052835f20335f5260205260ff845f20541615611427565b506001600160a01b038116331415611421565b82346101d85760203660031901126101d85781602092356114ed81611bad565b505f52825260018060a01b03815f2054169051908152f35b82346101d8575f3660031901126101d8578051905f90825f549261152884611711565b808352602094600190866001821691825f146109455750506001146115595750506104c492916104b5910385611779565b5f80805286935091907f290decd9548b62a8d60345a988386fc84ba6bc95484008f6362f93160ef3e5635b82841061159a57505050820101816104b56108d8565b8054848a018601528895508794909301928101611584565b90346101d85760203660031901126101d857359063ffffffff60e01b82168092036101d857602091635a05180f60e01b81149081156115f3575b5015158152f35b637965db0b60e01b81149150811561160d575b50836115ec565b63780e9d6360e01b811491508115611627575b5083611606565b6380ac58cd60e01b811491508115611659575b8115611648575b5083611620565b6301ffc9a760e01b14905083611641565b635b5e139f60e01b8114915061163a565b5f5b83811061167b5750505f910152565b818101518382015260200161166c565b906020916116a48151809281855285808601910161166a565b601f01601f1916010190565b600435906001600160a01b03821682036101d857565b602435906001600160a01b03821682036101d857565b60609060031901126101d8576001600160a01b039060043582811681036101d8579160243590811681036101d8579060443590565b90600182811c9216801561173f575b602083101461172b57565b634e487b7160e01b5f52602260045260245ffd5b91607f1691611720565b6020810190811067ffffffffffffffff82111761176557604052565b634e487b7160e01b5f52604160045260245ffd5b90601f8019910116810190811067ffffffffffffffff82111761176557604052565b604051905f82600d54916117ae83611711565b8083529260209060019081811690811561183a57506001146117db575b50506117d992500383611779565b565b915092600d5f527fd7b6990105719101dabeb77144f2a3385c8033acd3af97e9423a695e81ad1eb5935f925b82841061182257506117d99450505081016020015f806117cb565b85548885018301529485019487945092810192611807565b915050602092506117d994915060ff191682840152151560051b8201015f806117cb565b67ffffffffffffffff811161176557601f01601f191660200190565b6001600160a01b0382811693918415611af357825f5260206002815260409583875f2054169533151580611a65575b5086158015611a34575b825f5260038452885f2060018154019055865f5260028452885f20836001600160601b0360a01b8254161790558683897fddf252ad1be2c89b69c2b068fc378daa952ba7f163c4a11628f55a4df523b3ef5f80a4156119c857600854865f526009845280895f2055600160401b8110156117655761193b610eb78260018a9401600855611b0b565b90555b818703611979575b50505016928383036119585750505050565b6064945051926364283d7b60e01b8452600484015260248301526044820152fd5b61198290611b77565b5f198101929083116119b4576007915f5260068152875f20835f52815285885f2055855f5252855f20555f8080611946565b634e487b7160e01b5f52601160045260245ffd5b86821461193e576119d887611b77565b865f5260078452885f205490885f5260068552895f2091818103611a12575b50875f52600785525f8a8120555f5283525f8881205561193e565b815f528286528a5f2054815f52808c5f20555f52600786528a5f20555f6119f7565b5f87815260046020526040812080546001600160a01b03191690558881526003855289902080545f190190556118b3565b80611ab2575b15611a76575f6118a9565b878688611a93576024915190637e27328960e01b82526004820152fd5b905163177e802f60e01b81523360048201526024810191909152604490fd5b503387148015611ad7575b80611a6b5750855f52600483523385895f20541614611a6b565b50865f5260058352875f20335f52835260ff885f205416611abd565b604051633250574960e11b81525f6004820152602490fd5b600854811015611b405760085f527ff3f7a9fe364faab93b216da50a3214154f22a0a2b415b23a84c8169e8b636ee301905f90565b634e487b7160e01b5f52603260045260245ffd5b8054821015611b40575f5260205f2001905f90565b5f1981146119b45760010190565b6001600160a01b03168015611b95575f52600360205260405f205490565b6040516322718ad960e21b81525f6004820152602490fd5b5f818152600260205260409020546001600160a01b0316908115611bcf575090565b60249060405190637e27328960e01b82526004820152fd5b335f9081527f13da86008ba1c6922daee3e07db95305ef49ebced9f5467a0b8613fcc6b343e3602052604090205460ff1615611c1f57565b60405163e2517d3f60e01b81523360048201525f6024820152604490fd5b805f52600a60205260405f20335f5260205260ff60405f20541615611c5f5750565b6044906040519063e2517d3f60e01b82523360048301526024820152fd5b611c878282611e7f565b9182611c9257505090565b5f918252600b6020526040909120611cb3916001600160a01b031690611f47565b5090565b9293909193843b611cca575b5050505050565b604051630a85bd0160e11b8082526001600160a01b039586166004830152938516602482015260448101919091526080606482015260209594909316939290859082908190611d1d90608483019061168b565b03815f885af15f9181611dc1575b50611d8a575050503d5f14611d82573d91611d458361185e565b92611d536040519485611779565b83523d5f8285013e5b82519283611d7d57604051633250574960e11b815260048101849052602490fd5b019050fd5b606091611d5c565b9193506001600160e01b031990911603611da957505f80808080611cc3565b60249060405190633250574960e11b82526004820152fd5b9091508581813d8311611dfa575b611dd98183611779565b810103126101d857516001600160e01b0319811681036101d857905f611d2b565b503d611dcf565b90815f52600a60205260405f209060018060a01b031690815f5260205260ff60405f205416155f14611e7957815f52600a60205260405f20815f5260205260405f20600160ff1982541617905533917f2f8788117e7eff1d82e926ec794901d17c78024a50270940304540a733656f0d5f80a4600190565b50505f90565b90815f52600a60205260405f209060018060a01b031690815f5260205260ff60405f2054165f14611e7957815f52600a60205260405f20815f5260205260405f2060ff19815416905533917ff6391f5c32d9c69d2a47ea670b442974b53935d1edc7fd64eb21e047a839171b5f80a4600190565b6001810190825f528160205260405f2054155f14611f40578054600160401b81101561176557611f2d610eb7826001879401855584611b54565b905554915f5260205260405f2055600190565b5050505f90565b906001820191815f528260205260405f2054908115155f14612004575f19918083018181116119b4578254908482019182116119b457818103611fcf575b50505080548015611fbb57820191611f9d8383611b54565b909182549160031b1b19169055555f526020525f6040812055600190565b634e487b7160e01b5f52603160045260245ffd5b611fef611fdf610eb79386611b54565b90549060031b1c92839286611b54565b90555f528460205260405f20555f8080611f85565b505050505f9056fea2646970667358221220edff3d7b4b31b30e4da50c2a29d41cd7dc9d4644059302b4e20e5534c560c29464736f6c634300081800332f8788117e7eff1d82e926ec794901d17c78024a50270940304540a733656f0d9f2df0fed2c77648de5860a4cc508cd0818c85b8b8a1ab4ceeef8d981c8956a6","linkReferences":{}},"methodIdentifiers":{"DEFAULT_ADMIN_ROLE()":"a217fddf","MINTER_ROLE()":"d5391393","approve(address,uint256)":"095ea7b3","balanceOf(address)":"70a08231","baseURI()":"6c0360eb","createSeries(uint256)":"9dec512a","getApproved(uint256)":"081812fc","getRoleAdmin(bytes32)":"248a9ca3","getRoleMember(bytes32,uint256)":"9010d07c","getRoleMemberCount(bytes32)":"ca15c873","getRoleMembers(bytes32)":"a3246ad3","grantRole(bytes32,address)":"2f2ff15d","hasRole(bytes32,address)":"91d14854","isApprovedForAll(address,address)":"e985e9c5","mint(address,(uint256,uint8,uint8,uint8,uint256,uint8,uint8,uint256,uint256,bool,bool,bool))":"52f4f518","name()":"06fdde03","nextSeriesId()":"6ed3e3e3","ownerOf(uint256)":"6352211e","renounceRole(bytes32,address)":"36568abe","revokeRole(bytes32,address)":"d547741f","safeTransferFrom(address,address,uint256)":"42842e0e","safeTransferFrom(address,address,uint256,bytes)":"b88d4fde","series(uint256)":"dc22cb6a","setApprovalForAll(address,bool)":"a22cb465","setBaseURI(string)":"55f804b3","supportsInterface(bytes4)":"01ffc9a7","symbol()":"95d89b41","tokenByIndex(uint256)":"4f6ccce7","tokenOfOwnerByIndex(address,uint256)":"2f745c59","tokenTraits(uint256)":"e05c57bf","tokenURI(uint256)":"c87b56dd","totalSupply()":"18160ddd","transferFrom(address,address,uint256)":"23b872dd"},"id":81}