{"abi":[{"type":"constructor","inputs":[{"name":"admin","type":"address","internalType":"address"}],"stateMutability":"nonpayable"},{"type":"function","name":"DEFAULT_ADMIN_ROLE","inputs":[],"outputs":[{"name":"","type":"bytes32","internalType":"bytes32"}],"stateMutability":"view"},{"type":"function","name":"MINTER_ROLE","inputs":[],"outputs":[{"name":"","type":"bytes32","internalType":"bytes32"}],"stateMutability":"view"},{"type":"function","name":"allowance","inputs":[{"name":"owner","type":"address","internalType":"address"},{"name":"spender","type":"address","internalType":"address"}],"outputs":[{"name":"","type":"uint256","internalType":"uint256"}],"stateMutability":"view"},{"type":"function","name":"approve","inputs":[{"name":"spender","type":"address","internalType":"address"},{"name":"value","type":"uint256","internalType":"uint256"}],"outputs":[{"name":"","type":"bool","internalType":"bool"}],"stateMutability":"nonpayable"},{"type":"function","name":"balanceOf","inputs":[{"name":"account","type":"address","internalType":"address"}],"outputs":[{"name":"","type":"uint256","internalType":"uint256"}],"stateMutability":"view"},{"type":"function","name":"burn","inputs":[{"name":"from","type":"address","internalType":"address"},{"name":"amount","type":"uint256","internalType":"uint256"}],"outputs":[],"stateMutability":"nonpayable"},{"type":"function","name":"decimals","inputs":[],"outputs":[{"name":"","type":"uint8","internalType":"uint8"}],"stateMutability":"view"},{"type":"function","name":"getRoleAdmin","inputs":[{"name":"role","type":"bytes32","internalType":"bytes32"}],"outputs":[{"name":"","type":"bytes32","internalType":"bytes32"}],"stateMutability":"view"},{"type":"function","name":"grantRole","inputs":[{"name":"role","type":"bytes32","internalType":"bytes32"},{"name":"account","type":"address","internalType":"address"}],"outputs":[],"stateMutability":"nonpayable"},{"type":"function","name":"hasRole","inputs":[{"name":"role","type":"bytes32","internalType":"bytes32"},{"name":"account","type":"address","internalType":"address"}],"outputs":[{"name":"","type":"bool","internalType":"bool"}],"stateMutability":"view"},{"type":"function","name":"mint","inputs":[{"name":"to","type":"address","internalType":"address"},{"name":"amount","type":"uint256","internalType":"uint256"}],"outputs":[],"stateMutability":"nonpayable"},{"type":"function","name":"name","inputs":[],"outputs":[{"name":"","type":"string","internalType":"string"}],"stateMutability":"view"},{"type":"function","name":"renounceRole","inputs":[{"name":"role","type":"bytes32","internalType":"bytes32"},{"name":"callerConfirmation","type":"address","internalType":"address"}],"outputs":[],"stateMutability":"nonpayable"},{"type":"function","name":"revokeRole","inputs":[{"name":"role","type":"bytes32","internalType":"bytes32"},{"name":"account","type":"address","internalType":"address"}],"outputs":[],"stateMutability":"nonpayable"},{"type":"function","name":"supportsInterface","inputs":[{"name":"interfaceId","type":"bytes4","internalType":"bytes4"}],"outputs":[{"name":"","type":"bool","internalType":"bool"}],"stateMutability":"view"},{"type":"function","name":"symbol","inputs":[],"outputs":[{"name":"","type":"string","internalType":"string"}],"stateMutability":"view"},{"type":"function","name":"totalSupply","inputs":[],"outputs":[{"name":"","type":"uint256","internalType":"uint256"}],"stateMutability":"view"},{"type":"function","name":"transfer","inputs":[{"name":"to","type":"address","internalType":"address"},{"name":"value","type":"uint256","internalType":"uint256"}],"outputs":[{"name":"","type":"bool","internalType":"bool"}],"stateMutability":"nonpayable"},{"type":"function","name":"transferFrom","inputs":[{"name":"from","type":"address","internalType":"address"},{"name":"to","type":"address","internalType":"address"},{"name":"value","type":"uint256","internalType":"uint256"}],"outputs":[{"name":"","type":"bool","internalType":"bool"}],"stateMutability":"nonpayable"},{"type":"event","name":"Approval","inputs":[{"name":"owner","type":"address","indexed":true,"internalType":"address"},{"name":"spender","type":"address","indexed":true,"internalType":"address"},{"name":"value","type":"uint256","indexed":false,"internalType":"uint256"}],"anonymous":false},{"type":"event","name":"RoleAdminChanged","inputs":[{"name":"role","type":"bytes32","indexed":true,"internalType":"bytes32"},{"name":"previousAdminRole","type":"bytes32","indexed":true,"internalType":"bytes32"},{"name":"newAdminRole","type":"bytes32","indexed":true,"internalType":"bytes32"}],"anonymous":false},{"type":"event","name":"RoleGranted","inputs":[{"name":"role","type":"bytes32","indexed":true,"internalType":"bytes32"},{"name":"account","type":"address","indexed":true,"internalType":"address"},{"name":"sender","type":"address","indexed":true,"internalType":"address"}],"anonymous":false},{"type":"event","name":"RoleRevoked","inputs":[{"name":"role","type":"bytes32","indexed":true,"internalType":"bytes32"},{"name":"account","type":"address","indexed":true,"internalType":"address"},{"name":"sender","type":"address","indexed":true,"internalType":"address"}],"anonymous":false},{"type":"event","name":"Transfer","inputs":[{"name":"from","type":"address","indexed":true,"internalType":"address"},{"name":"to","type":"address","indexed":true,"internalType":"address"},{"name":"value","type":"uint256","indexed":false,"internalType":"uint256"}],"anonymous":false},{"type":"error","name":"AccessControlBadConfirmation","inputs":[]},{"type":"error","name":"AccessControlUnauthorizedAccount","inputs":[{"name":"account","type":"address","internalType":"address"},{"name":"neededRole","type":"bytes32","internalType":"bytes32"}]},{"type":"error","name":"ERC20InsufficientAllowance","inputs":[{"name":"spender","type":"address","internalType":"address"},{"name":"allowance","type":"uint256","internalType":"uint256"},{"name":"needed","type":"uint256","internalType":"uint256"}]},{"type":"error","name":"ERC20InsufficientBalance","inputs":[{"name":"sender","type":"address","internalType":"address"},{"name":"balance","type":"uint256","internalType":"uint256"},{"name":"needed","type":"uint256","internalType":"uint256"}]},{"type":"error","name":"ERC20InvalidApprover","inputs":[{"name":"approver","type":"address","internalType":"address"}]},{"type":"error","name":"ERC20InvalidReceiver","inputs":[{"name":"receiver","type":"address","internalType":"address"}]},{"type":"error","name":"ERC20InvalidSender","inputs":[{"name":"sender","type":"address","internalType":"address"}]},{"type":"error","name":"ERC20InvalidSpender","inputs":[{"name":"spender","type":"address","internalType":"address"}]}],"bytecode":{"object":"0x6080346200033157601f90601f19906001600160401b0362000fcc3881900385810185168401838111858210176200033557849282916040528339602093849181010312620003315751926001600160a01b038416840362000331576200006562000349565b60088152672237bab13637b7b760c11b848201526200008362000349565b95600494858852632227aaa160e11b8189015282519385851162000242576003948554946001958681811c9116801562000326575b858210146200031357908186849311620002c0575b50849086831160011462000261575f9262000255575b50505f1982881b1c191690851b1785555b8851958611620002425786548481811c9116801562000237575b838210146200022457838111620001dc575b508192861160011462000172575050839291839162000155985f9562000166575b50501b925f19911b1c191617905562000369565b50604051610bc09081620003ec8239f35b015193505f8062000141565b8594929193951697865f52835f20935f905b8a8210620001c457505084620001559910620001aa575b50505050811b01905562000369565b01519060f8845f19921b161c191690555f8080806200019b565b80888597829496860151815501960193019062000184565b875f52825f208480890160051c820192858a106200021a575b0160051c019085905b8281106200020e57505062000120565b5f8155018590620001fe565b92508192620001f5565b602288634e487b7160e01b5f525260245ffd5b90607f16906200010e565b604187634e487b7160e01b5f525260245ffd5b015190505f80620000e3565b908488941691895f52865f20925f5b88828210620002a9575050841162000291575b505050811b018555620000f4565b01515f19838a1b60f8161c191690555f808062000283565b8385015186558b9790950194938401930162000270565b909150875f52845f208680850160051c82019287861062000309575b918991869594930160051c01915b828110620002fa575050620000cd565b5f8155859450899101620002ea565b92508192620002dc565b60228a634e487b7160e01b5f525260245ffd5b90607f1690620000b8565b5f80fd5b634e487b7160e01b5f52604160045260245ffd5b60408051919082016001600160401b038111838210176200033557604052565b6001600160a01b03165f8181525f8051602062000fac833981519152602052604090205460ff16620003e6575f8181525f8051602062000fac83398151915260205260408120805460ff191660011790553391907f2f8788117e7eff1d82e926ec794901d17c78024a50270940304540a733656f0d8180a4600190565b505f9056fe6080604090808252600480361015610015575f80fd5b5f3560e01c91826301ffc9a71461085e5750816306fdde0314610783578163095ea7b3146106db57816318160ddd146106bd57816323b872dd146105cb578163248a9ca3146105a15781632f2ff15d14610579578163313ce5671461055e57816336568abe1461051a57816340c10f191461046d57816370a082311461043757816391d14854146103f357816395d89b41146102d45781639dc29fac146101fd578163a217fddf146101e3578163a9059cbb146101b3578163d539139314610179578163d547741f1461013d575063dd62ed3e146100f1575f80fd5b3461013957806003193601126101395760209061010c6108f7565b61011461090d565b9060018060a01b038091165f5260018452825f2091165f528252805f20549051908152f35b5f80fd5b82346101395780600319360112610139576101779135610172600161016061090d565b93835f5260056020525f200154610a76565b610b16565b005b8234610139575f36600319011261013957602090517f9f2df0fed2c77648de5860a4cc508cd0818c85b8b8a1ab4ceeef8d981c8956a68152f35b82346101395780600319360112610139576020906101dc6101d26108f7565b6024359033610923565b5160018152f35b8234610139575f36600319011261013957602090515f8152f35b82346101395780600319360112610139576102166108f7565b90602435926102236109fd565b6001600160a01b0383169283156102be57835f525f602052825f20549185831061028a575f857fddf252ad1be2c89b69c2b068fc378daa952ba7f163c4a11628f55a4df523b3ef6020898881898688528785520381872055816002540360025551908152a3005b835163391434e360e21b81526001600160a01b03909216908201908152602081018390526040810186905281906060010390fd5b505f6024925191634b637e8f60e11b8352820152fd5b8234610139575f366003190112610139578051905f835460018160011c90600183169283156103e9575b60209384841081146103d6578388529081156103ba5750600114610366575b505050829003601f01601f191682019267ffffffffffffffff841183851017610353575082918261034f9252826108b0565b0390f35b604190634e487b7160e01b5f525260245ffd5b5f878152929350837f8a35acfbc15ff81a39ae7d344fd709f28e8600b4aa8c65c6b64bfe7fe36bd19b5b8385106103a6575050505083010184808061031d565b805488860183015293019284908201610390565b60ff1916878501525050151560051b840101905084808061031d565b602289634e487b7160e01b5f525260245ffd5b91607f16916102fe565b823461013957806003193601126101395760209161040f61090d565b90355f5260058352815f209060018060a01b03165f52825260ff815f20541690519015158152f35b8234610139576020366003190112610139576020906001600160a01b0361045c6108f7565b165f525f8252805f20549051908152f35b82346101395780600319360112610139576104866108f7565b90602435916104936109fd565b6001600160a01b031692831561050557600254908382018092116104f257505f927fddf252ad1be2c89b69c2b068fc378daa952ba7f163c4a11628f55a4df523b3ef9260209260025585855284835280852082815401905551908152a3005b601190634e487b7160e01b5f525260245ffd5b5f602492519163ec442f0560e01b8352820152fd5b823461013957806003193601126101395761053361090d565b90336001600160a01b0383160361054f57506101779135610b16565b5163334bd91960e11b81529050fd5b8234610139575f366003190112610139576020905160128152f35b8234610139578060031936011261013957610177913561059c600161016061090d565b610a98565b823461013957602036600319011261013957602091355f52600582526001815f2001549051908152f35b905034610139576060366003190112610139576105e66108f7565b6105ee61090d565b906044359260018060a01b038216805f526001602052855f20335f52602052855f2054915f198310610629575b6020876101dc888888610923565b85831061069157811561067b57331561066557505f908152600160209081528682203383528152908690209185900390915582906101dc61061b565b6024905f885191634a1406b160e11b8352820152fd5b6024905f88519163e602df0560e01b8352820152fd5b8651637dc7a0d960e11b8152339181019182526020820193909352604081018690528291506060010390fd5b8234610139575f366003190112610139576020906002549051908152f35b82346101395780600319360112610139576106f46108f7565b60243590331561076d576001600160a01b03169081156107575760209350335f5260018452825f20825f52845280835f205582519081527f8c5be1e5ebec7d5bd14f71427d1e84f3dd0314c0f7b2291e5b200ac8c7c3b925843392a35160018152f35b8251634a1406b160e11b81525f81860152602490fd5b825163e602df0560e01b81525f81860152602490fd5b8234610139575f366003190112610139578051905f60035460018160011c9060018316928315610854575b60209384841081146103d6578388529081156103ba57506001146107fe57505050829003601f01601f191682019267ffffffffffffffff841183851017610353575082918261034f9252826108b0565b60035f908152929350837fc2575a0e9e593c00f959f8c92f12db2869c3395a3b0502d05e2516446f71f85b5b838510610840575050505083010184808061031d565b80548886018301529301928490820161082a565b91607f16916107ae565b903461013957602036600319011261013957359063ffffffff60e01b821680920361013957602091637965db0b60e01b811490811561089f575b5015158152f35b6301ffc9a760e01b14905083610898565b602080825282518183018190529093925f5b8281106108e357505060409293505f838284010152601f8019910116010190565b8181018601518482016040015285016108c2565b600435906001600160a01b038216820361013957565b602435906001600160a01b038216820361013957565b916001600160a01b038084169283156109e557169283156109cd57825f525f60205260405f20549082821061099b5750817fddf252ad1be2c89b69c2b068fc378daa952ba7f163c4a11628f55a4df523b3ef92602092855f525f84520360405f2055845f5260405f20818154019055604051908152a3565b60405163391434e360e21b81526001600160a01b03919091166004820152602481019190915260448101829052606490fd5b60405163ec442f0560e01b81525f6004820152602490fd5b604051634b637e8f60e11b81525f6004820152602490fd5b335f9081527f15a28d26fa1bf736cf7edc9922607171ccb09c3c73b808e7772a3013e068a52260205260409020547f9f2df0fed2c77648de5860a4cc508cd0818c85b8b8a1ab4ceeef8d981c8956a69060ff1615610a585750565b6044906040519063e2517d3f60e01b82523360048301526024820152fd5b805f52600560205260405f20335f5260205260ff60405f20541615610a585750565b90815f52600560205260405f209060018060a01b031690815f5260205260ff60405f205416155f14610b1057815f52600560205260405f20815f5260205260405f20600160ff1982541617905533917f2f8788117e7eff1d82e926ec794901d17c78024a50270940304540a733656f0d5f80a4600190565b50505f90565b90815f52600560205260405f209060018060a01b031690815f5260205260ff60405f2054165f14610b1057815f52600560205260405f20815f5260205260405f2060ff19815416905533917ff6391f5c32d9c69d2a47ea670b442974b53935d1edc7fd64eb21e047a839171b5f80a460019056fea2646970667358221220a657fa48cf52238803278a8e7a3d83f86f37640fd02cd73e764fed93aaaae3a064736f6c6343000818003305b8ccbb9d4d8fb16ea74ce3c29a41f1b461fbdaff4714a0d9a8eb05499746bc","linkReferences":{}},"methodIdentifiers":{"DEFAULT_ADMIN_ROLE()":"a217fddf","MINTER_ROLE()":"d5391393","allowance(address,address)":"dd62ed3e","approve(address,uint256)":"095ea7b3","balanceOf(address)":"70a08231","burn(address,uint256)":"9dc29fac","decimals()":"313ce567","getRoleAdmin(bytes32)":"248a9ca3","grantRole(bytes32,address)":"2f2ff15d","hasRole(bytes32,address)":"91d14854","mint(address,uint256)":"40c10f19","name()":"06fdde03","renounceRole(bytes32,address)":"36568abe","revokeRole(bytes32,address)":"d547741f","supportsInterface(bytes4)":"01ffc9a7","symbol()":"95d89b41","totalSupply()":"18160ddd","transfer(address,uint256)":"a9059cbb","transferFrom(address,address,uint256)":"23b872dd"},"id":94}