{"abi":[{"type":"constructor","inputs":[{"name":"blocked_","type":"address","internalType":"address"}],"stateMutability":"nonpayable"},{"type":"function","name":"allowance","inputs":[{"name":"owner","type":"address","internalType":"address"},{"name":"spender","type":"address","internalType":"address"}],"outputs":[{"name":"","type":"uint256","internalType":"uint256"}],"stateMutability":"view"},{"type":"function","name":"approve","inputs":[{"name":"spender","type":"address","internalType":"address"},{"name":"value","type":"uint256","internalType":"uint256"}],"outputs":[{"name":"","type":"bool","internalType":"bool"}],"stateMutability":"nonpayable"},{"type":"function","name":"balanceOf","inputs":[{"name":"account","type":"address","internalType":"address"}],"outputs":[{"name":"","type":"uint256","internalType":"uint256"}],"stateMutability":"view"},{"type":"function","name":"blocked","inputs":[],"outputs":[{"name":"","type":"address","internalType":"address"}],"stateMutability":"view"},{"type":"function","name":"decimals","inputs":[],"outputs":[{"name":"","type":"uint8","internalType":"uint8"}],"stateMutability":"view"},{"type":"function","name":"mint","inputs":[{"name":"to","type":"address","internalType":"address"},{"name":"amount","type":"uint256","internalType":"uint256"}],"outputs":[],"stateMutability":"nonpayable"},{"type":"function","name":"name","inputs":[],"outputs":[{"name":"","type":"string","internalType":"string"}],"stateMutability":"view"},{"type":"function","name":"symbol","inputs":[],"outputs":[{"name":"","type":"string","internalType":"string"}],"stateMutability":"view"},{"type":"function","name":"totalSupply","inputs":[],"outputs":[{"name":"","type":"uint256","internalType":"uint256"}],"stateMutability":"view"},{"type":"function","name":"transfer","inputs":[{"name":"to","type":"address","internalType":"address"},{"name":"value","type":"uint256","internalType":"uint256"}],"outputs":[{"name":"","type":"bool","internalType":"bool"}],"stateMutability":"nonpayable"},{"type":"function","name":"transferFrom","inputs":[{"name":"from","type":"address","internalType":"address"},{"name":"to","type":"address","internalType":"address"},{"name":"value","type":"uint256","internalType":"uint256"}],"outputs":[{"name":"","type":"bool","internalType":"bool"}],"stateMutability":"nonpayable"},{"type":"event","name":"Approval","inputs":[{"name":"owner","type":"address","indexed":true,"internalType":"address"},{"name":"spender","type":"address","indexed":true,"internalType":"address"},{"name":"value","type":"uint256","indexed":false,"internalType":"uint256"}],"anonymous":false},{"type":"event","name":"Transfer","inputs":[{"name":"from","type":"address","indexed":true,"internalType":"address"},{"name":"to","type":"address","indexed":true,"internalType":"address"},{"name":"value","type":"uint256","indexed":false,"internalType":"uint256"}],"anonymous":false},{"type":"error","name":"BlockedRecipient","inputs":[]},{"type":"error","name":"ERC20InsufficientAllowance","inputs":[{"name":"spender","type":"address","internalType":"address"},{"name":"allowance","type":"uint256","internalType":"uint256"},{"name":"needed","type":"uint256","internalType":"uint256"}]},{"type":"error","name":"ERC20InsufficientBalance","inputs":[{"name":"sender","type":"address","internalType":"address"},{"name":"balance","type":"uint256","internalType":"uint256"},{"name":"needed","type":"uint256","internalType":"uint256"}]},{"type":"error","name":"ERC20InvalidApprover","inputs":[{"name":"approver","type":"address","internalType":"address"}]},{"type":"error","name":"ERC20InvalidReceiver","inputs":[{"name":"receiver","type":"address","internalType":"address"}]},{"type":"error","name":"ERC20InvalidSender","inputs":[{"name":"sender","type":"address","internalType":"address"}]},{"type":"error","name":"ERC20InvalidSpender","inputs":[{"name":"spender","type":"address","internalType":"address"}]}],"bytecode":{"object":"0x60a0346200033557601f90601f196001600160401b0362000b173881900385810184168501838111868210176200024457859282916040528339602094859181010312620003355751936001600160a01b038516850362000335576200006462000339565b6007815266109b1bd8dad95960ca1b858201526200008162000339565b916002835261109360f21b86840152815192848411620002445760039384546001948582811c921680156200032a575b8a83101462000316578185849311620002c3575b50899085831160011462000264575f9262000258575b50505f1982871b1c191690841b1784555b8051948511620002445760049687548481811c9116801562000239575b828210146200022657838111620001de575b5080928611600114620001765750849550908492915f956200016a575b50501b925f19911b1c19161790555b6080526040516107bd90816200035a823960805181818161033e01526106910152f35b015193505f8062000138565b93929585908116885f52855f20955f905b89838310620001c35750505010620001a9575b50505050811b01905562000147565b01519060f8845f19921b161c191690555f8080806200019a565b85870151895590970196948501948893509081019062000187565b885f52815f208480890160051c820192848a106200021c575b0160051c019085905b828110620002105750506200011b565b5f815501859062000200565b92508192620001f7565b602289634e487b7160e01b5f525260245ffd5b90607f169062000109565b634e487b7160e01b5f52604160045260245ffd5b015190505f80620000db565b908987941691885f528b5f20925f5b8d828210620002ac575050841162000294575b505050811b018455620000ec565b01515f1983891b60f8161c191690555f808062000286565b8385015186558a9790950194938401930162000273565b909150865f52895f208580850160051c8201928c86106200030c575b918891869594930160051c01915b828110620002fd575050620000c5565b5f8155859450889101620002ed565b92508192620002df565b634e487b7160e01b5f52602260045260245ffd5b91607f1691620000b1565b5f80fd5b60408051919082016001600160401b03811183821017620002445760405256fe6080604090808252600480361015610015575f80fd5b5f3560e01c91826306fdde031461052557508163095ea7b31461047d57816318160ddd1461045f57816323b872dd1461036d578163303bdd2c1461032a578163313ce5671461030f57816340c10f191461026a57816370a082311461023457816395d89b411461011557508063a9059cbb146100e55763dd62ed3e14610099575f80fd5b346100e157806003193601126100e1576020906100b4610644565b6100bc61065a565b9060018060a01b038091165f5260018452825f2091165f528252805f20549051908152f35b5f80fd5b50346100e157806003193601126100e15760209061010e610104610644565b6024359033610670565b5160018152f35b82346100e1575f3660031901126100e1578051905f835460018160011c906001831692831561022a575b6020938484108114610217578388529081156101fb57506001146101a7575b505050829003601f01601f191682019267ffffffffffffffff84118385101761019457508291826101909252826105fd565b0390f35b604190634e487b7160e01b5f525260245ffd5b5f878152929350837f8a35acfbc15ff81a39ae7d344fd709f28e8600b4aa8c65c6b64bfe7fe36bd19b5b8385106101e7575050505083010184808061015e565b8054888601830152930192849082016101d1565b60ff1916878501525050151560051b840101905084808061015e565b602289634e487b7160e01b5f525260245ffd5b91607f169161013f565b82346100e15760203660031901126100e1576020906001600160a01b03610259610644565b165f525f8252805f20549051908152f35b82346100e157806003193601126100e157610283610644565b6001600160a01b031691602435919083156102fa57600254908382018092116102e757505f927fddf252ad1be2c89b69c2b068fc378daa952ba7f163c4a11628f55a4df523b3ef9260209260025585855284835280852082815401905551908152a3005b601190634e487b7160e01b5f525260245ffd5b5f602492519163ec442f0560e01b8352820152fd5b82346100e1575f3660031901126100e1576020905160128152f35b82346100e1575f3660031901126100e157517f00000000000000000000000000000000000000000000000000000000000000006001600160a01b03168152602090f35b9050346100e15760603660031901126100e157610388610644565b61039061065a565b906044359260018060a01b038216805f526001602052855f20335f52602052855f2054915f1983106103cb575b60208761010e888888610670565b85831061043357811561041d57331561040757505f9081526001602090815286822033835281529086902091859003909155829061010e6103bd565b6024905f885191634a1406b160e11b8352820152fd5b6024905f88519163e602df0560e01b8352820152fd5b8651637dc7a0d960e11b8152339181019182526020820193909352604081018690528291506060010390fd5b82346100e1575f3660031901126100e1576020906002549051908152f35b82346100e157806003193601126100e157610496610644565b60243590331561050f576001600160a01b03169081156104f95760209350335f5260018452825f20825f52845280835f205582519081527f8c5be1e5ebec7d5bd14f71427d1e84f3dd0314c0f7b2291e5b200ac8c7c3b925843392a35160018152f35b8251634a1406b160e11b81525f81860152602490fd5b825163e602df0560e01b81525f81860152602490fd5b83346100e1575f3660031901126100e1575f60035460018160011c90600183169283156105f3575b6020938484108114610217578388529081156101fb575060011461059d57505050829003601f01601f191682019267ffffffffffffffff84118385101761019457508291826101909252826105fd565b60035f908152929350837fc2575a0e9e593c00f959f8c92f12db2869c3395a3b0502d05e2516446f71f85b5b8385106105df575050505083010184808061015e565b8054888601830152930192849082016105c9565b91607f169161054d565b602080825282518183018190529093925f5b82811061063057505060409293505f838284010152601f8019910116010190565b81810186015184820160400152850161060f565b600435906001600160a01b03821682036100e157565b602435906001600160a01b03821682036100e157565b6001600160a01b039283821692909190831561076f578416938415610757577f000000000000000000000000000000000000000000000000000000000000000016841461074657825f525f60205260405f2054908282106107145750817fddf252ad1be2c89b69c2b068fc378daa952ba7f163c4a11628f55a4df523b3ef92602092855f525f84520360405f2055845f5260405f20818154019055604051908152a3565b60405163391434e360e21b81526001600160a01b03919091166004820152602481019190915260448101829052606490fd5b604051628debff60e71b8152600490fd5b60405163ec442f0560e01b81525f6004820152602490fd5b604051634b637e8f60e11b81525f6004820152602490fdfea264697066735822122049bedeaa83e6f229714a29466f561cb352eebc18b82a3fc7910bc6126fc1864e64736f6c63430008180033","linkReferences":{}},"methodIdentifiers":{"allowance(address,address)":"dd62ed3e","approve(address,uint256)":"095ea7b3","balanceOf(address)":"70a08231","blocked()":"303bdd2c","decimals()":"313ce567","mint(address,uint256)":"40c10f19","name()":"06fdde03","symbol()":"95d89b41","totalSupply()":"18160ddd","transfer(address,uint256)":"a9059cbb","transferFrom(address,address,uint256)":"23b872dd"},"id":114}