{"abi":[{"type":"constructor","inputs":[],"stateMutability":"nonpayable"},{"type":"function","name":"CAT_DEFENDED_STREAK","inputs":[],"outputs":[{"name":"","type":"uint8","internalType":"uint8"}],"stateMutability":"view"},{"type":"function","name":"CAT_LAST_BUYERS","inputs":[],"outputs":[{"name":"","type":"uint8","internalType":"uint8"}],"stateMutability":"view"},{"type":"function","name":"CAT_TIME_BOOSTER","inputs":[],"outputs":[{"name":"","type":"uint8","internalType":"uint8"}],"stateMutability":"view"},{"type":"function","name":"CAT_WARBOW","inputs":[],"outputs":[{"name":"","type":"uint8","internalType":"uint8"}],"stateMutability":"view"},{"type":"function","name":"CHARM_GROWTH_RATE_WAD","inputs":[],"outputs":[{"name":"","type":"uint256","internalType":"uint256"}],"stateMutability":"view"},{"type":"function","name":"CRED_PER_BUY","inputs":[],"outputs":[{"name":"","type":"uint256","internalType":"uint256"}],"stateMutability":"view"},{"type":"function","name":"CRED_PER_CHARM_WAD","inputs":[],"outputs":[{"name":"","type":"uint256","internalType":"uint256"}],"stateMutability":"view"},{"type":"function","name":"DEFENDED_STREAK_WINDOW_SEC","inputs":[],"outputs":[{"name":"","type":"uint256","internalType":"uint256"}],"stateMutability":"view"},{"type":"function","name":"FIRST_BUY_CRED_BONUS","inputs":[],"outputs":[{"name":"","type":"uint256","internalType":"uint256"}],"stateMutability":"view"},{"type":"function","name":"NUM_PODIUM_CATEGORIES","inputs":[],"outputs":[{"name":"","type":"uint8","internalType":"uint8"}],"stateMutability":"view"},{"type":"function","name":"ONBOARDING_STARTER_CHARM_WAD","inputs":[],"outputs":[{"name":"","type":"uint256","internalType":"uint256"}],"stateMutability":"view"},{"type":"function","name":"REFERRAL_CRED_FLAT_WAD","inputs":[],"outputs":[{"name":"","type":"uint256","internalType":"uint256"}],"stateMutability":"view"},{"type":"function","name":"SECONDS_PER_DAY","inputs":[],"outputs":[{"name":"","type":"uint256","internalType":"uint256"}],"stateMutability":"view"},{"type":"function","name":"UPGRADE_INTERFACE_VERSION","inputs":[],"outputs":[{"name":"","type":"string","internalType":"string"}],"stateMutability":"view"},{"type":"function","name":"WARBOW_AMBUSH_BONUS_BP","inputs":[],"outputs":[{"name":"","type":"uint256","internalType":"uint256"}],"stateMutability":"view"},{"type":"function","name":"WARBOW_BASE_BUY_BP","inputs":[],"outputs":[{"name":"","type":"uint256","internalType":"uint256"}],"stateMutability":"view"},{"type":"function","name":"WARBOW_CLUTCH_BONUS_BP","inputs":[],"outputs":[{"name":"","type":"uint256","internalType":"uint256"}],"stateMutability":"view"},{"type":"function","name":"WARBOW_FLAG_CLAIM_BP","inputs":[],"outputs":[{"name":"","type":"uint256","internalType":"uint256"}],"stateMutability":"view"},{"type":"function","name":"WARBOW_FLAG_SILENCE_SEC","inputs":[],"outputs":[{"name":"","type":"uint256","internalType":"uint256"}],"stateMutability":"view"},{"type":"function","name":"WARBOW_GUARD_DOUB","inputs":[],"outputs":[{"name":"","type":"uint256","internalType":"uint256"}],"stateMutability":"view"},{"type":"function","name":"WARBOW_GUARD_DURATION_SEC","inputs":[],"outputs":[{"name":"","type":"uint256","internalType":"uint256"}],"stateMutability":"view"},{"type":"function","name":"WARBOW_MAX_STEALS_PER_DAY","inputs":[],"outputs":[{"name":"","type":"uint8","internalType":"uint8"}],"stateMutability":"view"},{"type":"function","name":"WARBOW_REVENGE_DOUB","inputs":[],"outputs":[{"name":"","type":"uint256","internalType":"uint256"}],"stateMutability":"view"},{"type":"function","name":"WARBOW_REVENGE_WINDOW_SEC","inputs":[],"outputs":[{"name":"","type":"uint256","internalType":"uint256"}],"stateMutability":"view"},{"type":"function","name":"WARBOW_STEAL_DOUB","inputs":[],"outputs":[{"name":"","type":"uint256","internalType":"uint256"}],"stateMutability":"view"},{"type":"function","name":"WARBOW_STEAL_DRAIN_BPS","inputs":[],"outputs":[{"name":"","type":"uint16","internalType":"uint16"}],"stateMutability":"view"},{"type":"function","name":"WARBOW_STEAL_DRAIN_GUARDED_BPS","inputs":[],"outputs":[{"name":"","type":"uint16","internalType":"uint16"}],"stateMutability":"view"},{"type":"function","name":"WARBOW_STEAL_LIMIT_BYPASS_DOUB","inputs":[],"outputs":[{"name":"","type":"uint256","internalType":"uint256"}],"stateMutability":"view"},{"type":"function","name":"WARBOW_STREAK_BREAK_MULT_BP","inputs":[],"outputs":[{"name":"","type":"uint256","internalType":"uint256"}],"stateMutability":"view"},{"type":"function","name":"WARBOW_TIMER_RESET_BONUS_BP","inputs":[],"outputs":[{"name":"","type":"uint256","internalType":"uint256"}],"stateMutability":"view"},{"type":"function","name":"activeDefendedStreak","inputs":[{"name":"","type":"address","internalType":"address"}],"outputs":[{"name":"","type":"uint256","internalType":"uint256"}],"stateMutability":"view"},{"type":"function","name":"arenaStart","inputs":[],"outputs":[{"name":"","type":"uint256","internalType":"uint256"}],"stateMutability":"view"},{"type":"function","name":"battlePoints","inputs":[{"name":"user","type":"address","internalType":"address"}],"outputs":[{"name":"","type":"uint256","internalType":"uint256"}],"stateMutability":"view"},{"type":"function","name":"battlePointsGeneration","inputs":[{"name":"","type":"address","internalType":"address"}],"outputs":[{"name":"","type":"uint256","internalType":"uint256"}],"stateMutability":"view"},{"type":"function","name":"bestDefendedStreak","inputs":[{"name":"","type":"address","internalType":"address"}],"outputs":[{"name":"","type":"uint256","internalType":"uint256"}],"stateMutability":"view"},{"type":"function","name":"buy","inputs":[{"name":"charmWad","type":"uint256","internalType":"uint256"}],"outputs":[],"stateMutability":"nonpayable"},{"type":"function","name":"buy","inputs":[{"name":"charmWad","type":"uint256","internalType":"uint256"},{"name":"codeHash","type":"bytes32","internalType":"bytes32"}],"outputs":[],"stateMutability":"nonpayable"},{"type":"function","name":"buyCooldownSec","inputs":[],"outputs":[{"name":"","type":"uint256","internalType":"uint256"}],"stateMutability":"view"},{"type":"function","name":"buyCount","inputs":[{"name":"","type":"address","internalType":"address"}],"outputs":[{"name":"","type":"uint256","internalType":"uint256"}],"stateMutability":"view"},{"type":"function","name":"buyFor","inputs":[{"name":"buyer","type":"address","internalType":"address"},{"name":"charmWad","type":"uint256","internalType":"uint256"},{"name":"codeHash","type":"bytes32","internalType":"bytes32"},{"name":"plantWarBowFlag","type":"bool","internalType":"bool"}],"outputs":[],"stateMutability":"nonpayable"},{"type":"function","name":"buyWithCred","inputs":[{"name":"charmWad","type":"uint256","internalType":"uint256"}],"outputs":[],"stateMutability":"nonpayable"},{"type":"function","name":"charmAnchorCl8y","inputs":[],"outputs":[{"name":"","type":"address","internalType":"address"}],"stateMutability":"view"},{"type":"function","name":"charmAnchorKumbayaRouter","inputs":[],"outputs":[{"name":"","type":"address","internalType":"address"}],"stateMutability":"view"},{"type":"function","name":"charmAnchorUsdm","inputs":[],"outputs":[{"name":"","type":"address","internalType":"address"}],"stateMutability":"view"},{"type":"function","name":"charmAnchorWeth","inputs":[],"outputs":[{"name":"","type":"address","internalType":"address"}],"stateMutability":"view"},{"type":"function","name":"charmPriceWad","inputs":[],"outputs":[{"name":"","type":"uint256","internalType":"uint256"}],"stateMutability":"view"},{"type":"function","name":"charmWeight","inputs":[{"name":"","type":"address","internalType":"address"}],"outputs":[{"name":"","type":"uint256","internalType":"uint256"}],"stateMutability":"view"},{"type":"function","name":"claimCred","inputs":[{"name":"epoch","type":"uint256","internalType":"uint256"}],"outputs":[],"stateMutability":"nonpayable"},{"type":"function","name":"claimWarBowFlag","inputs":[],"outputs":[],"stateMutability":"nonpayable"},{"type":"function","name":"deadline","inputs":[],"outputs":[{"name":"","type":"uint256","internalType":"uint256"}],"stateMutability":"view"},{"type":"function","name":"doub","inputs":[],"outputs":[{"name":"","type":"address","internalType":"contract IERC20"}],"stateMutability":"view"},{"type":"function","name":"doubOwedForBuy","inputs":[{"name":"charmWad","type":"uint256","internalType":"uint256"}],"outputs":[{"name":"","type":"uint256","internalType":"uint256"}],"stateMutability":"nonpayable"},{"type":"function","name":"effectiveCharmPriceWad","inputs":[],"outputs":[{"name":"","type":"uint256","internalType":"uint256"}],"stateMutability":"view"},{"type":"function","name":"epochAnchorTimestamp","inputs":[],"outputs":[{"name":"","type":"uint256","internalType":"uint256"}],"stateMutability":"view"},{"type":"function","name":"epochCharmAnchorWad","inputs":[],"outputs":[{"name":"","type":"uint256","internalType":"uint256"}],"stateMutability":"view"},{"type":"function","name":"epochCharmTotal","inputs":[{"name":"","type":"uint256","internalType":"uint256"}],"outputs":[{"name":"","type":"uint256","internalType":"uint256"}],"stateMutability":"view"},{"type":"function","name":"epochCharmWad","inputs":[{"name":"","type":"uint256","internalType":"uint256"},{"name":"","type":"address","internalType":"address"}],"outputs":[{"name":"","type":"uint256","internalType":"uint256"}],"stateMutability":"view"},{"type":"function","name":"epochCredPool","inputs":[{"name":"","type":"uint256","internalType":"uint256"}],"outputs":[{"name":"","type":"uint256","internalType":"uint256"}],"stateMutability":"view"},{"type":"function","name":"epochFixedCredBonus","inputs":[{"name":"","type":"uint256","internalType":"uint256"},{"name":"","type":"address","internalType":"address"}],"outputs":[{"name":"","type":"uint256","internalType":"uint256"}],"stateMutability":"view"},{"type":"function","name":"finalizeWarbowPodium","inputs":[{"name":"epoch","type":"uint256","internalType":"uint256"},{"name":"first","type":"address","internalType":"address"},{"name":"second","type":"address","internalType":"address"},{"name":"third","type":"address","internalType":"address"}],"outputs":[],"stateMutability":"nonpayable"},{"type":"function","name":"grandfatherProgression","inputs":[{"name":"wallets","type":"address[]","internalType":"address[]"}],"outputs":[],"stateMutability":"nonpayable"},{"type":"function","name":"initialTimerSec","inputs":[],"outputs":[{"name":"","type":"uint256","internalType":"uint256"}],"stateMutability":"view"},{"type":"function","name":"initialize","inputs":[{"name":"_doub","type":"address","internalType":"contract IERC20"},{"name":"_podiumVaults","type":"address","internalType":"contract PodiumVaults"},{"name":"_referralRegistry","type":"address","internalType":"address"},{"name":"_playCred","type":"address","internalType":"address"},{"name":"_charmPriceWad","type":"uint256","internalType":"uint256"},{"name":"_podiumTimerExtensionSec","type":"uint256[4]","internalType":"uint256[4]"},{"name":"_podiumInitialTimerSec","type":"uint256[4]","internalType":"uint256[4]"},{"name":"_podiumTimerCapSec","type":"uint256[4]","internalType":"uint256[4]"},{"name":"_podiumResetBelowRemainingSec","type":"uint256[4]","internalType":"uint256[4]"},{"name":"_podiumResetToRemainingSec","type":"uint256[4]","internalType":"uint256[4]"},{"name":"_buyCooldownSec","type":"uint256","internalType":"uint256"},{"name":"upgradeAdmin","type":"address","internalType":"address"}],"outputs":[],"stateMutability":"nonpayable"},{"type":"function","name":"lastBuyEpoch","inputs":[],"outputs":[{"name":"","type":"uint256","internalType":"uint256"}],"stateMutability":"view"},{"type":"function","name":"lastBuyers","inputs":[],"outputs":[{"name":"","type":"address[3]","internalType":"address[3]"}],"stateMutability":"view"},{"type":"function","name":"level","inputs":[{"name":"user","type":"address","internalType":"address"}],"outputs":[{"name":"","type":"uint256","internalType":"uint256"}],"stateMutability":"view"},{"type":"function","name":"nextBuyAllowedAt","inputs":[{"name":"","type":"address","internalType":"address"}],"outputs":[{"name":"","type":"uint256","internalType":"uint256"}],"stateMutability":"view"},{"type":"function","name":"owner","inputs":[],"outputs":[{"name":"","type":"address","internalType":"address"}],"stateMutability":"view"},{"type":"function","name":"paused","inputs":[],"outputs":[{"name":"","type":"bool","internalType":"bool"}],"stateMutability":"view"},{"type":"function","name":"pendingCred","inputs":[{"name":"user","type":"address","internalType":"address"},{"name":"epoch","type":"uint256","internalType":"uint256"}],"outputs":[{"name":"","type":"uint256","internalType":"uint256"}],"stateMutability":"view"},{"type":"function","name":"playCred","inputs":[],"outputs":[{"name":"","type":"address","internalType":"contract IPlayCred"}],"stateMutability":"view"},{"type":"function","name":"podium","inputs":[{"name":"category","type":"uint8","internalType":"uint8"}],"outputs":[{"name":"winners","type":"address[3]","internalType":"address[3]"},{"name":"values","type":"uint256[3]","internalType":"uint256[3]"}],"stateMutability":"view"},{"type":"function","name":"podiumDeadline","inputs":[{"name":"","type":"uint256","internalType":"uint256"}],"outputs":[{"name":"","type":"uint256","internalType":"uint256"}],"stateMutability":"view"},{"type":"function","name":"podiumEpoch","inputs":[{"name":"","type":"uint256","internalType":"uint256"}],"outputs":[{"name":"","type":"uint256","internalType":"uint256"}],"stateMutability":"view"},{"type":"function","name":"podiumInitialTimerSec","inputs":[{"name":"","type":"uint256","internalType":"uint256"}],"outputs":[{"name":"","type":"uint256","internalType":"uint256"}],"stateMutability":"view"},{"type":"function","name":"podiumResetBelowRemainingSec","inputs":[{"name":"","type":"uint256","internalType":"uint256"}],"outputs":[{"name":"","type":"uint256","internalType":"uint256"}],"stateMutability":"view"},{"type":"function","name":"podiumResetToRemainingSec","inputs":[{"name":"","type":"uint256","internalType":"uint256"}],"outputs":[{"name":"","type":"uint256","internalType":"uint256"}],"stateMutability":"view"},{"type":"function","name":"podiumTimerCapSec","inputs":[{"name":"","type":"uint256","internalType":"uint256"}],"outputs":[{"name":"","type":"uint256","internalType":"uint256"}],"stateMutability":"view"},{"type":"function","name":"podiumTimerExtensionSec","inputs":[{"name":"","type":"uint256","internalType":"uint256"}],"outputs":[{"name":"","type":"uint256","internalType":"uint256"}],"stateMutability":"view"},{"type":"function","name":"podiumVaults","inputs":[],"outputs":[{"name":"","type":"address","internalType":"contract PodiumVaults"}],"stateMutability":"view"},{"type":"function","name":"proxiableUUID","inputs":[],"outputs":[{"name":"","type":"bytes32","internalType":"bytes32"}],"stateMutability":"view"},{"type":"function","name":"referralRegistry","inputs":[],"outputs":[{"name":"","type":"address","internalType":"contract IReferralRegistry"}],"stateMutability":"view"},{"type":"function","name":"renounceOwnership","inputs":[],"outputs":[],"stateMutability":"nonpayable"},{"type":"function","name":"rollPodiumEpoch","inputs":[{"name":"category","type":"uint8","internalType":"uint8"}],"outputs":[],"stateMutability":"nonpayable"},{"type":"function","name":"setCharmAnchorOracle","inputs":[{"name":"router","type":"address","internalType":"address"},{"name":"cl8y","type":"address","internalType":"address"},{"name":"weth","type":"address","internalType":"address"},{"name":"usdm","type":"address","internalType":"address"}],"outputs":[],"stateMutability":"nonpayable"},{"type":"function","name":"setCharmPriceWad","inputs":[{"name":"wad","type":"uint256","internalType":"uint256"}],"outputs":[],"stateMutability":"nonpayable"},{"type":"function","name":"setEpochCharmAnchorWad","inputs":[{"name":"wad","type":"uint256","internalType":"uint256"}],"outputs":[],"stateMutability":"nonpayable"},{"type":"function","name":"setPaused","inputs":[{"name":"p","type":"bool","internalType":"bool"}],"outputs":[],"stateMutability":"nonpayable"},{"type":"function","name":"setTimeArenaBuyRouter","inputs":[{"name":"router","type":"address","internalType":"address"}],"outputs":[],"stateMutability":"nonpayable"},{"type":"function","name":"startArena","inputs":[],"outputs":[],"stateMutability":"nonpayable"},{"type":"function","name":"stealsCommittedByAttackerOnDay","inputs":[{"name":"","type":"address","internalType":"address"},{"name":"","type":"uint256","internalType":"uint256"}],"outputs":[{"name":"","type":"uint8","internalType":"uint8"}],"stateMutability":"view"},{"type":"function","name":"stealsReceivedOnDay","inputs":[{"name":"","type":"address","internalType":"address"},{"name":"","type":"uint256","internalType":"uint256"}],"outputs":[{"name":"","type":"uint8","internalType":"uint8"}],"stateMutability":"view"},{"type":"function","name":"timeArenaBuyRouter","inputs":[],"outputs":[{"name":"","type":"address","internalType":"address"}],"stateMutability":"view"},{"type":"function","name":"timerCapSec","inputs":[],"outputs":[{"name":"","type":"uint256","internalType":"uint256"}],"stateMutability":"view"},{"type":"function","name":"timerExtensionSec","inputs":[],"outputs":[{"name":"","type":"uint256","internalType":"uint256"}],"stateMutability":"view"},{"type":"function","name":"topUpPodiumPools","inputs":[{"name":"amountDoubWad","type":"uint256","internalType":"uint256"}],"outputs":[],"stateMutability":"nonpayable"},{"type":"function","name":"totalCharmWeight","inputs":[],"outputs":[{"name":"","type":"uint256","internalType":"uint256"}],"stateMutability":"view"},{"type":"function","name":"totalDoubRaised","inputs":[],"outputs":[{"name":"","type":"uint256","internalType":"uint256"}],"stateMutability":"view"},{"type":"function","name":"totalEffectiveTimerSecAdded","inputs":[{"name":"","type":"address","internalType":"address"}],"outputs":[{"name":"","type":"uint256","internalType":"uint256"}],"stateMutability":"view"},{"type":"function","name":"transferOwnership","inputs":[{"name":"newOwner","type":"address","internalType":"address"}],"outputs":[],"stateMutability":"nonpayable"},{"type":"function","name":"unlockedLevel","inputs":[{"name":"user","type":"address","internalType":"address"}],"outputs":[{"name":"","type":"uint256","internalType":"uint256"}],"stateMutability":"view"},{"type":"function","name":"upgradeToAndCall","inputs":[{"name":"newImplementation","type":"address","internalType":"address"},{"name":"data","type":"bytes","internalType":"bytes"}],"outputs":[],"stateMutability":"payable"},{"type":"function","name":"warbowActivateGuard","inputs":[],"outputs":[],"stateMutability":"nonpayable"},{"type":"function","name":"warbowBpGeneration","inputs":[],"outputs":[{"name":"","type":"uint256","internalType":"uint256"}],"stateMutability":"view"},{"type":"function","name":"warbowEpochFinalized","inputs":[{"name":"","type":"uint256","internalType":"uint256"}],"outputs":[{"name":"","type":"bool","internalType":"bool"}],"stateMutability":"view"},{"type":"function","name":"warbowGuardUntil","inputs":[{"name":"","type":"address","internalType":"address"}],"outputs":[{"name":"","type":"uint256","internalType":"uint256"}],"stateMutability":"view"},{"type":"function","name":"warbowPendingFlagOwner","inputs":[],"outputs":[{"name":"","type":"address","internalType":"address"}],"stateMutability":"view"},{"type":"function","name":"warbowPendingFlagPlantAt","inputs":[],"outputs":[{"name":"","type":"uint256","internalType":"uint256"}],"stateMutability":"view"},{"type":"function","name":"warbowPendingRevengeExpiryExclusive","inputs":[{"name":"","type":"address","internalType":"address"},{"name":"","type":"address","internalType":"address"}],"outputs":[{"name":"","type":"uint256","internalType":"uint256"}],"stateMutability":"view"},{"type":"function","name":"warbowPendingRevengeStealSeq","inputs":[{"name":"","type":"address","internalType":"address"},{"name":"","type":"address","internalType":"address"}],"outputs":[{"name":"","type":"uint256","internalType":"uint256"}],"stateMutability":"view"},{"type":"function","name":"warbowRevenge","inputs":[{"name":"stealer","type":"address","internalType":"address"}],"outputs":[],"stateMutability":"nonpayable"},{"type":"function","name":"warbowSteal","inputs":[{"name":"victim","type":"address","internalType":"address"},{"name":"payBypassBurn","type":"bool","internalType":"bool"}],"outputs":[],"stateMutability":"nonpayable"},{"type":"function","name":"xp","inputs":[{"name":"","type":"address","internalType":"address"}],"outputs":[{"name":"","type":"uint256","internalType":"uint256"}],"stateMutability":"view"},{"type":"function","name":"xpToNextLevel","inputs":[{"name":"user","type":"address","internalType":"address"}],"outputs":[{"name":"","type":"uint256","internalType":"uint256"}],"stateMutability":"view"},{"type":"function","name":"xpTowardNext","inputs":[{"name":"","type":"address","internalType":"address"}],"outputs":[{"name":"","type":"uint256","internalType":"uint256"}],"stateMutability":"view"},{"type":"event","name":"ArenaStarted","inputs":[{"name":"startTimestamp","type":"uint256","indexed":false,"internalType":"uint256"},{"name":"initialDeadline","type":"uint256","indexed":false,"internalType":"uint256"}],"anonymous":false},{"type":"event","name":"Buy","inputs":[{"name":"buyer","type":"address","indexed":true,"internalType":"address"},{"name":"charmWad","type":"uint256","indexed":false,"internalType":"uint256"},{"name":"doubPaid","type":"uint256","indexed":false,"internalType":"uint256"},{"name":"newDeadline","type":"uint256","indexed":false,"internalType":"uint256"},{"name":"totalDoubRaisedAfter","type":"uint256","indexed":false,"internalType":"uint256"},{"name":"buyIndex","type":"uint256","indexed":false,"internalType":"uint256"},{"name":"actualSecondsAdded","type":"uint256","indexed":false,"internalType":"uint256"},{"name":"timerHardReset","type":"bool","indexed":false,"internalType":"bool"},{"name":"paidWithCred","type":"bool","indexed":false,"internalType":"bool"}],"anonymous":false},{"type":"event","name":"CredClaimed","inputs":[{"name":"user","type":"address","indexed":true,"internalType":"address"},{"name":"epoch","type":"uint256","indexed":true,"internalType":"uint256"},{"name":"amount","type":"uint256","indexed":false,"internalType":"uint256"}],"anonymous":false},{"type":"event","name":"FeatureUnlocked","inputs":[{"name":"player","type":"address","indexed":true,"internalType":"address"},{"name":"featureLevel","type":"uint256","indexed":false,"internalType":"uint256"}],"anonymous":false},{"type":"event","name":"FirstBuyCredScheduled","inputs":[{"name":"buyer","type":"address","indexed":true,"internalType":"address"},{"name":"targetEpoch","type":"uint256","indexed":true,"internalType":"uint256"},{"name":"amount","type":"uint256","indexed":false,"internalType":"uint256"}],"anonymous":false},{"type":"event","name":"Initialized","inputs":[{"name":"version","type":"uint64","indexed":false,"internalType":"uint64"}],"anonymous":false},{"type":"event","name":"LastBuyEpochCharmAnchored","inputs":[{"name":"epoch","type":"uint256","indexed":true,"internalType":"uint256"},{"name":"anchorWad","type":"uint256","indexed":false,"internalType":"uint256"},{"name":"doubUsdWad","type":"uint256","indexed":false,"internalType":"uint256"},{"name":"anchorTimestamp","type":"uint256","indexed":false,"internalType":"uint256"}],"anonymous":false},{"type":"event","name":"LastBuyEpochStarted","inputs":[{"name":"epoch","type":"uint256","indexed":true,"internalType":"uint256"},{"name":"deadline","type":"uint256","indexed":false,"internalType":"uint256"}],"anonymous":false},{"type":"event","name":"LevelUp","inputs":[{"name":"player","type":"address","indexed":true,"internalType":"address"},{"name":"newLevel","type":"uint256","indexed":false,"internalType":"uint256"}],"anonymous":false},{"type":"event","name":"OwnershipTransferred","inputs":[{"name":"previousOwner","type":"address","indexed":true,"internalType":"address"},{"name":"newOwner","type":"address","indexed":true,"internalType":"address"}],"anonymous":false},{"type":"event","name":"PausedSet","inputs":[{"name":"paused","type":"bool","indexed":false,"internalType":"bool"}],"anonymous":false},{"type":"event","name":"PodiumEpochRolled","inputs":[{"name":"category","type":"uint8","indexed":true,"internalType":"uint8"},{"name":"epoch","type":"uint256","indexed":true,"internalType":"uint256"},{"name":"first","type":"address","indexed":false,"internalType":"address"},{"name":"second","type":"address","indexed":false,"internalType":"address"},{"name":"third","type":"address","indexed":false,"internalType":"address"},{"name":"poolPaid","type":"uint256","indexed":false,"internalType":"uint256"}],"anonymous":false},{"type":"event","name":"PodiumPoolsToppedUp","inputs":[{"name":"donor","type":"address","indexed":true,"internalType":"address"},{"name":"amountDoubWad","type":"uint256","indexed":false,"internalType":"uint256"}],"anonymous":false},{"type":"event","name":"ReferralCredApplied","inputs":[{"name":"buyer","type":"address","indexed":true,"internalType":"address"},{"name":"referrer","type":"address","indexed":true,"internalType":"address"},{"name":"codeHash","type":"bytes32","indexed":true,"internalType":"bytes32"},{"name":"referrerCred","type":"uint256","indexed":false,"internalType":"uint256"},{"name":"buyerCred","type":"uint256","indexed":false,"internalType":"uint256"}],"anonymous":false},{"type":"event","name":"Upgraded","inputs":[{"name":"implementation","type":"address","indexed":true,"internalType":"address"}],"anonymous":false},{"type":"event","name":"WarBowFlagClaimed","inputs":[{"name":"player","type":"address","indexed":true,"internalType":"address"},{"name":"bonusBp","type":"uint256","indexed":false,"internalType":"uint256"}],"anonymous":false},{"type":"event","name":"WarBowGuard","inputs":[{"name":"player","type":"address","indexed":true,"internalType":"address"},{"name":"doubSpent","type":"uint256","indexed":false,"internalType":"uint256"},{"name":"guardUntil","type":"uint256","indexed":false,"internalType":"uint256"}],"anonymous":false},{"type":"event","name":"WarBowRevenge","inputs":[{"name":"avenger","type":"address","indexed":true,"internalType":"address"},{"name":"stealer","type":"address","indexed":true,"internalType":"address"},{"name":"bpTaken","type":"uint256","indexed":false,"internalType":"uint256"},{"name":"doubSpent","type":"uint256","indexed":false,"internalType":"uint256"}],"anonymous":false},{"type":"event","name":"WarBowSteal","inputs":[{"name":"attacker","type":"address","indexed":true,"internalType":"address"},{"name":"victim","type":"address","indexed":true,"internalType":"address"},{"name":"bpTaken","type":"uint256","indexed":false,"internalType":"uint256"},{"name":"doubSpent","type":"uint256","indexed":false,"internalType":"uint256"},{"name":"limitBypassBurned","type":"bool","indexed":false,"internalType":"bool"}],"anonymous":false},{"type":"event","name":"WarbowPodiumFinalized","inputs":[{"name":"epoch","type":"uint256","indexed":true,"internalType":"uint256"},{"name":"first","type":"address","indexed":false,"internalType":"address"},{"name":"second","type":"address","indexed":false,"internalType":"address"},{"name":"third","type":"address","indexed":false,"internalType":"address"}],"anonymous":false},{"type":"event","name":"XpGained","inputs":[{"name":"player","type":"address","indexed":true,"internalType":"address"},{"name":"amount","type":"uint256","indexed":false,"internalType":"uint256"},{"name":"newLevel","type":"uint256","indexed":false,"internalType":"uint256"}],"anonymous":false},{"type":"error","name":"AddressEmptyCode","inputs":[{"name":"target","type":"address","internalType":"address"}]},{"type":"error","name":"ERC1967InvalidImplementation","inputs":[{"name":"implementation","type":"address","internalType":"address"}]},{"type":"error","name":"ERC1967NonPayable","inputs":[]},{"type":"error","name":"FailedCall","inputs":[]},{"type":"error","name":"InvalidInitialization","inputs":[]},{"type":"error","name":"NotInitializing","inputs":[]},{"type":"error","name":"OwnableInvalidOwner","inputs":[{"name":"owner","type":"address","internalType":"address"}]},{"type":"error","name":"OwnableUnauthorizedAccount","inputs":[{"name":"account","type":"address","internalType":"address"}]},{"type":"error","name":"PRBMath_SD59x18_Exp2_InputTooBig","inputs":[{"name":"x","type":"int256","internalType":"SD59x18"}]},{"type":"error","name":"PRBMath_SD59x18_Exp_InputTooBig","inputs":[{"name":"x","type":"int256","internalType":"SD59x18"}]},{"type":"error","name":"ReentrancyGuardReentrantCall","inputs":[]},{"type":"error","name":"SafeERC20FailedOperation","inputs":[{"name":"token","type":"address","internalType":"address"}]},{"type":"error","name":"UUPSUnauthorizedCallContext","inputs":[]},{"type":"error","name":"UUPSUnsupportedProxiableUUID","inputs":[{"name":"slot","type":"bytes32","internalType":"bytes32"}]}],"bytecode":{"object":"0x60a08060405234620000f55760017f9b779b17422d0df92223018b32b4d1fa46e071723d6817e2486d003becc55f0055306080527ff0c57e16840df040f15088dc2f81fe391c3923bec73e23a9662efc9c229c6a009081549060ff8260401c16620000e657506001600160401b036002600160401b031982821601620000a0575b604051618b8f9081620000fa8239608051818181613a980152613bc70152f35b6001600160401b031990911681179091556040519081527fc7f505b2f371ae2175ee4913f4499e1f2633a7b5936321eed1cdaeb6115181d290602090a15f808062000080565b63f92ee8a960e01b8152600490fd5b5f80fdfe60806040526004361015610011575f80fd5b5f3560e01c80629d0d63146154e35780630152f65f146154455780630458a6a21461542a5780630490cb74146153f2578063079110e414614b4f57806307f2871514614b325780630bdf134414614b175780630f63257614614afa57806312407d4514614add57806313daca8414614ab95780631458d4ad14614a5a57806316c38b3c146149f857806318f0574d146149db5780631bb303da146149bf5780631f5e9f481461499d5780632128c5bf1461497a578063215eb1fb1461495d57806321f28f871461493157806323df5215146143e4578063241a67ea146143c957806324bceab3146142e3578063284e008c146142c157806329dcb0cf146142a45780632bed10221461427c5780632c06f19b1461422f57806339524dc8146142075780633d0f201d146141ed578063429dbb15146141c3578063438009aa146141a65780634423338e1461417e57806346cd258914614156578063487d3c8414613d995780634e627e6214613d715780634f1ef28614613b465780634f70a2f914613b0257806352d1902d14613a86578063534b34d51461269157806357cd7c8814613a5e578063580a68b614613a265780635c975abb14613a045780635d385f88146139cc5780635eb7fb0c146139a057806363e17058146139855780636611fd1b1461395957806366b180871461374257806369897053146137165780636a9ea067146136f95780636c47f869146136d15780636d7121e81461306f5780636dc84fb3146130525780636e19a72814612fd45780636e695d5814612f555780636fa1cba714612c8d578063715018a614612c2657806374f0314f146127b357806375c4842014612bdf578063787a2c2414612bb7578063795ce9cd14612b9457806382e02b0b14612b47578063861a243914612b1f57806387257c2514612af5578063875f291614612abd5780638c7928ba14612a5c5780638da5cb5b14612a285780638e9a612214612a0157806390802dea146127f057806390c25e9f146127d557806392882c36146127b857806393b994ba146127b35780639b26a0e3146127955780639c8d6f2614611b8c5780639d70e6711461274e5780639fefe7f414612716578063a247c2eb146126de578063a56cba75146126b2578063a57467ca14612696578063a964525a14612691578063a9b2424e14612659578063a9b7477614612135578063ab8a6eb314612109578063ad3cb1cc1461209a578063b05b7a9a14612062578063b210d9f21461203f578063b5b52a4114612024578063b6f3449914611ea7578063b95683e414611e6f578063b9a5684f14611e52578063bb4a191514611e2e578063bcd8c93014611dff578063bf38cfbf14611c7a578063c364fb8d14611b91578063c3f95f7814611c5e578063c71bfd6f14611bfd578063c71d071914611bb9578063cf0f8764146105f5578063d06fec8314611b96578063d2e0218f14611b91578063d41b6db614611b8c578063d5fa9aed14611ae7578063d877e85814611aca578063d96a094a14610fd4578063db4ddd3014610529578063deb26f6c14610fa8578063e01cb4f614610f86578063e3b2ce0114610f4e578063e7a5ccf414610f0b578063e7b9102b14610eee578063e88f900114610ed1578063e9fca28314610611578063f0d77b70146105f5578063f2fde38b146105ca578063f3181a5d146105b0578063f3a6915d14610544578063fbe69531146105295763febc020f14610509575f80fd5b34610525575f36600319011261052557602060405161012c8152f35b5f80fd5b34610525575f36600319011261052557602060405160648152f35b34610525575f36600319011261052557606060405161056281615b96565b36903760405160615f825b600382106105905760608461058181615b96565b61058e6040518092615b1c565bf35b82546001600160a01b03168152600192830192919091019060200161056d565b34610525575f3660031901126105255760206040515f8152f35b34610525576020366003190112610525576105f36105e6615af0565b6105ee6165f7565b615fa5565b005b34610525575f3660031901126105255760206040516103e88152f35b346105255760403660031901126105255760243561062d6164ca565b5f61063661662f565b335f52603460205261064e60405f20544210156164f9565b61065960043561750b565b61066161757e565b61069161067761066f615e8a565b6004356162b0565b604854336001600160a01b0390911603610ecb57336168a3565b91602654805f52603c60205260405f20335f5260205260405f206106b86004358254615d41565b9055805f52603d60205260405f206106d36004358254615d41565b90555f52603e60205260405f208054906801e5b8fa8fe2ac00008201809211610eb75755335f52603260205260405f206107106004358254615d41565b9055610720600435602854615d41565b60285580151580610ea3575b610c86575b508060405161073f81615b7b565b60803682376040519061075182615b7b565b60803683376040519261076384615b7b565b6080368537805b600460ff8216101561080c57600160ff916003838216145f146107fd576107e96107dd61079e60038c165b8c60021c615d41565b6107a781616312565b6107b38786168a615d30565b526107bd8161635d565b6107c98786168b615d30565b526107d686851689615d30565b5190615e7d565b6107d685841689615d30565b6107f584831689615d30565b52011661076a565b6107e96107dd61079e86610795565b5091825b600460ff82161015610c56576004811015610c425780602e015461083760ff831685615d30565b51610b19575b61084a60ff831684615d30565b516109e9575b61085d60ff831687615d30565b5161086f575b5060010160ff16610810565b60015460405163c835e7e160e01b815260ff841660048201529297929190602090839060249082906001600160a01b03165afa9182156109de57869261099e575b5085546108d5906001600160a01b0316836108ce60ff8c168b615d30565b5191617e60565b6001546001600160a01b03169060028101811161098a576108f960ff8a1689615d30565b5192823b1561098657916002888b9361092c829660405198899788968795636b03fb1560e11b87520190600486016175eb565b03925af1801561097b57908591610963575b5050600161095b60ff92610954848a1689615d30565b5190615d41565b969150610863565b61096c90615b4c565b61097757838861093e565b8380fd5b6040513d87823e3d90fd5b8780fd5b634e487b7160e01b87526011600452602487fd5b9091506020813d6020116109d6575b816109ba60209383615bb1565b810103126109d2576109cb90615f60565b90896108b0565b8580fd5b3d91506109ad565b6040513d88823e3d90fd5b600154604051630b1feb5d60e41b815260ff8416600482015291979190602090829060249082906001600160a01b03165afa9081156109de578691610adf575b508554610a47906001600160a01b0316826108ce60ff871688615d30565b600180546001600160a01b0316908901891161098a57610a6a60ff851686615d30565b5190803b15610986579087916001838c610a9c60405197889687958694636b03fb1560e11b8652018c600486016175eb565b03925af180156109de57908691610ac7575b5050610ac19061095460ff841685615d30565b95610850565b610ad090615b4c565b610adb578489610aae565b8480fd5b90506020813d602011610b11575b81610afa60209383615bb1565b810103126109d257610b0b90615f60565b89610a29565b3d9150610aed565b9560246001602060018060a01b038254166040519384809263f87793ad60e01b825260ff891660048301525afa918215610c37578792610bf7575b508654610b72906001600160a01b0316836108ce60ff88168a615d30565b546001600160a01b0316610b8960ff851687615d30565b51813b1561098657918791610bb893838c60405196879586948593636b03fb1560e11b85528c600486016175eb565b03925af180156109de57908691610be3575b5050610bdd9061095460ff841686615d30565b9561083d565b610bec90615b4c565b610adb578489610bca565b9091506020813d602011610c2f575b81610c1360209383615bb1565b81010312610c2b57610c2490615f60565b908a610b54565b8680fd5b3d9150610c06565b6040513d89823e3d90fd5b634e487b7160e01b84526032600452602484fd5b610c738488610c6781602754615d41565b60275560043533617618565b60015f80516020618b1a83398151915255005b60035460405163711bf87960e01b81526004810183905290602090829060249082906001600160a01b03165afa908115610dd4575f91610e69575b506001600160a01b03168015610e2457338114610ddf576004546001600160a01b031680610cf1575b5050610731565b803b15610525576040516340c10f1960e01b908181528360048201525f8160448183674563918244f40000978860248401525af18015610dd457610dc1575b506004546001600160a01b031690813b156109d257859160448392604051948593849283523360048401528760248401525af1801561097b57908591610dad575b50506040519080825260208201527ff9d0b7562a9415eece6e30788862682d80ece5bab11cc3abd284aac45641ccf660403392a4828080610cea565b610db690615b4c565b610977578386610d71565b610dcc919550615b4c565b5f9386610d30565b6040513d5f823e3d90fd5b60405162461bcd60e51b815260206004820152601860248201527f54696d654172656e613a2073656c662d726566657272616c00000000000000006044820152606490fd5b60405162461bcd60e51b815260206004820152601b60248201527f54696d654172656e613a20696e76616c696420726566657272616c00000000006044820152606490fd5b90506020813d602011610e9b575b81610e8460209383615bb1565b8101031261052557610e9590615f60565b84610cc1565b3d9150610e77565b506003546001600160a01b0316151561072c565b634e487b7160e01b5f52601160045260245ffd5b336168a3565b34610525575f366003190112610525576020600554604051908152f35b34610525575f366003190112610525576020603a54604051908152f35b3461052557602036600319011261052557610f24615af0565b610f2c6165f7565b604880546001600160a01b0319166001600160a01b0392909216919091179055005b34610525576020366003190112610525576001600160a01b03610f6f615af0565b165f526032602052602060405f2054604051908152f35b34610525575f366003190112610525576020604051678ac7230489e800008152f35b346105255760203660031901126105255760043560048110156105255760209060170154604051908152f35b3461052557602036600319011261052557600435610ff06164ca565b610ff861662f565b335f52603460205261101060405f20544210156164f9565b6110198161750b565b61102161757e565b61103561067761102f615e8a565b836162b0565b90602654805f52603c60205260405f20335f5260205260405f2061105a838254615d41565b9055805f52603d60205260405f20611073838254615d41565b90555f52603e60205260405f208054906801e5b8fa8fe2ac00008201809211610eb75755335f52603260205260405f206110ae828254615d41565b90556110bc81602854615d41565b6028555f90604051926110ce84615b7b565b60803685376040516110df81615b7b565b6080368237604051926110f184615b7b565b60803685378260021c906003808516915f5b60ff811660048110156111895760ff91816111796111726111688f6107d66001978e9261113a8f8f8f85145f146111815790615d41565b9361114485616312565b61114e8484615d30565b526111628361115c8761635d565b92615d30565b52615d30565b6107d6848d615d30565b918c615d30565b520116611103565b505f90615d41565b828a8a8d8a8c5f5b600460ff821610156115855760048110156115715780602e01546111b860ff831686615d30565b51611458575b6111cb60ff831685615d30565b51611334575b6111de60ff831687615d30565b516111f0575b5060010160ff16611191565b6001805460405163c835e7e160e01b815260ff851660048201529398936024939290916020908390869082906001600160a01b03165afa918215610dd4575f926112f8575b505f54611253906001600160a01b0316836108ce60ff8e168d615d30565b546001600160a01b0316926002830183116112e5575061127660ff8a1689615d30565b5192803b156105255760025f80946112a88d9560405198899788968795636b03fb1560e11b87520190600486016175eb565b03925af18015610dd45760ff926001926112ce926112d6575b50610954848a1689615d30565b9691506111e4565b6112df90615b4c565b8a6112c1565b634e487b7160e01b5f9081526011600452fd5b9091506020813d60201161132c575b8161131460209383615bb1565b810103126105255761132590615f60565b908b611235565b3d9150611307565b600154604051630b1feb5d60e41b815260ff84166004820152919790602090839060249082906001600160a01b03165afa918215610dd4575f9261141c575b505f54611391906001600160a01b0316836108ce60ff871689615d30565b600180546001600160a01b03169290890190818a11610eb7576113b760ff861688615d30565b5193803b15610525576113e5945f809460405197889586948593636b03fb1560e11b85528c600486016175eb565b03925af1918215610dd4576114079261140d575b5061095460ff841686615d30565b956111d1565b61141690615b4c565b896113f9565b9091506020813d602011611450575b8161143860209383615bb1565b810103126105255761144990615f60565b9089611373565b3d915061142b565b6001805460405163f87793ad60e01b815260ff8516600482015292989190602090849060249082906001600160a01b03165afa928315610dd4575f93611535575b505f546114b7906001600160a01b0316846108ce60ff88168b615d30565b546001600160a01b0316916114cf60ff851688615d30565b5190833b15610525576114fe935f92838c60405197889586948593636b03fb1560e11b85528c600486016175eb565b03925af1918215610dd45761152092611526575b5061095460ff841687615d30565b956111be565b61152f90615b4c565b89611512565b9092506020813d602011611569575b8161155160209383615bb1565b810103126105255761156290615f60565b918a611499565b3d9150611544565b634e487b7160e01b5f52603260045260245ffd5b508561159382602754615d41565b602755335f52603360205260405f2091825490811591600194858201809211610eb75755606554848101809111610eb7576065556115d360235442615d41565b335f52603460205260405f2055602554904282115f14611ac3576115f74283615e7d565b915b611611600f54601754601b5490601f54924286617ede565b9490806025558581602a55611a8f575b5080611a7b575b611a0f575b6025549080821115611a065761164291615e7d565b915b335f52606760205260405f205480156119ff575b61166186617f6f565b90335f52603860205260405f20611679838254615d41565b9055335f5260686020526116928260405f205483617fbf565b929092335f5260676020528360405f2055606860205260405f20556040519081528260208201527f681e93ec66a1e7f0d504acc55cc0b0c0ee2546b290190ccdeb1e90e83ecec97660403392a2808211611986575b506064549060ff6003816116fc818616615e6b565b160616809260ff1916176064556003821015611571578591606101926001600160601b0360a01b933385825416179055335f52603360205261174260405f205433616b4a565b6002821015611944575b600382101561186d575b6004821015611806575b506005915010156117c9575b506025546027549060655492604051968752602087015260408601526060850152608084015260a0830152151560c08201525f60e08201525f80516020618afa8339815191526101003392a25f80516020618b1a83398151915255005b6041546001600160a01b03811680151590816117fb575b506117ec575b5061176c565b166041555f60425585806117e6565b9050331415886117e0565b61180e6180b3565b60fa92611863575b601e11611843575b61182a60059233616a16565b61183c6118363361698a565b33616a67565b8591611760565b609682018092111561181e57634e487b7160e01b5f52601160045260245ffd5b6102ee9250611816565b9150611877618092565b856103848310808061193b575b1561192157506066546001600160a01b031633036119035750335f52603760205260405f20918254898101809111610eb7578793555b335f52603760205260405f2054603660205260405f2054106118ea575b6118e560405f205433616d02565b611756565b603760205260405f2054603660205260405f20556118d7565b91335f5260376020528860405f2055338460665416176066556118ba565b92909261175657335f5260376020525f6040812055611756565b50861515611884565b61194c618071565b851561174c57335f52603560205260405f20611969878254615d41565b9055335f52603560205261198160405f205433616c26565b61174c565b6040518281527f91e51c29e7e87a74ad3b8ccba98538970f50a4309242735467f41e27c6b0fbac60203392a2878101809111610eb7575b8181116116e7576040518181527f33879b70e72ce48a1e1cce36586491ae9b0074bc1f86d5ad80da33bbed5bbce260203392a25f198114610eb75787016119bd565b5085611658565b50505f91611644565b602654868101809111610eb757805f52603f60205260405f20335f5260205260405f208054683ba1910bf341b0000091828201809211610eb757556040519081527f135d669544c1a460dd7b5f82c47189c86898c39919d3f604f6d023b68c9849fd60203392a361162d565b506004546001600160a01b03161515611628565b7f0b161138d65ee8419c59f82b310d2368e3bab076a225062e56c275fde6625993602060265492604051908152a287611621565b5f916115f9565b34610525575f366003190112610525576020600654604051908152f35b3461052557602080600319360112610525576001600160401b0360043581811161052557366023820112156105255780600401359182116105255760246005913660248560051b8301011161052557611b3e6165f7565b5f5b848110611b4957005b80841b82018301356001600160a01b0381169190829003610525576001915f526033875260405f2054611b7d575b01611b40565b606787528460405f2055611b77565b615c12565b615c73565b34610525575f36600319011261052557602060405168056bc75e2d631000008152f35b3461052557604036600319011261052557611bd2615b06565b6004355f52603f60205260405f209060018060a01b03165f52602052602060405f2054604051908152f35b34610525576020366003190112610525576001600160a01b03611c1e615af0565b165f52606760205260405f205480155f14611c5357506020611c4b60015b6068835260405f2054906174a6565b604051908152f35b611c4b602091611c3c565b34610525575f3660031901126105255760206040516103848152f35b346105255760208060031936011261052557611c94615af0565b611c9c6164ca565b611ca461662f565b611cad336166cf565b335f526045825260405f209160018060a01b03821692835f52815260405f20548015159081611df5575b5015611dbc57611ce633616719565b90611cf8611cf38461698a565b616265565b928315611d775783611d09916169ba565b611d138333616a16565b611d1f6118363361698a565b335f526045815260405f20845f5281525f60408120556040519283528201527f221b6cbe5d57878e7c76259f6002f46cc567d8203de96d73c5be97da4a7c2a0360403392a360015f80516020618b1a83398151915255005b60405162461bcd60e51b815260048101839052601760248201527f54696d654172656e613a20726576656e6765207a65726f0000000000000000006044820152606490fd5b6064906040519062461bcd60e51b82526004820152601260248201527154696d654172656e613a20726576656e676560701b6044820152fd5b9050421084611cd7565b34610525576020366003190112610525576004355f526047602052602060ff60405f2054166040519015158152f35b34610525575f366003190112610525576020604051690a968163f0a57b4000008152f35b34610525575f366003190112610525576020602354604051908152f35b34610525576020366003190112610525576001600160a01b03611e90615af0565b165f526040602052602060405f2054604051908152f35b34610525575f36600319011261052557611ebf6164ca565b611ec761662f565b604154336001600160a01b03821603611fdf5760425461012c8101809111610eb7574210611f9a576001600160601b0360a01b166041555f604255335f52603b60205260405f2054603a5403611f7d575b603960205260405f2080546103e891828201809211610eb75755611f3e6118363361698a565b6040519081527fe6b0a1cfba1b522a15d22b1e1149c9798c05764ef04c3222f1763c50b049e3fa60203392a260015f80516020618b1a83398151915255005b60396020525f6040812055603a54603b60205260405f2055611f18565b60405162461bcd60e51b815260206004820152601760248201527f54696d654172656e613a20666c61672073696c656e63650000000000000000006044820152606490fd5b60405162461bcd60e51b815260206004820152601a60248201527f54696d654172656e613a206e6f7420666c616720686f6c6465720000000000006044820152606490fd5b34610525575f36600319011261052557602060405160048152f35b34610525576020366003190112610525576020611c4b61205d615af0565b61698a565b34610525576020366003190112610525576001600160a01b03612083615af0565b165f52603b602052602060405f2054604051908152f35b34610525575f3660031901126105255760405160408101908082106001600160401b038311176120f5576120f19160405260058152640352e302e360dc1b6020820152604051918291602083526020830190615c35565b0390f35b634e487b7160e01b5f52604160045260245ffd5b3461052557602036600319011261052557600435600481101561052557602090602a0154604051908152f35b346105255760203660031901126105255760ff60043516600435036105255761215c6164ca565b61216c600460ff81351610615d4e565b6004803510158061157157600435602a015442111561261c57606060405161219381615b96565b36903760606040516121a481615b96565b36903760043560ff166125f6576121b9616554565b505b60015460405163f87793ad60e01b81526004803560ff169082015292906001600160a01b0316602084602481845afa938415610dd4575f946125ba575b505f546040516370a0823160e01b81526001600160a01b0395861660048201529460209186916024918391165afa938415610dd4575f94612586575b50600360ff6004351614158061257d575b6124cf575b50600154604080516322232eff60e21b81526004803560ff169082015291829060249082905f906001600160a01b03165af18015610dd4576124a4575b5061157157600435602e015460018101809111610eb757600435602e01556122b56004356013015442615d41565b5f9080600435602a015560ff6004351615612499575b506006600435025f5b600360ff82161061245357505060ff60043516156123ef575b600260ff60043516146123da575b600360ff600435161461238a575b61157157600435602e810154825160208085015160409586015186516001600160a01b03948516815291841692820192909252911693810193909352606083019390935260ff16907fa9b78eda30de684ae7f5f429efecdec822db196180c202cf5450da29f84776db90608090a360015f80516020618b1a83398151915255005b603a5460018101809111610eb757603a555f5b600360ff8216106123ae5750612309565b600381101561157157605b810180546001600160a01b03191690555f605e82015560010160ff1661239d565b606680546001600160a01b03191690556122fb565b604051606081018181106001600160401b038211176120f5576040525f81525f60208201525f60408201525f5b6003811061243557505060ff19606454166064556122ed565b81516001600160a01b0316606182015560209091019060010161241c565b60018161246560ff9385604901616545565b815490848060a01b039060031b1b1916905561248481604c8601616545565b8154905f199060031b1b1916905501166122d4565b602555505f836122cb565b604090813d83116124c8575b6124ba8183615bb1565b810103126105255783612287565b503d6124b0565b6124d8846161bf565b6124e185616217565b906124f5826124f08389615e7d565b615e7d565b8551602087015160408801516001600160a01b03908116969395918116949193921691803b15610525575f9560e4948793604051998a98899763362f187360e11b895260ff6004351660048a0152602489015260448801526064870152608486015260a485015260c48401525af18015610dd4571561224a5761257790615b4c565b8361224a565b50831515612245565b9093506020813d6020116125b2575b816125a260209383615bb1565b8101031261052557519284612234565b3d9150612595565b9093506020813d6020116125ee575b816125d660209383615bb1565b81010312610525576125e790615f60565b92846121f8565b3d91506125c9565b505f600660043502612616604c61260f83604901615d8f565b9201615dcd565b506121bb565b60405162461bcd60e51b815260206004820152601560248201527454696d654172656e613a2074696d6572206c69766560581b6044820152606490fd5b34610525576020366003190112610525576001600160a01b0361267a615af0565b165f526034602052602060405f2054604051908152f35b615bd2565b34610525575f3660031901126105255760206040516101f48152f35b3461052557602036600319011261052557600435600481101561052557602090601f0154604051908152f35b34610525576020366003190112610525576001600160a01b036126ff615af0565b165f526068602052602060405f2054604051908152f35b34610525576020366003190112610525576001600160a01b03612737615af0565b165f526033602052602060405f2054604051908152f35b34610525576040366003190112610525576001600160a01b0361276f615af0565b165f52604460205260405f206024355f52602052602060ff60405f205416604051908152f35b34610525576020366003190112610525576020611c4b600435615f74565b615bf5565b34610525575f366003190112610525576020602854604051908152f35b34610525575f36600319011261052557602060405160028152f35b34610525575f366003190112610525576128086164ca565b61281061662f565b612819336166cf565b5f546040516370a0823160e01b8082523060048301526001600160a01b03928316926024926020929183828681895afa918215610dd4575f926129d2575b506040516323b872dd60e01b5f523360045230865269021e19e0c9bab24000009687604452855f60648180855af160015f51148116156129b3575b826040525f6060521561299f57505083905f541692856040518095819382523060048301525afa8015610dd4575f90612970575b6128d09250615e7d565b928303612934576154604201918242116112e55750335f52604081528160405f20556040519283528201527f0215682b4d5ee66b0c67529cffec7ce5e5f7054dce0b660eddd6e47b9eb8c00460403392a260015f80516020618b1a83398151915255005b60176064926040519262461bcd60e51b845260048401528201527654696d654172656e613a2045524332302070617269747960481b6044820152fd5b508282813d8311612998575b6129868183615bb1565b81010312610525576128d091516128c6565b503d61297c565b635274afe760e01b82526004820152859150fd5b60018115166129c957813b15153d151616612892565b823d5f823e3d90fd5b9091508381813d83116129fa575b6129ea8183615bb1565b8101031261052557519086612857565b503d6129e0565b34610525575f366003190112610525575f546040516001600160a01b039091168152602090f35b34610525575f366003190112610525575f80516020618aba833981519152546040516001600160a01b039091168152602090f35b3461052557602036600319011261052557600435612a786165f7565b612a8181616dde565b7fc82c1be3df4b5a2413e4fc3b511951c25fc315ec7bfe8a749cb80aab299bef7c6060602654926040519081525f6020820152426040820152a2005b34610525576020366003190112610525576001600160a01b03612ade615af0565b165f526036602052602060405f2054604051908152f35b34610525576020366003190112610525576004355f52603e602052602060405f2054604051908152f35b34610525575f366003190112610525576009546040516001600160a01b039091168152602090f35b3461052557604036600319011261052557612b60615af0565b612b68615b06565b9060018060a01b038091165f52604560205260405f2091165f52602052602060405f2054604051908152f35b34610525575f3660031901126105255760206040516801e5b8fa8fe2ac00008152f35b34610525575f366003190112610525576001546040516001600160a01b039091168152602090f35b34610525576040366003190112610525576001600160a01b03612c00615af0565b165f52604360205260405f206024355f52602052602060ff60405f205416604051908152f35b34610525575f36600319011261052557612c3e6165f7565b5f80516020618aba83398151915280546001600160a01b031981169091555f906001600160a01b03167f8be0079c531659141344cd1fd0a4f28419497f9722a3daafe3b4186f6b6457e08280a3005b3461052557608036600319011261052557600435612ca9615b06565b612cb1615ac4565b90612cba615ada565b612cc26165f7565b835f526020906047825260ff60405f205416612f1957603154851015612edd575f85815260478352604090819020805460ff1916600190811790915554905163f87793ad60e01b8152600360048201526001600160a01b03939184168282602481845afa918215610dd4575f92612ea6575b505f546040516370a0823160e01b8152928616600484015283908390602490829089165afa918215610dd4575f92612e77575b5081612dae575b877f2adebb70bb3b103cefaf9390284be786cfca6e31af32e66fc334704ad89ca6ad606088888888828e81604051961686521690840152166040820152a2005b90612dd79594939291612dc0826161bf565b96826124f0612dcf8a95616217565b998a92615e7d565b813b1561052557865f879360e4938c9b8397876040519e8f998a9863362f187360e11b8a52600360048b01521660248901521660448701528b8b166064870152608486015260a485015260c48401525af18015610dd4577f2adebb70bb3b103cefaf9390284be786cfca6e31af32e66fc334704ad89ca6ad966060968592612e68575b509650939481929350612d6e565b612e7190615b4c565b89612e5a565b9091508281813d8311612e9f575b612e8f8183615bb1565b8101031261052557519088612d67565b503d612e85565b9091508281813d8311612ed6575b612ebe8183615bb1565b8101031261052557612ecf90615f60565b9088612d34565b503d612eb4565b60405162461bcd60e51b81526004810183905260146024820152730a8d2daca82e4cadcc27440c4c2c840cae0dec6d60631b6044820152606490fd5b60405162461bcd60e51b8152600481018390526014602482015273151a5b59505c995b984e88199a5b985b1a5e995960621b6044820152606490fd5b3461052557608036600319011261052557612f6e615af0565b612f76615b06565b612f7e615ac4565b90612f87615ada565b90612f906165f7565b60018060a01b0392838092816001600160601b0360a01b9716876008541617600855168560095416176009551683600a541617600a551690600b541617600b555f80f35b3461052557602036600319011261052557612fed6165f7565b602454612fff576105f3600435616dde565b60405162461bcd60e51b815260206004820152602560248201527f54696d654172656e613a207573652073657445706f6368436861726d416e63686044820152641bdc95d85960da1b6064820152608490fd5b34610525575f366003190112610525576020602754604051908152f35b34610525576020806003193601126105255760043561308c6164ca565b61309461662f565b335f52603482526130ab60405f20544210156164f9565b6130b48161750b565b6130bc61757e565b6004546001600160a01b03929083166130d6811515615f1f565b6130df83616143565b90811561368c57803b1561052557604051632770a7eb60e21b815233600482015260248101929092525f908290604490829084905af18015610dd45761367d575b50602654805f52603c825260405f20335f52825260405f20613143848254615d41565b90555f52603d815260405f2061315a838254615d41565b9055335f526032815260405f20613172838254615d41565b905561318082602854615d41565b602855335f526033815260405f2092835491821592600195868201809211610eb75755606554858101809111610eb7576065556131bf60235442615d41565b335f526034825260405f20556025544281115f14613676576131e14282615e7d565b905b6131fb600f54601754601b5490601f54924286617ede565b9590806025558681602a55613643575b5080613636575b6135cd575b60255490808211156135c45761322c91615e7d565b925b335f526067835260405f205480156135bd575b61324a87617f6f565b90335f526038855260405f20613261838254615d41565b9055335f52606885526132798260405f205483617fbf565b929092335f52606787528360405f20556068875260405f205560405190815282868201527f681e93ec66a1e7f0d504acc55cc0b0c0ee2546b290190ccdeb1e90e83ecec97660403392a2808211613546575b506064549060ff6003816132e0818616615e6b565b160616809260ff1916176064556003821015611571578691606101936001600160601b0360a01b943386825416179055335f526033865261332560405f205433616b4a565b6002821015613506575b600382101561343d575b60048210156133dc575b506005915010156133ac575b5050602554602754905f6065549360405197885287015260408601526060850152608084015260a0830152151560c08201528160e08201525f80516020618afa8339815191526101003392a25f80516020618b1a83398151915255005b60415490811680151590816133d1575b501561334f57166041555f604255858061334f565b9050331415886133bc565b6133e46180b3565b60fa92613433575b601e11613413575b61340060059233616a16565b61340c6118363361698a565b8691613343565b60968201809211156133f457634e487b7160e01b5f52601160045260245ffd5b6102ee92506133ec565b9150613447618092565b86610384831080806134fd575b156134e45750606654841633036134c75750335f526037855260405f209182548a8101809111610eb7578893555b335f526037865260405f20546036875260405f2054106134b0575b6134ab60405f205433616d02565b613339565b6037865260405f20546036875260405f205561349d565b91335f52603786528960405f205533856066541617606655613482565b92909261333957335f52603786525f6040812055613339565b50871515613454565b61350e618071565b861561332f57335f526035865260405f2061352a888254615d41565b9055335f526035865261354160405f205433616c26565b61332f565b6040518281527f91e51c29e7e87a74ad3b8ccba98538970f50a4309242735467f41e27c6b0fbac863392a2888101809111610eb7575b8181116132cb576040518181527f33879b70e72ce48a1e1cce36586491ae9b0074bc1f86d5ad80da33bbed5bbce2863392a25f198114610eb757880161357c565b5086613241565b50505f9261322e565b602654878101809111610eb757805f52603f845260405f20335f52845260405f208054683ba1910bf341b0000091828201809211610eb757556040519081527f135d669544c1a460dd7b5f82c47189c86898c39919d3f604f6d023b68c9849fd853392a3613217565b5083600454161515613212565b7f0b161138d65ee8419c59f82b310d2368e3bab076a225062e56c275fde66259938560265492604051908152a28861320b565b5f906131e3565b61368690615b4c565b83613120565b60405162461bcd60e51b815260048101849052601960248201527f54696d654172656e613a207a65726f2063726564206275726e000000000000006044820152606490fd5b34610525575f36600319011261052557600b546040516001600160a01b039091168152602090f35b34610525575f366003190112610525576020602654604051908152f35b346105255760203660031901126105255760043560048110156105255760209060130154604051908152f35b346105255760208060031936011261052557600435906137606164ca565b6004546001600160a01b03919061377a9083161515615f1f565b60265483101561391557825f52603c815260405f20335f52815260405f205491835f52603f825260405f20335f52825260405f205483158015809161390c575b156138c7578194865f52603d855260405f205491806138be575b613896575b505050835f52603c825260405f20335f5282525f6040812055835f52603f825260405f20335f5282525f60408120556004541690813b15610525576040516340c10f1960e01b815233600482015260248101849052915f908390604490829084905af1918215610dd4577ff72461ad1a4e75bb1bdd42ea3548a573bd8dff790f26a4de3a5e03ed37169ea792613887575b506040519283523392a360015f80516020618b1a83398151915255005b61389090615b4c565b8461386a565b6138b5939550906138af91603e865260405f205461641c565b90615d41565b918480806137d9565b508115156137d4565b60405162461bcd60e51b815260048101859052601b60248201527f54696d654172656e613a206e6f7468696e6720746f20636c61696d00000000006044820152606490fd5b508115156137ba565b6064906040519062461bcd60e51b82526004820152601760248201527f54696d654172656e613a2065706f6368206163746976650000000000000000006044820152fd5b3461052557602036600319011261052557600435600481101561052557602090602e0154604051908152f35b34610525575f36600319011261052557602060405160c88152f35b3461052557602036600319011261052557600435600481101561052557602090601b0154604051908152f35b34610525576020366003190112610525576001600160a01b036139ed615af0565b165f526037602052602060405f2054604051908152f35b34610525575f36600319011261052557602060ff602954166040519015158152f35b34610525576020366003190112610525576001600160a01b03613a47615af0565b165f526035602052602060405f2054604051908152f35b34610525575f366003190112610525576048546040516001600160a01b039091168152602090f35b34610525575f366003190112610525577f00000000000000000000000000000000000000000000000000000000000000006001600160a01b03163003613af05760206040517f360894a13ba1a3210667c828492db98dca3e2076cc3735a920a3ca505d382bbc8152f35b60405163703e46dd60e11b8152600490fd5b3461052557604036600319011261052557613b1b615b06565b6004355f52603c60205260405f209060018060a01b03165f52602052602060405f2054604051908152f35b604036600319011261052557613b5a615af0565b60249081356001600160401b03918282116105255736602383011215610525578160040135928311613d5e5760209260405192613ba085601f19601f8501160185615bb1565b8184523686838301011161052557815f928787930183870137840101526001600160a01b037f00000000000000000000000000000000000000000000000000000000000000008116308114908115613d30575b50613af057613c006165f7565b6040516352d1902d60e01b8152908216938082600481885afa9182915f93613d00575b5050613c415750505060405190634c9c8ce360e01b82526004820152fd5b847f360894a13ba1a3210667c828492db98dca3e2076cc3735a920a3ca505d382bbc91828103613ceb5750823b15613cd5575080546001600160a01b03191684179055604051927fbc7cd75a20ee27fd9adebab32041f755214dbc6bffa90cc0225b39da2e5c2d3b5f80a2815115613cbd576105f392506181b0565b505034613cc657005b63b398979f60e01b8152600490fd5b604051634c9c8ce360e01b815260048101869052fd5b60405190632a87526960e21b82526004820152fd5b9080929350813d8311613d29575b613d188183615bb1565b810103126105255751908680613c23565b503d613d0e565b9050817f360894a13ba1a3210667c828492db98dca3e2076cc3735a920a3ca505d382bbc5416141586613bf3565b83634e487b7160e01b5f5260416004525ffd5b34610525575f366003190112610525576003546040516001600160a01b039091168152602090f35b346105255760208060031936011261052557600435613db66164ca565b801561411857613dcf602491610ecb6024541515615eda565b9060405190613ddd82615b7b565b608036833760405191613def83615b7b565b60803684375f93845b60ff86166004811015613e5757613e4e60ff926138af600193613e1a8761607c565b613e24828a615d30565b52613e2e876160e5565b613e38828c615d30565b52610954613e46828a615d30565b51918b615d30565b96011694613df8565b508684613e65879385615e7d565b80614101575b505f905f5b60ff811660048110156140c257613e878189615d30565b51613fb9575b613e978187615d30565b51613ea9575b5060010160ff16613e70565b60018054604051630b1feb5d60e41b815260048101849052939593916001600160a01b0391889084908890829086165afa928315610dd4575f93613f82575b50613efb825f5416846108ce878d615d30565b541690613f088389615d30565b5190823b1561052557604051639d3a8f0560e01b815260ff8816600482015260248101929092526001600160a01b03166044820152905f908290606490829084905af1928315610dd457610954600193613f6b9360ff96613f73575b5089615d30565b939150613e9d565b613f7c90615b4c565b8c613f64565b9092508781813d8311613fb2575b613f9a8183615bb1565b8101031261052557613fab90615f60565b918b613ee8565b503d613f90565b6001805460405163f87793ad60e01b8152600481018490529295916001600160a01b0391889085908890829086165afa938415610dd4575f9461408b575b5061400b8b856108ce8a865f541693615d30565b541691614018868b615d30565b5190833b1561052557604051636fdec13d60e11b815260ff8616600482015260248101929092526001600160a01b03166044820152915f908390606490829084905af1918215610dd4576140769261407c575b50610954858a615d30565b92613e8d565b61408590615b4c565b8961406b565b9093508781813d83116140bb575b6140a38183615bb1565b81010312610525576140b490615f60565b928b613ff7565b503d614099565b867f52a5e21a86b52f707474ded2848c3fa0264ea17c2ccf8b1b062ca4e0d69ae091866040519283523392a260015f80516020618b1a83398151915255005b61411060608501918251615d41565b905285613e6b565b60405162461bcd60e51b8152600481018390526016602482015275151a5b59505c995b984e881e995c9bc8185b5bdd5b9d60521b6044820152606490fd5b34610525575f366003190112610525576008546040516001600160a01b039091168152602090f35b34610525575f366003190112610525576041546040516001600160a01b039091168152602090f35b34610525575f366003190112610525576020600c54604051908152f35b34610525576020366003190112610525576004355f52603d602052602060405f2054604051908152f35b34610525575f366003190112610525576020611c4b615e8a565b34610525575f366003190112610525576004546040516001600160a01b039091168152602090f35b3461052557604036600319011261052557614248615af0565b614250615b06565b9060018060a01b038091165f52604660205260405f2091165f52602052602060405f2054604051908152f35b34610525575f36600319011261052557600a546040516001600160a01b039091168152602090f35b34610525575f366003190112610525576020602554604051908152f35b34610525575f3660031901126105255760206040516701529c1a82b791128152f35b34610525575f366003190112610525576142fb6165f7565b6024805461438f5742602455426007555f5b600460ff821610614353577f33789300e7043c21750457cc66f0c68d69dda90fedc0c70b1b6dcc38d16c94c56040602a54806025556024549082519182526020820152a1005b600481101561437b5760018161436f60ff936013015442615d41565b81602a0155011661430d565b50634e487b7160e01b5f9081526032600452fd5b60405162461bcd60e51b8152602060048201526012602482015271151a5b59505c995b984e881cdd185c9d195960721b6044820152606490fd5b34610525575f36600319011261052557602060405160968152f35b34610525576040366003190112610525576143fd615af0565b60243590811591821503610525576144136164ca565b61441b61662f565b614424336166cf565b6001600160a01b0381169182151580614927575b156148ea57825f52604360205260405f206201518042045f5260205260ff60405f20541690335f52604460205260405f206201518042045f5260205260ff60405f20541660038310918215926148de575b92829361449533616719565b936146e2575b506144a58561698a565b6144ae3361698a565b80151590816146c3575b816146ac575b501561466f576144ea90875f52604060205260405f205442105f146146645761ffff60645b1690616016565b94851561462757856144fb916169ba565b6145058533616a16565b6145116118363361698a565b60ff81106145f0575b5060ff81106145b9575b50620151804201804211610eb757845f52604560205260405f20335f5260205260405f2055835f52604660205260405f20335f5260205260405f2080549060018201809211610eb757556040519283526020830152151560408201527f042136b6a96765a35c274b83b749f460a4e39509a420c58544b27da617921fd860603392a360015f80516020618b1a83398151915255005b6145c290615e6b565b335f52604460205260405f206201518042045f5260205260ff60405f20911660ff1982541617905584614524565b6145f990615e6b565b855f52604360205260405f206201518042045f5260205260ff60405f20911660ff198254161790558561451a565b60405162461bcd60e51b815260206004820152601560248201527454696d654172656e613a20737465616c207a65726f60581b6044820152606490fd5b61ffff6103e86144e3565b60405162461bcd60e51b8152602060048201526015602482015274151a5b59505c995b984e881cdd19585b0818985b99605a1b6044820152606490fd5b600a8082029250820403610eb757811115886144be565b90506001600160ff1b0381168103610eb7578060011b821015906144b8565b9290926148a0575f546040516370a0823160e01b8152306004820152906001600160a01b0316602082602481845afa918215610dd4575f9261486c575b50604051906323b872dd60e01b5f523360045230602452690a968163f0a57b40000060445260205f60648180855af160015f5114811615614856575b826040525f606052156148415750505f546040516370a0823160e01b81523060048201529190602090839060249082906001600160a01b03165afa8015610dd4575f9061480d575b6147ad9250615e7d565b690a968163f0a57b40000081036147ce576147c791615d41565b918661449b565b60405162461bcd60e51b815260206004820152601760248201527654696d654172656e613a2045524332302070617269747960481b6044820152606490fd5b506020823d602011614839575b8161482760209383615bb1565b81010312610525576147ad91516147a3565b3d915061481a565b635274afe760e01b8252600482015260249150fd5b60018115166129c957813b15153d15161661475b565b9091506020813d602011614898575b8161488860209383615bb1565b810103126105255751908861471f565b3d915061487b565b60405162461bcd60e51b8152602060048201526016602482015275151a5b59505c995b984e881cdd19585b081b1a5b5a5d60521b6044820152606490fd5b60038210159250614489565b60405162461bcd60e51b815260206004820152601560248201527454696d654172656e613a206261642076696374696d60581b6044820152606490fd5b5033831415614438565b3461052557602036600319011261052557600435600481101561052557602090600f0154604051908152f35b34610525575f366003190112610525576020600754604051908152f35b34610525575f366003190112610525576020604051683ba1910bf341b000008152f35b34610525575f366003190112610525576020604051674563918244f400008152f35b34610525575f3660031901126105255760206040516154608152f35b34610525575f366003190112610525576020604254604051908152f35b34610525576020366003190112610525576004358015158091036105255760207f40db37ff5c0bdc2c427fbb2078c8f24afea940abac0e3c23bb4ea3bf2da2b21291614a426165f7565b60ff196029541660ff821617602955604051908152a1005b34610525576020806003193601126105255760043560ff8116810361052557614a8290615dff565b9091614a916040518094615b1c565b5f606084015b60038210614aa45760c085f35b82806001928651815201940191019092614a97565b34610525575f36600319011261052557602060405169021e19e0c9bab24000008152f35b34610525575f366003190112610525576020600d54604051908152f35b34610525575f366003190112610525576020600e54604051908152f35b34610525575f36600319011261052557602060405160fa8152f35b34610525575f366003190112610525576020602454604051908152f35b3461052557608036600319011261052557614b68615af0565b60643515156064350361052557614b7d6164ca565b6048546001600160a01b031633036153b557614b9761662f565b5f9060018060a01b0381165f526034602052614bb960405f20544210156164f9565b614bc460243561750b565b614bcc61757e565b614bfc614be2614bda615e8a565b6024356162b0565b604854336001600160a01b03909116036153af57336168a3565b91602654805f52603c60205260405f2060018060a01b0384165f5260205260405f20614c2b6024358254615d41565b9055805f52603d60205260405f20614c466024358254615d41565b90555f52603e60205260405f208054906801e5b8fa8fe2ac00008201809211610eb7575560018060a01b0382165f52603260205260405f20614c8b6024358254615d41565b9055614c9b602435602854615d41565b60285560443515158061539b575b6151b5575b80604051614cbb81615b7b565b608036823760405191614ccd83615b7b565b608036843760405193614cdf85615b7b565b6080368637815b600460ff82161015614d8157600160ff916003838216145f14614d7257614d5e614d52614d1a60038d165b8d60021c615d41565b614d2381616312565b614d2f8786168b615d30565b52614d398161635d565b614d458786168c615d30565b526107d68685168a615d30565b6107d68584168a615d30565b614d6a8483168a615d30565b520116614ce6565b614d5e614d52614d1a87614d11565b5094929092835b600460ff821610156151945760048110156151805780602e0154614daf60ff831686615d30565b51615061575b614dc260ff831685615d30565b51614f35575b614dd560ff831688615d30565b51614de7575b5060010160ff16614d88565b60015460405163c835e7e160e01b815260ff841660048201529298929190602090839060249082906001600160a01b03165afa918215610c37578792614ef9575b508654614e46906001600160a01b0316836108ce60ff8d168c615d30565b6001546001600160a01b031690600281018111614ee557614e6a60ff8b168a615d30565b5192823b15614ee157916002898c93614e9d829660405198899788968795636b03fb1560e11b87520190600486016175eb565b03925af180156109de57908691614ecd575b50506001614ec560ff92610954848b168a615d30565b979150614ddb565b614ed690615b4c565b610adb578489614eaf565b8880fd5b634e487b7160e01b88526011600452602488fd5b9091506020813d602011614f2d575b81614f1560209383615bb1565b81010312610c2b57614f2690615f60565b908a614e28565b3d9150614f08565b600154604051630b1feb5d60e41b815260ff8416600482015291989190602090829060249082906001600160a01b03165afa908115610c37578791615027575b508654614f93906001600160a01b0316826108ce60ff871689615d30565b600180546001600160a01b0316908a018a11614ee557614fb660ff851687615d30565b5190803b15614ee1579088916001838d614fe860405197889687958694636b03fb1560e11b8652018c600486016175eb565b03925af18015610c3757908791615013575b505061500d9061095460ff841686615d30565b96614dc8565b61501c90615b4c565b6109d257858a614ffa565b90506020813d602011615059575b8161504260209383615bb1565b81010312610c2b5761505390615f60565b8a614f75565b3d9150615035565b60015460405163f87793ad60e01b815260ff8416600482015291989190602090829060249082906001600160a01b03165afa908115610c37578791615146575b5086546150bf906001600160a01b0316826108ce60ff87168a615d30565b6001546001600160a01b03166150d860ff851688615d30565b51813b15614ee15791889161510793838d60405196879586948593636b03fb1560e11b85528c600486016175eb565b03925af18015610c3757908791615132575b505061512c9061095460ff841687615d30565b96614db5565b61513b90615b4c565b6109d257858a615119565b90506020813d602011615178575b8161516160209383615bb1565b81010312610c2b5761517290615f60565b8a6150a1565b3d9150615154565b634e487b7160e01b85526032600452602485fd5b610c7382896151a581602754615d41565b6027556064359160243590617618565b60035460405163711bf87960e01b8152604435600482015290602090829060249082906001600160a01b03165afa908115610dd4575f91615361575b506001600160a01b03811615610e24576001600160a01b0381811690841614610ddf576004546001600160a01b03168061522d575b5050614cae565b803b15610525576040516340c10f1960e01b81526001600160a01b0383166004820152674563918244f400006024820152905f908290604490829084905af18015610dd45761534e575b506004546001600160a01b0316803b1561534a576040516340c10f1960e01b81526001600160a01b0385166004820152674563918244f4000060248201529083908290604490829084905af1801561533f57908391615327575b505060408051674563918244f400008082526020820152604435926001600160a01b0390811692908616917ff9d0b7562a9415eece6e30788862682d80ece5bab11cc3abd284aac45641ccf69190a48380615226565b61533090615b4c565b61533b5781856152d1565b5080fd5b6040513d85823e3d90fd5b8280fd5b615359919250615b4c565b5f9084615277565b90506020813d602011615393575b8161537c60209383615bb1565b810103126105255761538d90615f60565b846151f1565b3d915061536f565b506003546001600160a01b03161515614ca9565b826168a3565b60405162461bcd60e51b81526020600482015260156024820152742a34b6b2a0b932b7309d103737ba103937baba32b960591b6044820152606490fd5b34610525576020366003190112610525576001600160a01b03615413615af0565b165f526038602052602060405f2054604051908152f35b34610525575f36600319011261052557602060405160018152f35b346105255760403660031901126105255761545e615af0565b611c4b60243591825f52602092603f845260405f209160018060a01b031691825f52845260405f205491815f52603c855260405f20905f52845260405f2054905f52603d845260405f20545f91801515806154da575b6154c0575b5050615d41565b6154d39250603e865260405f205461641c565b84806154b9565b508115156154b4565b3461052557610360366003190112610525576004356001600160a01b0381168103610525576024356001600160a01b038116810361052557615523615ac4565b9161552c615ada565b90366101241161052557366101a41161052557366102241161052557366102a411610525576103249036821161052557610344356001600160a01b0381169003610525575f80516020618b3a83398151915254926001600160401b0384161580615ab6575b60016001600160401b038616149081615aac575b159081615aa3575b50615a925760016001600160401b03198516175f80516020618b3a8339815191525560ff8460401c1615615a66575b6155e46174dd565b6155ec6174dd565b6155f861034435615fa5565b6001600160a01b03821615615a2a576001600160a01b038516156159ec576156236084351515615c8e565b8235156159a7575f5b60ff811660048110156158475761564281615cd2565b35156157f35761565181615ce4565b35156157a25761566081615cf7565b3561566a82615ce4565b351161574f5761567981615d0a565b3561568382615d1d565b3511156156ff5761569d61569682615d1d565b3591615cf7565b35106156ae5760010160ff1661562c565b60405162461bcd60e51b815260206004820152602360248201527f4172656e61506f6469756d54696d6572436f6e6669673a207265736574203e2060448201526206361760ec1b6064820152608490fd5b60405162461bcd60e51b815260206004820152602260248201527f4172656e61506f6469756d54696d6572436f6e6669673a2072657365742062616044820152611b9960f21b6064820152608490fd5b60405162461bcd60e51b815260206004820152602560248201527f4172656e61506f6469756d54696d6572436f6e6669673a20636170203c20696e6044820152641a5d1a585b60da1b6064820152608490fd5b60405162461bcd60e51b8152602060048201526024808201527f4172656e61506f6469756d54696d6572436f6e6669673a207a65726f20696e696044820152631d1a585b60e21b6064820152608490fd5b60405162461bcd60e51b815260206004820152602660248201527f4172656e61506f6469756d54696d6572436f6e6669673a207a65726f2065787460448201526532b739b4b7b760d11b6064820152608490fd5b50505f80546001600160a01b03199081166001600160a01b039485161790915560018054821684881617905591861680615998575b506001600160a01b03169081615989575b50506084356005556084356006555f5b60ff8116600481101561590b576158b381615cd2565b35916004811015611571576158fe60019260ff9483600f01556158d581615ce4565b3583601301556158e481615cf7565b3583601701556158f381615d0a565b3583601b0155615d1d565b3581601f0155011661589d565b60ff848460a435600c5561012435600d556101a435600e553560235560401c161561593257005b68ff0000000000000000195f80516020618b3a83398151915254165f80516020618b3a833981519152557fc7f505b2f371ae2175ee4913f4499e1f2633a7b5936321eed1cdaeb6115181d2602060405160018152a1005b6004541617600455828061588d565b8260035416176003558461587c565b60405162461bcd60e51b815260206004820152601860248201527f54696d654172656e613a207a65726f20636f6f6c646f776e00000000000000006044820152606490fd5b60405162461bcd60e51b815260206004820152601660248201527554696d654172656e613a207a65726f207661756c747360501b6044820152606490fd5b60405162461bcd60e51b81526020600482015260146024820152732a34b6b2a0b932b7309d103d32b937903237bab160611b6044820152606490fd5b68ffffffffffffffffff19841668010000000000000001175f80516020618b3a833981519152556155dc565b63f92ee8a960e01b60805260046080fd5b905015876155ad565b303b1591506155a5565b5060ff8460401c1615615591565b604435906001600160a01b038216820361052557565b606435906001600160a01b038216820361052557565b600435906001600160a01b038216820361052557565b602435906001600160a01b038216820361052557565b5f915b60038310615b2c57505050565b81516001600160a01b031681526001929092019160209182019101615b1f565b6001600160401b0381116120f557604052565b6101a081019081106001600160401b038211176120f557604052565b608081019081106001600160401b038211176120f557604052565b606081019081106001600160401b038211176120f557604052565b90601f801991011681019081106001600160401b038211176120f557604052565b34610525575f366003190112610525576020604051683635c9adc5dea000008152f35b34610525575f366003190112610525576020604051620151808152f35b34610525576020366003190112610525576020611c4b615c30615af0565b617435565b91908251928382525f5b848110615c5f575050825f602080949584010152601f8019910116010190565b602081830181015184830182015201615c3f565b34610525575f36600319011261052557602060405160038152f35b15615c9557565b60405162461bcd60e51b815260206004820152601560248201527454696d654172656e613a207a65726f20707269636560581b6044820152606490fd5b60048110156115715760051b60a40190565b60048110156115715760051b6101240190565b60048110156115715760051b6101a40190565b60048110156115715760051b6102240190565b60048110156115715760051b6102a40190565b9060048110156115715760051b0190565b91908201809211610eb757565b15615d5557565b60405162461bcd60e51b8152602060048201526012602482015271151a5b59505c995b984e881898590818d85d60721b6044820152606490fd5b60405191905f835b60038210615dad57505050615dab82615b96565b565b82546001600160a01b031681526001928301929190910190602001615d97565b60405191905f835b60038210615de957505050615dab82615b96565b6001602081928554815201930191019091615dd5565b6060604051615e0d81615b96565b3690376060604051615e1e81615b96565b36903760ff8116615e3160048210615d4e565b15615e5e5760048110156115715760060290615e5b604c615e5484604901615d8f565b9301615dcd565b90565b50615e67616554565b9091565b60ff60019116019060ff8211610eb757565b91908203918211610eb757565b6006548015615ed1575b8015615ecc5760075480158015615ec2575b615ebe5790615eb8615e5b9242615e7d565b90617dd2565b5090565b5080421115615ea6565b505f90565b50600554615e94565b15615ee157565b60405162461bcd60e51b8152602060048201526016602482015275151a5b59505c995b984e881b9bdd081cdd185c9d195960521b6044820152606490fd5b15615f2657565b60405162461bcd60e51b8152602060048201526012602482015271151a5b59505c995b984e881b9bc818dc995960721b6044820152606490fd5b51906001600160a01b038216820361052557565b615f7c616df6565b615f9257615e5b90615f8c615e8a565b906162b0565b615e5b90615f9e616e41565b50906162b0565b6001600160a01b03908116908115615ffe575f80516020618aba83398151915280546001600160a01b031981168417909155167f8be0079c531659141344cd1fd0a4f28419497f9722a3daafe3b4186f6b6457e05f80a3565b604051631e4fbdf760e01b81525f6004820152602490fd5b905f198183098183029182808310920391808303921461607157612710908282111561605f575f80516020618ada833981519152940990828211900360fc1b910360041c170290565b634e487b715f5260116020526024601cfd5b505061271091500490565b6103e85f19818309818302918280831092039180830392146160da57611b58908282111561605f577faadc994eb3a38c2447632e84d3d25bde0fcc81e6d6bf577a9661b807058f1143940990828211900360fd1b910360031c170290565b5050611b5891500490565b6102ee5f19818309818302918280831092039180830392146160da57611b58908282111561605f577faadc994eb3a38c2447632e84d3d25bde0fcc81e6d6bf577a9661b807058f1143940990828211900360fd1b910360031c170290565b68056bc75e2d631000005f19818309818302918280831092039180830392146161ae57670de0b6b3a7640000908282111561605f577faccb18165bd6fe31ae1cf318dc5b51eee0e1ba569b88cd74c1773b91fac10669940990828211900360ee1b910360121c170290565b5050670de0b6b3a764000091500490565b5f19600482098160021b9081808210910381811461620d57036007111561605f57600760047f6db6db6db6db6db6db6db6db6db6db6db6db6db6db6db6db6db6db6db6db6db7930990030290565b5050600791500490565b5f19600282098160011b9081808210910381811461620d57036007111561605f57600760027f6db6db6db6db6db6db6db6db6db6db6db6db6db6db6db6db6db6db6db6db6db7930990030290565b6103e85f198183098183029182808310920391808303921461607157612710908282111561605f575f80516020618ada833981519152940990828211900360fc1b910360041c170290565b905f19818309818302918280831092039180830392146161ae57670de0b6b3a7640000908282111561605f577faccb18165bd6fe31ae1cf318dc5b51eee0e1ba569b88cd74c1773b91fac10669940990828211900360ee1b910360121c170290565b611b585f198183098183029182808310920391808303921461607157612710908282111561605f575f80516020618ada833981519152940990828211900360fc1b910360041c170290565b6107d05f198183098183029182808310920391808303921461607157612710908282111561605f575f80516020618ada833981519152940990828211900360fc1b910360041c170290565b5f1960098209600982029081808210910390808203911461640c57677d09f343524500008181111561605f5760097fdd0436efdb56a870304d849d3ea7e5938e5663378900f45e71e7bf736dcff08d940990828211900360f01b910360101c170290565b50677d09f3435245000091500490565b90915f1983830992808302928380861095039480860395146164a857848311156164905790829109815f038216809204600280826003021880830282030280830282030280830282030280830282030280830282030280920290030293600183805f03040190848311900302920304170290565b82634e487b715f52156003026011186020526024601cfd5b5050809250156164b6570490565b634e487b7160e01b5f52601260045260245ffd5b5f80516020618b1a83398151915260028154146164e75760029055565b604051633ee5aeb560e01b8152600490fd5b1561650057565b60405162461bcd60e51b815260206004820152601760248201527f54696d654172656e613a2062757920636f6f6c646f776e0000000000000000006044820152606490fd5b60038210156115715701905f90565b60405161656081615b96565b606036823780916040519161657483615b96565b606036843760645460ff16836003808310156115715760618301546001600160a01b039081168552926002810160ff8111610eb75760ff839116069082821015611571576165d060ff9186859460610154166020890152615e6b565b16069381851015611571576040809460019660610154169101528152600260208201520152565b5f80516020618aba833981519152546001600160a01b0316330361661757565b60405163118cdaa760e01b8152336004820152602490fd5b61663c6024541515615eda565b60ff6029541661669657602554421161665157565b60405162461bcd60e51b815260206004820152601860248201527f54696d654172656e613a2074696d6572206578706972656400000000000000006044820152606490fd5b60405162461bcd60e51b8152602060048201526011602482015270151a5b59505c995b984e881c185d5cd959607a1b6044820152606490fd5b6166da600491617435565b106166e157565b60405162461bcd60e51b815260206004820152601060248201526f151a5b59505c995b984e881b195d995b60821b6044820152606490fd5b5f54604080516370a0823160e01b8082523060048301526001600160a01b0393841695946020949192919085836024818b5afa928315616899575f9361686a575b50818551916323b872dd60e01b5f521660045230602452683635c9adc5dea000009788604452865f60648180855af160015f5114811615616854575b8287525f6060521561484157505084905f541692602485518095819382523060048301525afa801561684a575f9061681b575b6167d39250615e7d565b9384036167de575050565b60649250519062461bcd60e51b82526004820152601760248201527654696d654172656e613a2045524332302070617269747960481b6044820152fd5b508382813d8311616843575b6168318183615bb1565b81010312610525576167d391516167c9565b503d616827565b83513d5f823e3d90fd5b60018115166129c957813b15153d151616616796565b9092508581813d8311616892575b6168828183615bb1565b810103126105255751915f61675a565b503d616878565b85513d5f823e3d90fd5b5f54604080516370a0823160e01b808252306004830152949594602094929390926001600160a01b039182168684602481845afa938415616980575f94616951575b50828651926323b872dd60e01b5f52166004523060245288604452865f60648180855af160015f5114811615616854578287525f6060521561484157505084905f541692602485518095819382523060048301525afa801561684a575f9061681b576167d39250615e7d565b9093508681813d8311616979575b6169698183615bb1565b810103126105255751925f6168e5565b503d61695f565b86513d5f823e3d90fd5b6001600160a01b03165f908152603b6020526040902054603a54036169b657603960205260405f205490565b5f90565b6001600160a01b03165f818152603b6020526040902054603a5491929103616a1257603960205260405f208054909190808210616a03575050505f5260396020525f6040812055565b616a0e929350615e7d565b9055565b5050565b6001600160a01b03165f908152603b6020526040902054603a5403616a4a575b6039602052616a0e60405f20918254615d41565b60396020525f6040812055603a54603b60205260405f2055616a36565b91905f5b60038060ff83161015616ac35781101561157157605b8101546001600160a01b03858116911614616aa15760010160ff16616a6b565b90919250605e0180548211616abb575b5050615dab617b2d565b555f80616ab1565b50505f5b60038060ff83161015616b43578110158061157157605b8201805490916001600160a01b0390818316158015616b34575b616b0b575050505060010160ff16616ac7565b96909192939495966115715716906001600160601b0360a01b16179055605e0155615dab617b2d565b50505f84605e01548611616af8565b5050509050565b91905f5b60038060ff83161015616ba6578110156115715760498101546001600160a01b03858116911614616b845760010160ff16616b4e565b90919250604c0180548211616b9e575b5050615dab617bda565b555f80616b94565b50505f5b60038060ff83161015616b4357811015806115715760498201805490916001600160a01b0390818316158015616c17575b616bee575050505060010160ff16616baa565b96909192939495966115715716906001600160601b0360a01b16179055604c0155615dab617bda565b50505f84604c01548611616bdb565b91905f5b60038060ff83161015616c825781101561157157604f8101546001600160a01b03858116911614616c605760010160ff16616c2a565b9091925060520180548211616c7a575b5050615dab617c82565b555f80616c70565b50505f5b60038060ff83161015616b43578110158061157157604f8201805490916001600160a01b0390818316158015616cf3575b616cca575050505060010160ff16616c86565b96909192939495966115715716906001600160601b0360a01b1617905560520155615dab617c82565b50505f84605201548611616cb7565b91905f5b60038060ff83161015616d5e578110156115715760558101546001600160a01b03858116911614616d3c5760010160ff16616d06565b9091925060580180548211616d56575b5050615dab617d2a565b555f80616d4c565b50505f5b60038060ff83161015616b4357811015806115715760558201805490916001600160a01b0390818316158015616dcf575b616da6575050505060010160ff16616d62565b96909192939495966115715716906001600160601b0360a01b1617905560580155615dab617d2a565b50505f84605801548611616d93565b616de9811515615c8e565b8060065542600755600555565b602454156169b65760255442811115616e1b57616e14904290615e7d565b601b541190565b505f616e14565b51908160020b820361052557565b519063ffffffff8216820361052557565b6008546001600160a01b031680151580617421575b61719b57506110e64614616e7c576006548015616e73575b905f90565b50600554616e6e565b60405190616e8982615b5f565b5f82525f60208301525f60408301525f60608301525f60808301525f60a08301525f60c08301525f60e08301526101005f81840152610120925f848201525f6101408201525f6101608201525f6101808092015260405193616eea85615b5f565b7368b34591f662508076927803c567cc8006988a09855273c3654b4f879937b767afbb64b7c230ff436d2342602086015273fbaa45a537cf07dc768c469ffac4e88208b0098d60408601526006602160991b01606086015273fafddbb3fc7688494971a79cc65dca3ef82079e76080860152606460a0860152606460c0860152610bb860e0860152610384838601526002818601526101f46101408601526402540be400610160860152670de0b6b3a764000082860152816040519563430f98b560e11b875260018060a01b03815116600488015260018060a01b03602082015116602488015260018060a01b03604082015116604488015260018060a01b03606082015116606488015260018060a01b03608082015116608488015260a081015162ffffff80911660a48901528060c08301511660c489015260e08201511660e488015263ffffffff85820151166101048801528281015161ffff8091166101248901526101408201511661014488015261016081015161016488015201516101848601526101a09485816101a48173__$b882982f266aaed32c18d167b980e065d1$__5af4958615610dd4575f966170ae575b50505050506020820151915190565b9080929394959650813d8311617194575b6170c98183615bb1565b81010312610525578291604051946170e086615b5f565b8251865260208301516020870152604083015160408701526060830151606087015261710e60808401615f60565b608087015261711f60a08401615f60565b60a087015261713060c08401615f60565b60c087015261714160e08401616e22565b60e0870152617151818401616e22565b90860152617160818301616e22565b908501526171716101408201616e30565b610140850152610160810151610160850152015190820152905f8080808061709f565b503d6170bf565b90617234915f54905f60095492600a5492600b54946040958651936020966001600160601b03199384809360601b168988015282601960ea1b918260348a015260601b166037880152604b87015260601b16604e85015261017760eb1b606285015260601b1660658301526059825261721382615b7b565b84518080988194632f80bb1d60e01b83528860048401526044830190615c35565b670de0b6b3a7640000602483015203915afa938415617417575f9461730a575b5083156172c957836ec097ce7bc90715b34b9f10000000000491821561727a5750509190565b60849250519062461bcd60e51b82526004820152602360248201527f416e76696c4b756d62617961506f6f6c733a207a65726f20636861726d20707260448201526269636560e81b6064820152fd5b606491519062461bcd60e51b825280600483015260248201527f416e76696c4b756d62617961506f6f6c733a207a65726f20646f7562205553446044820152fd5b9093503d805f833e61731c8183615bb1565b81016080828203126105255781519185810151906001600160401b039182811161052557810183601f82011215610525578051888061735a83617e03565b6173668a519182615bb1565b838152019160051b83010191858311610525578901905b8282106173f85750505084810151918211610525570181601f8201121561052557805186806173ab83617e03565b6173b788519182615bb1565b838152019160051b8301019283116105255786809201905b8382106173e15750505050925f617254565b8280916173ed84616e30565b8152019101906173cf565b81516001600160a01b038116810361052557815290890190890161737d565b82513d5f823e3d90fd5b506009546001600160a01b03161515616e56565b6001600160a01b03165f9081526067602052604090205480617464575060015b6005811115615e5b5750600590565b617455565b1561747057565b60405162461bcd60e51b815260206004820152600e60248201526d105c995b98561c0e881b195d995b60921b6044820152606490fd5b6174b36001821015617469565b60058110156174d7576174c590617e1a565b90808211156174d757615e5b91615e7d565b50505f90565b60ff5f80516020618b3a8339815191525460401c16156174f957565b604051631afcd79f60e31b8152600490fd5b670dbd2fc137a30000811015908161756b575b501561752657565b60405162461bcd60e51b815260206004820152601760248201527f54696d654172656e613a20636861726d20626f756e64730000000000000000006044820152606490fd5b678ac7230489e80000915011155f61751e565b617586616df6565b15615dab57617593616e41565b9060265460018101809111610eb7577fc82c1be3df4b5a2413e4fc3b511951c25fc315ec7bfe8a749cb80aab299bef7c916060916026556175d381616dde565b602654936040519182526020820152426040820152a2565b60ff9091168152602081019190915260408101919091526001600160a01b03909116606082015260800190565b92919260018060a01b0380821694855f5260209060338252604095865f2094855480159660018201809211610eb757556065549160018301809311610eb757889260655561766860235442615d41565b8a5f5260348652835f20556025544281115f14617b26576176894282615e7d565b905b6176a3600f54601754601b5490601f54924286617ede565b9990806025558a81602a55617af4575b5080617ae7575b617a7a575b6025549080821115617a71576176d491615e7d565b965b8b5f5260678752845f20548015617a69575b8c6176f28c617f6f565b815f5260388a52875f208181549061770991615d41565b9055815f5260688a5280885f2054906177229185617fbf565b909e908f90845f5260678d5281835f205560688d52825f205581519283528b8301527f681e93ec66a1e7f0d504acc55cc0b0c0ee2546b290190ccdeb1e90e83ecec97691a28c8c898382116179ec575b505050506064549060ff60038161778a818616615e6b565b160616809260ff1916176064556003821015611571578c91606101906001600160601b0360a01b918383825416179055825f52603389526177ce875f205487616b4a565b60028d10156179ae575b60038d10156178f1575b50505060048a101561785b575b50906101009796959493929160055f80516020618afa8339815191529a101561784b575b505060255490602754926065549482519889528801528601526060850152608084015260a0830152151560c08201525f60e0820152a2565b617854916180d4565b5f80617813565b9887996178666180b3565b60fa9a6178e7575b601e116178be575b906005839261789c5f80516020618afa8339815191529c6101009c9b9a99989796616a16565b6178ae6178a88561698a565b85616a67565b9a505090919293949596976177ef565b979695949392919060968a01809a11610eb7576005610100999192939495969798995050617876565b6102ee9a5061786e565b6178f9618092565b610384841080806179a5575b1561798c575060665416820361797257505f5260378652835f2080549060018201809211610eb757555b8a5f5260378652835f205460368752845f20541061795d575b617955845f205484616d02565b8a5f806177e2565b60378652835f205460368752845f2055617948565b815f52603788526001865f2055606654161760665561792f565b92505050617955578a5f52603786525f84812055617955565b508a1515617905565b6179b6618071565b89156177d857825f5260358952865f206179d18b8254615d41565b9055825f52603589526179e7875f205487616c26565b6177d8565b7f91e51c29e7e87a74ad3b8ccba98538970f50a4309242735467f41e27c6b0fbac918951908152a260018101809111610eb7575b8b811115617a30578c8c89617772565b8c7f33879b70e72ce48a1e1cce36586491ae9b0074bc1f86d5ad80da33bbed5bbce2898851848152a25f198114610eb757600101617a20565b5060016176e8565b50505f966176d6565b6026546001810195508510610eb757845f52603f87528a5f208c5f5287528a5f20948554683ba1910bf341b0000090818101809111610eb757898f928f99927f135d669544c1a460dd7b5f82c47189c86898c39919d3f604f6d023b68c9849fd93558951908152a36176bf565b50876004541615156176ba565b7f0b161138d65ee8419c59f82b310d2368e3bab076a225062e56c275fde662599389602654928951908152a25f6176b3565b5f9061768b565b5f5b60ff9160028383161015617bd557617b4682615e6b565b5b600390818582161015617bc5578181101561157157605e90808201805493861015611571578693866001940190815410617b85575b50500116617b47565b605b83810180549189878060a01b0391019281845416926001600160601b0360a01b93848316179055169082541617905581549181549055555f80617b7c565b50509150600160ff910116617b2f565b915050565b5f5b60ff9160028383161015617bd557617bf382615e6b565b5b600390818582161015617c72578181101561157157604c90808201805493861015611571578693866001940190815410617c32575b50500116617bf4565b604983810180549189878060a01b0391019281845416926001600160601b0360a01b93848316179055169082541617905581549181549055555f80617c29565b50509150600160ff910116617bdc565b5f5b60ff9160028383161015617bd557617c9b82615e6b565b5b600390818582161015617d1a578181101561157157605290808201805493861015611571578693866001940190815410617cda575b50500116617c9c565b604f83810180549189878060a01b0391019281845416926001600160601b0360a01b93848316179055169082541617905581549181549055555f80617cd1565b50509150600160ff910116617c84565b5f5b60ff9160028383161015617bd557617d4382615e6b565b5b600390818582161015617dc2578181101561157157605890808201805493861015611571578693866001940190815410617d82575b50500116617d44565b605583810180549189878060a01b0391019281845416926001600160601b0360a01b93848316179055169082541617905581549181549055555f80617d79565b50509150600160ff910116617d2c565b8115617dfe576701529c1a82b791129180830292830403610eb757615f8c62015180615e5b930461815a565b905090565b6001600160401b0381116120f55760051b60200190565b8015617e5a575f198101908111610eb757600581029080820460051490151715610eb757600a0180600a11610eb75760648111617e545790565b50606490565b50600a90565b60405163a9059cbb60e01b5f9081526001600160a01b039384166004526024949094529260209060448180855af160015f5114811615617ebf575b8360405215617ea957505050565b635274afe760e01b835216600482015260249150fd5b6001811516617ed557813b15153d151616617e9b565b833d5f823e3d90fd5b91949093848311918215617f6857617ef68685615e7d565b915b617f028688615d41565b9210617f4157505093617f1f91617f2594955f14617f3a57615d41565b92615d41565b80821015617f335750905f90565b9050616e6e565b5084615d41565b935094505050617f5091615d41565b9080821015617f6157505b90600190565b9050617f5b565b5f91617ef8565b670dbd2fc137a30000811115617fb957678ac7230489e80000811015617e5a57670dbd2fc137a2ffff198101908111610eb757617fab906163a8565b60010180600111610eb75790565b50600190565b929092600192617fd26001831015617469565b600591828110156180675790617fe89195615d41565b92805f915b618006575b505080841015617fff5750565b92505f9150565b9094938286108061805e575b156180575761802085617e1a565b9081811061804f579061803291615e7d565b93818101809111610eb75794818101809111610eb7579080617fed565b949550617ff2565b9394617ff2565b50828510618012565b509093505f925050565b61808c602b54601054601854601c5491602054934290617ede565b50602b55565b6180ad602c54601154601954601d5491602154934290617ede565b50602c55565b6180ce602d54601254601a54601e5491602254934290617ede565b50602d55565b9061811f57604154906001600160a01b038083168015159290919083618112575b5050506180ff5750565b6001600160a01b0319166041555f604255565b16141590505f80806180f5565b60018060a01b03166001600160601b0360a01b604154161760415542604255565b80156164b6576ec097ce7bc90715b34b9f10000000000590565b68023f2fa8f6da5b9d31198112615ecc57680736ea4425c11ac630811361819857670de0b6b3a76400006714057b7ef767814f615e5b920205618241565b6024906040519063ca7ec0c560e01b82526004820152fd5b905f8091602081519101845af4808061822e575b156181e45750506040513d81523d5f602083013e60203d82010160405290565b1561820b57604051639996b31560e01b81526001600160a01b039091166004820152602490fd5b3d1561821c576040513d5f823e3d90fd5b60405163d6bda27560e01b8152600490fd5b503d1515806181c45750813b15156181c4565b5f81121561826e5768033dd1780914b97114198112615ecc57618265905f03618241565b615e5b90618140565b680a688906bd8affffff8113618aa257670de0b6b3a764000080604092831b0590600160bf1b67ff000000000000008316618991575b66ff0000000000008316618889575b65ff00000000008316618789575b64ff000000008316618691575b63ff00000083166185a1575b62ff000083166184b9575b61ff0083166183d9575b60ff8316618302575b02911c60bf031c90565b608083166183c7575b8383166183b5575b602083166183a3575b60108316618391575b6008831661837f575b6004831661836d575b6002831661835b575b60018316156182f8576801000000000000000102831c6182f8565b6801000000000000000102831c618340565b6801000000000000000302831c618337565b6801000000000000000602831c61832e565b6801000000000000000b02831c618325565b6801000000000000001602831c61831c565b6801000000000000002c02831c618313565b6801000000000000005902831c61830b565b61800083166184a7575b6140008316618495575b6120008316618483575b6110008316618471575b610800831661845f575b610400831661844d575b610200831661843b575b6101008316156182ef57680100000000000000b102831c6182ef565b6801000000000000016302831c61841f565b680100000000000002c602831c618415565b6801000000000000058c02831c61840b565b68010000000000000b1702831c618401565b6801000000000000162e02831c6183f7565b68010000000000002c5d02831c6183ed565b680100000000000058b902831c6183e3565b62800000831661858f575b62400000831661857d575b62200000831661856b575b621000008316618559575b620800008316618547575b620400008316618535575b620200008316618523575b620100008316156182e5576801000000000000b17202831c6182e5565b680100000000000162e402831c618506565b6801000000000002c5c802831c6184fb565b68010000000000058b9102831c6184f0565b680100000000000b172102831c6184e5565b68010000000000162e4302831c6184da565b680100000000002c5c8602831c6184cf565b6801000000000058b90c02831c6184c4565b6380000000831661867f575b6340000000831661866d575b6320000000831661865b575b63100000008316618649575b63080000008316618637575b63040000008316618625575b63020000008316618613575b63010000008316156182da5768010000000000b1721802831c6182da565b6801000000000162e43002831c6185f5565b68010000000002c5c86002831c6185e9565b680100000000058b90c002831c6185dd565b6801000000000b17217f02831c6185d1565b680100000000162e42ff02831c6185c5565b6801000000002c5c85fe02831c6185b9565b68010000000058b90bfc02831c6185ad565b6480000000008316618777575b6440000000008316618765575b6420000000008316618753575b6410000000008316618741575b640800000000831661872f575b640400000000831661871d575b640200000000831661870b575b6401000000008316156182ce57680100000000b17217f802831c6182ce565b68010000000162e42ff102831c6186ec565b680100000002c5c85fe302831c6186df565b6801000000058b90bfce02831c6186d2565b68010000000b17217fbb02831c6186c5565b6801000000162e42fff002831c6186b8565b68010000002c5c8601cc02831c6186ab565b680100000058b90c0b4902831c61869e565b658000000000008316618877575b654000000000008316618865575b652000000000008316618853575b651000000000008316618841575b65080000000000831661882f575b65040000000000831661881d575b65020000000000831661880b575b650100000000008316156182c1576801000000b17218355102831c6182c1565b680100000162e430e5a202831c6187eb565b6801000002c5c863b73f02831c6187dd565b68010000058b90cf1e6e02831c6187cf565b680100000b1721bcfc9a02831c6187c1565b68010000162e43f4f83102831c6187b3565b680100002c5c89d5ec6d02831c6187a5565b6801000058b91b5bc9ae02831c618797565b6680000000000000831661897f575b6640000000000000831661896d575b6620000000000000831661895b575b66100000000000008316618949575b66080000000000008316618937575b66040000000000008316618925575b66020000000000008316618913575b66010000000000008316156182b35768010000b17255775c0402831c6182b3565b6801000162e525ee054702831c6188f2565b68010002c5cc37da949202831c6188e3565b680100058ba01fb9f96d02831c6188d4565b6801000b175effdc76ba02831c6188c5565b680100162f3904051fa102831c6188b6565b6801002c605e2e8cec5002831c6188a7565b68010058c86da1c09ea202831c618898565b6780000000000000008316618a8f575b6740000000000000008316618a7d575b6720000000000000008316618a6b575b6710000000000000008316618a59575b6708000000000000008316618a47575b6704000000000000008316618a35575b6702000000000000008316618a23575b6701000000000000008316156182a457680100b1afa5abcbed6102831c6182a4565b68010163da9fb33356d802831c618a01565b680102c9a3e778060ee702831c6189f1565b6801059b0d31585743ae02831c6189e1565b68010b5586cf9890f62a02831c6189d1565b6801172b83c7d517adce02831c6189c1565b6801306fe0a31b7152df02831c6189b1565b5068016a09e667f3bcc909607f1b6189a1565b60249060405190626c1a0560e31b82526004820152fdfe9016d09d72d40fdae2fd8ceac6b6234c7706214fd39c1cd1e609a0528c199300bc01a36e2eb1c432ca57a786c226809d495182a9930be0ded288ce703afb7e91baf9a64575edd1ebb4308874e8680288c787f6741d8edc4d66ce61418bad169b9b779b17422d0df92223018b32b4d1fa46e071723d6817e2486d003becc55f00f0c57e16840df040f15088dc2f81fe391c3923bec73e23a9662efc9c229c6a00a26469706673582212201b8ee70877980ceb57c8421500fab76571088280f9e2d2a82e6d40eb5211cb8864736f6c63430008180033","linkReferences":{"src/oracle/ArenaCharmPriceTwap.sol":{"ArenaCharmPriceTwap":[{"start":29046,"length":20}]}}},"methodIdentifiers":{"CAT_DEFENDED_STREAK()":"90c25e9f","CAT_LAST_BUYERS()":"f3181a5d","CAT_TIME_BOOSTER()":"0458a6a2","CAT_WARBOW()":"c364fb8d","CHARM_GROWTH_RATE_WAD()":"284e008c","CRED_PER_BUY()":"795ce9cd","CRED_PER_CHARM_WAD()":"d06fec83","DEFENDED_STREAK_WINDOW_SEC()":"c3f95f78","FIRST_BUY_CRED_BONUS()":"2128c5bf","NUM_PODIUM_CATEGORIES()":"b5b52a41","ONBOARDING_STARTER_CHARM_WAD()":"e01cb4f6","REFERRAL_CRED_FLAT_WAD()":"1f5e9f48","SECONDS_PER_DAY()":"74f0314f","UPGRADE_INTERFACE_VERSION()":"ad3cb1cc","WARBOW_AMBUSH_BONUS_BP()":"63e17058","WARBOW_BASE_BUY_BP()":"0bdf1344","WARBOW_CLUTCH_BONUS_BP()":"241a67ea","WARBOW_FLAG_CLAIM_BP()":"f0d77b70","WARBOW_FLAG_SILENCE_SEC()":"febc020f","WARBOW_GUARD_DOUB()":"13daca84","WARBOW_GUARD_DURATION_SEC()":"1bb303da","WARBOW_MAX_STEALS_PER_DAY()":"d2e0218f","WARBOW_REVENGE_DOUB()":"a964525a","WARBOW_REVENGE_WINDOW_SEC()":"93b994ba","WARBOW_STEAL_DOUB()":"534b34d5","WARBOW_STEAL_DRAIN_BPS()":"cf0f8764","WARBOW_STEAL_DRAIN_GUARDED_BPS()":"fbe69531","WARBOW_STEAL_LIMIT_BYPASS_DOUB()":"bb4a1915","WARBOW_STREAK_BREAK_MULT_BP()":"db4ddd30","WARBOW_TIMER_RESET_BONUS_BP()":"a57467ca","activeDefendedStreak(address)":"5d385f88","arenaStart()":"07f28715","battlePoints(address)":"b210d9f2","battlePointsGeneration(address)":"b05b7a9a","bestDefendedStreak(address)":"875f2916","buy(uint256)":"d96a094a","buy(uint256,bytes32)":"e9fca283","buyCooldownSec()":"b9a5684f","buyCount(address)":"9fefe7f4","buyFor(address,uint256,bytes32,bool)":"079110e4","buyWithCred(uint256)":"6d7121e8","charmAnchorCl8y()":"861a2439","charmAnchorKumbayaRouter()":"46cd2589","charmAnchorUsdm()":"6c47f869","charmAnchorWeth()":"2bed1022","charmPriceWad()":"e88f9001","charmWeight(address)":"e3b2ce01","claimCred(uint256)":"66b18087","claimWarBowFlag()":"b6f34499","deadline()":"29dcb0cf","doub()":"8e9a6122","doubOwedForBuy(uint256)":"9b26a0e3","effectiveCharmPriceWad()":"3d0f201d","epochAnchorTimestamp()":"215eb1fb","epochCharmAnchorWad()":"d877e858","epochCharmTotal(uint256)":"429dbb15","epochCharmWad(uint256,address)":"4f70a2f9","epochCredPool(uint256)":"87257c25","epochFixedCredBonus(uint256,address)":"c71d0719","finalizeWarbowPodium(uint256,address,address,address)":"6fa1cba7","grandfatherProgression(address[])":"d5fa9aed","initialTimerSec()":"12407d45","initialize(address,address,address,address,uint256,uint256[4],uint256[4],uint256[4],uint256[4],uint256[4],uint256,address)":"009d0d63","lastBuyEpoch()":"6a9ea067","lastBuyers()":"f3a6915d","level(address)":"d41b6db6","nextBuyAllowedAt(address)":"a9b2424e","owner()":"8da5cb5b","paused()":"5c975abb","pendingCred(address,uint256)":"0152f65f","playCred()":"39524dc8","podium(uint8)":"1458d4ad","podiumDeadline(uint256)":"ab8a6eb3","podiumEpoch(uint256)":"6611fd1b","podiumInitialTimerSec(uint256)":"69897053","podiumResetBelowRemainingSec(uint256)":"5eb7fb0c","podiumResetToRemainingSec(uint256)":"a56cba75","podiumTimerCapSec(uint256)":"deb26f6c","podiumTimerExtensionSec(uint256)":"21f28f87","podiumVaults()":"787a2c24","proxiableUUID()":"52d1902d","referralRegistry()":"4e627e62","renounceOwnership()":"715018a6","rollPodiumEpoch(uint8)":"a9b74776","setCharmAnchorOracle(address,address,address,address)":"6e695d58","setCharmPriceWad(uint256)":"6e19a728","setEpochCharmAnchorWad(uint256)":"8c7928ba","setPaused(bool)":"16c38b3c","setTimeArenaBuyRouter(address)":"e7a5ccf4","startArena()":"24bceab3","stealsCommittedByAttackerOnDay(address,uint256)":"9d70e671","stealsReceivedOnDay(address,uint256)":"75c48420","timeArenaBuyRouter()":"57cd7c88","timerCapSec()":"0f632576","timerExtensionSec()":"438009aa","topUpPodiumPools(uint256)":"487d3c84","totalCharmWeight()":"92882c36","totalDoubRaised()":"6dc84fb3","totalEffectiveTimerSecAdded(address)":"580a68b6","transferOwnership(address)":"f2fde38b","unlockedLevel(address)":"9c8d6f26","upgradeToAndCall(address,bytes)":"4f1ef286","warbowActivateGuard()":"90802dea","warbowBpGeneration()":"e7b9102b","warbowEpochFinalized(uint256)":"bcd8c930","warbowGuardUntil(address)":"b95683e4","warbowPendingFlagOwner()":"4423338e","warbowPendingFlagPlantAt()":"18f0574d","warbowPendingRevengeExpiryExclusive(address,address)":"82e02b0b","warbowPendingRevengeStealSeq(address,address)":"2c06f19b","warbowRevenge(address)":"bf38cfbf","warbowSteal(address,bool)":"23df5215","xp(address)":"0490cb74","xpToNextLevel(address)":"c71bfd6f","xpTowardNext(address)":"a247c2eb"},"id":89}