{"abi":[{"type":"constructor","inputs":[],"stateMutability":"nonpayable"},{"type":"function","name":"CAT_DEFENDED_STREAK","inputs":[],"outputs":[{"name":"","type":"uint8","internalType":"uint8"}],"stateMutability":"view"},{"type":"function","name":"CAT_LAST_BUYERS","inputs":[],"outputs":[{"name":"","type":"uint8","internalType":"uint8"}],"stateMutability":"view"},{"type":"function","name":"CAT_TIME_BOOSTER","inputs":[],"outputs":[{"name":"","type":"uint8","internalType":"uint8"}],"stateMutability":"view"},{"type":"function","name":"CAT_WARBOW","inputs":[],"outputs":[{"name":"","type":"uint8","internalType":"uint8"}],"stateMutability":"view"},{"type":"function","name":"CHARM_GROWTH_RATE_WAD","inputs":[],"outputs":[{"name":"","type":"uint256","internalType":"uint256"}],"stateMutability":"view"},{"type":"function","name":"CRED_PER_BUY","inputs":[],"outputs":[{"name":"","type":"uint256","internalType":"uint256"}],"stateMutability":"view"},{"type":"function","name":"CRED_PER_CHARM_WAD","inputs":[],"outputs":[{"name":"","type":"uint256","internalType":"uint256"}],"stateMutability":"view"},{"type":"function","name":"DEFENDED_STREAK_WINDOW_SEC","inputs":[],"outputs":[{"name":"","type":"uint256","internalType":"uint256"}],"stateMutability":"view"},{"type":"function","name":"FIRST_BUY_CRED_BONUS","inputs":[],"outputs":[{"name":"","type":"uint256","internalType":"uint256"}],"stateMutability":"view"},{"type":"function","name":"NUM_PODIUM_CATEGORIES","inputs":[],"outputs":[{"name":"","type":"uint8","internalType":"uint8"}],"stateMutability":"view"},{"type":"function","name":"ONBOARDING_STARTER_CHARM_WAD","inputs":[],"outputs":[{"name":"","type":"uint256","internalType":"uint256"}],"stateMutability":"view"},{"type":"function","name":"REFERRAL_CRED_FLAT_WAD","inputs":[],"outputs":[{"name":"","type":"uint256","internalType":"uint256"}],"stateMutability":"view"},{"type":"function","name":"SECONDS_PER_DAY","inputs":[],"outputs":[{"name":"","type":"uint256","internalType":"uint256"}],"stateMutability":"view"},{"type":"function","name":"UPGRADE_INTERFACE_VERSION","inputs":[],"outputs":[{"name":"","type":"string","internalType":"string"}],"stateMutability":"view"},{"type":"function","name":"WARBOW_AMBUSH_BONUS_BP","inputs":[],"outputs":[{"name":"","type":"uint256","internalType":"uint256"}],"stateMutability":"view"},{"type":"function","name":"WARBOW_BASE_BUY_BP","inputs":[],"outputs":[{"name":"","type":"uint256","internalType":"uint256"}],"stateMutability":"view"},{"type":"function","name":"WARBOW_CLUTCH_BONUS_BP","inputs":[],"outputs":[{"name":"","type":"uint256","internalType":"uint256"}],"stateMutability":"view"},{"type":"function","name":"WARBOW_FLAG_CLAIM_BP","inputs":[],"outputs":[{"name":"","type":"uint256","internalType":"uint256"}],"stateMutability":"view"},{"type":"function","name":"WARBOW_FLAG_SILENCE_SEC","inputs":[],"outputs":[{"name":"","type":"uint256","internalType":"uint256"}],"stateMutability":"view"},{"type":"function","name":"WARBOW_GUARD_DOUB","inputs":[],"outputs":[{"name":"","type":"uint256","internalType":"uint256"}],"stateMutability":"view"},{"type":"function","name":"WARBOW_GUARD_DURATION_SEC","inputs":[],"outputs":[{"name":"","type":"uint256","internalType":"uint256"}],"stateMutability":"view"},{"type":"function","name":"WARBOW_MAX_STEALS_PER_DAY","inputs":[],"outputs":[{"name":"","type":"uint8","internalType":"uint8"}],"stateMutability":"view"},{"type":"function","name":"WARBOW_REVENGE_DOUB","inputs":[],"outputs":[{"name":"","type":"uint256","internalType":"uint256"}],"stateMutability":"view"},{"type":"function","name":"WARBOW_REVENGE_WINDOW_SEC","inputs":[],"outputs":[{"name":"","type":"uint256","internalType":"uint256"}],"stateMutability":"view"},{"type":"function","name":"WARBOW_STEAL_DOUB","inputs":[],"outputs":[{"name":"","type":"uint256","internalType":"uint256"}],"stateMutability":"view"},{"type":"function","name":"WARBOW_STEAL_DRAIN_BPS","inputs":[],"outputs":[{"name":"","type":"uint16","internalType":"uint16"}],"stateMutability":"view"},{"type":"function","name":"WARBOW_STEAL_DRAIN_GUARDED_BPS","inputs":[],"outputs":[{"name":"","type":"uint16","internalType":"uint16"}],"stateMutability":"view"},{"type":"function","name":"WARBOW_STEAL_LIMIT_BYPASS_DOUB","inputs":[],"outputs":[{"name":"","type":"uint256","internalType":"uint256"}],"stateMutability":"view"},{"type":"function","name":"WARBOW_STREAK_BREAK_MULT_BP","inputs":[],"outputs":[{"name":"","type":"uint256","internalType":"uint256"}],"stateMutability":"view"},{"type":"function","name":"WARBOW_TIMER_RESET_BONUS_BP","inputs":[],"outputs":[{"name":"","type":"uint256","internalType":"uint256"}],"stateMutability":"view"},{"type":"function","name":"activeDefendedStreak","inputs":[{"name":"","type":"address","internalType":"address"}],"outputs":[{"name":"","type":"uint256","internalType":"uint256"}],"stateMutability":"view"},{"type":"function","name":"adminSellVault","inputs":[],"outputs":[{"name":"","type":"address","internalType":"contract AdminSellVault"}],"stateMutability":"view"},{"type":"function","name":"arenaStart","inputs":[],"outputs":[{"name":"","type":"uint256","internalType":"uint256"}],"stateMutability":"view"},{"type":"function","name":"battlePoints","inputs":[{"name":"user","type":"address","internalType":"address"}],"outputs":[{"name":"","type":"uint256","internalType":"uint256"}],"stateMutability":"view"},{"type":"function","name":"battlePointsGeneration","inputs":[{"name":"","type":"address","internalType":"address"}],"outputs":[{"name":"","type":"uint256","internalType":"uint256"}],"stateMutability":"view"},{"type":"function","name":"bestDefendedStreak","inputs":[{"name":"","type":"address","internalType":"address"}],"outputs":[{"name":"","type":"uint256","internalType":"uint256"}],"stateMutability":"view"},{"type":"function","name":"buy","inputs":[{"name":"charmWad","type":"uint256","internalType":"uint256"}],"outputs":[],"stateMutability":"nonpayable"},{"type":"function","name":"buy","inputs":[{"name":"charmWad","type":"uint256","internalType":"uint256"},{"name":"codeHash","type":"bytes32","internalType":"bytes32"}],"outputs":[],"stateMutability":"nonpayable"},{"type":"function","name":"buyCooldownSec","inputs":[],"outputs":[{"name":"","type":"uint256","internalType":"uint256"}],"stateMutability":"view"},{"type":"function","name":"buyCount","inputs":[{"name":"","type":"address","internalType":"address"}],"outputs":[{"name":"","type":"uint256","internalType":"uint256"}],"stateMutability":"view"},{"type":"function","name":"buyFor","inputs":[{"name":"buyer","type":"address","internalType":"address"},{"name":"charmWad","type":"uint256","internalType":"uint256"},{"name":"codeHash","type":"bytes32","internalType":"bytes32"},{"name":"plantWarBowFlag","type":"bool","internalType":"bool"}],"outputs":[],"stateMutability":"nonpayable"},{"type":"function","name":"buyWithCred","inputs":[{"name":"charmWad","type":"uint256","internalType":"uint256"}],"outputs":[],"stateMutability":"nonpayable"},{"type":"function","name":"charmAnchorCl8y","inputs":[],"outputs":[{"name":"","type":"address","internalType":"address"}],"stateMutability":"view"},{"type":"function","name":"charmAnchorKumbayaRouter","inputs":[],"outputs":[{"name":"","type":"address","internalType":"address"}],"stateMutability":"view"},{"type":"function","name":"charmAnchorUsdm","inputs":[],"outputs":[{"name":"","type":"address","internalType":"address"}],"stateMutability":"view"},{"type":"function","name":"charmAnchorWeth","inputs":[],"outputs":[{"name":"","type":"address","internalType":"address"}],"stateMutability":"view"},{"type":"function","name":"charmPriceWad","inputs":[],"outputs":[{"name":"","type":"uint256","internalType":"uint256"}],"stateMutability":"view"},{"type":"function","name":"charmWeight","inputs":[{"name":"","type":"address","internalType":"address"}],"outputs":[{"name":"","type":"uint256","internalType":"uint256"}],"stateMutability":"view"},{"type":"function","name":"claimCred","inputs":[{"name":"epoch","type":"uint256","internalType":"uint256"}],"outputs":[],"stateMutability":"nonpayable"},{"type":"function","name":"claimWarBowFlag","inputs":[],"outputs":[],"stateMutability":"nonpayable"},{"type":"function","name":"deadline","inputs":[],"outputs":[{"name":"","type":"uint256","internalType":"uint256"}],"stateMutability":"view"},{"type":"function","name":"doub","inputs":[],"outputs":[{"name":"","type":"address","internalType":"contract IERC20"}],"stateMutability":"view"},{"type":"function","name":"effectiveCharmPriceWad","inputs":[],"outputs":[{"name":"","type":"uint256","internalType":"uint256"}],"stateMutability":"view"},{"type":"function","name":"epochAnchorTimestamp","inputs":[],"outputs":[{"name":"","type":"uint256","internalType":"uint256"}],"stateMutability":"view"},{"type":"function","name":"epochCharmAnchorWad","inputs":[],"outputs":[{"name":"","type":"uint256","internalType":"uint256"}],"stateMutability":"view"},{"type":"function","name":"epochCharmTotal","inputs":[{"name":"","type":"uint256","internalType":"uint256"}],"outputs":[{"name":"","type":"uint256","internalType":"uint256"}],"stateMutability":"view"},{"type":"function","name":"epochCharmWad","inputs":[{"name":"","type":"uint256","internalType":"uint256"},{"name":"","type":"address","internalType":"address"}],"outputs":[{"name":"","type":"uint256","internalType":"uint256"}],"stateMutability":"view"},{"type":"function","name":"epochCredPool","inputs":[{"name":"","type":"uint256","internalType":"uint256"}],"outputs":[{"name":"","type":"uint256","internalType":"uint256"}],"stateMutability":"view"},{"type":"function","name":"epochFixedCredBonus","inputs":[{"name":"","type":"uint256","internalType":"uint256"},{"name":"","type":"address","internalType":"address"}],"outputs":[{"name":"","type":"uint256","internalType":"uint256"}],"stateMutability":"view"},{"type":"function","name":"finalizeWarbowPodium","inputs":[{"name":"epoch","type":"uint256","internalType":"uint256"},{"name":"first","type":"address","internalType":"address"},{"name":"second","type":"address","internalType":"address"},{"name":"third","type":"address","internalType":"address"}],"outputs":[],"stateMutability":"nonpayable"},{"type":"function","name":"grandfatherProgression","inputs":[{"name":"wallets","type":"address[]","internalType":"address[]"}],"outputs":[],"stateMutability":"nonpayable"},{"type":"function","name":"initialTimerSec","inputs":[],"outputs":[{"name":"","type":"uint256","internalType":"uint256"}],"stateMutability":"view"},{"type":"function","name":"initialize","inputs":[{"name":"_doub","type":"address","internalType":"contract IERC20"},{"name":"_podiumVaults","type":"address","internalType":"contract PodiumVaults"},{"name":"_adminSellVault","type":"address","internalType":"contract AdminSellVault"},{"name":"_referralRegistry","type":"address","internalType":"address"},{"name":"_playCred","type":"address","internalType":"address"},{"name":"_charmPriceWad","type":"uint256","internalType":"uint256"},{"name":"_podiumTimerExtensionSec","type":"uint256[4]","internalType":"uint256[4]"},{"name":"_podiumInitialTimerSec","type":"uint256[4]","internalType":"uint256[4]"},{"name":"_podiumTimerCapSec","type":"uint256[4]","internalType":"uint256[4]"},{"name":"_podiumResetBelowRemainingSec","type":"uint256[4]","internalType":"uint256[4]"},{"name":"_podiumResetToRemainingSec","type":"uint256[4]","internalType":"uint256[4]"},{"name":"_buyCooldownSec","type":"uint256","internalType":"uint256"},{"name":"upgradeAdmin","type":"address","internalType":"address"}],"outputs":[],"stateMutability":"nonpayable"},{"type":"function","name":"lastBuyEpoch","inputs":[],"outputs":[{"name":"","type":"uint256","internalType":"uint256"}],"stateMutability":"view"},{"type":"function","name":"lastBuyers","inputs":[],"outputs":[{"name":"","type":"address[3]","internalType":"address[3]"}],"stateMutability":"view"},{"type":"function","name":"level","inputs":[{"name":"user","type":"address","internalType":"address"}],"outputs":[{"name":"","type":"uint256","internalType":"uint256"}],"stateMutability":"view"},{"type":"function","name":"nextBuyAllowedAt","inputs":[{"name":"","type":"address","internalType":"address"}],"outputs":[{"name":"","type":"uint256","internalType":"uint256"}],"stateMutability":"view"},{"type":"function","name":"owner","inputs":[],"outputs":[{"name":"","type":"address","internalType":"address"}],"stateMutability":"view"},{"type":"function","name":"paused","inputs":[],"outputs":[{"name":"","type":"bool","internalType":"bool"}],"stateMutability":"view"},{"type":"function","name":"pendingCred","inputs":[{"name":"user","type":"address","internalType":"address"},{"name":"epoch","type":"uint256","internalType":"uint256"}],"outputs":[{"name":"","type":"uint256","internalType":"uint256"}],"stateMutability":"view"},{"type":"function","name":"playCred","inputs":[],"outputs":[{"name":"","type":"address","internalType":"contract IPlayCred"}],"stateMutability":"view"},{"type":"function","name":"podium","inputs":[{"name":"category","type":"uint8","internalType":"uint8"}],"outputs":[{"name":"winners","type":"address[3]","internalType":"address[3]"},{"name":"values","type":"uint256[3]","internalType":"uint256[3]"}],"stateMutability":"view"},{"type":"function","name":"podiumDeadline","inputs":[{"name":"","type":"uint256","internalType":"uint256"}],"outputs":[{"name":"","type":"uint256","internalType":"uint256"}],"stateMutability":"view"},{"type":"function","name":"podiumEpoch","inputs":[{"name":"","type":"uint256","internalType":"uint256"}],"outputs":[{"name":"","type":"uint256","internalType":"uint256"}],"stateMutability":"view"},{"type":"function","name":"podiumInitialTimerSec","inputs":[{"name":"","type":"uint256","internalType":"uint256"}],"outputs":[{"name":"","type":"uint256","internalType":"uint256"}],"stateMutability":"view"},{"type":"function","name":"podiumResetBelowRemainingSec","inputs":[{"name":"","type":"uint256","internalType":"uint256"}],"outputs":[{"name":"","type":"uint256","internalType":"uint256"}],"stateMutability":"view"},{"type":"function","name":"podiumResetToRemainingSec","inputs":[{"name":"","type":"uint256","internalType":"uint256"}],"outputs":[{"name":"","type":"uint256","internalType":"uint256"}],"stateMutability":"view"},{"type":"function","name":"podiumTimerCapSec","inputs":[{"name":"","type":"uint256","internalType":"uint256"}],"outputs":[{"name":"","type":"uint256","internalType":"uint256"}],"stateMutability":"view"},{"type":"function","name":"podiumTimerExtensionSec","inputs":[{"name":"","type":"uint256","internalType":"uint256"}],"outputs":[{"name":"","type":"uint256","internalType":"uint256"}],"stateMutability":"view"},{"type":"function","name":"podiumVaults","inputs":[],"outputs":[{"name":"","type":"address","internalType":"contract PodiumVaults"}],"stateMutability":"view"},{"type":"function","name":"proxiableUUID","inputs":[],"outputs":[{"name":"","type":"bytes32","internalType":"bytes32"}],"stateMutability":"view"},{"type":"function","name":"referralRegistry","inputs":[],"outputs":[{"name":"","type":"address","internalType":"contract IReferralRegistry"}],"stateMutability":"view"},{"type":"function","name":"renounceOwnership","inputs":[],"outputs":[],"stateMutability":"nonpayable"},{"type":"function","name":"rollPodiumEpoch","inputs":[{"name":"category","type":"uint8","internalType":"uint8"}],"outputs":[],"stateMutability":"nonpayable"},{"type":"function","name":"setCharmAnchorOracle","inputs":[{"name":"router","type":"address","internalType":"address"},{"name":"cl8y","type":"address","internalType":"address"},{"name":"weth","type":"address","internalType":"address"},{"name":"usdm","type":"address","internalType":"address"}],"outputs":[],"stateMutability":"nonpayable"},{"type":"function","name":"setCharmPriceWad","inputs":[{"name":"wad","type":"uint256","internalType":"uint256"}],"outputs":[],"stateMutability":"nonpayable"},{"type":"function","name":"setEpochCharmAnchorWad","inputs":[{"name":"wad","type":"uint256","internalType":"uint256"}],"outputs":[],"stateMutability":"nonpayable"},{"type":"function","name":"setPaused","inputs":[{"name":"p","type":"bool","internalType":"bool"}],"outputs":[],"stateMutability":"nonpayable"},{"type":"function","name":"setTimeArenaBuyRouter","inputs":[{"name":"router","type":"address","internalType":"address"}],"outputs":[],"stateMutability":"nonpayable"},{"type":"function","name":"startArena","inputs":[],"outputs":[],"stateMutability":"nonpayable"},{"type":"function","name":"stealsCommittedByAttackerOnDay","inputs":[{"name":"","type":"address","internalType":"address"},{"name":"","type":"uint256","internalType":"uint256"}],"outputs":[{"name":"","type":"uint8","internalType":"uint8"}],"stateMutability":"view"},{"type":"function","name":"stealsReceivedOnDay","inputs":[{"name":"","type":"address","internalType":"address"},{"name":"","type":"uint256","internalType":"uint256"}],"outputs":[{"name":"","type":"uint8","internalType":"uint8"}],"stateMutability":"view"},{"type":"function","name":"timeArenaBuyRouter","inputs":[],"outputs":[{"name":"","type":"address","internalType":"address"}],"stateMutability":"view"},{"type":"function","name":"timerCapSec","inputs":[],"outputs":[{"name":"","type":"uint256","internalType":"uint256"}],"stateMutability":"view"},{"type":"function","name":"timerExtensionSec","inputs":[],"outputs":[{"name":"","type":"uint256","internalType":"uint256"}],"stateMutability":"view"},{"type":"function","name":"topUpPodiumPools","inputs":[{"name":"amountDoubWad","type":"uint256","internalType":"uint256"}],"outputs":[],"stateMutability":"nonpayable"},{"type":"function","name":"totalCharmWeight","inputs":[],"outputs":[{"name":"","type":"uint256","internalType":"uint256"}],"stateMutability":"view"},{"type":"function","name":"totalDoubRaised","inputs":[],"outputs":[{"name":"","type":"uint256","internalType":"uint256"}],"stateMutability":"view"},{"type":"function","name":"totalEffectiveTimerSecAdded","inputs":[{"name":"","type":"address","internalType":"address"}],"outputs":[{"name":"","type":"uint256","internalType":"uint256"}],"stateMutability":"view"},{"type":"function","name":"transferOwnership","inputs":[{"name":"newOwner","type":"address","internalType":"address"}],"outputs":[],"stateMutability":"nonpayable"},{"type":"function","name":"unlockedLevel","inputs":[{"name":"user","type":"address","internalType":"address"}],"outputs":[{"name":"","type":"uint256","internalType":"uint256"}],"stateMutability":"view"},{"type":"function","name":"upgradeToAndCall","inputs":[{"name":"newImplementation","type":"address","internalType":"address"},{"name":"data","type":"bytes","internalType":"bytes"}],"outputs":[],"stateMutability":"payable"},{"type":"function","name":"warbowActivateGuard","inputs":[],"outputs":[],"stateMutability":"nonpayable"},{"type":"function","name":"warbowBpGeneration","inputs":[],"outputs":[{"name":"","type":"uint256","internalType":"uint256"}],"stateMutability":"view"},{"type":"function","name":"warbowEpochFinalized","inputs":[{"name":"","type":"uint256","internalType":"uint256"}],"outputs":[{"name":"","type":"bool","internalType":"bool"}],"stateMutability":"view"},{"type":"function","name":"warbowGuardUntil","inputs":[{"name":"","type":"address","internalType":"address"}],"outputs":[{"name":"","type":"uint256","internalType":"uint256"}],"stateMutability":"view"},{"type":"function","name":"warbowPendingFlagOwner","inputs":[],"outputs":[{"name":"","type":"address","internalType":"address"}],"stateMutability":"view"},{"type":"function","name":"warbowPendingFlagPlantAt","inputs":[],"outputs":[{"name":"","type":"uint256","internalType":"uint256"}],"stateMutability":"view"},{"type":"function","name":"warbowPendingRevengeExpiryExclusive","inputs":[{"name":"","type":"address","internalType":"address"},{"name":"","type":"address","internalType":"address"}],"outputs":[{"name":"","type":"uint256","internalType":"uint256"}],"stateMutability":"view"},{"type":"function","name":"warbowPendingRevengeStealSeq","inputs":[{"name":"","type":"address","internalType":"address"},{"name":"","type":"address","internalType":"address"}],"outputs":[{"name":"","type":"uint256","internalType":"uint256"}],"stateMutability":"view"},{"type":"function","name":"warbowRevenge","inputs":[{"name":"stealer","type":"address","internalType":"address"}],"outputs":[],"stateMutability":"nonpayable"},{"type":"function","name":"warbowSteal","inputs":[{"name":"victim","type":"address","internalType":"address"},{"name":"payBypassBurn","type":"bool","internalType":"bool"}],"outputs":[],"stateMutability":"nonpayable"},{"type":"function","name":"xp","inputs":[{"name":"","type":"address","internalType":"address"}],"outputs":[{"name":"","type":"uint256","internalType":"uint256"}],"stateMutability":"view"},{"type":"function","name":"xpToNextLevel","inputs":[{"name":"user","type":"address","internalType":"address"}],"outputs":[{"name":"","type":"uint256","internalType":"uint256"}],"stateMutability":"view"},{"type":"function","name":"xpTowardNext","inputs":[{"name":"","type":"address","internalType":"address"}],"outputs":[{"name":"","type":"uint256","internalType":"uint256"}],"stateMutability":"view"},{"type":"event","name":"ArenaStarted","inputs":[{"name":"startTimestamp","type":"uint256","indexed":false,"internalType":"uint256"},{"name":"initialDeadline","type":"uint256","indexed":false,"internalType":"uint256"}],"anonymous":false},{"type":"event","name":"Buy","inputs":[{"name":"buyer","type":"address","indexed":true,"internalType":"address"},{"name":"charmWad","type":"uint256","indexed":false,"internalType":"uint256"},{"name":"doubPaid","type":"uint256","indexed":false,"internalType":"uint256"},{"name":"newDeadline","type":"uint256","indexed":false,"internalType":"uint256"},{"name":"totalDoubRaisedAfter","type":"uint256","indexed":false,"internalType":"uint256"},{"name":"buyIndex","type":"uint256","indexed":false,"internalType":"uint256"},{"name":"actualSecondsAdded","type":"uint256","indexed":false,"internalType":"uint256"},{"name":"timerHardReset","type":"bool","indexed":false,"internalType":"bool"},{"name":"paidWithCred","type":"bool","indexed":false,"internalType":"bool"}],"anonymous":false},{"type":"event","name":"CredClaimed","inputs":[{"name":"user","type":"address","indexed":true,"internalType":"address"},{"name":"epoch","type":"uint256","indexed":true,"internalType":"uint256"},{"name":"amount","type":"uint256","indexed":false,"internalType":"uint256"}],"anonymous":false},{"type":"event","name":"FeatureUnlocked","inputs":[{"name":"player","type":"address","indexed":true,"internalType":"address"},{"name":"featureLevel","type":"uint256","indexed":false,"internalType":"uint256"}],"anonymous":false},{"type":"event","name":"FirstBuyCredScheduled","inputs":[{"name":"buyer","type":"address","indexed":true,"internalType":"address"},{"name":"targetEpoch","type":"uint256","indexed":true,"internalType":"uint256"},{"name":"amount","type":"uint256","indexed":false,"internalType":"uint256"}],"anonymous":false},{"type":"event","name":"Initialized","inputs":[{"name":"version","type":"uint64","indexed":false,"internalType":"uint64"}],"anonymous":false},{"type":"event","name":"LastBuyEpochCharmAnchored","inputs":[{"name":"epoch","type":"uint256","indexed":true,"internalType":"uint256"},{"name":"anchorWad","type":"uint256","indexed":false,"internalType":"uint256"},{"name":"doubUsdWad","type":"uint256","indexed":false,"internalType":"uint256"},{"name":"anchorTimestamp","type":"uint256","indexed":false,"internalType":"uint256"}],"anonymous":false},{"type":"event","name":"LastBuyEpochStarted","inputs":[{"name":"epoch","type":"uint256","indexed":true,"internalType":"uint256"},{"name":"deadline","type":"uint256","indexed":false,"internalType":"uint256"}],"anonymous":false},{"type":"event","name":"LevelUp","inputs":[{"name":"player","type":"address","indexed":true,"internalType":"address"},{"name":"newLevel","type":"uint256","indexed":false,"internalType":"uint256"}],"anonymous":false},{"type":"event","name":"OwnershipTransferred","inputs":[{"name":"previousOwner","type":"address","indexed":true,"internalType":"address"},{"name":"newOwner","type":"address","indexed":true,"internalType":"address"}],"anonymous":false},{"type":"event","name":"PausedSet","inputs":[{"name":"paused","type":"bool","indexed":false,"internalType":"bool"}],"anonymous":false},{"type":"event","name":"PodiumEpochRolled","inputs":[{"name":"category","type":"uint8","indexed":true,"internalType":"uint8"},{"name":"epoch","type":"uint256","indexed":true,"internalType":"uint256"},{"name":"first","type":"address","indexed":false,"internalType":"address"},{"name":"second","type":"address","indexed":false,"internalType":"address"},{"name":"third","type":"address","indexed":false,"internalType":"address"},{"name":"poolPaid","type":"uint256","indexed":false,"internalType":"uint256"}],"anonymous":false},{"type":"event","name":"PodiumPoolsToppedUp","inputs":[{"name":"donor","type":"address","indexed":true,"internalType":"address"},{"name":"amountDoubWad","type":"uint256","indexed":false,"internalType":"uint256"}],"anonymous":false},{"type":"event","name":"ReferralCredApplied","inputs":[{"name":"buyer","type":"address","indexed":true,"internalType":"address"},{"name":"referrer","type":"address","indexed":true,"internalType":"address"},{"name":"codeHash","type":"bytes32","indexed":true,"internalType":"bytes32"},{"name":"referrerCred","type":"uint256","indexed":false,"internalType":"uint256"},{"name":"buyerCred","type":"uint256","indexed":false,"internalType":"uint256"}],"anonymous":false},{"type":"event","name":"Upgraded","inputs":[{"name":"implementation","type":"address","indexed":true,"internalType":"address"}],"anonymous":false},{"type":"event","name":"WarBowFlagClaimed","inputs":[{"name":"player","type":"address","indexed":true,"internalType":"address"},{"name":"bonusBp","type":"uint256","indexed":false,"internalType":"uint256"}],"anonymous":false},{"type":"event","name":"WarBowGuard","inputs":[{"name":"player","type":"address","indexed":true,"internalType":"address"},{"name":"doubSpent","type":"uint256","indexed":false,"internalType":"uint256"},{"name":"guardUntil","type":"uint256","indexed":false,"internalType":"uint256"}],"anonymous":false},{"type":"event","name":"WarBowRevenge","inputs":[{"name":"avenger","type":"address","indexed":true,"internalType":"address"},{"name":"stealer","type":"address","indexed":true,"internalType":"address"},{"name":"bpTaken","type":"uint256","indexed":false,"internalType":"uint256"},{"name":"doubSpent","type":"uint256","indexed":false,"internalType":"uint256"}],"anonymous":false},{"type":"event","name":"WarBowSteal","inputs":[{"name":"attacker","type":"address","indexed":true,"internalType":"address"},{"name":"victim","type":"address","indexed":true,"internalType":"address"},{"name":"bpTaken","type":"uint256","indexed":false,"internalType":"uint256"},{"name":"doubSpent","type":"uint256","indexed":false,"internalType":"uint256"},{"name":"limitBypassBurned","type":"bool","indexed":false,"internalType":"bool"}],"anonymous":false},{"type":"event","name":"WarbowPodiumFinalized","inputs":[{"name":"epoch","type":"uint256","indexed":true,"internalType":"uint256"},{"name":"first","type":"address","indexed":false,"internalType":"address"},{"name":"second","type":"address","indexed":false,"internalType":"address"},{"name":"third","type":"address","indexed":false,"internalType":"address"}],"anonymous":false},{"type":"event","name":"XpGained","inputs":[{"name":"player","type":"address","indexed":true,"internalType":"address"},{"name":"amount","type":"uint256","indexed":false,"internalType":"uint256"},{"name":"newLevel","type":"uint256","indexed":false,"internalType":"uint256"}],"anonymous":false},{"type":"error","name":"AddressEmptyCode","inputs":[{"name":"target","type":"address","internalType":"address"}]},{"type":"error","name":"ERC1967InvalidImplementation","inputs":[{"name":"implementation","type":"address","internalType":"address"}]},{"type":"error","name":"ERC1967NonPayable","inputs":[]},{"type":"error","name":"FailedCall","inputs":[]},{"type":"error","name":"InvalidInitialization","inputs":[]},{"type":"error","name":"NotInitializing","inputs":[]},{"type":"error","name":"OwnableInvalidOwner","inputs":[{"name":"owner","type":"address","internalType":"address"}]},{"type":"error","name":"OwnableUnauthorizedAccount","inputs":[{"name":"account","type":"address","internalType":"address"}]},{"type":"error","name":"PRBMath_SD59x18_Exp2_InputTooBig","inputs":[{"name":"x","type":"int256","internalType":"SD59x18"}]},{"type":"error","name":"PRBMath_SD59x18_Exp_InputTooBig","inputs":[{"name":"x","type":"int256","internalType":"SD59x18"}]},{"type":"error","name":"ReentrancyGuardReentrantCall","inputs":[]},{"type":"error","name":"SafeERC20FailedOperation","inputs":[{"name":"token","type":"address","internalType":"address"}]},{"type":"error","name":"UUPSUnauthorizedCallContext","inputs":[]},{"type":"error","name":"UUPSUnsupportedProxiableUUID","inputs":[{"name":"slot","type":"bytes32","internalType":"bytes32"}]}],"bytecode":{"object":"0x60a08060405234620000f55760017f9b779b17422d0df92223018b32b4d1fa46e071723d6817e2486d003becc55f0055306080527ff0c57e16840df040f15088dc2f81fe391c3923bec73e23a9662efc9c229c6a009081549060ff8260401c16620000e657506001600160401b036002600160401b031982821601620000a0575b604051618bf69081620000fa82396080518181816140e301526142120152f35b6001600160401b031990911681179091556040519081527fc7f505b2f371ae2175ee4913f4499e1f2633a7b5936321eed1cdaeb6115181d290602090a15f808062000080565b63f92ee8a960e01b8152600490fd5b5f80fdfe60806040526004361015610011575f80fd5b5f3560e01c80630152f65f14615ab85780630458a6a214615a9d5780630490cb7414615a65578063079110e4146151c257806307f28715146151a55780630bdf13441461518a5780630f6325761461516d57806312407d451461515057806313daca841461512c5780631458d4ad146150cd57806315e59a2d146150a557806316c38b3c1461504357806318f0574d146150265780631bb303da1461500a5780631f5e9f4814614fe85780632128c5bf14614fc5578063215eb1fb14614fa857806321f28f8714614f7c57806323df521514614a2f578063241a67ea14614a1457806324bceab31461492e578063284e008c1461490c57806329dcb0cf146148ef5780632bed1022146148c75780632c06f19b1461487a57806339524dc8146148525780633d0f201d14614838578063429dbb151461480e578063438009aa146147f15780634423338e146147c957806346cd2589146147a1578063487d3c84146143e45780634e627e62146143bc5780634f1ef286146141915780634f70a2f91461414d57806352d1902d146140d1578063534b34d514612cfa57806357cd7c88146140a9578063580a68b6146140715780635c975abb1461404f5780635d385f88146140175780635eb7fb0c14613feb57806363e1705814613fd05780636611fd1b14613fa457806366b1808714613d8d5780636989705314613d615780636a9ea06714613d445780636c47f86914613d1c5780636d7121e8146136ba5780636dc84fb31461369d5780636e19a7281461361f5780636e695d58146135a05780636fa1cba7146132d8578063715018a61461327157806374f0314f14612dfe57806375c484201461322a578063787a2c2414613202578063795ce9cd146131df57806382e02b0b14613192578063861a24391461316a57806387257c2514613140578063875f2916146131085780638c7928ba146130a75780638da5cb5b146130735780638e9a61221461304c57806390802dea14612e3b57806390c25e9f14612e2057806392882c3614612e0357806393b994ba14612dfe5780639c8d6f26146121f55780639d70e67114612db75780639fefe7f414612d7f578063a247c2eb14612d47578063a56cba7514612d1b578063a57467ca14612cff578063a964525a14612cfa578063a9b2424e14612cc2578063a9b747761461279e578063ab8a6eb314612772578063ad3cb1cc14612703578063b05b7a9a146126cb578063b210d9f2146126a8578063b5b52a411461268d578063b6f3449914612510578063b95683e4146124d8578063b9a5684f146124bb578063bb4a191514612497578063bcd8c93014612468578063bf38cfbf146122e3578063c364fb8d146121fa578063c3f95f78146122c7578063c71bfd6f14612266578063c71d071914612222578063cf0f8764146105f6578063d06fec83146121ff578063d2e0218f146121fa578063d41b6db6146121f5578063d5fa9aed14612150578063d877e85814612133578063d96a094a14611651578063db4ddd301461052a578063deb26f6c14611625578063e01cb4f614611603578063e3b2ce01146115cb578063e7a5ccf414611588578063e7b9102b1461156b578063e88f90011461154e578063e9fca28314610c8e578063ee48c9f514610612578063f0d77b70146105f6578063f2fde38b146105cb578063f3181a5d146105b1578063f3a6915d14610545578063fbe695311461052a5763febc020f1461050a575f80fd5b34610526575f36600319011261052657602060405161012c8152f35b5f80fd5b34610526575f36600319011261052657602060405160648152f35b34610526575f36600319011261052657606060405161056381615c28565b36903760405160615f825b600382106105915760608461058281615c28565b61058f6040518092615bae565bf35b82546001600160a01b03168152600192830192919091019060200161056e565b34610526575f3660031901126105265760206040515f8152f35b34610526576020366003190112610526576105f46105e7615b56565b6105ef616658565b616006565b005b34610526575f3660031901126105265760206040516103e88152f35b3461052657610380366003190112610526576004356001600160a01b0381168103610526576024356001600160a01b038116810361052657604435916001600160a01b038316830361052657610666615b98565b90608435906001600160a01b038216820361052657366101441161052657366101c41161052657366102441161052657366102c411610526576103449136831161052657610364356001600160a01b0381169003610526575f80516020618ba183398151915254936001600160401b0385161580610c80575b60016001600160401b038716149081610c76575b159081610c6d575b50610c5b5760016001600160401b03198616175f80516020618ba18339815191525560ff8560401c1615610c2f575b610732617843565b61073a617843565b61074661036435616006565b6001600160a01b03831615610bf3576001600160a01b03861615610bb5576001600160a01b03871615610b705761078060a4351515615f53565b833515610b2b575f5b60ff811660048110156109a45761079f81615f97565b3515610950576107ae81615fa9565b35156108ff576107bd81615fbc565b356107c782615fa9565b35116108ac576107d681615fcf565b356107e082615fe2565b35111561085c576107fa6107f382615fe2565b3591615fbc565b351061080b5760010160ff16610789565b60405162461bcd60e51b815260206004820152602360248201527f4172656e61506f6469756d54696d6572436f6e6669673a207265736574203e2060448201526206361760ec1b6064820152608490fd5b60405162461bcd60e51b815260206004820152602260248201527f4172656e61506f6469756d54696d6572436f6e6669673a2072657365742062616044820152611b9960f21b6064820152608490fd5b60405162461bcd60e51b815260206004820152602560248201527f4172656e61506f6469756d54696d6572436f6e6669673a20636170203c20696e6044820152641a5d1a585b60da1b6064820152608490fd5b60405162461bcd60e51b8152602060048201526024808201527f4172656e61506f6469756d54696d6572436f6e6669673a207a65726f20696e696044820152631d1a585b60e21b6064820152608490fd5b60405162461bcd60e51b815260206004820152602660248201527f4172656e61506f6469756d54696d6572436f6e6669673a207a65726f2065787460448201526532b739b4b7b760d11b6064820152608490fd5b50505f80546001600160a01b03199081166001600160a01b0395861617909155600180548216858916179055600280548216858a16179055921680610b1c575b506001600160a01b038116610b04575b505060a43560055560a4356006555f5b60ff81166004811015610a8657610a1a81615f97565b35916004811015610a7257610a6560019260ff9483600f0155610a3c81615fa9565b358360130155610a4b81615fbc565b358360170155610a5a81615fcf565b3583601b0155615fe2565b3581601f01550116610a04565b634e487b7160e01b5f52603260045260245ffd5b60ff848460c435600c5561014435600d556101c435600e553560235560401c1615610aad57005b68ff0000000000000000195f80516020618ba183398151915254165f80516020618ba1833981519152557fc7f505b2f371ae2175ee4913f4499e1f2633a7b5936321eed1cdaeb6115181d2602060405160018152a1005b60018060a01b031690600454161760045582806109f4565b826003541617600355846109e4565b60405162461bcd60e51b815260206004820152601860248201527f54696d654172656e613a207a65726f20636f6f6c646f776e00000000000000006044820152606490fd5b60405162461bcd60e51b815260206004820152601b60248201527f54696d654172656e613a207a65726f2061646d696e207661756c7400000000006044820152606490fd5b60405162461bcd60e51b815260206004820152601660248201527554696d654172656e613a207a65726f207661756c747360501b6044820152606490fd5b60405162461bcd60e51b81526020600482015260146024820152732a34b6b2a0b932b7309d103d32b937903237bab160611b6044820152606490fd5b68ffffffffffffffffff19851668010000000000000001175f80516020618ba18339815191525561072a565b60405163f92ee8a960e01b8152600490fd5b905015886106fb565b303b1591506106f3565b5060ff8560401c16156106df565b3461052657604036600319011261052657602435610caa61652b565b5f610cb3616690565b335f526034602052610ccb60405f205442101561655a565b610cd6600435616eff565b610cde616f72565b610d0e610cf4610cec615e69565b600435616311565b604854336001600160a01b03909116036115485733616904565b91602654805f52603c60205260405f20335f5260205260405f20610d356004358254615d20565b9055805f52603d60205260405f20610d506004358254615d20565b90555f52603e60205260405f208054906801e5b8fa8fe2ac000082018092116115345755335f52603260205260405f20610d8d6004358254615d20565b9055610d9d600435602854615d20565b60285580151580611520575b611303575b5080604051610dbc81615c0d565b608036823760405190610dce82615c0d565b608036833760405192610de084615c0d565b6080368537805b600460ff82161015610e8957600160ff916003838216145f14610e7a57610e66610e5a610e1b60038c165b8c60021c615d20565b610e2481616373565b610e308786168a615ff5565b52610e3a816163be565b610e468786168b615ff5565b52610e5386851689615ff5565b5190615e5c565b610e5385841689615ff5565b610e7284831689615ff5565b520116610de7565b610e66610e5a610e1b86610e12565b5091825b600460ff821610156112d35760048110156112bf5780602e0154610eb460ff831685615ff5565b51611196575b610ec760ff831684615ff5565b51611066575b610eda60ff831687615ff5565b51610eec575b5060010160ff16610e8d565b60015460405163c835e7e160e01b815260ff841660048201529297929190602090839060249082906001600160a01b03165afa91821561105b57869261101b575b508554610f52906001600160a01b031683610f4b60ff8c168b615ff5565b519161789d565b6001546001600160a01b03169060028101811161100757610f7660ff8a1689615ff5565b5192823b1561100357916002888b93610fa9829660405198899788968795636b03fb1560e11b8752019060048601616fdf565b03925af18015610ff857908591610fe0575b50506001610fd860ff92610fd1848a1689615ff5565b5190615d20565b969150610ee0565b610fe990615bde565b610ff4578388610fbb565b8380fd5b6040513d87823e3d90fd5b8780fd5b634e487b7160e01b87526011600452602487fd5b9091506020813d602011611053575b8161103760209383615c43565b8101031261104f5761104890615f3f565b9089610f2d565b8580fd5b3d915061102a565b6040513d88823e3d90fd5b600154604051630b1feb5d60e41b815260ff8416600482015291979190602090829060249082906001600160a01b03165afa90811561105b57869161115c575b5085546110c4906001600160a01b031682610f4b60ff871688615ff5565b600180546001600160a01b03169089018911611007576110e760ff851686615ff5565b5190803b15611003579087916001838c61111960405197889687958694636b03fb1560e11b8652018c60048601616fdf565b03925af1801561105b57908691611144575b505061113e90610fd160ff841685615ff5565b95610ecd565b61114d90615bde565b61115857848961112b565b8480fd5b90506020813d60201161118e575b8161117760209383615c43565b8101031261104f5761118890615f3f565b896110a6565b3d915061116a565b9560246001602060018060a01b038254166040519384809263f87793ad60e01b825260ff891660048301525afa9182156112b4578792611274575b5086546111ef906001600160a01b031683610f4b60ff88168a615ff5565b546001600160a01b031661120660ff851687615ff5565b51813b156110035791879161123593838c60405196879586948593636b03fb1560e11b85528c60048601616fdf565b03925af1801561105b57908691611260575b505061125a90610fd160ff841686615ff5565b95610eba565b61126990615bde565b611158578489611247565b9091506020813d6020116112ac575b8161129060209383615c43565b810103126112a8576112a190615f3f565b908a6111d1565b8680fd5b3d9150611283565b6040513d89823e3d90fd5b634e487b7160e01b84526032600452602484fd5b6112f084886112e481602754615d20565b6027556004353361700c565b60015f80516020618b8183398151915255005b60035460405163711bf87960e01b81526004810183905290602090829060249082906001600160a01b03165afa908115611451575f916114e6575b506001600160a01b031680156114a15733811461145c576004546001600160a01b03168061136e575b5050610dae565b803b15610526576040516340c10f1960e01b908181528360048201525f8160448183674563918244f40000978860248401525af180156114515761143e575b506004546001600160a01b031690813b1561104f57859160448392604051948593849283523360048401528760248401525af18015610ff85790859161142a575b50506040519080825260208201527ff9d0b7562a9415eece6e30788862682d80ece5bab11cc3abd284aac45641ccf660403392a4828080611367565b61143390615bde565b610ff45783866113ee565b611449919550615bde565b5f93866113ad565b6040513d5f823e3d90fd5b60405162461bcd60e51b815260206004820152601860248201527f54696d654172656e613a2073656c662d726566657272616c00000000000000006044820152606490fd5b60405162461bcd60e51b815260206004820152601b60248201527f54696d654172656e613a20696e76616c696420726566657272616c00000000006044820152606490fd5b90506020813d602011611518575b8161150160209383615c43565b810103126105265761151290615f3f565b8461133e565b3d91506114f4565b506003546001600160a01b03161515610da9565b634e487b7160e01b5f52601160045260245ffd5b33616904565b34610526575f366003190112610526576020600554604051908152f35b34610526575f366003190112610526576020603a54604051908152f35b34610526576020366003190112610526576115a1615b56565b6115a9616658565b604880546001600160a01b0319166001600160a01b0392909216919091179055005b34610526576020366003190112610526576001600160a01b036115ec615b56565b165f526032602052602060405f2054604051908152f35b34610526575f366003190112610526576020604051678ac7230489e800008152f35b346105265760203660031901126105265760043560048110156105265760209060170154604051908152f35b346105265760203660031901126105265760043561166d61652b565b611675616690565b335f52603460205261168d60405f205442101561655a565b61169681616eff565b61169e616f72565b6116b2610cf46116ac615e69565b83616311565b90602654805f52603c60205260405f20335f5260205260405f206116d7838254615d20565b9055805f52603d60205260405f206116f0838254615d20565b90555f52603e60205260405f208054906801e5b8fa8fe2ac000082018092116115345755335f52603260205260405f2061172b828254615d20565b905561173981602854615d20565b6028555f906040519261174b84615c0d565b608036853760405161175c81615c0d565b60803682376040519261176e84615c0d565b60803685378260021c906003808516915f5b60ff811660048110156118065760ff91816117f66117ef6117e58f610e536001978e926117b78f8f8f85145f146117fe5790615d20565b936117c185616373565b6117cb8484615ff5565b526117df836117d9876163be565b92615ff5565b52615ff5565b610e53848d615ff5565b918c615ff5565b520116611780565b505f90615d20565b828a8a8d8a8c5f5b600460ff82161015611bee576004811015610a725780602e015461183560ff831686615ff5565b51611ad5575b61184860ff831685615ff5565b516119b1575b61185b60ff831687615ff5565b5161186d575b5060010160ff1661180e565b6001805460405163c835e7e160e01b815260ff851660048201529398936024939290916020908390869082906001600160a01b03165afa918215611451575f92611975575b505f546118d0906001600160a01b031683610f4b60ff8e168d615ff5565b546001600160a01b03169260028301831161196257506118f360ff8a1689615ff5565b5192803b156105265760025f80946119258d9560405198899788968795636b03fb1560e11b8752019060048601616fdf565b03925af180156114515760ff9260019261194b92611953575b50610fd1848a1689615ff5565b969150611861565b61195c90615bde565b8a61193e565b634e487b7160e01b5f9081526011600452fd5b9091506020813d6020116119a9575b8161199160209383615c43565b81010312610526576119a290615f3f565b908b6118b2565b3d9150611984565b600154604051630b1feb5d60e41b815260ff84166004820152919790602090839060249082906001600160a01b03165afa918215611451575f92611a99575b505f54611a0e906001600160a01b031683610f4b60ff871689615ff5565b600180546001600160a01b03169290890190818a1161153457611a3460ff861688615ff5565b5193803b1561052657611a62945f809460405197889586948593636b03fb1560e11b85528c60048601616fdf565b03925af191821561145157611a8492611a8a575b50610fd160ff841686615ff5565b9561184e565b611a9390615bde565b89611a76565b9091506020813d602011611acd575b81611ab560209383615c43565b8101031261052657611ac690615f3f565b90896119f0565b3d9150611aa8565b6001805460405163f87793ad60e01b815260ff8516600482015292989190602090849060249082906001600160a01b03165afa928315611451575f93611bb2575b505f54611b34906001600160a01b031684610f4b60ff88168b615ff5565b546001600160a01b031691611b4c60ff851688615ff5565b5190833b1561052657611b7b935f92838c60405197889586948593636b03fb1560e11b85528c60048601616fdf565b03925af191821561145157611b9d92611ba3575b50610fd160ff841687615ff5565b9561183b565b611bac90615bde565b89611b8f565b9092506020813d602011611be6575b81611bce60209383615c43565b8101031261052657611bdf90615f3f565b918a611b16565b3d9150611bc1565b5085611bfc82602754615d20565b602755335f52603360205260405f2091825490811591600194858201809211611534575560655484810180911161153457606555611c3c60235442615d20565b335f52603460205260405f2055602554904282115f1461212c57611c604283615e5c565b915b611c7a600f54601754601b5490601f5492428661791b565b9490806025558581602a556120f8575b50806120e4575b612078575b602554908082111561206f57611cab91615e5c565b915b335f52606760205260405f20548015612068575b611cca866179ad565b90335f52603860205260405f20611ce2838254615d20565b9055335f526068602052611cfb8260405f2054836179fd565b929092335f5260676020528360405f2055606860205260405f20556040519081528260208201527f681e93ec66a1e7f0d504acc55cc0b0c0ee2546b290190ccdeb1e90e83ecec97660403392a2808211611fef575b506064549060ff600381611d65818616615e4a565b160616809260ff1916176064556003821015610a72578591606101926001600160601b0360a01b933385825416179055335f526033602052611dab60405f205433616bab565b6002821015611fad575b6003821015611ed6575b6004821015611e6f575b50600591501015611e32575b506025546027549060655492604051968752602087015260408601526060850152608084015260a0830152151560c08201525f60e08201525f80516020618b618339815191526101003392a25f80516020618b8183398151915255005b6041546001600160a01b0381168015159081611e64575b50611e55575b50611dd5565b166041555f6042558580611e4f565b905033141588611e49565b611e77617af1565b60fa92611ecc575b601e11611eac575b611e9360059233616a77565b611ea5611e9f336169eb565b33616ac8565b8591611dc9565b6096820180921115611e8757634e487b7160e01b5f52601160045260245ffd5b6102ee9250611e7f565b9150611ee0617ad0565b8561038483108080611fa4575b15611f8a57506066546001600160a01b03163303611f6c5750335f52603760205260405f20918254898101809111611534578793555b335f52603760205260405f2054603660205260405f205410611f53575b611f4e60405f205433616d63565b611dbf565b603760205260405f2054603660205260405f2055611f40565b91335f5260376020528860405f205533846066541617606655611f23565b929092611dbf57335f5260376020525f6040812055611dbf565b50861515611eed565b611fb5617aaf565b8515611db557335f52603560205260405f20611fd2878254615d20565b9055335f526035602052611fea60405f205433616c87565b611db5565b6040518281527f91e51c29e7e87a74ad3b8ccba98538970f50a4309242735467f41e27c6b0fbac60203392a2878101809111611534575b818111611d50576040518181527f33879b70e72ce48a1e1cce36586491ae9b0074bc1f86d5ad80da33bbed5bbce260203392a25f198114611534578701612026565b5085611cc1565b50505f91611cad565b60265486810180911161153457805f52603f60205260405f20335f5260205260405f208054683ba1910bf341b000009182820180921161153457556040519081527f135d669544c1a460dd7b5f82c47189c86898c39919d3f604f6d023b68c9849fd60203392a3611c96565b506004546001600160a01b03161515611c91565b7f0b161138d65ee8419c59f82b310d2368e3bab076a225062e56c275fde6625993602060265492604051908152a287611c8a565b5f91611c62565b34610526575f366003190112610526576020600654604051908152f35b3461052657602080600319360112610526576001600160401b0360043581811161052657366023820112156105265780600401359182116105265760246005913660248560051b83010111610526576121a7616658565b5f5b8481106121b257005b80841b82018301356001600160a01b0381169190829003610526576001915f526033875260405f20546121e6575b016121a9565b606787528460405f20556121e0565b615ca4565b615d05565b34610526575f36600319011261052657602060405168056bc75e2d631000008152f35b346105265760403660031901126105265761223b615b6c565b6004355f52603f60205260405f209060018060a01b03165f52602052602060405f2054604051908152f35b34610526576020366003190112610526576001600160a01b03612287615b56565b165f52606760205260405f205480155f146122bc575060206122b460015b6068835260405f205490616ec8565b604051908152f35b6122b46020916122a5565b34610526575f3660031901126105265760206040516103848152f35b3461052657602080600319360112610526576122fd615b56565b61230561652b565b61230d616690565b61231633616730565b335f526045825260405f209160018060a01b03821692835f52815260405f2054801515908161245e575b50156124255761234f3361677a565b9061236161235c846169eb565b6162c6565b9283156123e0578361237291616a1b565b61237c8333616a77565b612388611e9f336169eb565b335f526045815260405f20845f5281525f60408120556040519283528201527f221b6cbe5d57878e7c76259f6002f46cc567d8203de96d73c5be97da4a7c2a0360403392a360015f80516020618b8183398151915255005b60405162461bcd60e51b815260048101839052601760248201527f54696d654172656e613a20726576656e6765207a65726f0000000000000000006044820152606490fd5b6064906040519062461bcd60e51b82526004820152601260248201527154696d654172656e613a20726576656e676560701b6044820152fd5b9050421084612340565b34610526576020366003190112610526576004355f526047602052602060ff60405f2054166040519015158152f35b34610526575f366003190112610526576020604051690a968163f0a57b4000008152f35b34610526575f366003190112610526576020602354604051908152f35b34610526576020366003190112610526576001600160a01b036124f9615b56565b165f526040602052602060405f2054604051908152f35b34610526575f3660031901126105265761252861652b565b612530616690565b604154336001600160a01b038216036126485760425461012c8101809111611534574210612603576001600160601b0360a01b166041555f604255335f52603b60205260405f2054603a54036125e6575b603960205260405f2080546103e89182820180921161153457556125a7611e9f336169eb565b6040519081527fe6b0a1cfba1b522a15d22b1e1149c9798c05764ef04c3222f1763c50b049e3fa60203392a260015f80516020618b8183398151915255005b60396020525f6040812055603a54603b60205260405f2055612581565b60405162461bcd60e51b815260206004820152601760248201527f54696d654172656e613a20666c61672073696c656e63650000000000000000006044820152606490fd5b60405162461bcd60e51b815260206004820152601a60248201527f54696d654172656e613a206e6f7420666c616720686f6c6465720000000000006044820152606490fd5b34610526575f36600319011261052657602060405160048152f35b346105265760203660031901126105265760206122b46126c6615b56565b6169eb565b34610526576020366003190112610526576001600160a01b036126ec615b56565b165f52603b602052602060405f2054604051908152f35b34610526575f3660031901126105265760405160408101908082106001600160401b0383111761275e5761275a9160405260058152640352e302e360dc1b6020820152604051918291602083526020830190615cc7565b0390f35b634e487b7160e01b5f52604160045260245ffd5b3461052657602036600319011261052657600435600481101561052657602090602a0154604051908152f35b346105265760203660031901126105265760ff6004351660043503610526576127c561652b565b6127d5600460ff81351610615d2d565b60048035101580610a7257600435602a0154421115612c855760606040516127fc81615c28565b369037606060405161280d81615c28565b36903760043560ff16612c5f576128226165b5565b505b60015460405163f87793ad60e01b81526004803560ff169082015292906001600160a01b0316602084602481845afa938415611451575f94612c23575b505f546040516370a0823160e01b81526001600160a01b0395861660048201529460209186916024918391165afa938415611451575f94612bef575b50600360ff60043516141580612be6575b612b38575b50600154604080516322232eff60e21b81526004803560ff169082015291829060249082905f906001600160a01b03165af1801561145157612b0d575b50610a7257600435602e01546001810180911161153457600435602e015561291e6004356013015442615d20565b5f9080600435602a015560ff6004351615612b02575b506006600435025f5b600360ff821610612abc57505060ff6004351615612a58575b600260ff6004351614612a43575b600360ff60043516146129f3575b610a7257600435602e810154825160208085015160409586015186516001600160a01b03948516815291841692820192909252911693810193909352606083019390935260ff16907fa9b78eda30de684ae7f5f429efecdec822db196180c202cf5450da29f84776db90608090a360015f80516020618b8183398151915255005b603a546001810180911161153457603a555f5b600360ff821610612a175750612972565b6003811015610a7257605b810180546001600160a01b03191690555f605e82015560010160ff16612a06565b606680546001600160a01b0319169055612964565b604051606081018181106001600160401b0382111761275e576040525f81525f60208201525f60408201525f5b60038110612a9e57505060ff1960645416606455612956565b81516001600160a01b03166061820155602090910190600101612a85565b600181612ace60ff93856049016165a6565b815490848060a01b039060031b1b19169055612aed81604c86016165a6565b8154905f199060031b1b19169055011661293d565b602555505f83612934565b604090813d8311612b31575b612b238183615c43565b8101031261052657836128f0565b503d612b19565b612b4184616220565b612b4a85616278565b90612b5e82612b598389615e5c565b615e5c565b8551602087015160408801516001600160a01b03908116969395918116949193921691803b15610526575f9560e4948793604051998a98899763362f187360e11b895260ff6004351660048a0152602489015260448801526064870152608486015260a485015260c48401525af1801561145157156128b357612be090615bde565b836128b3565b508315156128ae565b9093506020813d602011612c1b575b81612c0b60209383615c43565b810103126105265751928461289d565b3d9150612bfe565b9093506020813d602011612c57575b81612c3f60209383615c43565b8101031261052657612c5090615f3f565b9284612861565b3d9150612c32565b505f600660043502612c7f604c612c7883604901615d6e565b9201615dac565b50612824565b60405162461bcd60e51b815260206004820152601560248201527454696d654172656e613a2074696d6572206c69766560581b6044820152606490fd5b34610526576020366003190112610526576001600160a01b03612ce3615b56565b165f526034602052602060405f2054604051908152f35b615c64565b34610526575f3660031901126105265760206040516101f48152f35b3461052657602036600319011261052657600435600481101561052657602090601f0154604051908152f35b34610526576020366003190112610526576001600160a01b03612d68615b56565b165f526068602052602060405f2054604051908152f35b34610526576020366003190112610526576001600160a01b03612da0615b56565b165f526033602052602060405f2054604051908152f35b34610526576040366003190112610526576001600160a01b03612dd8615b56565b165f52604460205260405f206024355f52602052602060ff60405f205416604051908152f35b615c87565b34610526575f366003190112610526576020602854604051908152f35b34610526575f36600319011261052657602060405160028152f35b34610526575f36600319011261052657612e5361652b565b612e5b616690565b612e6433616730565b5f546040516370a0823160e01b8082523060048301526001600160a01b03928316926024926020929183828681895afa918215611451575f9261301d575b506040516323b872dd60e01b5f523360045230865269021e19e0c9bab24000009687604452855f60648180855af160015f5114811615612ffe575b826040525f60605215612fea57505083905f541692856040518095819382523060048301525afa8015611451575f90612fbb575b612f1b9250615e5c565b928303612f7f576154604201918242116119625750335f52604081528160405f20556040519283528201527f0215682b4d5ee66b0c67529cffec7ce5e5f7054dce0b660eddd6e47b9eb8c00460403392a260015f80516020618b8183398151915255005b60176064926040519262461bcd60e51b845260048401528201527654696d654172656e613a2045524332302070617269747960481b6044820152fd5b508282813d8311612fe3575b612fd18183615c43565b8101031261052657612f1b9151612f11565b503d612fc7565b635274afe760e01b82526004820152859150fd5b600181151661301457813b15153d151616612edd565b823d5f823e3d90fd5b9091508381813d8311613045575b6130358183615c43565b8101031261052657519086612ea2565b503d61302b565b34610526575f366003190112610526575f546040516001600160a01b039091168152602090f35b34610526575f366003190112610526575f80516020618b21833981519152546040516001600160a01b039091168152602090f35b34610526576020366003190112610526576004356130c3616658565b6130cc81616e3f565b7fc82c1be3df4b5a2413e4fc3b511951c25fc315ec7bfe8a749cb80aab299bef7c6060602654926040519081525f6020820152426040820152a2005b34610526576020366003190112610526576001600160a01b03613129615b56565b165f526036602052602060405f2054604051908152f35b34610526576020366003190112610526576004355f52603e602052602060405f2054604051908152f35b34610526575f366003190112610526576009546040516001600160a01b039091168152602090f35b34610526576040366003190112610526576131ab615b56565b6131b3615b6c565b9060018060a01b038091165f52604560205260405f2091165f52602052602060405f2054604051908152f35b34610526575f3660031901126105265760206040516801e5b8fa8fe2ac00008152f35b34610526575f366003190112610526576001546040516001600160a01b039091168152602090f35b34610526576040366003190112610526576001600160a01b0361324b615b56565b165f52604360205260405f206024355f52602052602060ff60405f205416604051908152f35b34610526575f36600319011261052657613289616658565b5f80516020618b2183398151915280546001600160a01b031981169091555f906001600160a01b03167f8be0079c531659141344cd1fd0a4f28419497f9722a3daafe3b4186f6b6457e08280a3005b34610526576080366003190112610526576004356132f4615b6c565b6132fc615b82565b90613305615b98565b61330d616658565b835f526020906047825260ff60405f20541661356457603154851015613528575f85815260478352604090819020805460ff1916600190811790915554905163f87793ad60e01b8152600360048201526001600160a01b03939184168282602481845afa918215611451575f926134f1575b505f546040516370a0823160e01b8152928616600484015283908390602490829089165afa918215611451575f926134c2575b50816133f9575b877f2adebb70bb3b103cefaf9390284be786cfca6e31af32e66fc334704ad89ca6ad606088888888828e81604051961686521690840152166040820152a2005b90613422959493929161340b82616220565b9682612b5961341a8a95616278565b998a92615e5c565b813b1561052657865f879360e4938c9b8397876040519e8f998a9863362f187360e11b8a52600360048b01521660248901521660448701528b8b166064870152608486015260a485015260c48401525af18015611451577f2adebb70bb3b103cefaf9390284be786cfca6e31af32e66fc334704ad89ca6ad9660609685926134b3575b5096509394819293506133b9565b6134bc90615bde565b896134a5565b9091508281813d83116134ea575b6134da8183615c43565b81010312610526575190886133b2565b503d6134d0565b9091508281813d8311613521575b6135098183615c43565b810103126105265761351a90615f3f565b908861337f565b503d6134ff565b60405162461bcd60e51b81526004810183905260146024820152730a8d2daca82e4cadcc27440c4c2c840cae0dec6d60631b6044820152606490fd5b60405162461bcd60e51b8152600481018390526014602482015273151a5b59505c995b984e88199a5b985b1a5e995960621b6044820152606490fd5b34610526576080366003190112610526576135b9615b56565b6135c1615b6c565b6135c9615b82565b906135d2615b98565b906135db616658565b60018060a01b0392838092816001600160601b0360a01b9716876008541617600855168560095416176009551683600a541617600a551690600b541617600b555f80f35b3461052657602036600319011261052657613638616658565b60245461364a576105f4600435616e3f565b60405162461bcd60e51b815260206004820152602560248201527f54696d654172656e613a207573652073657445706f6368436861726d416e63686044820152641bdc95d85960da1b6064820152608490fd5b34610526575f366003190112610526576020602754604051908152f35b3461052657602080600319360112610526576004356136d761652b565b6136df616690565b335f52603482526136f660405f205442101561655a565b6136ff81616eff565b613707616f72565b6004546001600160a01b0392908316613721811515615efe565b61372a836161a4565b908115613cd757803b1561052657604051632770a7eb60e21b815233600482015260248101929092525f908290604490829084905af1801561145157613cc8575b50602654805f52603c825260405f20335f52825260405f2061378e848254615d20565b90555f52603d815260405f206137a5838254615d20565b9055335f526032815260405f206137bd838254615d20565b90556137cb82602854615d20565b602855335f526033815260405f209283549182159260019586820180921161153457556065548581018091116115345760655561380a60235442615d20565b335f526034825260405f20556025544281115f14613cc15761382c4282615e5c565b905b613846600f54601754601b5490601f5492428661791b565b9590806025558681602a55613c8e575b5080613c81575b613c18575b6025549080821115613c0f5761387791615e5c565b925b335f526067835260405f20548015613c08575b613895876179ad565b90335f526038855260405f206138ac838254615d20565b9055335f52606885526138c48260405f2054836179fd565b929092335f52606787528360405f20556068875260405f205560405190815282868201527f681e93ec66a1e7f0d504acc55cc0b0c0ee2546b290190ccdeb1e90e83ecec97660403392a2808211613b91575b506064549060ff60038161392b818616615e4a565b160616809260ff1916176064556003821015610a72578691606101936001600160601b0360a01b943386825416179055335f526033865261397060405f205433616bab565b6002821015613b51575b6003821015613a88575b6004821015613a27575b506005915010156139f7575b5050602554602754905f6065549360405197885287015260408601526060850152608084015260a0830152151560c08201528160e08201525f80516020618b618339815191526101003392a25f80516020618b8183398151915255005b6041549081168015159081613a1c575b501561399a57166041555f604255858061399a565b905033141588613a07565b613a2f617af1565b60fa92613a7e575b601e11613a5e575b613a4b60059233616a77565b613a57611e9f336169eb565b869161398e565b6096820180921115613a3f57634e487b7160e01b5f52601160045260245ffd5b6102ee9250613a37565b9150613a92617ad0565b8661038483108080613b48575b15613b2f575060665484163303613b125750335f526037855260405f209182548a8101809111611534578893555b335f526037865260405f20546036875260405f205410613afb575b613af660405f205433616d63565b613984565b6037865260405f20546036875260405f2055613ae8565b91335f52603786528960405f205533856066541617606655613acd565b92909261398457335f52603786525f6040812055613984565b50871515613a9f565b613b59617aaf565b861561397a57335f526035865260405f20613b75888254615d20565b9055335f5260358652613b8c60405f205433616c87565b61397a565b6040518281527f91e51c29e7e87a74ad3b8ccba98538970f50a4309242735467f41e27c6b0fbac863392a2888101809111611534575b818111613916576040518181527f33879b70e72ce48a1e1cce36586491ae9b0074bc1f86d5ad80da33bbed5bbce2863392a25f198114611534578801613bc7565b508661388c565b50505f92613879565b60265487810180911161153457805f52603f845260405f20335f52845260405f208054683ba1910bf341b000009182820180921161153457556040519081527f135d669544c1a460dd7b5f82c47189c86898c39919d3f604f6d023b68c9849fd853392a3613862565b508360045416151561385d565b7f0b161138d65ee8419c59f82b310d2368e3bab076a225062e56c275fde66259938560265492604051908152a288613856565b5f9061382e565b613cd190615bde565b8361376b565b60405162461bcd60e51b815260048101849052601960248201527f54696d654172656e613a207a65726f2063726564206275726e000000000000006044820152606490fd5b34610526575f36600319011261052657600b546040516001600160a01b039091168152602090f35b34610526575f366003190112610526576020602654604051908152f35b346105265760203660031901126105265760043560048110156105265760209060130154604051908152f35b34610526576020806003193601126105265760043590613dab61652b565b6004546001600160a01b039190613dc59083161515615efe565b602654831015613f6057825f52603c815260405f20335f52815260405f205491835f52603f825260405f20335f52825260405f2054831580158091613f57575b15613f12578194865f52603d855260405f20549180613f09575b613ee1575b505050835f52603c825260405f20335f5282525f6040812055835f52603f825260405f20335f5282525f60408120556004541690813b15610526576040516340c10f1960e01b815233600482015260248101849052915f908390604490829084905af1918215611451577ff72461ad1a4e75bb1bdd42ea3548a573bd8dff790f26a4de3a5e03ed37169ea792613ed2575b506040519283523392a360015f80516020618b8183398151915255005b613edb90615bde565b84613eb5565b613f0093955090613efa91603e865260405f205461647d565b90615d20565b91848080613e24565b50811515613e1f565b60405162461bcd60e51b815260048101859052601b60248201527f54696d654172656e613a206e6f7468696e6720746f20636c61696d00000000006044820152606490fd5b50811515613e05565b6064906040519062461bcd60e51b82526004820152601760248201527f54696d654172656e613a2065706f6368206163746976650000000000000000006044820152fd5b3461052657602036600319011261052657600435600481101561052657602090602e0154604051908152f35b34610526575f36600319011261052657602060405160c88152f35b3461052657602036600319011261052657600435600481101561052657602090601b0154604051908152f35b34610526576020366003190112610526576001600160a01b03614038615b56565b165f526037602052602060405f2054604051908152f35b34610526575f36600319011261052657602060ff602954166040519015158152f35b34610526576020366003190112610526576001600160a01b03614092615b56565b165f526035602052602060405f2054604051908152f35b34610526575f366003190112610526576048546040516001600160a01b039091168152602090f35b34610526575f366003190112610526577f00000000000000000000000000000000000000000000000000000000000000006001600160a01b0316300361413b5760206040517f360894a13ba1a3210667c828492db98dca3e2076cc3735a920a3ca505d382bbc8152f35b60405163703e46dd60e11b8152600490fd5b3461052657604036600319011261052657614166615b6c565b6004355f52603c60205260405f209060018060a01b03165f52602052602060405f2054604051908152f35b6040366003190112610526576141a5615b56565b60249081356001600160401b039182821161052657366023830112156105265781600401359283116143a957602092604051926141eb85601f19601f8501160185615c43565b8184523686838301011161052657815f928787930183870137840101526001600160a01b037f0000000000000000000000000000000000000000000000000000000000000000811630811490811561437b575b5061413b5761424b616658565b6040516352d1902d60e01b8152908216938082600481885afa9182915f9361434b575b505061428c5750505060405190634c9c8ce360e01b82526004820152fd5b847f360894a13ba1a3210667c828492db98dca3e2076cc3735a920a3ca505d382bbc918281036143365750823b15614320575080546001600160a01b03191684179055604051927fbc7cd75a20ee27fd9adebab32041f755214dbc6bffa90cc0225b39da2e5c2d3b5f80a2815115614308576105f49250617bee565b50503461431157005b63b398979f60e01b8152600490fd5b604051634c9c8ce360e01b815260048101869052fd5b60405190632a87526960e21b82526004820152fd5b9080929350813d8311614374575b6143638183615c43565b81010312610526575190868061426e565b503d614359565b9050817f360894a13ba1a3210667c828492db98dca3e2076cc3735a920a3ca505d382bbc541614158661423e565b83634e487b7160e01b5f5260416004525ffd5b34610526575f366003190112610526576003546040516001600160a01b039091168152602090f35b34610526576020806003193601126105265760043561440161652b565b80156147635761441a6024916115486024541515615eb9565b906040519061442882615c0d565b60803683376040519161443a83615c0d565b60803684375f93845b60ff861660048110156144a25761449960ff92613efa600193614465876160dd565b61446f828a615ff5565b5261447987616146565b614483828c615ff5565b52610fd1614491828a615ff5565b51918b615ff5565b96011694614443565b5086846144b0879385615e5c565b8061474c575b505f905f5b60ff8116600481101561470d576144d28189615ff5565b51614604575b6144e28187615ff5565b516144f4575b5060010160ff166144bb565b60018054604051630b1feb5d60e41b815260048101849052939593916001600160a01b0391889084908890829086165afa928315611451575f936145cd575b50614546825f541684610f4b878d615ff5565b5416906145538389615ff5565b5190823b1561052657604051639d3a8f0560e01b815260ff8816600482015260248101929092526001600160a01b03166044820152905f908290606490829084905af192831561145157610fd16001936145b69360ff966145be575b5089615ff5565b9391506144e8565b6145c790615bde565b8c6145af565b9092508781813d83116145fd575b6145e58183615c43565b81010312610526576145f690615f3f565b918b614533565b503d6145db565b6001805460405163f87793ad60e01b8152600481018490529295916001600160a01b0391889085908890829086165afa938415611451575f946146d6575b506146568b85610f4b8a865f541693615ff5565b541691614663868b615ff5565b5190833b1561052657604051636fdec13d60e11b815260ff8616600482015260248101929092526001600160a01b03166044820152915f908390606490829084905af1918215611451576146c1926146c7575b50610fd1858a615ff5565b926144d8565b6146d090615bde565b896146b6565b9093508781813d8311614706575b6146ee8183615c43565b81010312610526576146ff90615f3f565b928b614642565b503d6146e4565b867f52a5e21a86b52f707474ded2848c3fa0264ea17c2ccf8b1b062ca4e0d69ae091866040519283523392a260015f80516020618b8183398151915255005b61475b60608501918251615d20565b9052856144b6565b60405162461bcd60e51b8152600481018390526016602482015275151a5b59505c995b984e881e995c9bc8185b5bdd5b9d60521b6044820152606490fd5b34610526575f366003190112610526576008546040516001600160a01b039091168152602090f35b34610526575f366003190112610526576041546040516001600160a01b039091168152602090f35b34610526575f366003190112610526576020600c54604051908152f35b34610526576020366003190112610526576004355f52603d602052602060405f2054604051908152f35b34610526575f3660031901126105265760206122b4615e69565b34610526575f366003190112610526576004546040516001600160a01b039091168152602090f35b3461052657604036600319011261052657614893615b56565b61489b615b6c565b9060018060a01b038091165f52604660205260405f2091165f52602052602060405f2054604051908152f35b34610526575f36600319011261052657600a546040516001600160a01b039091168152602090f35b34610526575f366003190112610526576020602554604051908152f35b34610526575f3660031901126105265760206040516701529c1a82b791128152f35b34610526575f36600319011261052657614946616658565b602480546149da5742602455426007555f5b600460ff82161061499e577f33789300e7043c21750457cc66f0c68d69dda90fedc0c70b1b6dcc38d16c94c56040602a54806025556024549082519182526020820152a1005b60048110156149c6576001816149ba60ff936013015442615d20565b81602a01550116614958565b50634e487b7160e01b5f9081526032600452fd5b60405162461bcd60e51b8152602060048201526012602482015271151a5b59505c995b984e881cdd185c9d195960721b6044820152606490fd5b34610526575f36600319011261052657602060405160968152f35b3461052657604036600319011261052657614a48615b56565b6024359081159182150361052657614a5e61652b565b614a66616690565b614a6f33616730565b6001600160a01b0381169182151580614f72575b15614f3557825f52604360205260405f206201518042045f5260205260ff60405f20541690335f52604460205260405f206201518042045f5260205260ff60405f2054166003831091821592614f29575b928293614ae03361677a565b93614d2d575b50614af0856169eb565b614af9336169eb565b8015159081614d0e575b81614cf7575b5015614cba57614b3590875f52604060205260405f205442105f14614caf5761ffff60645b1690616077565b948515614c725785614b4691616a1b565b614b508533616a77565b614b5c611e9f336169eb565b60ff8110614c3b575b5060ff8110614c04575b5062015180420180421161153457845f52604560205260405f20335f5260205260405f2055835f52604660205260405f20335f5260205260405f208054906001820180921161153457556040519283526020830152151560408201527f042136b6a96765a35c274b83b749f460a4e39509a420c58544b27da617921fd860603392a360015f80516020618b8183398151915255005b614c0d90615e4a565b335f52604460205260405f206201518042045f5260205260ff60405f20911660ff1982541617905584614b6f565b614c4490615e4a565b855f52604360205260405f206201518042045f5260205260ff60405f20911660ff1982541617905585614b65565b60405162461bcd60e51b815260206004820152601560248201527454696d654172656e613a20737465616c207a65726f60581b6044820152606490fd5b61ffff6103e8614b2e565b60405162461bcd60e51b8152602060048201526015602482015274151a5b59505c995b984e881cdd19585b0818985b99605a1b6044820152606490fd5b600a80820292508204036115345781111588614b09565b90506001600160ff1b0381168103611534578060011b82101590614b03565b929092614eeb575f546040516370a0823160e01b8152306004820152906001600160a01b0316602082602481845afa918215611451575f92614eb7575b50604051906323b872dd60e01b5f523360045230602452690a968163f0a57b40000060445260205f60648180855af160015f5114811615614ea1575b826040525f60605215614e8c5750505f546040516370a0823160e01b81523060048201529190602090839060249082906001600160a01b03165afa8015611451575f90614e58575b614df89250615e5c565b690a968163f0a57b4000008103614e1957614e1291615d20565b9186614ae6565b60405162461bcd60e51b815260206004820152601760248201527654696d654172656e613a2045524332302070617269747960481b6044820152606490fd5b506020823d602011614e84575b81614e7260209383615c43565b8101031261052657614df89151614dee565b3d9150614e65565b635274afe760e01b8252600482015260249150fd5b600181151661301457813b15153d151616614da6565b9091506020813d602011614ee3575b81614ed360209383615c43565b8101031261052657519088614d6a565b3d9150614ec6565b60405162461bcd60e51b8152602060048201526016602482015275151a5b59505c995b984e881cdd19585b081b1a5b5a5d60521b6044820152606490fd5b60038210159250614ad4565b60405162461bcd60e51b815260206004820152601560248201527454696d654172656e613a206261642076696374696d60581b6044820152606490fd5b5033831415614a83565b3461052657602036600319011261052657600435600481101561052657602090600f0154604051908152f35b34610526575f366003190112610526576020600754604051908152f35b34610526575f366003190112610526576020604051683ba1910bf341b000008152f35b34610526575f366003190112610526576020604051674563918244f400008152f35b34610526575f3660031901126105265760206040516154608152f35b34610526575f366003190112610526576020604254604051908152f35b34610526576020366003190112610526576004358015158091036105265760207f40db37ff5c0bdc2c427fbb2078c8f24afea940abac0e3c23bb4ea3bf2da2b2129161508d616658565b60ff196029541660ff821617602955604051908152a1005b34610526575f366003190112610526576002546040516001600160a01b039091168152602090f35b34610526576020806003193601126105265760043560ff81168103610526576150f590615dde565b90916151046040518094615bae565b5f606084015b600382106151175760c085f35b8280600192865181520194019101909261510a565b34610526575f36600319011261052657602060405169021e19e0c9bab24000008152f35b34610526575f366003190112610526576020600d54604051908152f35b34610526575f366003190112610526576020600e54604051908152f35b34610526575f36600319011261052657602060405160fa8152f35b34610526575f366003190112610526576020602454604051908152f35b34610526576080366003190112610526576151db615b56565b606435151560643503610526576151f061652b565b6048546001600160a01b03163303615a285761520a616690565b5f9060018060a01b0381165f52603460205261522c60405f205442101561655a565b615237602435616eff565b61523f616f72565b61526f61525561524d615e69565b602435616311565b604854336001600160a01b0390911603615a225733616904565b91602654805f52603c60205260405f2060018060a01b0384165f5260205260405f2061529e6024358254615d20565b9055805f52603d60205260405f206152b96024358254615d20565b90555f52603e60205260405f208054906801e5b8fa8fe2ac00008201809211611534575560018060a01b0382165f52603260205260405f206152fe6024358254615d20565b905561530e602435602854615d20565b602855604435151580615a0e575b615828575b8060405161532e81615c0d565b60803682376040519161534083615c0d565b60803684376040519361535285615c0d565b6080368637815b600460ff821610156153f457600160ff916003838216145f146153e5576153d16153c561538d60038d165b8d60021c615d20565b61539681616373565b6153a28786168b615ff5565b526153ac816163be565b6153b88786168c615ff5565b52610e538685168a615ff5565b610e538584168a615ff5565b6153dd8483168a615ff5565b520116615359565b6153d16153c561538d87615384565b5094929092835b600460ff821610156158075760048110156157f35780602e015461542260ff831686615ff5565b516156d4575b61543560ff831685615ff5565b516155a8575b61544860ff831688615ff5565b5161545a575b5060010160ff166153fb565b60015460405163c835e7e160e01b815260ff841660048201529298929190602090839060249082906001600160a01b03165afa9182156112b457879261556c575b5086546154b9906001600160a01b031683610f4b60ff8d168c615ff5565b6001546001600160a01b031690600281018111615558576154dd60ff8b168a615ff5565b5192823b1561555457916002898c93615510829660405198899788968795636b03fb1560e11b8752019060048601616fdf565b03925af1801561105b57908691615540575b5050600161553860ff92610fd1848b168a615ff5565b97915061544e565b61554990615bde565b611158578489615522565b8880fd5b634e487b7160e01b88526011600452602488fd5b9091506020813d6020116155a0575b8161558860209383615c43565b810103126112a85761559990615f3f565b908a61549b565b3d915061557b565b600154604051630b1feb5d60e41b815260ff8416600482015291989190602090829060249082906001600160a01b03165afa9081156112b457879161569a575b508654615606906001600160a01b031682610f4b60ff871689615ff5565b600180546001600160a01b0316908a018a116155585761562960ff851687615ff5565b5190803b15615554579088916001838d61565b60405197889687958694636b03fb1560e11b8652018c60048601616fdf565b03925af180156112b457908791615686575b505061568090610fd160ff841686615ff5565b9661543b565b61568f90615bde565b61104f57858a61566d565b90506020813d6020116156cc575b816156b560209383615c43565b810103126112a8576156c690615f3f565b8a6155e8565b3d91506156a8565b60015460405163f87793ad60e01b815260ff8416600482015291989190602090829060249082906001600160a01b03165afa9081156112b45787916157b9575b508654615732906001600160a01b031682610f4b60ff87168a615ff5565b6001546001600160a01b031661574b60ff851688615ff5565b51813b156155545791889161577a93838d60405196879586948593636b03fb1560e11b85528c60048601616fdf565b03925af180156112b4579087916157a5575b505061579f90610fd160ff841687615ff5565b96615428565b6157ae90615bde565b61104f57858a61578c565b90506020813d6020116157eb575b816157d460209383615c43565b810103126112a8576157e590615f3f565b8a615714565b3d91506157c7565b634e487b7160e01b85526032600452602485fd5b6112f0828961581881602754615d20565b602755606435916024359061700c565b60035460405163711bf87960e01b8152604435600482015290602090829060249082906001600160a01b03165afa908115611451575f916159d4575b506001600160a01b038116156114a1576001600160a01b038181169084161461145c576004546001600160a01b0316806158a0575b5050615321565b803b15610526576040516340c10f1960e01b81526001600160a01b0383166004820152674563918244f400006024820152905f908290604490829084905af18015611451576159c1575b506004546001600160a01b0316803b156159bd576040516340c10f1960e01b81526001600160a01b0385166004820152674563918244f4000060248201529083908290604490829084905af180156159b25790839161599a575b505060408051674563918244f400008082526020820152604435926001600160a01b0390811692908616917ff9d0b7562a9415eece6e30788862682d80ece5bab11cc3abd284aac45641ccf69190a48380615899565b6159a390615bde565b6159ae578185615944565b5080fd5b6040513d85823e3d90fd5b8280fd5b6159cc919250615bde565b5f90846158ea565b90506020813d602011615a06575b816159ef60209383615c43565b8101031261052657615a0090615f3f565b84615864565b3d91506159e2565b506003546001600160a01b0316151561531c565b82616904565b60405162461bcd60e51b81526020600482015260156024820152742a34b6b2a0b932b7309d103737ba103937baba32b960591b6044820152606490fd5b34610526576020366003190112610526576001600160a01b03615a86615b56565b165f526038602052602060405f2054604051908152f35b34610526575f36600319011261052657602060405160018152f35b3461052657604036600319011261052657615ad1615b56565b6122b460243591825f52602092603f845260405f209160018060a01b031691825f52845260405f205491815f52603c855260405f20905f52845260405f2054905f52603d845260405f20545f9180151580615b4d575b615b33575b5050615d20565b615b469250603e865260405f205461647d565b8480615b2c565b50811515615b27565b600435906001600160a01b038216820361052657565b602435906001600160a01b038216820361052657565b604435906001600160a01b038216820361052657565b606435906001600160a01b038216820361052657565b5f915b60038310615bbe57505050565b81516001600160a01b031681526001929092019160209182019101615bb1565b6001600160401b03811161275e57604052565b6101a081019081106001600160401b0382111761275e57604052565b608081019081106001600160401b0382111761275e57604052565b606081019081106001600160401b0382111761275e57604052565b90601f801991011681019081106001600160401b0382111761275e57604052565b34610526575f366003190112610526576020604051683635c9adc5dea000008152f35b34610526575f366003190112610526576020604051620151808152f35b346105265760203660031901126105265760206122b4615cc2615b56565b616e57565b91908251928382525f5b848110615cf1575050825f602080949584010152601f8019910116010190565b602081830181015184830182015201615cd1565b34610526575f36600319011261052657602060405160038152f35b9190820180921161153457565b15615d3457565b60405162461bcd60e51b8152602060048201526012602482015271151a5b59505c995b984e881898590818d85d60721b6044820152606490fd5b60405191905f835b60038210615d8c57505050615d8a82615c28565b565b82546001600160a01b031681526001928301929190910190602001615d76565b60405191905f835b60038210615dc857505050615d8a82615c28565b6001602081928554815201930191019091615db4565b6060604051615dec81615c28565b3690376060604051615dfd81615c28565b36903760ff8116615e1060048210615d2d565b15615e3d576004811015610a725760060290615e3a604c615e3384604901615d6e565b9301615dac565b90565b50615e466165b5565b9091565b60ff60019116019060ff821161153457565b9190820391821161153457565b6006548015615eb0575b8015615eab5760075480158015615ea1575b615e9d5790615e97615e3a9242615e5c565b906177c6565b5090565b5080421115615e85565b505f90565b50600554615e73565b15615ec057565b60405162461bcd60e51b8152602060048201526016602482015275151a5b59505c995b984e881b9bdd081cdd185c9d195960521b6044820152606490fd5b15615f0557565b60405162461bcd60e51b8152602060048201526012602482015271151a5b59505c995b984e881b9bc818dc995960721b6044820152606490fd5b51906001600160a01b038216820361052657565b15615f5a57565b60405162461bcd60e51b815260206004820152601560248201527454696d654172656e613a207a65726f20707269636560581b6044820152606490fd5b6004811015610a725760051b60c40190565b6004811015610a725760051b6101440190565b6004811015610a725760051b6101c40190565b6004811015610a725760051b6102440190565b6004811015610a725760051b6102c40190565b906004811015610a725760051b0190565b6001600160a01b0390811690811561605f575f80516020618b2183398151915280546001600160a01b031981168417909155167f8be0079c531659141344cd1fd0a4f28419497f9722a3daafe3b4186f6b6457e05f80a3565b604051631e4fbdf760e01b81525f6004820152602490fd5b905f19818309818302918280831092039180830392146160d25761271090828211156160c0575f80516020618b41833981519152940990828211900360fc1b910360041c170290565b634e487b715f5260116020526024601cfd5b505061271091500490565b6103e85f198183098183029182808310920391808303921461613b57611b5890828211156160c0577faadc994eb3a38c2447632e84d3d25bde0fcc81e6d6bf577a9661b807058f1143940990828211900360fd1b910360031c170290565b5050611b5891500490565b6102ee5f198183098183029182808310920391808303921461613b57611b5890828211156160c0577faadc994eb3a38c2447632e84d3d25bde0fcc81e6d6bf577a9661b807058f1143940990828211900360fd1b910360031c170290565b68056bc75e2d631000005f198183098183029182808310920391808303921461620f57670de0b6b3a764000090828211156160c0577faccb18165bd6fe31ae1cf318dc5b51eee0e1ba569b88cd74c1773b91fac10669940990828211900360ee1b910360121c170290565b5050670de0b6b3a764000091500490565b5f19600482098160021b9081808210910381811461626e5703600711156160c057600760047f6db6db6db6db6db6db6db6db6db6db6db6db6db6db6db6db6db6db6db6db6db7930990030290565b5050600791500490565b5f19600282098160011b9081808210910381811461626e5703600711156160c057600760027f6db6db6db6db6db6db6db6db6db6db6db6db6db6db6db6db6db6db6db6db6db7930990030290565b6103e85f19818309818302918280831092039180830392146160d25761271090828211156160c0575f80516020618b41833981519152940990828211900360fc1b910360041c170290565b905f198183098183029182808310920391808303921461620f57670de0b6b3a764000090828211156160c0577faccb18165bd6fe31ae1cf318dc5b51eee0e1ba569b88cd74c1773b91fac10669940990828211900360ee1b910360121c170290565b611b585f19818309818302918280831092039180830392146160d25761271090828211156160c0575f80516020618b41833981519152940990828211900360fc1b910360041c170290565b6107d05f19818309818302918280831092039180830392146160d25761271090828211156160c0575f80516020618b41833981519152940990828211900360fc1b910360041c170290565b5f1960098209600982029081808210910390808203911461646d57677d09f34352450000818111156160c05760097fdd0436efdb56a870304d849d3ea7e5938e5663378900f45e71e7bf736dcff08d940990828211900360f01b910360101c170290565b50677d09f3435245000091500490565b90915f19838309928083029283808610950394808603951461650957848311156164f15790829109815f038216809204600280826003021880830282030280830282030280830282030280830282030280830282030280920290030293600183805f03040190848311900302920304170290565b82634e487b715f52156003026011186020526024601cfd5b505080925015616517570490565b634e487b7160e01b5f52601260045260245ffd5b5f80516020618b8183398151915260028154146165485760029055565b604051633ee5aeb560e01b8152600490fd5b1561656157565b60405162461bcd60e51b815260206004820152601760248201527f54696d654172656e613a2062757920636f6f6c646f776e0000000000000000006044820152606490fd5b6003821015610a725701905f90565b6040516165c181615c28565b60603682378091604051916165d583615c28565b606036843760645460ff1683600380831015610a725760618301546001600160a01b039081168552926002810160ff81116115345760ff839116069082821015610a725761663160ff9186859460610154166020890152615e4a565b16069381851015610a72576040809460019660610154169101528152600260208201520152565b5f80516020618b21833981519152546001600160a01b0316330361667857565b60405163118cdaa760e01b8152336004820152602490fd5b61669d6024541515615eb9565b60ff602954166166f75760255442116166b257565b60405162461bcd60e51b815260206004820152601860248201527f54696d654172656e613a2074696d6572206578706972656400000000000000006044820152606490fd5b60405162461bcd60e51b8152602060048201526011602482015270151a5b59505c995b984e881c185d5cd959607a1b6044820152606490fd5b61673b600491616e57565b1061674257565b60405162461bcd60e51b815260206004820152601060248201526f151a5b59505c995b984e881b195d995b60821b6044820152606490fd5b5f54604080516370a0823160e01b8082523060048301526001600160a01b0393841695946020949192919085836024818b5afa9283156168fa575f936168cb575b50818551916323b872dd60e01b5f521660045230602452683635c9adc5dea000009788604452865f60648180855af160015f51148116156168b5575b8287525f60605215614e8c57505084905f541692602485518095819382523060048301525afa80156168ab575f9061687c575b6168349250615e5c565b93840361683f575050565b60649250519062461bcd60e51b82526004820152601760248201527654696d654172656e613a2045524332302070617269747960481b6044820152fd5b508382813d83116168a4575b6168928183615c43565b8101031261052657616834915161682a565b503d616888565b83513d5f823e3d90fd5b600181151661301457813b15153d1516166167f7565b9092508581813d83116168f3575b6168e38183615c43565b810103126105265751915f6167bb565b503d6168d9565b85513d5f823e3d90fd5b5f54604080516370a0823160e01b808252306004830152949594602094929390926001600160a01b039182168684602481845afa9384156169e1575f946169b2575b50828651926323b872dd60e01b5f52166004523060245288604452865f60648180855af160015f51148116156168b5578287525f60605215614e8c57505084905f541692602485518095819382523060048301525afa80156168ab575f9061687c576168349250615e5c565b9093508681813d83116169da575b6169ca8183615c43565b810103126105265751925f616946565b503d6169c0565b86513d5f823e3d90fd5b6001600160a01b03165f908152603b6020526040902054603a5403616a1757603960205260405f205490565b5f90565b6001600160a01b03165f818152603b6020526040902054603a5491929103616a7357603960205260405f208054909190808210616a64575050505f5260396020525f6040812055565b616a6f929350615e5c565b9055565b5050565b6001600160a01b03165f908152603b6020526040902054603a5403616aab575b6039602052616a6f60405f20918254615d20565b60396020525f6040812055603a54603b60205260405f2055616a97565b91905f5b60038060ff83161015616b2457811015610a7257605b8101546001600160a01b03858116911614616b025760010160ff16616acc565b90919250605e0180548211616b1c575b5050615d8a617521565b555f80616b12565b50505f5b60038060ff83161015616ba45781101580610a7257605b8201805490916001600160a01b0390818316158015616b95575b616b6c575050505060010160ff16616b28565b9690919293949596610a725716906001600160601b0360a01b16179055605e0155615d8a617521565b50505f84605e01548611616b59565b5050509050565b91905f5b60038060ff83161015616c0757811015610a725760498101546001600160a01b03858116911614616be55760010160ff16616baf565b90919250604c0180548211616bff575b5050615d8a6175ce565b555f80616bf5565b50505f5b60038060ff83161015616ba45781101580610a725760498201805490916001600160a01b0390818316158015616c78575b616c4f575050505060010160ff16616c0b565b9690919293949596610a725716906001600160601b0360a01b16179055604c0155615d8a6175ce565b50505f84604c01548611616c3c565b91905f5b60038060ff83161015616ce357811015610a7257604f8101546001600160a01b03858116911614616cc15760010160ff16616c8b565b9091925060520180548211616cdb575b5050615d8a617676565b555f80616cd1565b50505f5b60038060ff83161015616ba45781101580610a7257604f8201805490916001600160a01b0390818316158015616d54575b616d2b575050505060010160ff16616ce7565b9690919293949596610a725716906001600160601b0360a01b1617905560520155615d8a617676565b50505f84605201548611616d18565b91905f5b60038060ff83161015616dbf57811015610a725760558101546001600160a01b03858116911614616d9d5760010160ff16616d67565b9091925060580180548211616db7575b5050615d8a61771e565b555f80616dad565b50505f5b60038060ff83161015616ba45781101580610a725760558201805490916001600160a01b0390818316158015616e30575b616e07575050505060010160ff16616dc3565b9690919293949596610a725716906001600160601b0360a01b1617905560580155615d8a61771e565b50505f84605801548611616df4565b616e4a811515615f53565b8060065542600755600555565b6001600160a01b03165f9081526067602052604090205480616e86575060015b6005811115615e3a5750600590565b616e77565b15616e9257565b60405162461bcd60e51b815260206004820152600e60248201526d105c995b98561c0e881b195d995b60921b6044820152606490fd5b616ed56001821015616e8b565b6005811015616ef957616ee7906177fd565b9080821115616ef957615e3a91615e5c565b50505f90565b670dbd2fc137a300008110159081616f5f575b5015616f1a57565b60405162461bcd60e51b815260206004820152601760248201527f54696d654172656e613a20636861726d20626f756e64730000000000000000006044820152606490fd5b678ac7230489e80000915011155f616f12565b616f7a617871565b15615d8a57616f87617c9e565b9060265460018101809111611534577fc82c1be3df4b5a2413e4fc3b511951c25fc315ec7bfe8a749cb80aab299bef7c91606091602655616fc781616e3f565b602654936040519182526020820152426040820152a2565b60ff9091168152602081019190915260408101919091526001600160a01b03909116606082015260800190565b92919260018060a01b0380821694855f5260209060338252604095865f20948554801596600182018092116115345755606554916001830180931161153457889260655561705c60235442615d20565b8a5f5260348652835f20556025544281115f1461751a5761707d4282615e5c565b905b617097600f54601754601b5490601f5492428661791b565b9990806025558a81602a556174e8575b50806174db575b61746e575b6025549080821115617465576170c891615e5c565b965b8b5f5260678752845f2054801561745d575b8c6170e68c6179ad565b815f5260388a52875f20818154906170fd91615d20565b9055815f5260688a5280885f20549061711691856179fd565b909e908f90845f5260678d5281835f205560688d52825f205581519283528b8301527f681e93ec66a1e7f0d504acc55cc0b0c0ee2546b290190ccdeb1e90e83ecec97691a28c8c898382116173e0575b505050506064549060ff60038161717e818616615e4a565b160616809260ff1916176064556003821015610a72578c91606101906001600160601b0360a01b918383825416179055825f52603389526171c2875f205487616bab565b60028d10156173a2575b60038d10156172e5575b50505060048a101561724f575b50906101009796959493929160055f80516020618b618339815191529a101561723f575b505060255490602754926065549482519889528801528601526060850152608084015260a0830152151560c08201525f60e0820152a2565b61724891617b12565b5f80617207565b98879961725a617af1565b60fa9a6172db575b601e116172b2575b90600583926172905f80516020618b618339815191529c6101009c9b9a99989796616a77565b6172a261729c856169eb565b85616ac8565b9a505090919293949596976171e3565b979695949392919060968a01809a1161153457600561010099919293949596979899505061726a565b6102ee9a50617262565b6172ed617ad0565b61038484108080617399575b15617380575060665416820361736657505f5260378652835f208054906001820180921161153457555b8a5f5260378652835f205460368752845f205410617351575b617349845f205484616d63565b8a5f806171d6565b60378652835f205460368752845f205561733c565b815f52603788526001865f20556066541617606655617323565b92505050617349578a5f52603786525f84812055617349565b508a15156172f9565b6173aa617aaf565b89156171cc57825f5260358952865f206173c58b8254615d20565b9055825f52603589526173db875f205487616c87565b6171cc565b7f91e51c29e7e87a74ad3b8ccba98538970f50a4309242735467f41e27c6b0fbac918951908152a260018101809111611534575b8b811115617424578c8c89617166565b8c7f33879b70e72ce48a1e1cce36586491ae9b0074bc1f86d5ad80da33bbed5bbce2898851848152a25f19811461153457600101617414565b5060016170dc565b50505f966170ca565b602654600181019550851061153457845f52603f87528a5f208c5f5287528a5f20948554683ba1910bf341b000009081810180911161153457898f928f99927f135d669544c1a460dd7b5f82c47189c86898c39919d3f604f6d023b68c9849fd93558951908152a36170b3565b50876004541615156170ae565b7f0b161138d65ee8419c59f82b310d2368e3bab076a225062e56c275fde662599389602654928951908152a25f6170a7565b5f9061707f565b5f5b60ff91600283831610156175c95761753a82615e4a565b5b6003908185821610156175b95781811015610a7257605e90808201805493861015610a72578693866001940190815410617579575b5050011661753b565b605b83810180549189878060a01b0391019281845416926001600160601b0360a01b93848316179055169082541617905581549181549055555f80617570565b50509150600160ff910116617523565b915050565b5f5b60ff91600283831610156175c9576175e782615e4a565b5b6003908185821610156176665781811015610a7257604c90808201805493861015610a72578693866001940190815410617626575b505001166175e8565b604983810180549189878060a01b0391019281845416926001600160601b0360a01b93848316179055169082541617905581549181549055555f8061761d565b50509150600160ff9101166175d0565b5f5b60ff91600283831610156175c95761768f82615e4a565b5b60039081858216101561770e5781811015610a7257605290808201805493861015610a725786938660019401908154106176ce575b50500116617690565b604f83810180549189878060a01b0391019281845416926001600160601b0360a01b93848316179055169082541617905581549181549055555f806176c5565b50509150600160ff910116617678565b5f5b60ff91600283831610156175c95761773782615e4a565b5b6003908185821610156177b65781811015610a7257605890808201805493861015610a72578693866001940190815410617776575b50500116617738565b605583810180549189878060a01b0391019281845416926001600160601b0360a01b93848316179055169082541617905581549181549055555f8061776d565b50509150600160ff910116617720565b81156177f8576701529c1a82b791129180830292830403611534576177f262015180615e3a9304617b98565b90616311565b905090565b801561783d575f1981019081116115345760058102908082046005149015171561153457600a0180600a1161153457606481116178375790565b50606490565b50600a90565b60ff5f80516020618ba18339815191525460401c161561785f57565b604051631afcd79f60e31b8152600490fd5b60245415616a1757602554428111156178965761788f904290615e5c565b601b541190565b505f61788f565b60405163a9059cbb60e01b5f9081526001600160a01b039384166004526024949094529260209060448180855af160015f51148116156178fc575b83604052156178e657505050565b635274afe760e01b835216600482015260249150fd5b600181151661791257813b15153d1516166178d8565b833d5f823e3d90fd5b919490938483119182156179a6576179338685615e5c565b915b61793f8688615d20565b921061797f5750509361795c9161796294955f1461797857615d20565b92615d20565b8082101561797157505b905f90565b905061796c565b5084615d20565b93509450505061798e91615d20565b908082101561799f57505b90600190565b9050617999565b5f91617935565b670dbd2fc137a300008111156179f757678ac7230489e8000081101561783d57670dbd2fc137a2ffff198101908111611534576179e990616409565b600101806001116115345790565b50600190565b929092600192617a106001831015616e8b565b60059182811015617aa55790617a269195615d20565b92805f915b617a44575b505080841015617a3d5750565b92505f9150565b90949382861080617a9c575b15617a9557617a5e856177fd565b90818110617a8d5790617a7091615e5c565b938181018091116115345794818101809111611534579080617a2b565b949550617a30565b9394617a30565b50828510617a50565b509093505f925050565b617aca602b54601054601854601c549160205493429061791b565b50602b55565b617aeb602c54601154601954601d549160215493429061791b565b50602c55565b617b0c602d54601254601a54601e549160225493429061791b565b50602d55565b90617b5d57604154906001600160a01b038083168015159290919083617b50575b505050617b3d5750565b6001600160a01b0319166041555f604255565b16141590505f8080617b33565b60018060a01b03166001600160601b0360a01b604154161760415542604255565b8015616517576ec097ce7bc90715b34b9f10000000000590565b68023f2fa8f6da5b9d31198112615eab57680736ea4425c11ac6308113617bd657670de0b6b3a76400006714057b7ef767814f615e3a920205618291565b6024906040519063ca7ec0c560e01b82526004820152fd5b905f8091602081519101845af48080617c6c575b15617c225750506040513d81523d5f602083013e60203d82010160405290565b15617c4957604051639996b31560e01b81526001600160a01b039091166004820152602490fd5b3d15617c5a576040513d5f823e3d90fd5b60405163d6bda27560e01b8152600490fd5b503d151580617c025750813b1515617c02565b51908160020b820361052657565b519063ffffffff8216820361052657565b6008546001600160a01b03168015158061827d575b617ff757506110e64614617cd8576006548015617ccf57905f90565b5060055461796c565b60405190617ce582615bf1565b5f82525f60208301525f60408301525f60608301525f60808301525f60a08301525f60c08301525f60e08301526101005f81840152610120925f848201525f6101408201525f6101608201525f6101808092015260405193617d4685615bf1565b7368b34591f662508076927803c567cc8006988a09855273c3654b4f879937b767afbb64b7c230ff436d2342602086015273fbaa45a537cf07dc768c469ffac4e88208b0098d60408601526006602160991b01606086015273fafddbb3fc7688494971a79cc65dca3ef82079e76080860152606460a0860152606460c0860152610bb860e0860152610384838601526002818601526101f46101408601526402540be400610160860152670de0b6b3a764000082860152816040519563430f98b560e11b875260018060a01b03815116600488015260018060a01b03602082015116602488015260018060a01b03604082015116604488015260018060a01b03606082015116606488015260018060a01b03608082015116608488015260a081015162ffffff80911660a48901528060c08301511660c489015260e08201511660e488015263ffffffff85820151166101048801528281015161ffff8091166101248901526101408201511661014488015261016081015161016488015201516101848601526101a09485816101a48173__$b882982f266aaed32c18d167b980e065d1$__5af4958615611451575f96617f0a575b50505050506020820151915190565b9080929394959650813d8311617ff0575b617f258183615c43565b8101031261052657829160405194617f3c86615bf1565b82518652602083015160208701526040830151604087015260608301516060870152617f6a60808401615f3f565b6080870152617f7b60a08401615f3f565b60a0870152617f8c60c08401615f3f565b60c0870152617f9d60e08401617c7f565b60e0870152617fad818401617c7f565b90860152617fbc818301617c7f565b90850152617fcd6101408201617c8d565b610140850152610160810151610160850152015190820152905f80808080617efb565b503d617f1b565b90618090915f54905f60095492600a5492600b54946040958651936020966001600160601b03199384809360601b168988015282601960ea1b918260348a015260601b166037880152604b87015260601b16604e85015261017760eb1b606285015260601b1660658301526059825261806f82615c0d565b84518080988194632f80bb1d60e01b83528860048401526044830190615cc7565b670de0b6b3a7640000602483015203915afa938415618273575f94618166575b50831561812557836ec097ce7bc90715b34b9f1000000000049182156180d65750509190565b60849250519062461bcd60e51b82526004820152602360248201527f416e76696c4b756d62617961506f6f6c733a207a65726f20636861726d20707260448201526269636560e81b6064820152fd5b606491519062461bcd60e51b825280600483015260248201527f416e76696c4b756d62617961506f6f6c733a207a65726f20646f7562205553446044820152fd5b9093503d805f833e6181788183615c43565b81016080828203126105265781519185810151906001600160401b039182811161052657810183601f8201121561052657805188806181b683618b09565b6181c28a519182615c43565b838152019160051b83010191858311610526578901905b8282106182545750505084810151918211610526570181601f82011215610526578051868061820783618b09565b61821388519182615c43565b838152019160051b8301019283116105265786809201905b83821061823d5750505050925f6180b0565b82809161824984617c8d565b81520191019061822b565b81516001600160a01b03811681036105265781529089019089016181d9565b82513d5f823e3d90fd5b506009546001600160a01b03161515617cb3565b5f8112156182be5768033dd1780914b97114198112615eab576182b5905f03618291565b615e3a90617b7e565b680a688906bd8affffff8113618af257670de0b6b3a764000080604092831b0590600160bf1b67ff0000000000000083166189e1575b66ff00000000000083166188d9575b65ff000000000083166187d9575b64ff0000000083166186e1575b63ff00000083166185f1575b62ff00008316618509575b61ff008316618429575b60ff8316618352575b02911c60bf031c90565b60808316618417575b838316618405575b602083166183f3575b601083166183e1575b600883166183cf575b600483166183bd575b600283166183ab575b6001831615618348576801000000000000000102831c618348565b6801000000000000000102831c618390565b6801000000000000000302831c618387565b6801000000000000000602831c61837e565b6801000000000000000b02831c618375565b6801000000000000001602831c61836c565b6801000000000000002c02831c618363565b6801000000000000005902831c61835b565b61800083166184f7575b61400083166184e5575b61200083166184d3575b61100083166184c1575b61080083166184af575b610400831661849d575b610200831661848b575b61010083161561833f57680100000000000000b102831c61833f565b6801000000000000016302831c61846f565b680100000000000002c602831c618465565b6801000000000000058c02831c61845b565b68010000000000000b1702831c618451565b6801000000000000162e02831c618447565b68010000000000002c5d02831c61843d565b680100000000000058b902831c618433565b6280000083166185df575b6240000083166185cd575b6220000083166185bb575b6210000083166185a9575b620800008316618597575b620400008316618585575b620200008316618573575b62010000831615618335576801000000000000b17202831c618335565b680100000000000162e402831c618556565b6801000000000002c5c802831c61854b565b68010000000000058b9102831c618540565b680100000000000b172102831c618535565b68010000000000162e4302831c61852a565b680100000000002c5c8602831c61851f565b6801000000000058b90c02831c618514565b638000000083166186cf575b634000000083166186bd575b632000000083166186ab575b63100000008316618699575b63080000008316618687575b63040000008316618675575b63020000008316618663575b630100000083161561832a5768010000000000b1721802831c61832a565b6801000000000162e43002831c618645565b68010000000002c5c86002831c618639565b680100000000058b90c002831c61862d565b6801000000000b17217f02831c618621565b680100000000162e42ff02831c618615565b6801000000002c5c85fe02831c618609565b68010000000058b90bfc02831c6185fd565b64800000000083166187c7575b64400000000083166187b5575b64200000000083166187a3575b6410000000008316618791575b640800000000831661877f575b640400000000831661876d575b640200000000831661875b575b64010000000083161561831e57680100000000b17217f802831c61831e565b68010000000162e42ff102831c61873c565b680100000002c5c85fe302831c61872f565b6801000000058b90bfce02831c618722565b68010000000b17217fbb02831c618715565b6801000000162e42fff002831c618708565b68010000002c5c8601cc02831c6186fb565b680100000058b90c0b4902831c6186ee565b6580000000000083166188c7575b6540000000000083166188b5575b6520000000000083166188a3575b651000000000008316618891575b65080000000000831661887f575b65040000000000831661886d575b65020000000000831661885b575b65010000000000831615618311576801000000b17218355102831c618311565b680100000162e430e5a202831c61883b565b6801000002c5c863b73f02831c61882d565b68010000058b90cf1e6e02831c61881f565b680100000b1721bcfc9a02831c618811565b68010000162e43f4f83102831c618803565b680100002c5c89d5ec6d02831c6187f5565b6801000058b91b5bc9ae02831c6187e7565b668000000000000083166189cf575b664000000000000083166189bd575b662000000000000083166189ab575b66100000000000008316618999575b66080000000000008316618987575b66040000000000008316618975575b66020000000000008316618963575b66010000000000008316156183035768010000b17255775c0402831c618303565b6801000162e525ee054702831c618942565b68010002c5cc37da949202831c618933565b680100058ba01fb9f96d02831c618924565b6801000b175effdc76ba02831c618915565b680100162f3904051fa102831c618906565b6801002c605e2e8cec5002831c6188f7565b68010058c86da1c09ea202831c6188e8565b6780000000000000008316618adf575b6740000000000000008316618acd575b6720000000000000008316618abb575b6710000000000000008316618aa9575b6708000000000000008316618a97575b6704000000000000008316618a85575b6702000000000000008316618a73575b6701000000000000008316156182f457680100b1afa5abcbed6102831c6182f4565b68010163da9fb33356d802831c618a51565b680102c9a3e778060ee702831c618a41565b6801059b0d31585743ae02831c618a31565b68010b5586cf9890f62a02831c618a21565b6801172b83c7d517adce02831c618a11565b6801306fe0a31b7152df02831c618a01565b5068016a09e667f3bcc909607f1b6189f1565b60249060405190626c1a0560e31b82526004820152fd5b6001600160401b03811161275e5760051b6020019056fe9016d09d72d40fdae2fd8ceac6b6234c7706214fd39c1cd1e609a0528c199300bc01a36e2eb1c432ca57a786c226809d495182a9930be0ded288ce703afb7e91baf9a64575edd1ebb4308874e8680288c787f6741d8edc4d66ce61418bad169b9b779b17422d0df92223018b32b4d1fa46e071723d6817e2486d003becc55f00f0c57e16840df040f15088dc2f81fe391c3923bec73e23a9662efc9c229c6a00a2646970667358221220a2f8b1777e342024e57b20a2cabd31153363432e9961cdb829f0dc9a70978b9f64736f6c63430008180033","linkReferences":{"src/oracle/ArenaCharmPriceTwap.sol":{"ArenaCharmPriceTwap":[{"start":32722,"length":20}]}}},"methodIdentifiers":{"CAT_DEFENDED_STREAK()":"90c25e9f","CAT_LAST_BUYERS()":"f3181a5d","CAT_TIME_BOOSTER()":"0458a6a2","CAT_WARBOW()":"c364fb8d","CHARM_GROWTH_RATE_WAD()":"284e008c","CRED_PER_BUY()":"795ce9cd","CRED_PER_CHARM_WAD()":"d06fec83","DEFENDED_STREAK_WINDOW_SEC()":"c3f95f78","FIRST_BUY_CRED_BONUS()":"2128c5bf","NUM_PODIUM_CATEGORIES()":"b5b52a41","ONBOARDING_STARTER_CHARM_WAD()":"e01cb4f6","REFERRAL_CRED_FLAT_WAD()":"1f5e9f48","SECONDS_PER_DAY()":"74f0314f","UPGRADE_INTERFACE_VERSION()":"ad3cb1cc","WARBOW_AMBUSH_BONUS_BP()":"63e17058","WARBOW_BASE_BUY_BP()":"0bdf1344","WARBOW_CLUTCH_BONUS_BP()":"241a67ea","WARBOW_FLAG_CLAIM_BP()":"f0d77b70","WARBOW_FLAG_SILENCE_SEC()":"febc020f","WARBOW_GUARD_DOUB()":"13daca84","WARBOW_GUARD_DURATION_SEC()":"1bb303da","WARBOW_MAX_STEALS_PER_DAY()":"d2e0218f","WARBOW_REVENGE_DOUB()":"a964525a","WARBOW_REVENGE_WINDOW_SEC()":"93b994ba","WARBOW_STEAL_DOUB()":"534b34d5","WARBOW_STEAL_DRAIN_BPS()":"cf0f8764","WARBOW_STEAL_DRAIN_GUARDED_BPS()":"fbe69531","WARBOW_STEAL_LIMIT_BYPASS_DOUB()":"bb4a1915","WARBOW_STREAK_BREAK_MULT_BP()":"db4ddd30","WARBOW_TIMER_RESET_BONUS_BP()":"a57467ca","activeDefendedStreak(address)":"5d385f88","adminSellVault()":"15e59a2d","arenaStart()":"07f28715","battlePoints(address)":"b210d9f2","battlePointsGeneration(address)":"b05b7a9a","bestDefendedStreak(address)":"875f2916","buy(uint256)":"d96a094a","buy(uint256,bytes32)":"e9fca283","buyCooldownSec()":"b9a5684f","buyCount(address)":"9fefe7f4","buyFor(address,uint256,bytes32,bool)":"079110e4","buyWithCred(uint256)":"6d7121e8","charmAnchorCl8y()":"861a2439","charmAnchorKumbayaRouter()":"46cd2589","charmAnchorUsdm()":"6c47f869","charmAnchorWeth()":"2bed1022","charmPriceWad()":"e88f9001","charmWeight(address)":"e3b2ce01","claimCred(uint256)":"66b18087","claimWarBowFlag()":"b6f34499","deadline()":"29dcb0cf","doub()":"8e9a6122","effectiveCharmPriceWad()":"3d0f201d","epochAnchorTimestamp()":"215eb1fb","epochCharmAnchorWad()":"d877e858","epochCharmTotal(uint256)":"429dbb15","epochCharmWad(uint256,address)":"4f70a2f9","epochCredPool(uint256)":"87257c25","epochFixedCredBonus(uint256,address)":"c71d0719","finalizeWarbowPodium(uint256,address,address,address)":"6fa1cba7","grandfatherProgression(address[])":"d5fa9aed","initialTimerSec()":"12407d45","initialize(address,address,address,address,address,uint256,uint256[4],uint256[4],uint256[4],uint256[4],uint256[4],uint256,address)":"ee48c9f5","lastBuyEpoch()":"6a9ea067","lastBuyers()":"f3a6915d","level(address)":"d41b6db6","nextBuyAllowedAt(address)":"a9b2424e","owner()":"8da5cb5b","paused()":"5c975abb","pendingCred(address,uint256)":"0152f65f","playCred()":"39524dc8","podium(uint8)":"1458d4ad","podiumDeadline(uint256)":"ab8a6eb3","podiumEpoch(uint256)":"6611fd1b","podiumInitialTimerSec(uint256)":"69897053","podiumResetBelowRemainingSec(uint256)":"5eb7fb0c","podiumResetToRemainingSec(uint256)":"a56cba75","podiumTimerCapSec(uint256)":"deb26f6c","podiumTimerExtensionSec(uint256)":"21f28f87","podiumVaults()":"787a2c24","proxiableUUID()":"52d1902d","referralRegistry()":"4e627e62","renounceOwnership()":"715018a6","rollPodiumEpoch(uint8)":"a9b74776","setCharmAnchorOracle(address,address,address,address)":"6e695d58","setCharmPriceWad(uint256)":"6e19a728","setEpochCharmAnchorWad(uint256)":"8c7928ba","setPaused(bool)":"16c38b3c","setTimeArenaBuyRouter(address)":"e7a5ccf4","startArena()":"24bceab3","stealsCommittedByAttackerOnDay(address,uint256)":"9d70e671","stealsReceivedOnDay(address,uint256)":"75c48420","timeArenaBuyRouter()":"57cd7c88","timerCapSec()":"0f632576","timerExtensionSec()":"438009aa","topUpPodiumPools(uint256)":"487d3c84","totalCharmWeight()":"92882c36","totalDoubRaised()":"6dc84fb3","totalEffectiveTimerSecAdded(address)":"580a68b6","transferOwnership(address)":"f2fde38b","unlockedLevel(address)":"9c8d6f26","upgradeToAndCall(address,bytes)":"4f1ef286","warbowActivateGuard()":"90802dea","warbowBpGeneration()":"e7b9102b","warbowEpochFinalized(uint256)":"bcd8c930","warbowGuardUntil(address)":"b95683e4","warbowPendingFlagOwner()":"4423338e","warbowPendingFlagPlantAt()":"18f0574d","warbowPendingRevengeExpiryExclusive(address,address)":"82e02b0b","warbowPendingRevengeStealSeq(address,address)":"2c06f19b","warbowRevenge(address)":"bf38cfbf","warbowSteal(address,bool)":"23df5215","xp(address)":"0490cb74","xpToNextLevel(address)":"c71bfd6f","xpTowardNext(address)":"a247c2eb"},"id":95}