{"abi":[{"type":"constructor","inputs":[{"name":"_reserveAsset","type":"address","internalType":"contract IERC20"},{"name":"_doub","type":"address","internalType":"contract Doubloon"},{"name":"_epochDuration","type":"uint256","internalType":"uint256"},{"name":"_cMaxWad","type":"uint256","internalType":"uint256"},{"name":"_cStarWad","type":"uint256","internalType":"uint256"},{"name":"_alphaWad","type":"uint256","internalType":"uint256"},{"name":"_betaWad","type":"uint256","internalType":"uint256"},{"name":"_mMinWad","type":"uint256","internalType":"uint256"},{"name":"_mMaxWad","type":"uint256","internalType":"uint256"},{"name":"_lamWad","type":"uint256","internalType":"uint256"},{"name":"_deltaMaxFracWad","type":"uint256","internalType":"uint256"},{"name":"_eps","type":"uint256","internalType":"uint256"},{"name":"admin","type":"address","internalType":"address"}],"stateMutability":"nonpayable"},{"type":"function","name":"DEFAULT_ADMIN_ROLE","inputs":[],"outputs":[{"name":"","type":"bytes32","internalType":"bytes32"}],"stateMutability":"view"},{"type":"function","name":"FEE_ROUTER_ROLE","inputs":[],"outputs":[{"name":"","type":"bytes32","internalType":"bytes32"}],"stateMutability":"view"},{"type":"function","name":"PARAMS_ROLE","inputs":[],"outputs":[{"name":"","type":"bytes32","internalType":"bytes32"}],"stateMutability":"view"},{"type":"function","name":"PAUSER_ROLE","inputs":[],"outputs":[{"name":"","type":"bytes32","internalType":"bytes32"}],"stateMutability":"view"},{"type":"function","name":"REASON_DEPOSIT","inputs":[],"outputs":[{"name":"","type":"uint8","internalType":"uint8"}],"stateMutability":"view"},{"type":"function","name":"REASON_FEE","inputs":[],"outputs":[{"name":"","type":"uint8","internalType":"uint8"}],"stateMutability":"view"},{"type":"function","name":"REASON_WITHDRAW","inputs":[],"outputs":[{"name":"","type":"uint8","internalType":"uint8"}],"stateMutability":"view"},{"type":"function","name":"alphaWad","inputs":[],"outputs":[{"name":"","type":"uint256","internalType":"uint256"}],"stateMutability":"view"},{"type":"function","name":"betaWad","inputs":[],"outputs":[{"name":"","type":"uint256","internalType":"uint256"}],"stateMutability":"view"},{"type":"function","name":"cMaxWad","inputs":[],"outputs":[{"name":"","type":"uint256","internalType":"uint256"}],"stateMutability":"view"},{"type":"function","name":"cStarWad","inputs":[],"outputs":[{"name":"","type":"uint256","internalType":"uint256"}],"stateMutability":"view"},{"type":"function","name":"cumulativeFees","inputs":[],"outputs":[{"name":"","type":"uint256","internalType":"uint256"}],"stateMutability":"view"},{"type":"function","name":"currentEpochId","inputs":[],"outputs":[{"name":"","type":"uint256","internalType":"uint256"}],"stateMutability":"view"},{"type":"function","name":"deltaMaxFracWad","inputs":[],"outputs":[{"name":"","type":"uint256","internalType":"uint256"}],"stateMutability":"view"},{"type":"function","name":"deposit","inputs":[{"name":"amount","type":"uint256","internalType":"uint256"},{"name":"factionId","type":"uint256","internalType":"uint256"}],"outputs":[],"stateMutability":"nonpayable"},{"type":"function","name":"doub","inputs":[],"outputs":[{"name":"","type":"address","internalType":"contract Doubloon"}],"stateMutability":"view"},{"type":"function","name":"eWad","inputs":[],"outputs":[{"name":"","type":"uint256","internalType":"uint256"}],"stateMutability":"view"},{"type":"function","name":"epochDuration","inputs":[],"outputs":[{"name":"","type":"uint256","internalType":"uint256"}],"stateMutability":"view"},{"type":"function","name":"epochEnd","inputs":[],"outputs":[{"name":"","type":"uint256","internalType":"uint256"}],"stateMutability":"view"},{"type":"function","name":"epochStart","inputs":[],"outputs":[{"name":"","type":"uint256","internalType":"uint256"}],"stateMutability":"view"},{"type":"function","name":"eps","inputs":[],"outputs":[{"name":"","type":"uint256","internalType":"uint256"}],"stateMutability":"view"},{"type":"function","name":"finalizeEpoch","inputs":[],"outputs":[],"stateMutability":"nonpayable"},{"type":"function","name":"getRoleAdmin","inputs":[{"name":"role","type":"bytes32","internalType":"bytes32"}],"outputs":[{"name":"","type":"bytes32","internalType":"bytes32"}],"stateMutability":"view"},{"type":"function","name":"getRoleMember","inputs":[{"name":"role","type":"bytes32","internalType":"bytes32"},{"name":"index","type":"uint256","internalType":"uint256"}],"outputs":[{"name":"","type":"address","internalType":"address"}],"stateMutability":"view"},{"type":"function","name":"getRoleMemberCount","inputs":[{"name":"role","type":"bytes32","internalType":"bytes32"}],"outputs":[{"name":"","type":"uint256","internalType":"uint256"}],"stateMutability":"view"},{"type":"function","name":"getRoleMembers","inputs":[{"name":"role","type":"bytes32","internalType":"bytes32"}],"outputs":[{"name":"","type":"address[]","internalType":"address[]"}],"stateMutability":"view"},{"type":"function","name":"grantRole","inputs":[{"name":"role","type":"bytes32","internalType":"bytes32"},{"name":"account","type":"address","internalType":"address"}],"outputs":[],"stateMutability":"nonpayable"},{"type":"function","name":"hasRole","inputs":[{"name":"role","type":"bytes32","internalType":"bytes32"},{"name":"account","type":"address","internalType":"address"}],"outputs":[{"name":"","type":"bool","internalType":"bool"}],"stateMutability":"view"},{"type":"function","name":"lamWad","inputs":[],"outputs":[{"name":"","type":"uint256","internalType":"uint256"}],"stateMutability":"view"},{"type":"function","name":"mMaxWad","inputs":[],"outputs":[{"name":"","type":"uint256","internalType":"uint256"}],"stateMutability":"view"},{"type":"function","name":"mMinWad","inputs":[],"outputs":[{"name":"","type":"uint256","internalType":"uint256"}],"stateMutability":"view"},{"type":"function","name":"openFirstEpoch","inputs":[],"outputs":[],"stateMutability":"nonpayable"},{"type":"function","name":"pause","inputs":[],"outputs":[],"stateMutability":"nonpayable"},{"type":"function","name":"paused","inputs":[],"outputs":[{"name":"","type":"bool","internalType":"bool"}],"stateMutability":"view"},{"type":"function","name":"receiveFee","inputs":[{"name":"amount","type":"uint256","internalType":"uint256"}],"outputs":[],"stateMutability":"nonpayable"},{"type":"function","name":"renounceRole","inputs":[{"name":"role","type":"bytes32","internalType":"bytes32"},{"name":"callerConfirmation","type":"address","internalType":"address"}],"outputs":[],"stateMutability":"nonpayable"},{"type":"function","name":"reserveAsset","inputs":[],"outputs":[{"name":"","type":"address","internalType":"contract IERC20"}],"stateMutability":"view"},{"type":"function","name":"revokeRole","inputs":[{"name":"role","type":"bytes32","internalType":"bytes32"},{"name":"account","type":"address","internalType":"address"}],"outputs":[],"stateMutability":"nonpayable"},{"type":"function","name":"setAlphaWad","inputs":[{"name":"val","type":"uint256","internalType":"uint256"}],"outputs":[],"stateMutability":"nonpayable"},{"type":"function","name":"setBetaWad","inputs":[{"name":"val","type":"uint256","internalType":"uint256"}],"outputs":[],"stateMutability":"nonpayable"},{"type":"function","name":"setCStarWad","inputs":[{"name":"val","type":"uint256","internalType":"uint256"}],"outputs":[],"stateMutability":"nonpayable"},{"type":"function","name":"setDeltaMaxFracWad","inputs":[{"name":"val","type":"uint256","internalType":"uint256"}],"outputs":[],"stateMutability":"nonpayable"},{"type":"function","name":"setLamWad","inputs":[{"name":"val","type":"uint256","internalType":"uint256"}],"outputs":[],"stateMutability":"nonpayable"},{"type":"function","name":"setMBoundsWad","inputs":[{"name":"_mMin","type":"uint256","internalType":"uint256"},{"name":"_mMax","type":"uint256","internalType":"uint256"}],"outputs":[],"stateMutability":"nonpayable"},{"type":"function","name":"supportsInterface","inputs":[{"name":"interfaceId","type":"bytes4","internalType":"bytes4"}],"outputs":[{"name":"","type":"bool","internalType":"bool"}],"stateMutability":"view"},{"type":"function","name":"totalReserves","inputs":[],"outputs":[{"name":"","type":"uint256","internalType":"uint256"}],"stateMutability":"view"},{"type":"function","name":"unpause","inputs":[],"outputs":[],"stateMutability":"nonpayable"},{"type":"function","name":"withdraw","inputs":[{"name":"doubAmount","type":"uint256","internalType":"uint256"},{"name":"factionId","type":"uint256","internalType":"uint256"}],"outputs":[],"stateMutability":"nonpayable"},{"type":"event","name":"BurrowDeposited","inputs":[{"name":"user","type":"address","indexed":true,"internalType":"address"},{"name":"reserveAsset","type":"address","indexed":true,"internalType":"address"},{"name":"amount","type":"uint256","indexed":false,"internalType":"uint256"},{"name":"doubOut","type":"uint256","indexed":false,"internalType":"uint256"},{"name":"epochId","type":"uint256","indexed":true,"internalType":"uint256"},{"name":"factionId","type":"uint256","indexed":false,"internalType":"uint256"}],"anonymous":false},{"type":"event","name":"BurrowEpochOpened","inputs":[{"name":"epochId","type":"uint256","indexed":true,"internalType":"uint256"},{"name":"startTimestamp","type":"uint256","indexed":false,"internalType":"uint256"},{"name":"endTimestamp","type":"uint256","indexed":false,"internalType":"uint256"}],"anonymous":false},{"type":"event","name":"BurrowEpochReserveSnapshot","inputs":[{"name":"epochId","type":"uint256","indexed":true,"internalType":"uint256"},{"name":"reserveAsset","type":"address","indexed":true,"internalType":"address"},{"name":"balance","type":"uint256","indexed":false,"internalType":"uint256"}],"anonymous":false},{"type":"event","name":"BurrowFeeAccrued","inputs":[{"name":"asset","type":"address","indexed":true,"internalType":"address"},{"name":"amount","type":"uint256","indexed":false,"internalType":"uint256"},{"name":"cumulativeInAsset","type":"uint256","indexed":false,"internalType":"uint256"},{"name":"epochId","type":"uint256","indexed":true,"internalType":"uint256"}],"anonymous":false},{"type":"event","name":"BurrowHealthEpochFinalized","inputs":[{"name":"epochId","type":"uint256","indexed":true,"internalType":"uint256"},{"name":"finalizedAt","type":"uint256","indexed":false,"internalType":"uint256"},{"name":"reserveRatioWad","type":"uint256","indexed":false,"internalType":"uint256"},{"name":"doubTotalSupply","type":"uint256","indexed":false,"internalType":"uint256"},{"name":"repricingFactorWad","type":"uint256","indexed":false,"internalType":"uint256"},{"name":"backingPerDoubloonWad","type":"uint256","indexed":false,"internalType":"uint256"},{"name":"internalStateEWad","type":"uint256","indexed":false,"internalType":"uint256"}],"anonymous":false},{"type":"event","name":"BurrowRepricingApplied","inputs":[{"name":"epochId","type":"uint256","indexed":true,"internalType":"uint256"},{"name":"repricingFactorWad","type":"uint256","indexed":false,"internalType":"uint256"},{"name":"priorInternalPriceWad","type":"uint256","indexed":false,"internalType":"uint256"},{"name":"newInternalPriceWad","type":"uint256","indexed":false,"internalType":"uint256"}],"anonymous":false},{"type":"event","name":"BurrowReserveBalanceUpdated","inputs":[{"name":"reserveAsset","type":"address","indexed":true,"internalType":"address"},{"name":"balanceAfter","type":"uint256","indexed":false,"internalType":"uint256"},{"name":"delta","type":"int256","indexed":false,"internalType":"int256"},{"name":"reasonCode","type":"uint8","indexed":false,"internalType":"uint8"}],"anonymous":false},{"type":"event","name":"BurrowWithdrawn","inputs":[{"name":"user","type":"address","indexed":true,"internalType":"address"},{"name":"reserveAsset","type":"address","indexed":true,"internalType":"address"},{"name":"amount","type":"uint256","indexed":false,"internalType":"uint256"},{"name":"doubIn","type":"uint256","indexed":false,"internalType":"uint256"},{"name":"epochId","type":"uint256","indexed":true,"internalType":"uint256"},{"name":"factionId","type":"uint256","indexed":false,"internalType":"uint256"}],"anonymous":false},{"type":"event","name":"ParamsUpdated","inputs":[{"name":"actor","type":"address","indexed":true,"internalType":"address"},{"name":"paramName","type":"string","indexed":false,"internalType":"string"},{"name":"oldValue","type":"uint256","indexed":false,"internalType":"uint256"},{"name":"newValue","type":"uint256","indexed":false,"internalType":"uint256"}],"anonymous":false},{"type":"event","name":"Paused","inputs":[{"name":"account","type":"address","indexed":false,"internalType":"address"}],"anonymous":false},{"type":"event","name":"RoleAdminChanged","inputs":[{"name":"role","type":"bytes32","indexed":true,"internalType":"bytes32"},{"name":"previousAdminRole","type":"bytes32","indexed":true,"internalType":"bytes32"},{"name":"newAdminRole","type":"bytes32","indexed":true,"internalType":"bytes32"}],"anonymous":false},{"type":"event","name":"RoleGranted","inputs":[{"name":"role","type":"bytes32","indexed":true,"internalType":"bytes32"},{"name":"account","type":"address","indexed":true,"internalType":"address"},{"name":"sender","type":"address","indexed":true,"internalType":"address"}],"anonymous":false},{"type":"event","name":"RoleRevoked","inputs":[{"name":"role","type":"bytes32","indexed":true,"internalType":"bytes32"},{"name":"account","type":"address","indexed":true,"internalType":"address"},{"name":"sender","type":"address","indexed":true,"internalType":"address"}],"anonymous":false},{"type":"event","name":"Unpaused","inputs":[{"name":"account","type":"address","indexed":false,"internalType":"address"}],"anonymous":false},{"type":"error","name":"AccessControlBadConfirmation","inputs":[]},{"type":"error","name":"AccessControlUnauthorizedAccount","inputs":[{"name":"account","type":"address","internalType":"address"},{"name":"neededRole","type":"bytes32","internalType":"bytes32"}]},{"type":"error","name":"EnforcedPause","inputs":[]},{"type":"error","name":"ExpectedPause","inputs":[]},{"type":"error","name":"PRBMath_MulDiv18_Overflow","inputs":[{"name":"x","type":"uint256","internalType":"uint256"},{"name":"y","type":"uint256","internalType":"uint256"}]},{"type":"error","name":"PRBMath_MulDiv_Overflow","inputs":[{"name":"x","type":"uint256","internalType":"uint256"},{"name":"y","type":"uint256","internalType":"uint256"},{"name":"denominator","type":"uint256","internalType":"uint256"}]},{"type":"error","name":"PRBMath_SD59x18_Div_InputTooSmall","inputs":[]},{"type":"error","name":"PRBMath_SD59x18_Div_Overflow","inputs":[{"name":"x","type":"int256","internalType":"SD59x18"},{"name":"y","type":"int256","internalType":"SD59x18"}]},{"type":"error","name":"PRBMath_SD59x18_Exp2_InputTooBig","inputs":[{"name":"x","type":"int256","internalType":"SD59x18"}]},{"type":"error","name":"PRBMath_SD59x18_Exp_InputTooBig","inputs":[{"name":"x","type":"int256","internalType":"SD59x18"}]},{"type":"error","name":"PRBMath_SD59x18_Mul_InputTooSmall","inputs":[]},{"type":"error","name":"PRBMath_SD59x18_Mul_Overflow","inputs":[{"name":"x","type":"int256","internalType":"SD59x18"},{"name":"y","type":"int256","internalType":"SD59x18"}]},{"type":"error","name":"SafeERC20FailedOperation","inputs":[{"name":"token","type":"address","internalType":"address"}]}],"bytecode":{"object":"0x60c034620002ac57601f6200307538819003918201601f1916830191906001600160401b03831184841017620002b057816101a09285926040958652833981010312620002ac578151916001600160a01b0380841690818503620002ac576020928381015182811690818103620002ac57868301516060840151608085015160a086015160c08701519160e088015193610100890151956101208a0151976101408b0151996101806101608d01519c01519d8e9d8e169e8f03620002ac5715620002755715620002405781156200020a576200012f9c9d9e9f60805260a052600d55600355600455600555600655600755600855600955600a55600b55670de0b6b3a76400006010556200011381620002c4565b620001ee575b620001248162000334565b620001c457620003c2565b62000187575b8251612b459081620004d082396080518181816102650152818161042501528181610d5f015281816113480152611797015260a05181818161047a0152818161096801528181610a3a01526112c00152f35b6001620001bb927f539440820030c4994db4e31b6b800deafd503688728f932addfe7a410515c14c5f5252825f206200045c565b505f8062000135565b5f80516020620030358339815191525f5260018452620001e783865f206200045c565b50620003c2565b5f8052600184526200020383865f206200045c565b5062000119565b508d5162461bcd60e51b8152600481018e9052600e60248201526d0a4a87440f4cae4de40cae0dec6d60931b6044820152606490fd5b508d5162461bcd60e51b8152600481018e9052600d60248201526c292a1d103d32b937903237bab160991b6044820152606490fd5b8f8f606491519062461bcd60e51b82526004820152601060248201526f52543a207a65726f207265736572766560801b6044820152fd5b5f80fd5b634e487b7160e01b5f52604160045260245ffd5b6001600160a01b03165f8181525f8051602062003055833981519152602052604090205460ff166200032f575f8181525f805160206200305583398151915260205260408120805460ff191660011790553391905f80516020620030158339815191528180a4600190565b505f90565b6001600160a01b03165f8181527fdfa9f495e7315937efe540a19953c8ccace07b2a0d69b18761bf61f5beefedda60205260409020545f8051602062003035833981519152919060ff16620003bc57815f525f60205260405f20815f5260205260405f20600160ff1982541617905533915f80516020620030158339815191525f80a4600190565b50505f90565b6001600160a01b03165f8181527f797e0b86ff47a7852e6aa2fbaad2fe3f2db21364d644c39c926eba6085d49f3460205260409020547f539440820030c4994db4e31b6b800deafd503688728f932addfe7a410515c14c919060ff16620003bc57815f525f60205260405f20815f5260205260405f20600160ff1982541617905533915f80516020620030158339815191525f80a4600190565b6001810190825f528160205260405f2054155f14620004c857805468010000000000000000811015620002b05760018101808355811015620004b4578390825f5260205f20015554915f5260205260405f2055600190565b634e487b7160e01b5f52603260045260245ffd5b5050505f9056fe60806040818152600480361015610014575f80fd5b5f925f3560e01c90816301ffc9a714611882575080630969acb3146117155780630c9eb57d146116f757806315e5a1e5146116d95780631b300875146116be5780631c7959ab1461165e5780631e1be3fd14611640578063248a9ca3146116165780632f2ff15d146115c057806336568abe146115845780633f4ba83a1461151c57806341fe2eaf146114b5578063441a3e701461126d578063441dbc6d146112515780634bb6b58f146112325780634ec1f596146111d35780634fc62042146111985780634ff0876a146111795780635c975abb1461115557806368214b111461113657806371ff6714146111175780637d467e9d146110dc578063829c6703146110bd57806382ae9ef7146109f25780638456cb59146109975780638e9a6122146109535780638f840ddd146109345780639010d07c146108f457806390cf1af6146108d857806391d148541461089f57806397742401146107ce578063a217fddf146107b3578063a3246ad314610711578063a6ab5082146106b1578063b65efd0e14610692578063ca15c8731461066b578063cfe561be1461064c578063d0e52329146105ed578063d547741f146105b8578063db785d5514610599578063dddbffbd1461057a578063e2bbb158146103f4578063e63ab1e9146103b9578063eacdc5ff1461039a578063f663d2fe1461037b578063f7c1f83714610298578063f85cb5c8146102505763fe99e90714610230575f80fd5b3461024c578260031936011261024c5760209250549051908152f35b8280fd5b505034610294578160031936011261029457517f00000000000000000000000000000000000000000000000000000000000000006001600160a01b03168152602090f35b5080fd5b503461024c578260031936011261024c575f80525f602052815f20335f5260205260ff825f2054161561035f57600c541580610355575b1561032057507f6ba92b330c2bf5902f790665c8b55da68db43ac4c6e8681129cb6ea11674459260019182600c5542600e5561030d600d544261192a565b80600f558151904282526020820152a280f35b6020606492519162461bcd60e51b8352820152601060248201526f52543a2065706f63682065786973747360801b6044820152fd5b50600e54156102cf565b604491519063e2517d3f60e01b825233908201525f6024820152fd5b505034610294578160031936011261029457602090600a549051908152f35b505034610294578160031936011261029457602090600c549051908152f35b505034610294578160031936011261029457602090517f539440820030c4994db4e31b6b800deafd503688728f932addfe7a410515c14c8152f35b503461024c5761040336611914565b61040b611bd6565b610418600c54151561194b565b610423821515611986565b7f00000000000000000000000000000000000000000000000000000000000000009061045183303385611b13565b61045d8360115461192a565b60115561046c60105484611c97565b936001600160a01b039087907f00000000000000000000000000000000000000000000000000000000000000008316803b1561024c5788516340c10f1960e01b81523392810192835260208301899052918391839182908490829060400103925af1801561057057610558575b50507fab01ed320b9e96a22f5b1e4d3a7fc8d492689054e7387351149c889d8386055c921693847fc827ee5121aec9ec2c8684d67536962c920d4b5fe56b6e4d6f2ac28a42de96346060601154895190815287602082015260018a820152a2600c54955193845260208401526040830152339180606081015b0390a480f35b610561906119c4565b61056c57865f6104d9565b8680fd5b88513d84823e3d90fd5b5050346102945781600319360112610294576020906003549051908152f35b5050346102945781600319360112610294576020906005549051908152f35b5050346102945760016105e9916105e46105d1366118ee565b9390928387528660205286200154611af2565b611b9c565b5080f35b503461024c57602036600319011261024c573590610609611a1e565b81600954918051926060845260066060850152651b185b55d85960d21b608085015260208401528201525f80516020612af083398151915260a03392a260095580f35b5050346102945781600319360112610294576020906009549051908152f35b503461024c57602036600319011261024c5760209282913581526001845220549051908152f35b5050346102945781600319360112610294576020906007549051908152f35b503461024c57602036600319011261024c5735906106cd611a1e565b816006549180519260608452600760608501526618995d1855d85960ca1b608085015260208401528201525f80516020612af083398151915260a03392a260065580f35b503461024c57602090816003193601126107af573583526001808252828420835181548082529186528386208185019693949192879190855b81811061079c57505050826107609103836119ec565b8451948186019282875251809352850195925b8281106107805785870386f35b83516001600160a01b0316875295810195928101928401610773565b825484529284019291870191870161074a565b8380fd5b50503461029457816003193601126102945751908152602090f35b503461024c576107dd36611914565b9290916107e8611a1e565b8383101561086a57506007548151906060825260076060830152661b535a5b95d85960ca1b6080830152602082015282828201525f80516020612af0833981519152908160a03392a283600854928051936060855260076060860152661b53585e15d85960ca1b6080860152602085015283015260a03392a260075560085580f35b6020606492519162461bcd60e51b8352820152601060248201526f0a4a87440da9ad2dc407c7a40da9ac2f60831b6044820152fd5b50503461029457602091816108b3366118ee565b92908152808552209060018060a01b03165f52825260ff815f20541690519015158152f35b5050346102945781600319360112610294576020905160028152f35b503461024c578160031936011261024c5760209261091e9135815260018452826024359120611f01565b905491519160018060a01b039160031b1c168152f35b5050346102945781600319360112610294576020906011549051908152f35b505034610294578160031936011261029457517f00000000000000000000000000000000000000000000000000000000000000006001600160a01b03168152602090f35b50503461029457816003193601126102945760207f62e78cea01bee320cd4e420270b5ea74000d11b0c9f74754ebdbfc544b05a258916109d5611a97565b6109dd611bd6565b600160ff19600254161760025551338152a180f35b50903461024c578260031936011261024c57600c5491610a1383151561194b565b600f5442106110855781516318160ddd60e01b8152602091906001600160a01b03838284817f000000000000000000000000000000000000000000000000000000000000000085165afa91821561107b578792611048575b5060105482158015939061103f57601154610a9e60035491610a98600b54610a938787611c12565b61192a565b90611c97565b8180821091180218925b85549360055490610aca600654610ac56007549860085494611d3b565b611e41565b673782dace9d900000908181131561101c5750955b600160ff1b928784148015611015575b611005575f881215610ffc57610b06885f0361205e565b6001600160ff1b0398898211610fd8575f1997969594939291610b3991671bc16d674ec8000018891215610fd15761217b565b98670de0b6b3a763ffff19808b0160018c821316610fbe57670de0b6b3a76400009b8c8101928d84125f8312908015821691151617610faa578883148015610fa1575b610f8e57610ba591908e5f851215610f8657825f0301915b5f861215610f7d575f030190612a4e565b928311610f6057610bc093929118891215610f585790611e41565b808901908112600116610eae575f811315610f1e578b8f94938f93908f9391610be892611ee1565b948b15610ec15750505050600954610c0c87610c07600a549582611c12565b611d3b565b908082029281145f831216610eae578183051490151715610e9b578587610c34920592611c12565b808213610e93575b610c4581611a0e565b8212610e83575b508085019081125f8612908015821691151617610e70575f811315610e3a57927f476424d2159ae843d833615e61b543b8cb93f382b9ad46d8b1545307620a4d6d95928a8c7f7310a8377a8e5caa76c71b000af6096ceb6f941637fbefd1e86b28f23a950be68f60c09996838f92819e9b809b5b8115610e345750610cd18b82611c97565b995b8d15610e2e5750610cf6601154610a98610ced848d611c12565b600b549061192a565b9c5b15610e06577f751adf7a4d00809522445ee27b249b97f2f83039ea9cc03cc0595706f949a2f89150610d2c89601154611c97565b9a5b81601055610d5289519283928d846040919493926060820195825260208201520152565b0390a260115494519485527f00000000000000000000000000000000000000000000000000000000000000001693a38a51944286528a8601528a8501526060840152608083015260a0820152a260018401809411610df35750907f6ba92b330c2bf5902f790665c8b55da68db43ac4c6e8681129cb6ea1167445929183600c5542600e55610de2600d544261192a565b80600f55825191428352820152a280f35b601190634e487b7160e01b5f525260245ffd5b7f751adf7a4d00809522445ee27b249b97f2f83039ea9cc03cc0595706f949a2f8919a610d2e565b9c610cf8565b99610cd3565b895162461bcd60e51b81528089018a9052601060248201526f0427572726f774d6174683a20653c3d360841b6044820152606490fd5b601188634e487b7160e01b5f525260245ffd5b610e8d9150611a0e565b5f610c4c565b905080610c3c565b601189634e487b7160e01b5f525260245ffd5b60118b634e487b7160e01b5f525260245ffd5b839b9895507f476424d2159ae843d833615e61b543b8cb93f382b9ad46d8b1545307620a4d6d9a979450908996847f7310a8377a8e5caa76c71b000af6096ceb6f941637fbefd1e86b28f23a950be69360c09c969596809b610cc0565b8c5162461bcd60e51b8152808c018d905260146024820152730427572726f774d6174683a20696e6e65723c3d360641b6044820152606490fd5b5f0390611e41565b8f918e91604493519263d49c26b360e01b84528301526024820152fd5b50508390612a4e565b508391610b94565b50508f516309fe2b4560e41b81528e9150fd5b50888414610b7c565b5060118f634e487b7160e01b5f525260245ffd5b60118e634e487b7160e01b5f525260245ffd5b5f0361217b565b8b6044918f519163120b5b4360e01b8352820152671bc16d674ec800006024820152fd5b610b068861205e565b8b5163a6070c2560e01b81528a90fd5b505f610aef565b969050673782dace9d8fffff19808812611037575b50610adf565b96505f611031565b60035492610aa8565b9091508381813d8311611074575b61106081836119ec565b810103126110705751905f610a6b565b5f80fd5b503d611056565b85513d5f823e3d90fd5b6020606492519162461bcd60e51b8352820152601360248201527214950e88195c1bd8da081b9bdd08195b991959606a1b6044820152fd5b5050346102945781600319360112610294576020906012549051908152f35b505034610294578160031936011261029457602090517f5d3bdd7eea9960252dc1d23f8fa9375308dd97876505888d1cbb57525aa2c5e58152f35b505034610294578160031936011261029457602090600b549051908152f35b5050346102945781600319360112610294576020906008549051908152f35b50503461029457816003193601126102945760209060ff6002541690519015158152f35b505034610294578160031936011261029457602090600d549051908152f35b505034610294578160031936011261029457602090517fe20891be1a16db818e501c24137fd42fc26d5be8c46dc0feb086b4986b85321f8152f35b503461024c57602036600319011261024c578035916111f0611a1e565b8282549180519260608452600860608501526718d4dd185c95d85960c21b608085015260208401528201525f80516020612af083398151915260a03392a25580f35b505034610294578160031936011261029457602090600f549051908152f35b5050346102945781600319360112610294576020905160018152f35b50346110705761127c36611914565b611287929192611bd6565b611294600c54151561194b565b61129f831515611986565b6112ab60105484611c12565b916011548311611472576001600160a01b03907f00000000000000000000000000000000000000000000000000000000000000008216803b15611070578651632770a7eb60e21b8152338382019081526020810188905290915f9183919082908490829060400103925af1801561146857611455575b5060115484810390811161144257601155855163a9059cbb60e01b885233825260248590527f00000000000000000000000000000000000000000000000000000000000000009160208960448180875af160018a5114811615611423575b8289521561140e575050907f1bc9eb4b37fa35eef0d2465e2ae04c835a34a1e49df8fdb97b4a8b09f1c0a16192911693847fc827ee5121aec9ec2c8684d67536962c920d4b5fe56b6e4d6f2ac28a42de963460606011546113df88611a0e565b8a51918252602082015260028a820152a2600c5495519384526020840152604083015233918060608101610552565b83602493635274afe760e01b84521690820152fd5b600181151661143957833b15153d15161661137f565b823d8b823e3d90fd5b601182634e487b7160e01b5f525260245ffd5b6114609197506119c4565b5f955f611321565b87513d5f823e3d90fd5b606490602086519162461bcd60e51b8352820152601960248201527f52543a20696e73756666696369656e74207265736572766573000000000000006044820152fd5b50346110705760203660031901126110705735906114d1611a1e565b81600a549180519260608452600f60608501526e19195b1d1853585e119c9858d5d859608a1b608085015260208401528201525f80516020612af083398151915260a03392a2600a55005b509034611070575f36600319011261107057611536611a97565b6002549160ff831615611576577f5db9ee0a495bf2e6ff9c91a7834c1ba4fdd244a5e8aa4e537bd38aeae4b073aa6020838560ff191660025551338152a1005b9051638dfc202b60e01b8152fd5b50903461107057611594366118ee565b91336001600160a01b038416036115b1576115af8383611b9c565b005b5163334bd91960e11b81528390fd5b8234611070576115cf366118ee565b9091825f525f6020526115e76001825f200154611af2565b6115f18284611d53565b6115f757005b5f92835260016020529091206115af916001600160a01b031690611f2a565b50903461107057602036600319011261107057602091355f525f82526001815f2001549051908152f35b8234611070575f366003190112611070576020906010549051908152f35b503461107057602036600319011261107057359061167a611a1e565b8160055491805192606084526008606085015267185b1c1a1855d85960c21b608085015260208401528201525f80516020612af083398151915260a03392a2600555005b8234611070575f366003190112611070576020905160038152f35b8234611070575f36600319011261107057602090600e549051908152f35b8234611070575f366003190112611070576020906006549051908152f35b5090346110705760209182600319360112611070578035907f5d3bdd7eea9960252dc1d23f8fa9375308dd97876505888d1cbb57525aa2c5e5805f525f8552835f20335f52855260ff845f205416156118655750811561183357506060917f0906ec3f932bb5369007b6ed37073fe6f26295870fe07cf95ba3c3f4ddf08855917f00000000000000000000000000000000000000000000000000000000000000006117c282303384611b13565b6117ce8260115461192a565b806011557fc827ee5121aec9ec2c8684d67536962c920d4b5fe56b6e4d6f2ac28a42de96346117ff8460125461192a565b601281905585519283528883018590526003838701526001600160a01b03909316968792a2600c54958351928352820152a3005b825162461bcd60e51b8152908101849052600c60248201526b52543a207a65726f2066656560a01b6044820152606490fd5b6044925083519163e2517d3f60e01b835233908301526024820152fd5b823461107057602036600319011261107057359063ffffffff60e01b821680920361107057602091635a05180f60e01b81149081156118c3575b5015158152f35b637965db0b60e01b8114915081156118dd575b50836118bc565b6301ffc9a760e01b149050836118d6565b604090600319011261107057600435906024356001600160a01b03811681036110705790565b6040906003190112611070576004359060243590565b9190820180921161193757565b634e487b7160e01b5f52601160045260245ffd5b1561195257565b60405162461bcd60e51b815260206004820152600c60248201526b0a4a87440dcde40cae0dec6d60a31b6044820152606490fd5b1561198d57565b60405162461bcd60e51b815260206004820152600f60248201526e14950e881e995c9bc8185b5bdd5b9d608a1b6044820152606490fd5b67ffffffffffffffff81116119d857604052565b634e487b7160e01b5f52604160045260245ffd5b90601f8019910116810190811067ffffffffffffffff8211176119d857604052565b600160ff1b8114611937575f0390565b335f9081527fdfa9f495e7315937efe540a19953c8ccace07b2a0d69b18761bf61f5beefedda60205260409020547fe20891be1a16db818e501c24137fd42fc26d5be8c46dc0feb086b4986b85321f9060ff1615611a795750565b6044906040519063e2517d3f60e01b82523360048301526024820152fd5b335f9081527f797e0b86ff47a7852e6aa2fbaad2fe3f2db21364d644c39c926eba6085d49f3460205260409020547f539440820030c4994db4e31b6b800deafd503688728f932addfe7a410515c14c9060ff1615611a795750565b805f525f60205260405f20335f5260205260ff60405f20541615611a795750565b6040516323b872dd60e01b5f9081526001600160a01b03938416600452938316602452604494909452909160209060648180855af160015f5114811615611b7d575b836040525f60605215611b6757505050565b635274afe760e01b835216600482015260249150fd5b6001811516611b9357813b15153d151616611b55565b833d5f823e3d90fd5b611ba68282611dcf565b9182611bb157505090565b5f91825260016020526040909120611bd2916001600160a01b031690611f99565b5090565b60ff60025416611be257565b60405163d93c066560e01b8152600490fd5b8115611bfe570490565b634e487b7160e01b5f52601260045260245ffd5b905f1981830981830291828083109203918083039214611c8657670de0b6b3a76400009082821115611c74577faccb18165bd6fe31ae1cf318dc5b51eee0e1ba569b88cd74c1773b91fac10669940990828211900360ee1b910360121c170290565b634e487b715f5260116020526024601cfd5b5050670de0b6b3a764000091500490565b670de0b6b3a7640000915f198383099280830292838086109503948086039514611d2b5784831115611d135790829109815f038216809204600280826003021880830282030280830282030280830282030280830282030280830282030280920290030293600183805f03040190848311900302920304170290565b82634e487b715f52156003026011186020526024601cfd5b505090611d389250611bf4565b90565b81810392915f13801582851316918412161761193757565b90815f525f60205260405f209060018060a01b031690815f5260205260ff60405f205416155f14611dc957815f525f60205260405f20815f5260205260405f20600160ff1982541617905533917f2f8788117e7eff1d82e926ec794901d17c78024a50270940304540a733656f0d5f80a4600190565b50505f90565b90815f525f60205260405f209060018060a01b031690815f5260205260ff60405f2054165f14611dc957815f525f60205260405f20815f5260205260405f2060ff19815416905533917ff6391f5c32d9c69d2a47ea670b442974b53935d1edc7fd64eb21e047a839171b5f80a4600190565b600160ff1b818114908115611ed7575b50611ec5575f811215611ebc57611e76815f035b5f841215611eb557835f03906120fb565b916001600160ff1b038311611e97575f1991181315611e925790565b5f0390565b604492506040519163120b5b4360e01b835260048301526024820152fd5b83906120fb565b611e7681611e65565b60405163a6070c2560e01b8152600490fd5b905082145f611e51565b9190808310611efb5750808211611ef6575090565b905090565b91505090565b8054821015611f16575f5260205f2001905f90565b634e487b7160e01b5f52603260045260245ffd5b6001810190825f528160205260405f2054155f14611f92578054680100000000000000008110156119d857611f7f611f69826001879401855584611f01565b819391549060031b91821b915f19901b19161790565b905554915f5260205260405f2055600190565b5050505f90565b906001820191815f528260205260405f2054908115155f14612056575f19918083018181116119375782549084820191821161193757818103612021575b5050508054801561200d57820191611fef8383611f01565b909182549160031b1b19169055555f526020525f6040812055600190565b634e487b7160e01b5f52603160045260245ffd5b612041612031611f699386611f01565b90549060031b1c92839286611f01565b90555f528460205260405f20555f8080611fd7565b505050505f90565b671bc16d674ec8000091905f19838209838202918280831092039180830392146120ea57670de0b6b3a764000090818310156120cc57947faccb18165bd6fe31ae1cf318dc5b51eee0e1ba569b88cd74c1773b91fac1066994950990828211900360ee1b910360121c170290565b6044908660405191635173648d60e01b835260048301526024820152fd5b5050670de0b6b3a764000090049150565b9091905f19838209838202918280831092039180830392146120ea57670de0b6b3a764000090818310156120cc57947faccb18165bd6fe31ae1cf318dc5b51eee0e1ba569b88cd74c1773b91fac1066994950990828211900360ee1b910360121c170290565b8015611bfe576ec097ce7bc90715b34b9f10000000000590565b68023f2fa8f6da5b9d311981126121d157680736ea4425c11ac63081136121b957670de0b6b3a76400006714057b7ef767814f611d389202056121d6565b6024906040519063ca7ec0c560e01b82526004820152fd5b505f90565b5f8112156122035768033dd1780914b971141981126121d1576121fa905f036121d6565b611d3890612161565b680a688906bd8affffff8113612a3757670de0b6b3a764000080604092831b0590600160bf1b67ff000000000000008316612926575b66ff000000000000831661281e575b65ff0000000000831661271e575b64ff000000008316612626575b63ff0000008316612536575b62ff0000831661244e575b61ff00831661236e575b60ff8316612297575b02911c60bf031c90565b6080831661235c575b83831661234a575b60208316612338575b60108316612326575b60088316612314575b60048316612302575b600283166122f0575b600183161561228d576801000000000000000102831c61228d565b6801000000000000000102831c6122d5565b6801000000000000000302831c6122cc565b6801000000000000000602831c6122c3565b6801000000000000000b02831c6122ba565b6801000000000000001602831c6122b1565b6801000000000000002c02831c6122a8565b6801000000000000005902831c6122a0565b618000831661243c575b614000831661242a575b6120008316612418575b6110008316612406575b61080083166123f4575b61040083166123e2575b61020083166123d0575b61010083161561228457680100000000000000b102831c612284565b6801000000000000016302831c6123b4565b680100000000000002c602831c6123aa565b6801000000000000058c02831c6123a0565b68010000000000000b1702831c612396565b6801000000000000162e02831c61238c565b68010000000000002c5d02831c612382565b680100000000000058b902831c612378565b628000008316612524575b624000008316612512575b622000008316612500575b6210000083166124ee575b6208000083166124dc575b6204000083166124ca575b6202000083166124b8575b6201000083161561227a576801000000000000b17202831c61227a565b680100000000000162e402831c61249b565b6801000000000002c5c802831c612490565b68010000000000058b9102831c612485565b680100000000000b172102831c61247a565b68010000000000162e4302831c61246f565b680100000000002c5c8602831c612464565b6801000000000058b90c02831c612459565b63800000008316612614575b63400000008316612602575b632000000083166125f0575b631000000083166125de575b630800000083166125cc575b630400000083166125ba575b630200000083166125a8575b630100000083161561226f5768010000000000b1721802831c61226f565b6801000000000162e43002831c61258a565b68010000000002c5c86002831c61257e565b680100000000058b90c002831c612572565b6801000000000b17217f02831c612566565b680100000000162e42ff02831c61255a565b6801000000002c5c85fe02831c61254e565b68010000000058b90bfc02831c612542565b648000000000831661270c575b64400000000083166126fa575b64200000000083166126e8575b64100000000083166126d6575b64080000000083166126c4575b64040000000083166126b2575b64020000000083166126a0575b64010000000083161561226357680100000000b17217f802831c612263565b68010000000162e42ff102831c612681565b680100000002c5c85fe302831c612674565b6801000000058b90bfce02831c612667565b68010000000b17217fbb02831c61265a565b6801000000162e42fff002831c61264d565b68010000002c5c8601cc02831c612640565b680100000058b90c0b4902831c612633565b65800000000000831661280c575b6540000000000083166127fa575b6520000000000083166127e8575b6510000000000083166127d6575b6508000000000083166127c4575b6504000000000083166127b2575b6502000000000083166127a0575b65010000000000831615612256576801000000b17218355102831c612256565b680100000162e430e5a202831c612780565b6801000002c5c863b73f02831c612772565b68010000058b90cf1e6e02831c612764565b680100000b1721bcfc9a02831c612756565b68010000162e43f4f83102831c612748565b680100002c5c89d5ec6d02831c61273a565b6801000058b91b5bc9ae02831c61272c565b66800000000000008316612914575b66400000000000008316612902575b662000000000000083166128f0575b661000000000000083166128de575b660800000000000083166128cc575b660400000000000083166128ba575b660200000000000083166128a8575b66010000000000008316156122485768010000b17255775c0402831c612248565b6801000162e525ee054702831c612887565b68010002c5cc37da949202831c612878565b680100058ba01fb9f96d02831c612869565b6801000b175effdc76ba02831c61285a565b680100162f3904051fa102831c61284b565b6801002c605e2e8cec5002831c61283c565b68010058c86da1c09ea202831c61282d565b6780000000000000008316612a24575b6740000000000000008316612a12575b6720000000000000008316612a00575b67100000000000000083166129ee575b67080000000000000083166129dc575b67040000000000000083166129ca575b67020000000000000083166129b8575b67010000000000000083161561223957680100b1afa5abcbed6102831c612239565b68010163da9fb33356d802831c612996565b680102c9a3e778060ee702831c612986565b6801059b0d31585743ae02831c612976565b68010b5586cf9890f62a02831c612966565b6801172b83c7d517adce02831c612956565b6801306fe0a31b7152df02831c612946565b5068016a09e667f3bcc909607f1b612936565b60249060405190626c1a0560e31b82526004820152fd5b670de0b6b3a7640000915f198383099280830292838086109503948086039514611d2b5782851015612acc579082910960018219018216809204600280826003021880830282030280830282030280830282030280830282030280830282030280920290030293600183805f03040190848311900302920304170290565b8260649260405192630c740aef60e31b8452600484015260248301526044820152fdfe934e07c98cc5557987e9fc73bb3a72066be02e305e954120571862391b359e19a2646970667358221220c3eec3c3b7b2038c53655be5b3c624b7c80c874a05c0b1aac5852051886baa5964736f6c634300081800332f8788117e7eff1d82e926ec794901d17c78024a50270940304540a733656f0de20891be1a16db818e501c24137fd42fc26d5be8c46dc0feb086b4986b85321fad3228b676f7d3cd4284a5443f17f1962b36e491b30a40b2405849e597ba5fb5","linkReferences":{}},"methodIdentifiers":{"DEFAULT_ADMIN_ROLE()":"a217fddf","FEE_ROUTER_ROLE()":"7d467e9d","PARAMS_ROLE()":"4fc62042","PAUSER_ROLE()":"e63ab1e9","REASON_DEPOSIT()":"441dbc6d","REASON_FEE()":"1b300875","REASON_WITHDRAW()":"90cf1af6","alphaWad()":"db785d55","betaWad()":"0c9eb57d","cMaxWad()":"dddbffbd","cStarWad()":"fe99e907","cumulativeFees()":"829c6703","currentEpochId()":"eacdc5ff","deltaMaxFracWad()":"f663d2fe","deposit(uint256,uint256)":"e2bbb158","doub()":"8e9a6122","eWad()":"1e1be3fd","epochDuration()":"4ff0876a","epochEnd()":"4bb6b58f","epochStart()":"15e5a1e5","eps()":"71ff6714","finalizeEpoch()":"82ae9ef7","getRoleAdmin(bytes32)":"248a9ca3","getRoleMember(bytes32,uint256)":"9010d07c","getRoleMemberCount(bytes32)":"ca15c873","getRoleMembers(bytes32)":"a3246ad3","grantRole(bytes32,address)":"2f2ff15d","hasRole(bytes32,address)":"91d14854","lamWad()":"cfe561be","mMaxWad()":"68214b11","mMinWad()":"b65efd0e","openFirstEpoch()":"f7c1f837","pause()":"8456cb59","paused()":"5c975abb","receiveFee(uint256)":"0969acb3","renounceRole(bytes32,address)":"36568abe","reserveAsset()":"f85cb5c8","revokeRole(bytes32,address)":"d547741f","setAlphaWad(uint256)":"1c7959ab","setBetaWad(uint256)":"a6ab5082","setCStarWad(uint256)":"4ec1f596","setDeltaMaxFracWad(uint256)":"41fe2eaf","setLamWad(uint256)":"d0e52329","setMBoundsWad(uint256,uint256)":"97742401","supportsInterface(bytes4)":"01ffc9a7","totalReserves()":"8f840ddd","unpause()":"3f4ba83a","withdraw(uint256,uint256)":"441a3e70"},"id":82}