{"abi":[{"type":"constructor","inputs":[{"name":"feeBps_","type":"uint256","internalType":"uint256"}],"stateMutability":"nonpayable"},{"type":"function","name":"allowance","inputs":[{"name":"owner","type":"address","internalType":"address"},{"name":"spender","type":"address","internalType":"address"}],"outputs":[{"name":"","type":"uint256","internalType":"uint256"}],"stateMutability":"view"},{"type":"function","name":"approve","inputs":[{"name":"spender","type":"address","internalType":"address"},{"name":"value","type":"uint256","internalType":"uint256"}],"outputs":[{"name":"","type":"bool","internalType":"bool"}],"stateMutability":"nonpayable"},{"type":"function","name":"balanceOf","inputs":[{"name":"account","type":"address","internalType":"address"}],"outputs":[{"name":"","type":"uint256","internalType":"uint256"}],"stateMutability":"view"},{"type":"function","name":"decimals","inputs":[],"outputs":[{"name":"","type":"uint8","internalType":"uint8"}],"stateMutability":"view"},{"type":"function","name":"feeBps","inputs":[],"outputs":[{"name":"","type":"uint256","internalType":"uint256"}],"stateMutability":"view"},{"type":"function","name":"mint","inputs":[{"name":"to","type":"address","internalType":"address"},{"name":"amount","type":"uint256","internalType":"uint256"}],"outputs":[],"stateMutability":"nonpayable"},{"type":"function","name":"name","inputs":[],"outputs":[{"name":"","type":"string","internalType":"string"}],"stateMutability":"view"},{"type":"function","name":"symbol","inputs":[],"outputs":[{"name":"","type":"string","internalType":"string"}],"stateMutability":"view"},{"type":"function","name":"totalSupply","inputs":[],"outputs":[{"name":"","type":"uint256","internalType":"uint256"}],"stateMutability":"view"},{"type":"function","name":"transfer","inputs":[{"name":"to","type":"address","internalType":"address"},{"name":"value","type":"uint256","internalType":"uint256"}],"outputs":[{"name":"","type":"bool","internalType":"bool"}],"stateMutability":"nonpayable"},{"type":"function","name":"transferFrom","inputs":[{"name":"from","type":"address","internalType":"address"},{"name":"to","type":"address","internalType":"address"},{"name":"value","type":"uint256","internalType":"uint256"}],"outputs":[{"name":"","type":"bool","internalType":"bool"}],"stateMutability":"nonpayable"},{"type":"event","name":"Approval","inputs":[{"name":"owner","type":"address","indexed":true,"internalType":"address"},{"name":"spender","type":"address","indexed":true,"internalType":"address"},{"name":"value","type":"uint256","indexed":false,"internalType":"uint256"}],"anonymous":false},{"type":"event","name":"Transfer","inputs":[{"name":"from","type":"address","indexed":true,"internalType":"address"},{"name":"to","type":"address","indexed":true,"internalType":"address"},{"name":"value","type":"uint256","indexed":false,"internalType":"uint256"}],"anonymous":false},{"type":"error","name":"ERC20InsufficientAllowance","inputs":[{"name":"spender","type":"address","internalType":"address"},{"name":"allowance","type":"uint256","internalType":"uint256"},{"name":"needed","type":"uint256","internalType":"uint256"}]},{"type":"error","name":"ERC20InsufficientBalance","inputs":[{"name":"sender","type":"address","internalType":"address"},{"name":"balance","type":"uint256","internalType":"uint256"},{"name":"needed","type":"uint256","internalType":"uint256"}]},{"type":"error","name":"ERC20InvalidApprover","inputs":[{"name":"approver","type":"address","internalType":"address"}]},{"type":"error","name":"ERC20InvalidReceiver","inputs":[{"name":"receiver","type":"address","internalType":"address"}]},{"type":"error","name":"ERC20InvalidSender","inputs":[{"name":"sender","type":"address","internalType":"address"}]},{"type":"error","name":"ERC20InvalidSpender","inputs":[{"name":"spender","type":"address","internalType":"address"}]}],"bytecode":{"object":"0x60a0346200035e576001600160401b0390601f90601f1962000ca93881900384810183168401868111858210176200026d578492829160405283396020938491810103126200035e5751936200005462000362565b9360058552642332b2a7b760d91b848601526200007062000362565b946002865261464f60f01b858701528051918383116200026d5760039283546001938482811c9216801562000353575b898310146200033f578184849311620002ec575b5088908483116001146200028d575f9262000281575b50505f1982861b1c191690831b1783555b86519384116200026d5760049687548381811c9116801562000262575b888210146200024f5782811162000207575b5086918511600114620001a257849550908492915f9562000196575b50501b925f19911b1c19161782555b612710831015620001645782608052604051610926908162000383823960805181818161032e01526106d60152f35b60405162461bcd60e51b815291820152600c60248201526b0cccaca40e8dede40d0d2ced60a31b604482015260649150fd5b015193505f8062000126565b929194841692875f5284875f20945f5b8989838310620001ef5750505010620001d5575b50505050811b01825562000135565b01519060f8845f19921b161c191690555f808080620001c6565b868601518955909701969485019488935001620001b2565b885f52875f208380880160051c8201928a891062000245575b0160051c019084905b828110620002395750506200010a565b5f815501849062000229565b9250819262000220565b602289634e487b7160e01b5f525260245ffd5b90607f1690620000f8565b634e487b7160e01b5f52604160045260245ffd5b015190505f80620000ca565b908886941691875f528a5f20925f5b8c828210620002d55750508411620002bd575b505050811b018355620000db565b01515f1983881b60f8161c191690555f8080620002af565b83850151865589979095019493840193016200029c565b909150855f52885f208480850160051c8201928b861062000335575b918791869594930160051c01915b82811062000326575050620000b4565b5f815585945087910162000316565b9250819262000308565b634e487b7160e01b5f52602260045260245ffd5b91607f1691620000a0565b5f80fd5b60408051919082016001600160401b038111838210176200026d5760405256fe6080604090808252600480361015610015575f80fd5b5f3560e01c91826306fdde031461050957508163095ea7b31461046157816318160ddd1461044357816323b872dd1461035157816324a9d85314610317578163313ce567146102fc57816340c10f191461026a57816370a082311461023457816395d89b411461011557508063a9059cbb146100e55763dd62ed3e14610099575f80fd5b346100e157806003193601126100e1576020906100b4610628565b6100bc61063e565b9060018060a01b038091165f5260018452825f2091165f528252805f20549051908152f35b5f80fd5b50346100e157806003193601126100e15760209061010e610104610628565b6024359033610654565b5160018152f35b82346100e1575f3660031901126100e1578051905f835460018160011c906001831692831561022a575b6020938484108114610217578388529081156101fb57506001146101a7575b505050829003601f01601f191682019267ffffffffffffffff84118385101761019457508291826101909252826105e1565b0390f35b604190634e487b7160e01b5f525260245ffd5b5f878152929350837f8a35acfbc15ff81a39ae7d344fd709f28e8600b4aa8c65c6b64bfe7fe36bd19b5b8385106101e7575050505083010184808061015e565b8054888601830152930192849082016101d1565b60ff1916878501525050151560051b840101905084808061015e565b602289634e487b7160e01b5f525260245ffd5b91607f169161013f565b82346100e15760203660031901126100e1576020906001600160a01b03610259610628565b165f525f8252805f20549051908152f35b82346100e157806003193601126100e157610283610628565b6001600160a01b031691602435919083156102e757600254908382018092116102d457505f925f805160206108d18339815191529260209260025585855284835280852082815401905551908152a3005b601190634e487b7160e01b5f525260245ffd5b5f602492519163ec442f0560e01b8352820152fd5b82346100e1575f3660031901126100e1576020905160128152f35b82346100e1575f3660031901126100e157602090517f00000000000000000000000000000000000000000000000000000000000000008152f35b9050346100e15760603660031901126100e15761036c610628565b61037461063e565b906044359260018060a01b038216805f526001602052855f20335f52602052855f2054915f1983106103af575b60208761010e888888610654565b8583106104175781156104015733156103eb57505f9081526001602090815286822033835281529086902091859003909155829061010e6103a1565b6024905f885191634a1406b160e11b8352820152fd5b6024905f88519163e602df0560e01b8352820152fd5b8651637dc7a0d960e11b8152339181019182526020820193909352604081018690528291506060010390fd5b82346100e1575f3660031901126100e1576020906002549051908152f35b82346100e157806003193601126100e15761047a610628565b6024359033156104f3576001600160a01b03169081156104dd5760209350335f5260018452825f20825f52845280835f205582519081527f8c5be1e5ebec7d5bd14f71427d1e84f3dd0314c0f7b2291e5b200ac8c7c3b925843392a35160018152f35b8251634a1406b160e11b81525f81860152602490fd5b825163e602df0560e01b81525f81860152602490fd5b83346100e1575f3660031901126100e1575f60035460018160011c90600183169283156105d7575b6020938484108114610217578388529081156101fb575060011461058157505050829003601f01601f191682019267ffffffffffffffff84118385101761019457508291826101909252826105e1565b60035f908152929350837fc2575a0e9e593c00f959f8c92f12db2869c3395a3b0502d05e2516446f71f85b5b8385106105c3575050505083010184808061015e565b8054888601830152930192849082016105ad565b91607f1691610531565b602080825282518183018190529093925f5b82811061061457505060409293505f838284010152601f8019910116010190565b8181018601518482016040015285016105f3565b600435906001600160a01b03821682036100e157565b602435906001600160a01b03821682036100e157565b91906001600160a01b03808416156106905781161561067857610676926106a8565b565b60405163ec442f0560e01b81525f6004820152602490fd5b604051634b637e8f60e11b81525f6004820152602490fd5b6001600160a01b0381811690811590811590816107f1575b506106d25750509061067692916107fd565b90927f000000000000000000000000000000000000000000000000000000000000000080860290868204148615171561076e5761271090049485810390811161076e5761071f91846107fd565b8361072b575b50505050565b1561078257506002549180830180931161076e5760205f805160206108d1833981519152915f946002555b8060025403600255604051908152a35f808080610725565b634e487b7160e01b5f52601160045260245ffd5b9291815f525f60205260405f2054938185106107bf57506020815f805160206108d1833981519152925f9596858752868452036040862055610756565b60405163391434e360e21b81526001600160a01b03919091166004820152602481018590526044810191909152606490fd5b9050841615155f6106c0565b6001600160a01b03808216929091836108645750906002549084820180921161076e575f805160206108d1833981519152926020926002555b16938461084f5780600254036002555b604051908152a3565b845f525f825260405f20818154019055610846565b835f525f60205260405f20549085821061089e575091602091855f805160206108d183398151915294865f525f85520360405f2055610836565b60405163391434e360e21b81526001600160a01b03919091166004820152602481019190915260448101859052606490fdfeddf252ad1be2c89b69c2b068fc378daa952ba7f163c4a11628f55a4df523b3efa26469706673582212200b9168f696bc207f20e3f21ed6da60e3cde03e1e21fbf0ab53dd4310162c6a8e64736f6c63430008180033","linkReferences":{}},"methodIdentifiers":{"allowance(address,address)":"dd62ed3e","approve(address,uint256)":"095ea7b3","balanceOf(address)":"70a08231","decimals()":"313ce567","feeBps()":"24a9d853","mint(address,uint256)":"40c10f19","name()":"06fdde03","symbol()":"95d89b41","totalSupply()":"18160ddd","transfer(address,uint256)":"a9059cbb","transferFrom(address,address,uint256)":"23b872dd"},"id":115}