{"abi":[{"type":"constructor","inputs":[{"name":"admin","type":"address","internalType":"address"}],"stateMutability":"nonpayable"},{"type":"function","name":"DEFAULT_ADMIN_ROLE","inputs":[],"outputs":[{"name":"","type":"bytes32","internalType":"bytes32"}],"stateMutability":"view"},{"type":"function","name":"DISTRIBUTOR_ROLE","inputs":[],"outputs":[{"name":"","type":"bytes32","internalType":"bytes32"}],"stateMutability":"view"},{"type":"function","name":"getRoleAdmin","inputs":[{"name":"role","type":"bytes32","internalType":"bytes32"}],"outputs":[{"name":"","type":"bytes32","internalType":"bytes32"}],"stateMutability":"view"},{"type":"function","name":"getRoleMember","inputs":[{"name":"role","type":"bytes32","internalType":"bytes32"},{"name":"index","type":"uint256","internalType":"uint256"}],"outputs":[{"name":"","type":"address","internalType":"address"}],"stateMutability":"view"},{"type":"function","name":"getRoleMemberCount","inputs":[{"name":"role","type":"bytes32","internalType":"bytes32"}],"outputs":[{"name":"","type":"uint256","internalType":"uint256"}],"stateMutability":"view"},{"type":"function","name":"getRoleMembers","inputs":[{"name":"role","type":"bytes32","internalType":"bytes32"}],"outputs":[{"name":"","type":"address[]","internalType":"address[]"}],"stateMutability":"view"},{"type":"function","name":"grantRole","inputs":[{"name":"role","type":"bytes32","internalType":"bytes32"},{"name":"account","type":"address","internalType":"address"}],"outputs":[],"stateMutability":"nonpayable"},{"type":"function","name":"hasRole","inputs":[{"name":"role","type":"bytes32","internalType":"bytes32"},{"name":"account","type":"address","internalType":"address"}],"outputs":[{"name":"","type":"bool","internalType":"bool"}],"stateMutability":"view"},{"type":"function","name":"payPrize","inputs":[{"name":"token","type":"address","internalType":"contract IERC20"},{"name":"winner","type":"address","internalType":"address"},{"name":"amount","type":"uint256","internalType":"uint256"},{"name":"category","type":"uint8","internalType":"uint8"},{"name":"placement","type":"uint8","internalType":"uint8"}],"outputs":[],"stateMutability":"nonpayable"},{"type":"function","name":"renounceRole","inputs":[{"name":"role","type":"bytes32","internalType":"bytes32"},{"name":"callerConfirmation","type":"address","internalType":"address"}],"outputs":[],"stateMutability":"nonpayable"},{"type":"function","name":"revokeRole","inputs":[{"name":"role","type":"bytes32","internalType":"bytes32"},{"name":"account","type":"address","internalType":"address"}],"outputs":[],"stateMutability":"nonpayable"},{"type":"function","name":"supportsInterface","inputs":[{"name":"interfaceId","type":"bytes4","internalType":"bytes4"}],"outputs":[{"name":"","type":"bool","internalType":"bool"}],"stateMutability":"view"},{"type":"event","name":"PrizePaid","inputs":[{"name":"winner","type":"address","indexed":true,"internalType":"address"},{"name":"token","type":"address","indexed":true,"internalType":"address"},{"name":"amount","type":"uint256","indexed":false,"internalType":"uint256"},{"name":"category","type":"uint8","indexed":false,"internalType":"uint8"},{"name":"placement","type":"uint8","indexed":false,"internalType":"uint8"}],"anonymous":false},{"type":"event","name":"RoleAdminChanged","inputs":[{"name":"role","type":"bytes32","indexed":true,"internalType":"bytes32"},{"name":"previousAdminRole","type":"bytes32","indexed":true,"internalType":"bytes32"},{"name":"newAdminRole","type":"bytes32","indexed":true,"internalType":"bytes32"}],"anonymous":false},{"type":"event","name":"RoleGranted","inputs":[{"name":"role","type":"bytes32","indexed":true,"internalType":"bytes32"},{"name":"account","type":"address","indexed":true,"internalType":"address"},{"name":"sender","type":"address","indexed":true,"internalType":"address"}],"anonymous":false},{"type":"event","name":"RoleRevoked","inputs":[{"name":"role","type":"bytes32","indexed":true,"internalType":"bytes32"},{"name":"account","type":"address","indexed":true,"internalType":"address"},{"name":"sender","type":"address","indexed":true,"internalType":"address"}],"anonymous":false},{"type":"error","name":"AccessControlBadConfirmation","inputs":[]},{"type":"error","name":"AccessControlUnauthorizedAccount","inputs":[{"name":"account","type":"address","internalType":"address"},{"name":"neededRole","type":"bytes32","internalType":"bytes32"}]},{"type":"error","name":"SafeERC20FailedOperation","inputs":[{"name":"token","type":"address","internalType":"address"}]}],"bytecode":{"object":"0x6080346100a757601f610a8d38819003918201601f19168301916001600160401b038311848410176100ab578084926020946040528339810103126100a757516001600160a01b038116908181036100a75761005a906100bf565b61006e575b6040516108be90816101af8239f35b5f805260016020526100a0907fa6eef7e35abe7026729641147f7915573c7e97b47efa546f5f6e3230263bcb4961013e565b505f61005f565b5f80fd5b634e487b7160e01b5f52604160045260245ffd5b6001600160a01b03165f8181525f80516020610a6d833981519152602052604090205460ff16610139575f8181525f80516020610a6d83398151915260205260408120805460ff191660011790553391907f2f8788117e7eff1d82e926ec794901d17c78024a50270940304540a733656f0d8180a4600190565b505f90565b6001810190825f528160205260405f2054155f146101a7578054680100000000000000008110156100ab5760018101808355811015610193578390825f5260205f20015554915f5260205260405f2055600190565b634e487b7160e01b5f52603260045260245ffd5b5050505f9056fe6080604090808252600480361015610015575f80fd5b5f3560e01c91826301ffc9a71461051a57508163248a9ca3146104f15781632f2ff15d1461048f57816336568abe1461044b5781639010d07c1461040c57816391d14854146103c9578163a217fddf146103af578163a3246ad3146102dc578163b34c62a314610143578163ca15c8731461011c578163d547741f146100e1575063f0bd87cc146100a4575f80fd5b346100dd575f3660031901126100dd57602090517ffbd454f36a7e1a388bd6fc3ab10d434aa4578f811acbbcf33afb1c697486313c8152f35b5f80fd5b82346100dd57806003193601126100dd5761011a91356101156001610104610586565b93835f525f6020525f20015461059c565b6105db565b005b82346100dd5760203660031901126100dd57602091355f5260018252805f20549051908152f35b9050346100dd5760a03660031901126100dd5780356001600160a01b03818116938483036100dd57610173610586565b91604435936064359160ff83168093036100dd576084359460ff86168096036100dd577ffbd454f36a7e1a388bd6fc3ab10d434aa4578f811acbbcf33afb1c697486313c805f525f602052855f20335f5260205260ff865f205416156102be57501695861561027b5783519163a9059cbb60e01b5f528782528660245260205f60448180855af19060015f511482161561025c575b5082855215610248575050815193845260208401528201527fe17d7bd811351c3fa7b201400d8eaf38443dacbe917591ed0166f62fba4f9a8490606090a3005b635274afe760e01b82528101879052602490fd5b6001821516610272573b15153d1516165f610208565b833d5f823e3d90fd5b606490602085519162461bcd60e51b8352820152601760248201527f5072697a655661756c743a207a65726f2077696e6e65720000000000000000006044820152fd5b855163e2517d3f60e01b815233818b01526024810191909152604490fd5b9050346100dd576020806003193601126100dd5781355f5260019260018252805f2091815191818381865491828152019081965f52825f2090895f5b82811061039a5750505050849003601f01601f1916840195905067ffffffffffffffff8611848710176103875750848152818552915184820181905291840192849286925f5b82811061036b5785870386f35b83516001600160a01b031687529581019592810192840161035e565b604190634e487b7160e01b5f525260245ffd5b83548552879590940193928101928101610318565b82346100dd575f3660031901126100dd57602090515f8152f35b82346100dd57806003193601126100dd576020916103e5610586565b90355f525f8352815f209060018060a01b03165f52825260ff815f20541690519015158152f35b82346100dd57806003193601126100dd57602091355f5260018252610435602435825f20610703565b905491519160018060a01b039160031b1c168152f35b82346100dd57806003193601126100dd57610464610586565b90336001600160a01b03831603610480575061011a91356105db565b5163334bd91960e11b81529050fd5b9050346100dd57816003193601126100dd5735906104ab610586565b90825f525f6020526104c26001825f20015461059c565b6104cc8284610615565b6104d257005b5f928352600160205290912061011a916001600160a01b03169061072c565b82346100dd5760203660031901126100dd57602091355f525f82526001815f2001549051908152f35b90346100dd5760203660031901126100dd57359063ffffffff60e01b82168092036100dd57602091635a05180f60e01b811490811561055b575b5015158152f35b637965db0b60e01b811491508115610575575b5083610554565b6301ffc9a760e01b1490508361056e565b602435906001600160a01b03821682036100dd57565b805f525f60205260405f20335f5260205260ff60405f205416156105bd5750565b6044906040519063e2517d3f60e01b82523360048301526024820152fd5b6105e58282610691565b91826105f057505090565b5f91825260016020526040909120610611916001600160a01b0316906107af565b5090565b90815f525f60205260405f209060018060a01b031690815f5260205260ff60405f205416155f1461068b57815f525f60205260405f20815f5260205260405f20600160ff1982541617905533917f2f8788117e7eff1d82e926ec794901d17c78024a50270940304540a733656f0d5f80a4600190565b50505f90565b90815f525f60205260405f209060018060a01b031690815f5260205260ff60405f2054165f1461068b57815f525f60205260405f20815f5260205260405f2060ff19815416905533917ff6391f5c32d9c69d2a47ea670b442974b53935d1edc7fd64eb21e047a839171b5f80a4600190565b8054821015610718575f5260205f2001905f90565b634e487b7160e01b5f52603260045260245ffd5b6001810190825f528160205260405f2054155f146107a8578054680100000000000000008110156107945761078161076b826001879401855584610703565b819391549060031b91821b915f19901b19161790565b905554915f5260205260405f2055600190565b634e487b7160e01b5f52604160045260245ffd5b5050505f90565b906001820191815f528260205260405f2054908115155f14610880575f199180830181811161086c5782549084820191821161086c57818103610837575b50505080548015610823578201916108058383610703565b909182549160031b1b19169055555f526020525f6040812055600190565b634e487b7160e01b5f52603160045260245ffd5b61085761084761076b9386610703565b90549060031b1c92839286610703565b90555f528460205260405f20555f80806107ed565b634e487b7160e01b5f52601160045260245ffd5b505050505f9056fea264697066735822122069b3a823a2bc2987cf622a1d7424d19a7e94a3d471d410986e8b9ad27ddf13ce64736f6c63430008180033ad3228b676f7d3cd4284a5443f17f1962b36e491b30a40b2405849e597ba5fb5","linkReferences":{}},"methodIdentifiers":{"DEFAULT_ADMIN_ROLE()":"a217fddf","DISTRIBUTOR_ROLE()":"f0bd87cc","getRoleAdmin(bytes32)":"248a9ca3","getRoleMember(bytes32,uint256)":"9010d07c","getRoleMemberCount(bytes32)":"ca15c873","getRoleMembers(bytes32)":"a3246ad3","grantRole(bytes32,address)":"2f2ff15d","hasRole(bytes32,address)":"91d14854","payPrize(address,address,uint256,uint8,uint8)":"b34c62a3","renounceRole(bytes32,address)":"36568abe","revokeRole(bytes32,address)":"d547741f","supportsInterface(bytes4)":"01ffc9a7"},"id":91}